{"abi":[{"type":"constructor","inputs":[{"name":"_initialSuperAdmin","type":"address","internalType":"address"}],"stateMutability":"nonpayable"},{"type":"function","name":"addSuperAdmin","inputs":[{"name":"admin","type":"address","internalType":"address"}],"outputs":[],"stateMutability":"nonpayable"},{"type":"function","name":"changeProposals","inputs":[{"name":"","type":"uint256","internalType":"uint256"}],"outputs":[{"name":"spaceId","type":"uint256","internalType":"uint256"},{"name":"title","type":"string","internalType":"string"},{"name":"metadataURI","type":"string","internalType":"string"},{"name":"status","type":"uint8","internalType":"enum VoteChainRegistry.ProposalStatus"},{"name":"proposer","type":"address","internalType":"address"}],"stateMutability":"view"},{"type":"function","name":"createElectionForAdmin","inputs":[{"name":"spaceAdmin","type":"address","internalType":"address"},{"name":"title","type":"string","internalType":"string"},{"name":"metadataURI","type":"string","internalType":"string"},{"name":"candidateCount","type":"uint256","internalType":"uint256"}],"outputs":[{"name":"proposalId","type":"uint256","internalType":"uint256"},{"name":"spaceId","type":"uint256","internalType":"uint256"},{"name":"spaceAddress","type":"address","internalType":"address"}],"stateMutability":"nonpayable"},{"type":"function","name":"createElectionFromProposal","inputs":[{"name":"proposalId","type":"uint256","internalType":"uint256"}],"outputs":[{"name":"spaceId","type":"uint256","internalType":"uint256"},{"name":"spaceAddress","type":"address","internalType":"address"}],"stateMutability":"nonpayable"},{"type":"function","name":"isPlatformAdmin","inputs":[{"name":"","type":"address","internalType":"address"}],"outputs":[{"name":"","type":"bool","internalType":"bool"}],"stateMutability":"view"},{"type":"function","name":"isSuperAdmin","inputs":[{"name":"account","type":"address","internalType":"address"}],"outputs":[{"name":"","type":"bool","internalType":"bool"}],"stateMutability":"view"},{"type":"function","name":"nextChangeProposalId","inputs":[],"outputs":[{"name":"","type":"uint256","internalType":"uint256"}],"stateMutability":"view"},{"type":"function","name":"nextProposalId","inputs":[],"outputs":[{"name":"","type":"uint256","internalType":"uint256"}],"stateMutability":"view"},{"type":"function","name":"nextSpaceId","inputs":[],"outputs":[{"name":"","type":"uint256","internalType":"uint256"}],"stateMutability":"view"},{"type":"function","name":"proposals","inputs":[{"name":"","type":"uint256","internalType":"uint256"}],"outputs":[{"name":"proposer","type":"address","internalType":"address"},{"name":"candidateCount","type":"uint256","internalType":"uint256"},{"name":"status","type":"uint8","internalType":"enum VoteChainRegistry.ProposalStatus"},{"name":"title","type":"string","internalType":"string"},{"name":"metadataURI","type":"string","internalType":"string"},{"name":"reviewer","type":"address","internalType":"address"},{"name":"reviewedAt","type":"uint256","internalType":"uint256"}],"stateMutability":"view"},{"type":"function","name":"proposeSpaceUpdate","inputs":[{"name":"spaceId","type":"uint256","internalType":"uint256"},{"name":"title","type":"string","internalType":"string"},{"name":"metadataURI","type":"string","internalType":"string"}],"outputs":[{"name":"changeId","type":"uint256","internalType":"uint256"}],"stateMutability":"nonpayable"},{"type":"function","name":"removeSuperAdmin","inputs":[{"name":"admin","type":"address","internalType":"address"}],"outputs":[],"stateMutability":"nonpayable"},{"type":"function","name":"reviewProposal","inputs":[{"name":"proposalId","type":"uint256","internalType":"uint256"},{"name":"approve","type":"bool","internalType":"bool"}],"outputs":[],"stateMutability":"nonpayable"},{"type":"function","name":"reviewSpaceUpdate","inputs":[{"name":"changeId","type":"uint256","internalType":"uint256"},{"name":"approve","type":"bool","internalType":"bool"}],"outputs":[],"stateMutability":"nonpayable"},{"type":"function","name":"setAdmin","inputs":[{"name":"admin","type":"address","internalType":"address"},{"name":"isActive","type":"bool","internalType":"bool"}],"outputs":[],"stateMutability":"nonpayable"},{"type":"function","name":"spaceById","inputs":[{"name":"","type":"uint256","internalType":"uint256"}],"outputs":[{"name":"","type":"address","internalType":"address"}],"stateMutability":"view"},{"type":"function","name":"submitProposal","inputs":[{"name":"title","type":"string","internalType":"string"},{"name":"metadataURI","type":"string","internalType":"string"},{"name":"candidateCount","type":"uint256","internalType":"uint256"}],"outputs":[{"name":"proposalId","type":"uint256","internalType":"uint256"}],"stateMutability":"nonpayable"},{"type":"function","name":"superAdmin","inputs":[],"outputs":[{"name":"","type":"address","internalType":"address"}],"stateMutability":"view"},{"type":"function","name":"superAdmins","inputs":[{"name":"","type":"address","internalType":"address"}],"outputs":[{"name":"","type":"bool","internalType":"bool"}],"stateMutability":"view"},{"type":"function","name":"suspendSpace","inputs":[{"name":"spaceId","type":"uint256","internalType":"uint256"},{"name":"reasonCode","type":"string","internalType":"string"}],"outputs":[],"stateMutability":"nonpayable"},{"type":"function","name":"terminateSpace","inputs":[{"name":"spaceId","type":"uint256","internalType":"uint256"},{"name":"reasonCode","type":"string","internalType":"string"}],"outputs":[],"stateMutability":"nonpayable"},{"type":"function","name":"unsuspendSpace","inputs":[{"name":"spaceId","type":"uint256","internalType":"uint256"},{"name":"reasonCode","type":"string","internalType":"string"}],"outputs":[],"stateMutability":"nonpayable"},{"type":"event","name":"AdminUpserted","inputs":[{"name":"admin","type":"address","indexed":true,"internalType":"address"},{"name":"isActive","type":"bool","indexed":false,"internalType":"bool"}],"anonymous":false},{"type":"event","name":"ChangeProposalReviewed","inputs":[{"name":"changeId","type":"uint256","indexed":true,"internalType":"uint256"},{"name":"decision","type":"uint8","indexed":true,"internalType":"enum VoteChainRegistry.ProposalStatus"},{"name":"reviewer","type":"address","indexed":true,"internalType":"address"}],"anonymous":false},{"type":"event","name":"ChangeProposalSubmitted","inputs":[{"name":"changeId","type":"uint256","indexed":true,"internalType":"uint256"},{"name":"spaceId","type":"uint256","indexed":true,"internalType":"uint256"},{"name":"proposer","type":"address","indexed":false,"internalType":"address"}],"anonymous":false},{"type":"event","name":"ElectionSpaceCreated","inputs":[{"name":"spaceId","type":"uint256","indexed":true,"internalType":"uint256"},{"name":"space","type":"address","indexed":true,"internalType":"address"},{"name":"proposalId","type":"uint256","indexed":true,"internalType":"uint256"},{"name":"owner","type":"address","indexed":false,"internalType":"address"},{"name":"candidateCount","type":"uint256","indexed":false,"internalType":"uint256"}],"anonymous":false},{"type":"event","name":"ProposalReviewed","inputs":[{"name":"proposalId","type":"uint256","indexed":true,"internalType":"uint256"},{"name":"decision","type":"uint8","indexed":true,"internalType":"enum VoteChainRegistry.ProposalStatus"},{"name":"reviewer","type":"address","indexed":true,"internalType":"address"}],"anonymous":false},{"type":"event","name":"ProposalSubmitted","inputs":[{"name":"proposalId","type":"uint256","indexed":true,"internalType":"uint256"},{"name":"proposer","type":"address","indexed":true,"internalType":"address"},{"name":"candidateCount","type":"uint256","indexed":false,"internalType":"uint256"}],"anonymous":false},{"type":"event","name":"SuperAdminUpserted","inputs":[{"name":"admin","type":"address","indexed":true,"internalType":"address"},{"name":"isActive","type":"bool","indexed":false,"internalType":"bool"},{"name":"rootSuperAdmin","type":"address","indexed":true,"internalType":"address"}],"anonymous":false},{"type":"error","name":"InvalidAdmin","inputs":[]},{"type":"error","name":"InvalidCandidateCount","inputs":[]},{"type":"error","name":"InvalidProposalStatus","inputs":[{"name":"current","type":"uint8","internalType":"enum VoteChainRegistry.ProposalStatus"},{"name":"expected","type":"uint8","internalType":"enum VoteChainRegistry.ProposalStatus"}]},{"type":"error","name":"NotPlatformAdmin","inputs":[]},{"type":"error","name":"NotProposalOwner","inputs":[]},{"type":"error","name":"NotRootSuperAdmin","inputs":[]},{"type":"error","name":"NotSuperAdmin","inputs":[]},{"type":"error","name":"ProposalNotFound","inputs":[]},{"type":"error","name":"SpaceNotFound","inputs":[]}],"bytecode":{"object":"0x60a060405260015f5560018055600160025534801561001c575f80fd5b506040516200414d3803806200414d83398101604081905261003d916100ca565b6001600160a01b03811661006457604051630b5eba9f60e41b815260040160405180910390fd5b6001600160a01b03811660808190525f81815260046020908152604091829020805460ff19166001908117909155915191825282917fa8ed7ecd3c9aebcd5b1bd3ebd05b287dd60268b40026387e1e88ad7722d43823910160405180910390a3506100f7565b5f602082840312156100da575f80fd5b81516001600160a01b03811681146100f0575f80fd5b9392505050565b608051614028620001255f395f818161019701528181610769015281816107bc015261107d01526140285ff3fe608060405234801562000010575f80fd5b506004361062000158575f3560e01c806382b8427411620000c3578063df7f453b1162000083578063df7f453b1462000362578063e565e6611462000390578063ec6b498b146200039a578063f13c715814620003cf578063f918385414620003e6578063fc5a4efe146200040b575f80fd5b806382b8427414620002d057806384aa616914620002e7578063ad25cb4214620002fe578063b3292ff01462000334578063ba8554c7146200034b575f80fd5b80634b0bddd2116200011b5780634b0bddd2146200021a57806356b5f8ee146200023157806370de50a214620002485780637514fc6c146200027357806378cb02da146200027d57806380cd7f2a14620002b9575f80fd5b8063013cf08b146200015c57806329575f6a14620001915780632ab09d1414620001d257806343c6121314620001ea5780634902e4aa1462000203575b5f80fd5b620001736200016d366004620017f3565b62000435565b60405162000188979695949392919062001885565b60405180910390f35b620001b97f000000000000000000000000000000000000000000000000000000000000000081565b6040516001600160a01b03909116815260200162000188565b620001db5f5481565b60405190815260200162000188565b62000201620001fb36600462001901565b620005a5565b005b620002016200021436600462001945565b6200075e565b620002016200022b36600462001968565b62000867565b6200020162000242366004620019dd565b6200091d565b620001b962000259366004620017f3565b60076020525f90815260409020546001600160a01b031681565b620001db60015481565b620002946200028e36600462001a29565b620009ed565b6040805193845260208401929092526001600160a01b03169082015260600162000188565b62000201620002ca366004620019dd565b62000d34565b620001db620002e136600462001ab5565b62000dcc565b62000201620002f8366004620019dd565b62000fd8565b620003236200030f36600462001945565b60046020525f908152604090205460ff1681565b604051901515815260200162000188565b620002016200034536600462001945565b62001072565b620001db6200035c36600462001b30565b6200113e565b620003236200037336600462001945565b6001600160a01b03165f9081526004602052604090205460ff1690565b620001db60025481565b620003b1620003ab366004620017f3565b6200135f565b604080519283526001600160a01b0390911660208301520162000188565b62000201620003e036600462001901565b6200153f565b62000323620003f736600462001945565b60036020525f908152604090205460ff1681565b620004226200041c366004620017f3565b6200168d565b6040516200018895949392919062001ba5565b60056020525f908152604090208054600182015460028301546003840180546001600160a01b0390941694929360ff9092169291620004749062001c00565b80601f0160208091040260200160405190810160405280929190818152602001828054620004a29062001c00565b8015620004f15780601f10620004c757610100808354040283529160200191620004f1565b820191905f5260205f20905b815481529060010190602001808311620004d357829003601f168201915b505050505090806004018054620005089062001c00565b80601f0160208091040260200160405190810160405280929190818152602001828054620005369062001c00565b8015620005855780601f106200055b5761010080835404028352916020019162000585565b820191905f5260205f20905b8154815290600101906020018083116200056757829003601f168201915b50505050600583015460069093015491926001600160a01b031691905087565b335f9081526004602052604090205460ff16620005d5576040516316c726b160e01b815260040160405180910390fd5b5f828152600660205260409020600381015461010090046001600160a01b0316620006135760405163635e873760e01b815260040160405180910390fd5b5f60038083015460ff16908111156200063057620006306200180b565b1462000665576003810154604051633233a43d60e21b81526200065c9160ff16905f9060040162001c3a565b60405180910390fd5b8115620006ff5760038101805460ff1916600190811790915581545f90815260076020526040908190205490516307b63c2960e01b81526001600160a01b039091169182916307b63c2991620006c991908601906002870190339060040162001cda565b5f604051808303815f87803b158015620006e1575f80fd5b505af1158015620006f4573d5f803e3d5ffd5b50505050506200070f565b60038101805460ff191660021790555b600380820154339160ff909116908111156200072f576200072f6200180b565b60405185907f016dd1e56d48265dd218010889b30d8b9d0af2c496aae1b48e47dd16520d8158905f90a4505050565b336001600160a01b037f00000000000000000000000000000000000000000000000000000000000000001614620007a857604051631bb8390b60e01b815260040160405180910390fd5b6001600160a01b0381161580620007f057507f00000000000000000000000000000000000000000000000000000000000000006001600160a01b0316816001600160a01b0316145b156200080f57604051630b5eba9f60e41b815260040160405180910390fd5b6001600160a01b0381165f818152600460209081526040808320805460ff19169055519182523392917fa8ed7ecd3c9aebcd5b1bd3ebd05b287dd60268b40026387e1e88ad7722d4382391015b60405180910390a350565b335f9081526004602052604090205460ff1662000897576040516316c726b160e01b815260040160405180910390fd5b6001600160a01b038216620008bf57604051630b5eba9f60e41b815260040160405180910390fd5b6001600160a01b0382165f81815260036020908152604091829020805460ff191685151590811790915591519182527fde2ec5a61cb25575c35ed8c41a10938fdf23711909527a1abac273444cf21e75910160405180910390a25050565b335f9081526004602052604090205460ff166200094d576040516316c726b160e01b815260040160405180910390fd5b5f838152600760205260409020546001600160a01b0316806200098357604051636255b06960e01b815260040160405180910390fd5b604051637edfb26160e11b81526001600160a01b0382169063fdbf64c290620009b89060019033908890889060040162001d43565b5f604051808303815f87803b158015620009d0575f80fd5b505af1158015620009e3573d5f803e3d5ffd5b5050505050505050565b335f908152600460205260408120548190819060ff1662000a21576040516316c726b160e01b815260040160405180910390fd5b6001600160a01b03891662000a4957604051630b5eba9f60e41b815260040160405180910390fd5b835f0362000a6a57604051632853b25560e01b815260040160405180910390fd5b5f805493506001908062000a7f838762001d7b565b90915550506040805160e0810182526001600160a01b038b168152602081018690529081016003815260200189898080601f0160208091040260200160405190810160405280939291908181526020018383808284375f92019190915250505090825250604080516020601f8a01819004810282018101909252888152918101919089908990819084018382808284375f920182905250938552505033602080850191909152426040948501528783526005815291839020845181546001600160a01b0319166001600160a01b0390911617815591840151600180840191909155928401516002830180549394919390925060ff19169083600381111562000b8b5762000b8b6200180b565b02179055506060820151600382019062000ba6908262001e05565b506080820151600482019062000bbd908262001e05565b5060a08201516005820180546001600160a01b0319166001600160a01b0392831617905560c090920151600690910155604051858152908a169084907f6595205dae276ce902b2ea66a70a1f42db62056854c3c4dba1e00ec5e2d56e3d9060200160405180910390a333600160405185907fef0d88bbaeb4891d8e9303afd9d553f2807df5898cedf46c37ec9feba34741d3905f90a46002805492506001905f62000c69838662001d7b565b925050819055505f308a84878c8c8c8c60405162000c8790620017e5565b62000c9a98979695949392919062001ed2565b604051809103905ff08015801562000cb4573d5f803e3d5ffd5b505f8481526007602090815260409182902080546001600160a01b0319166001600160a01b038581169182179092558351918f1682529181018990529294508493508692909186917f6d01a0c816e379a259b63ac8da3edf1179b0db179da21d6ae21999dc0ec0f15e910160405180910390a45096509650969350505050565b335f9081526004602052604090205460ff1662000d64576040516316c726b160e01b815260040160405180910390fd5b5f838152600760205260409020546001600160a01b03168062000d9a57604051636255b06960e01b815260040160405180910390fd5b6040516329a7074f60e11b81526001600160a01b0382169063534e0e9e90620009b89033908790879060040162001f32565b335f9081526003602052604081205460ff1615801562000dfb5750335f9081526004602052604090205460ff16155b1562000e1a5760405163d4d7478360e01b815260040160405180910390fd5b5f868152600760205260409020546001600160a01b031662000e4f57604051636255b06960e01b815260040160405180910390fd5b506001805490805f62000e63828562001d7b565b925050819055506040518060a0016040528087815260200186868080601f0160208091040260200160405190810160405280939291908181526020018383808284375f92019190915250505090825250604080516020601f8701819004810282018101909252858152918101919086908690819084018382808284375f920182905250938552505050602080830182905233604093840152848252600681529190208251815590820151600182019062000f1e908262001e05565b506040820151600282019062000f35908262001e05565b506060820151816003015f6101000a81548160ff0219169083600381111562000f625762000f626200180b565b021790555060809190910151600390910180546001600160a01b0390921661010002610100600160a81b0319909216919091179055604051338152869082907f87bc07659f51a77af8076b97a1b510ccb69c3bea3105e08b0706bf42f7cbc69b906020015b60405180910390a395945050505050565b335f9081526004602052604090205460ff1662001008576040516316c726b160e01b815260040160405180910390fd5b5f838152600760205260409020546001600160a01b0316806200103e57604051636255b06960e01b815260040160405180910390fd5b604051637edfb26160e11b81526001600160a01b0382169063fdbf64c290620009b8905f9033908890889060040162001d43565b336001600160a01b037f00000000000000000000000000000000000000000000000000000000000000001614620010bc57604051631bb8390b60e01b815260040160405180910390fd5b6001600160a01b038116620010e457604051630b5eba9f60e41b815260040160405180910390fd5b6001600160a01b0381165f81815260046020908152604091829020805460ff1916600190811790915591519182523392917fa8ed7ecd3c9aebcd5b1bd3ebd05b287dd60268b40026387e1e88ad7722d4382391016200085c565b335f9081526003602052604081205460ff161580156200116d5750335f9081526004602052604090205460ff16155b156200118c5760405163d4d7478360e01b815260040160405180910390fd5b815f03620011ad57604051632853b25560e01b815260040160405180910390fd5b505f80549060019080620011c2838562001d7b565b90915550506040805160e081018252338152602081018490529081015f815260200187878080601f0160208091040260200160405190810160405280939291908181526020018383808284375f92019190915250505090825250604080516020601f8801819004810282018101909252868152918101919087908790819084018382808284375f920182905250938552505050602080830182905260409283018290528482526005815290829020835181546001600160a01b0319166001600160a01b03909116178155908301516001808301919091559183015160028201805492939192909160ff1990911690836003811115620012c557620012c56200180b565b021790555060608201516003820190620012e0908262001e05565b5060808201516004820190620012f7908262001e05565b5060a08201516005820180546001600160a01b0319166001600160a01b0390921691909117905560c090910151600690910155604051828152339082907f6595205dae276ce902b2ea66a70a1f42db62056854c3c4dba1e00ec5e2d56e3d9060200162000fc7565b5f81815260056020526040812080548291906001600160a01b0316620013985760405163635e873760e01b815260040160405180910390fd5b6001600282015460ff166003811115620013b657620013b66200180b565b14620013e3576002810154604051633233a43d60e21b81526200065c9160ff169060019060040162001c3a565b80546001600160a01b031633148015906200140d5750335f9081526004602052604090205460ff16155b156200142c5760405163287a405960e01b815260040160405180910390fd5b6002805493506001905f62001442838762001d7b565b9091555050805460018201546040515f9230926001600160a01b0390911691879190600387019060048801906200147990620017e5565b6200148a9695949392919062001f61565b604051809103905ff080158015620014a4573d5f803e3d5ffd5b505f85815260076020526040902080546001600160a01b0319166001600160a01b03831617905560028301805491945084925060039160ff1916600183021790555081546001830154604080516001600160a01b0393841681526020810192909252879286169187917f6d01a0c816e379a259b63ac8da3edf1179b0db179da21d6ae21999dc0ec0f15e910160405180910390a45050915091565b335f9081526004602052604090205460ff166200156f576040516316c726b160e01b815260040160405180910390fd5b5f82815260056020526040902080546001600160a01b0316620015a55760405163635e873760e01b815260040160405180910390fd5b5f600282015460ff166003811115620015c257620015c26200180b565b14620015ee576002810154604051633233a43d60e21b81526200065c9160ff16905f9060040162001c3a565b81620015fc576002620015ff565b60015b60028201805460ff191660018360038111156200162057620016206200180b565b02179055506005810180546001600160a01b03191633908117909155426006830155600282015460ff1660038111156200165e576200165e6200180b565b60405185907fef0d88bbaeb4891d8e9303afd9d553f2807df5898cedf46c37ec9feba34741d3905f90a4505050565b60066020525f908152604090208054600182018054919291620016b09062001c00565b80601f0160208091040260200160405190810160405280929190818152602001828054620016de9062001c00565b80156200172d5780601f1062001703576101008083540402835291602001916200172d565b820191905f5260205f20905b8154815290600101906020018083116200170f57829003601f168201915b505050505090806002018054620017449062001c00565b80601f0160208091040260200160405190810160405280929190818152602001828054620017729062001c00565b8015620017c15780601f106200179757610100808354040283529160200191620017c1565b820191905f5260205f20905b815481529060010190602001808311620017a357829003601f168201915b5050506003909301549192505060ff8116906001600160a01b036101009091041685565b6120358062001fbe83390190565b5f6020828403121562001804575f80fd5b5035919050565b634e487b7160e01b5f52602160045260245ffd5b600481106200183c57634e487b7160e01b5f52602160045260245ffd5b9052565b5f81518084525f5b81811015620018665760208185018101518683018201520162001848565b505f602082860101526020601f19601f83011685010191505092915050565b6001600160a01b038881168252602082018890525f90620018aa60408401896200181f565b60e06060840152620018c060e084018862001840565b8381036080850152620018d4818862001840565b9590911660a0840152505060c0015295945050505050565b80358015158114620018fc575f80fd5b919050565b5f806040838503121562001913575f80fd5b823591506200192560208401620018ec565b90509250929050565b80356001600160a01b0381168114620018fc575f80fd5b5f6020828403121562001956575f80fd5b62001961826200192e565b9392505050565b5f80604083850312156200197a575f80fd5b62001985836200192e565b91506200192560208401620018ec565b5f8083601f840112620019a6575f80fd5b50813567ffffffffffffffff811115620019be575f80fd5b602083019150836020828501011115620019d6575f80fd5b9250929050565b5f805f60408486031215620019f0575f80fd5b83359250602084013567ffffffffffffffff81111562001a0e575f80fd5b62001a1c8682870162001995565b9497909650939450505050565b5f805f805f806080878903121562001a3f575f80fd5b62001a4a876200192e565b9550602087013567ffffffffffffffff8082111562001a67575f80fd5b62001a758a838b0162001995565b9097509550604089013591508082111562001a8e575f80fd5b5062001a9d89828a0162001995565b979a9699509497949695606090950135949350505050565b5f805f805f6060868803121562001aca575f80fd5b85359450602086013567ffffffffffffffff8082111562001ae9575f80fd5b62001af789838a0162001995565b9096509450604088013591508082111562001b10575f80fd5b5062001b1f8882890162001995565b969995985093965092949392505050565b5f805f805f6060868803121562001b45575f80fd5b853567ffffffffffffffff8082111562001b5d575f80fd5b62001b6b89838a0162001995565b9097509550602088013591508082111562001b84575f80fd5b5062001b938882890162001995565b96999598509660400135949350505050565b85815260a060208201525f62001bbf60a083018762001840565b828103604084015262001bd3818762001840565b91505062001be560608301856200181f565b6001600160a01b039290921660809190910152949350505050565b600181811c9082168062001c1557607f821691505b60208210810362001c3457634e487b7160e01b5f52602260045260245ffd5b50919050565b6040810162001c4a82856200181f565b6200196160208301846200181f565b5f815462001c678162001c00565b80855260206001838116801562001c87576001811462001ca25762001ccf565b60ff1985168884015283151560051b88018301955062001ccf565b865f52825f205f5b8581101562001cc75781548a820186015290830190840162001caa565b890184019650505b505050505092915050565b606081525f62001cee606083018662001c59565b828103602084015262001d02818662001c59565b91505060018060a01b0383166040830152949350505050565b81835281816020850137505f828201602090810191909152601f909101601f19169091010190565b84151581526001600160a01b03841660208201526060604082018190525f9062001d71908301848662001d1b565b9695505050505050565b8082018082111562001d9b57634e487b7160e01b5f52601160045260245ffd5b92915050565b634e487b7160e01b5f52604160045260245ffd5b601f82111562001e0057805f5260205f20601f840160051c8101602085101562001ddc5750805b601f840160051c820191505b8181101562001dfd575f815560010162001de8565b50505b505050565b815167ffffffffffffffff81111562001e225762001e2262001da1565b62001e3a8162001e33845462001c00565b8462001db5565b602080601f83116001811462001e70575f841562001e585750858301515b5f19600386901b1c1916600185901b17855562001eca565b5f85815260208120601f198616915b8281101562001ea05788860151825594840194600190910190840162001e7f565b508582101562001ebe57878501515f19600388901b60f8161c191681555b505060018460011b0185555b505050505050565b6001600160a01b03898116825288166020820152604081018790526060810186905260c0608082018190525f9062001f0e908301868862001d1b565b82810360a084015262001f2381858762001d1b565b9b9a5050505050505050505050565b6001600160a01b03841681526040602082018190525f9062001f58908301848662001d1b565b95945050505050565b6001600160a01b03878116825286166020820152604081018590526060810184905260c0608082018190525f9062001f9c9083018562001c59565b82810360a084015262001fb0818562001c59565b999850505050505050505056fe61010060405234801562000011575f80fd5b5060405162002035380380620020358339810160408190526200003491620001c1565b6001600160a01b03861615806200005257506001600160a01b038516155b15620000715760405163ea8e4eb560e01b815260040160405180910390fd5b825f03620000925760405163e66ea08f60e01b815260040160405180910390fd5b6001600160a01b03808716608052851660a05260c084905260e08390525f620000bc8382620002e8565b506001620000cb8282620002e8565b50506002805461ffff1916905550620003b49350505050565b80516001600160a01b0381168114620000fb575f80fd5b919050565b634e487b7160e01b5f52604160045260245ffd5b5f82601f83011262000124575f80fd5b81516001600160401b038082111562000141576200014162000100565b604051601f8301601f19908116603f011681019082821181831017156200016c576200016c62000100565b816040528381526020925086602085880101111562000189575f80fd5b5f91505b83821015620001ac57858201830151818301840152908201906200018d565b5f602085830101528094505050505092915050565b5f805f805f8060c08789031215620001d7575f80fd5b620001e287620000e4565b9550620001f260208801620000e4565b6040880151606089015160808a015192975090955093506001600160401b03808211156200021e575f80fd5b6200022c8a838b0162000114565b935060a089015191508082111562000242575f80fd5b506200025189828a0162000114565b9150509295509295509295565b600181811c908216806200027357607f821691505b6020821081036200029257634e487b7160e01b5f52602260045260245ffd5b50919050565b601f821115620002e357805f5260205f20601f840160051c81016020851015620002bf5750805b601f840160051c820191505b81811015620002e0575f8155600101620002cb565b50505b505050565b81516001600160401b0381111562000304576200030462000100565b6200031c816200031584546200025e565b8462000298565b602080601f83116001811462000352575f84156200033a5750858301515b5f19600386901b1c1916600185901b178555620003ac565b5f85815260208120601f198616915b82811015620003825788860151825594840194600190910190840162000361565b5085821015620003a057878501515f19600388901b60f8161c191681555b505060018460011b0185555b505050505050565b60805160a05160c05160e051611bb3620004825f395f818161032b01528181610e3e01526111fa01525f8181610278015281816105120152818161078d01528181610a0801528181610bbc01528181610c8f01528181610f44015281816111640152818161149601526115d201525f818161029f01528181610582015281816107e801528181610fab015261125c01525f81816102de0152818161046d015281816105c00152818161082601528181610c1b01528181610fe90152818161129a01526114fc0152611bb35ff3fe608060405234801561000f575f80fd5b5060043610610148575f3560e01c806369edbcda116100bf578063a9a981a311610079578063a9a981a314610326578063b9a530131461034d578063c6dbe15a1461036f578063d55ec9c114610391578063f662b881146103a4578063fdbf64c2146103c3575f80fd5b806369edbcda146102605780636bf2ffa1146102735780637a967cd31461029a5780637b103999146102d95780637ed1775114610300578063995e433914610313575f80fd5b806338db6dd31161011057806338db6dd3146101c05780633af32abf146101d35780633e858923146102055780634a79d50c146102185780634fc8a20d14610220578063534e0e9e1461024d575f80fd5b806303ee438c1461014c578063055ad42e1461016a57806307b63c29146101845780630f8779c614610199578063200d2ed2146101a1575b5f80fd5b6101546103d6565b6040516101619190611622565b60405180910390f35b6002546101779060ff1681565b6040516101619190611696565b61019761019236600461170a565b610462565b005b610197610577565b6002546101b390610100900460ff1681565b6040516101619190611785565b6101976101ce36600461179f565b6107dd565b6101f56101e136600461179f565b60036020525f908152604090205460ff1681565b6040519015158152602001610161565b6101976102133660046117bf565b610a58565b610154610c04565b61023f61022e3660046117bf565b60076020525f908152604090205481565b604051908152602001610161565b61019761025b3660046117d6565b610c10565b61019761026e366004611825565b610cec565b61023f7f000000000000000000000000000000000000000000000000000000000000000081565b6102c17f000000000000000000000000000000000000000000000000000000000000000081565b6040516001600160a01b039091168152602001610161565b6102c17f000000000000000000000000000000000000000000000000000000000000000081565b61019761030e36600461179f565b610fa0565b61023f6103213660046117bf565b6111ac565b61023f7f000000000000000000000000000000000000000000000000000000000000000081565b6101f561035b36600461179f565b60056020525f908152604090205460ff1681565b6101f561037d36600461179f565b60046020525f908152604090205460ff1681565b61019761039f366004611845565b611251565b61023f6103b236600461179f565b60066020525f908152604090205481565b6101976103d13660046118c4565b6114f1565b600180546103e390611923565b80601f016020809104026020016040519081016040528092919081815260200182805461040f90611923565b801561045a5780601f106104315761010080835404028352916020019161045a565b820191905f5260205f20905b81548152906001019060200180831161043d57829003601f168201915b505050505081565b336001600160a01b037f000000000000000000000000000000000000000000000000000000000000000016146104ab57604051633217675b60e21b815260040160405180910390fd5b5f60025460ff1660038111156104c3576104c361166e565b146104f5576002546040516305fb5e1b60e01b81526104ec915f9160ff90911690600401611955565b60405180910390fd5b5f6105018587836119d0565b50600161050f8385836119d0565b507f00000000000000000000000000000000000000000000000000000000000000007f4f86676f84ed8c8823cd1b5c0682bdfc9263d14d9879cd7609262de9f280002b8686868686604051610568959493929190611ab2565b60405180910390a25050505050565b336001600160a01b037f00000000000000000000000000000000000000000000000000000000000000001614801590610633575060405163df7f453b60e01b81523360048201527f00000000000000000000000000000000000000000000000000000000000000006001600160a01b03169063df7f453b90602401602060405180830381865afa15801561060d573d5f803e3d5ffd5b505050506040513d601f19601f820116820180604052508101906106319190611af3565b155b156106515760405163ea8e4eb560e01b815260040160405180910390fd5b600160028054610100900460ff169081111561066f5761066f61166e565b0361068d576040516327c0e7b560e01b815260040160405180910390fd5b6002808054610100900460ff16908111156106aa576106aa61166e565b036106c85760405163214dacf960e11b815260040160405180910390fd5b600360025460ff1660038111156106e1576106e161166e565b03610704576003806040516335c1372560e01b81526004016104ec929190611955565b60025460ff1680600381111561071c5761071c61166e565b610727906001611b22565b60ff16600381111561073b5761073b61166e565b6002805460ff191660018360038111156107575761075761166e565b021790555060025460ff1660038111156107735761077361166e565b8160038111156107855761078561166e565b6040513381527f0000000000000000000000000000000000000000000000000000000000000000907fb08bfe79d11e67f65c878f279728c4d53fc5dfc3373a20958345fcad3750953e9060200160405180910390a450565b336001600160a01b037f00000000000000000000000000000000000000000000000000000000000000001614801590610899575060405163df7f453b60e01b81523360048201527f00000000000000000000000000000000000000000000000000000000000000006001600160a01b03169063df7f453b90602401602060405180830381865afa158015610873573d5f803e3d5ffd5b505050506040513d601f19601f820116820180604052508101906108979190611af3565b155b156108b75760405163ea8e4eb560e01b815260040160405180910390fd5b600160028054610100900460ff16908111156108d5576108d561166e565b036108f3576040516327c0e7b560e01b815260040160405180910390fd5b6002808054610100900460ff16908111156109105761091061166e565b0361092e5760405163214dacf960e11b815260040160405180910390fd5b5f8060025460ff1660038111156109475761094761166e565b14610970576002546040516305fb5e1b60e01b81526104ec91839160ff90911690600401611955565b6001600160a01b038216610997576040516311745b2b60e31b815260040160405180910390fd5b6001600160a01b0382165f9081526003602052604090205460ff16156109d057604051630ea075bf60e21b815260040160405180910390fd5b6001600160a01b0382165f81815260036020908152604091829020805460ff19166001908117909155825190815233918101919091527f0000000000000000000000000000000000000000000000000000000000000000917f5b551e9aea49b0b85a31d13fd569c911ded7781feaae60c3603e3a968b05fc1391015b60405180910390a35050565b335f9081526003602052604090205460ff16610a875760405163aba4733960e01b815260040160405180910390fd5b600160028054610100900460ff1690811115610aa557610aa561166e565b03610ac3576040516327c0e7b560e01b815260040160405180910390fd5b6002808054610100900460ff1690811115610ae057610ae061166e565b03610afe5760405163214dacf960e11b815260040160405180910390fd5b60018060025460ff166003811115610b1857610b1861166e565b14610b41576002546040516305fb5e1b60e01b81526104ec91839160ff90911690600401611955565b335f9081526004602052604090205460ff1615610b71576040516317fd8aab60e31b815260040160405180910390fd5b81610b8f57604051636033c4fd60e11b815260040160405180910390fd5b335f818152600460209081526040808320805460ff191660011790556006909152808220859055518492917f0000000000000000000000000000000000000000000000000000000000000000917f26a454697a4923cb3646779d831b5e4696bd3fab14b67dd6dfe23d72354f57dd9190a45050565b5f80546103e390611923565b336001600160a01b037f00000000000000000000000000000000000000000000000000000000000000001614610c5957604051633217675b60e21b815260040160405180910390fd5b6002805461ff001916610200178082556001600160a01b0385169161010090910460ff1690811115610c8d57610c8d61166e565b7f00000000000000000000000000000000000000000000000000000000000000007f7bf94aa98e004220f19fb43e7d8d6dabd2c23e3fadc2908d16dd25f52cd1c43b8585604051610cdf929190611b3b565b60405180910390a4505050565b335f9081526003602052604090205460ff16610d1b5760405163aba4733960e01b815260040160405180910390fd5b600160028054610100900460ff1690811115610d3957610d3961166e565b03610d57576040516327c0e7b560e01b815260040160405180910390fd5b6002808054610100900460ff1690811115610d7457610d7461166e565b03610d925760405163214dacf960e11b815260040160405180910390fd5b60028060025460ff166003811115610dac57610dac61166e565b14610dd5576002546040516305fb5e1b60e01b81526104ec91839160ff90911690600401611955565b335f9081526004602052604090205460ff16610e0457604051631918952960e01b815260040160405180910390fd5b335f9081526005602052604090205460ff1615610e345760405163a89ac15160e01b815260040160405180910390fd5b821580610e6057507f000000000000000000000000000000000000000000000000000000000000000083115b15610e7e5760405163e66ea08f60e01b815260040160405180910390fd5b60408051602081018590529081018390523360608201523060808201524660a08201525f9060c00160408051601f198184030181529181528151602092830120335f90815260069093529120549091508114610eed57604051635054097b60e01b815260040160405180910390fd5b335f908152600560209081526040808320805460ff1916600190811790915587845260079092528220805491929091610f27908490611b56565b90915550505f8481526007602052604090819020549051859133917f0000000000000000000000000000000000000000000000000000000000000000917f63ab6e5dc98a7d72f7b887b4479c584f5d1cc5e644f8b756c1213bc8e32f4f4291610f9291815260200190565b60405180910390a450505050565b336001600160a01b037f0000000000000000000000000000000000000000000000000000000000000000161480159061105c575060405163df7f453b60e01b81523360048201527f00000000000000000000000000000000000000000000000000000000000000006001600160a01b03169063df7f453b90602401602060405180830381865afa158015611036573d5f803e3d5ffd5b505050506040513d601f19601f8201168201806040525081019061105a9190611af3565b155b1561107a5760405163ea8e4eb560e01b815260040160405180910390fd5b600160028054610100900460ff16908111156110985761109861166e565b036110b6576040516327c0e7b560e01b815260040160405180910390fd5b6002808054610100900460ff16908111156110d3576110d361166e565b036110f15760405163214dacf960e11b815260040160405180910390fd5b5f8060025460ff16600381111561110a5761110a61166e565b14611133576002546040516305fb5e1b60e01b81526104ec91839160ff90911690600401611955565b6001600160a01b0382165f818152600360209081526040808320805460ff19169055805192835233918301919091527f0000000000000000000000000000000000000000000000000000000000000000917f5b551e9aea49b0b85a31d13fd569c911ded7781feaae60c3603e3a968b05fc139101610a4c565b5f60038060025460ff1660038111156111c7576111c761166e565b146111f0576002546040516305fb5e1b60e01b81526104ec91839160ff90911690600401611955565b82158061121c57507f000000000000000000000000000000000000000000000000000000000000000083115b1561123a5760405163e66ea08f60e01b815260040160405180910390fd5b5f8381526007602052604090205491505b50919050565b336001600160a01b037f0000000000000000000000000000000000000000000000000000000000000000161480159061130d575060405163df7f453b60e01b81523360048201527f00000000000000000000000000000000000000000000000000000000000000006001600160a01b03169063df7f453b90602401602060405180830381865afa1580156112e7573d5f803e3d5ffd5b505050506040513d601f19601f8201168201806040525081019061130b9190611af3565b155b1561132b5760405163ea8e4eb560e01b815260040160405180910390fd5b600160028054610100900460ff16908111156113495761134961166e565b03611367576040516327c0e7b560e01b815260040160405180910390fd5b6002808054610100900460ff16908111156113845761138461166e565b036113a25760405163214dacf960e11b815260040160405180910390fd5b5f8060025460ff1660038111156113bb576113bb61166e565b146113e4576002546040516305fb5e1b60e01b81526104ec91839160ff90911690600401611955565b5f5b828110156114eb575f84848381811061140157611401611b69565b9050602002016020810190611416919061179f565b90506001600160a01b03811661143f576040516311745b2b60e31b815260040160405180910390fd5b6001600160a01b0381165f9081526003602052604090205460ff166114e2576001600160a01b0381165f81815260036020908152604091829020805460ff19166001908117909155825190815233918101919091527f0000000000000000000000000000000000000000000000000000000000000000917f5b551e9aea49b0b85a31d13fd569c911ded7781feaae60c3603e3a968b05fc13910160405180910390a35b506001016113e6565b50505050565b336001600160a01b037f0000000000000000000000000000000000000000000000000000000000000000161461153a57604051633217675b60e21b815260040160405180910390fd5b6002808054610100900460ff16908111156115575761155761166e565b036115755760405163214dacf960e11b815260040160405180910390fd5b83611580575f611583565b60015b6002805461ff00191661010083838111156115a0576115a061166e565b0217905550826001600160a01b0316600260019054906101000a900460ff1660028111156115d0576115d061166e565b7f00000000000000000000000000000000000000000000000000000000000000007f7bf94aa98e004220f19fb43e7d8d6dabd2c23e3fadc2908d16dd25f52cd1c43b8585604051610f92929190611b3b565b5f602080835283518060208501525f5b8181101561164e57858101830151858201604001528201611632565b505f604082860101526040601f19601f8301168501019250505092915050565b634e487b7160e01b5f52602160045260245ffd5b600481106116925761169261166e565b9052565b602081016116a48284611682565b92915050565b5f8083601f8401126116ba575f80fd5b50813567ffffffffffffffff8111156116d1575f80fd5b6020830191508360208285010111156116e8575f80fd5b9250929050565b80356001600160a01b0381168114611705575f80fd5b919050565b5f805f805f6060868803121561171e575f80fd5b853567ffffffffffffffff80821115611735575f80fd5b61174189838a016116aa565b90975095506020880135915080821115611759575f80fd5b50611766888289016116aa565b90945092506117799050604087016116ef565b90509295509295909350565b60208101600383106117995761179961166e565b91905290565b5f602082840312156117af575f80fd5b6117b8826116ef565b9392505050565b5f602082840312156117cf575f80fd5b5035919050565b5f805f604084860312156117e8575f80fd5b6117f1846116ef565b9250602084013567ffffffffffffffff81111561180c575f80fd5b611818868287016116aa565b9497909650939450505050565b5f8060408385031215611836575f80fd5b50508035926020909101359150565b5f8060208385031215611856575f80fd5b823567ffffffffffffffff8082111561186d575f80fd5b818501915085601f830112611880575f80fd5b81358181111561188e575f80fd5b8660208260051b85010111156118a2575f80fd5b60209290920196919550909350505050565b80151581146118c1575f80fd5b50565b5f805f80606085870312156118d7575f80fd5b84356118e2816118b4565b93506118f0602086016116ef565b9250604085013567ffffffffffffffff81111561190b575f80fd5b611917878288016116aa565b95989497509550505050565b600181811c9082168061193757607f821691505b60208210810361124b57634e487b7160e01b5f52602260045260245ffd5b604081016119638285611682565b6117b86020830184611682565b634e487b7160e01b5f52604160045260245ffd5b601f8211156119cb57805f5260205f20601f840160051c810160208510156119a95750805b601f840160051c820191505b818110156119c8575f81556001016119b5565b50505b505050565b67ffffffffffffffff8311156119e8576119e8611970565b6119fc836119f68354611923565b83611984565b5f601f841160018114611a2d575f8515611a165750838201355b5f19600387901b1c1916600186901b1783556119c8565b5f83815260208120601f198716915b82811015611a5c5786850135825560209485019460019092019101611a3c565b5086821015611a78575f1960f88860031b161c19848701351681555b505060018560011b0183555050505050565b81835281816020850137505f828201602090810191909152601f909101601f19169091010190565b606081525f611ac5606083018789611a8a565b8281036020840152611ad8818688611a8a565b91505060018060a01b03831660408301529695505050505050565b5f60208284031215611b03575f80fd5b81516117b8816118b4565b634e487b7160e01b5f52601160045260245ffd5b60ff81811683821601908111156116a4576116a4611b0e565b602081525f611b4e602083018486611a8a565b949350505050565b808201808211156116a4576116a4611b0e565b634e487b7160e01b5f52603260045260245ffdfea2646970667358221220406d6cc0a0943f96d3c6d57a8ac57d885e0340c62e24638ca4f2cfaf5e058b2864736f6c63430008180033a264697066735822122000e69d144dd276a1d165a8273ab47df373906bd7297bf6e3ede7705c1ec5748d64736f6c63430008180033","linkReferences":{}},"methodIdentifiers":{"addSuperAdmin(address)":"b3292ff0","changeProposals(uint256)":"fc5a4efe","createElectionForAdmin(address,string,string,uint256)":"78cb02da","createElectionFromProposal(uint256)":"ec6b498b","isPlatformAdmin(address)":"f9183854","isSuperAdmin(address)":"df7f453b","nextChangeProposalId()":"7514fc6c","nextProposalId()":"2ab09d14","nextSpaceId()":"e565e661","proposals(uint256)":"013cf08b","proposeSpaceUpdate(uint256,string,string)":"82b84274","removeSuperAdmin(address)":"4902e4aa","reviewProposal(uint256,bool)":"f13c7158","reviewSpaceUpdate(uint256,bool)":"43c61213","setAdmin(address,bool)":"4b0bddd2","spaceById(uint256)":"70de50a2","submitProposal(string,string,uint256)":"ba8554c7","superAdmin()":"29575f6a","superAdmins(address)":"ad25cb42","suspendSpace(uint256,string)":"56b5f8ee","terminateSpace(uint256,string)":"80cd7f2a","unsuspendSpace(uint256,string)":"84aa6169"},"id":17}