{"abi":[{"type":"constructor","inputs":[{"name":"_initialSuperAdmin","type":"address","internalType":"address"}],"stateMutability":"nonpayable"},{"type":"function","name":"addSuperAdmin","inputs":[{"name":"admin","type":"address","internalType":"address"}],"outputs":[],"stateMutability":"nonpayable"},{"type":"function","name":"createElectionForAdminWithConfig","inputs":[{"name":"spaceAdmin","type":"address","internalType":"address"},{"name":"title","type":"string","internalType":"string"},{"name":"metadataURI","type":"string","internalType":"string"},{"name":"candidateCount","type":"uint256","internalType":"uint256"},{"name":"initialVoters","type":"address[]","internalType":"address[]"},{"name":"commitStartsAt","type":"uint256","internalType":"uint256"},{"name":"commitEndsAt","type":"uint256","internalType":"uint256"},{"name":"revealStartsAt","type":"uint256","internalType":"uint256"},{"name":"revealEndsAt","type":"uint256","internalType":"uint256"}],"outputs":[{"name":"proposalId","type":"uint256","internalType":"uint256"},{"name":"spaceId","type":"uint256","internalType":"uint256"},{"name":"spaceAddress","type":"address","internalType":"address"}],"stateMutability":"nonpayable"},{"type":"function","name":"isPlatformAdmin","inputs":[{"name":"","type":"address","internalType":"address"}],"outputs":[{"name":"","type":"bool","internalType":"bool"}],"stateMutability":"view"},{"type":"function","name":"isSuperAdmin","inputs":[{"name":"account","type":"address","internalType":"address"}],"outputs":[{"name":"","type":"bool","internalType":"bool"}],"stateMutability":"view"},{"type":"function","name":"nextProposalId","inputs":[],"outputs":[{"name":"","type":"uint256","internalType":"uint256"}],"stateMutability":"view"},{"type":"function","name":"nextSpaceId","inputs":[],"outputs":[{"name":"","type":"uint256","internalType":"uint256"}],"stateMutability":"view"},{"type":"function","name":"proposals","inputs":[{"name":"","type":"uint256","internalType":"uint256"}],"outputs":[{"name":"proposer","type":"address","internalType":"address"},{"name":"candidateCount","type":"uint256","internalType":"uint256"},{"name":"status","type":"uint8","internalType":"enum VoteChainRegistry.ProposalStatus"},{"name":"title","type":"string","internalType":"string"},{"name":"metadataURI","type":"string","internalType":"string"},{"name":"reviewer","type":"address","internalType":"address"},{"name":"reviewedAt","type":"uint256","internalType":"uint256"}],"stateMutability":"view"},{"type":"function","name":"removeSuperAdmin","inputs":[{"name":"admin","type":"address","internalType":"address"}],"outputs":[],"stateMutability":"nonpayable"},{"type":"function","name":"setAdmin","inputs":[{"name":"admin","type":"address","internalType":"address"},{"name":"isActive","type":"bool","internalType":"bool"}],"outputs":[],"stateMutability":"nonpayable"},{"type":"function","name":"spaceById","inputs":[{"name":"","type":"uint256","internalType":"uint256"}],"outputs":[{"name":"","type":"address","internalType":"address"}],"stateMutability":"view"},{"type":"function","name":"superAdmin","inputs":[],"outputs":[{"name":"","type":"address","internalType":"address"}],"stateMutability":"view"},{"type":"function","name":"superAdmins","inputs":[{"name":"","type":"address","internalType":"address"}],"outputs":[{"name":"","type":"bool","internalType":"bool"}],"stateMutability":"view"},{"type":"function","name":"suspendSpace","inputs":[{"name":"spaceId","type":"uint256","internalType":"uint256"},{"name":"reasonCode","type":"string","internalType":"string"}],"outputs":[],"stateMutability":"nonpayable"},{"type":"function","name":"terminateSpace","inputs":[{"name":"spaceId","type":"uint256","internalType":"uint256"},{"name":"reasonCode","type":"string","internalType":"string"}],"outputs":[],"stateMutability":"nonpayable"},{"type":"function","name":"transferSpaceAdmin","inputs":[{"name":"spaceId","type":"uint256","internalType":"uint256"},{"name":"newAdmin","type":"address","internalType":"address"},{"name":"reasonCode","type":"string","internalType":"string"}],"outputs":[],"stateMutability":"nonpayable"},{"type":"function","name":"unsuspendSpace","inputs":[{"name":"spaceId","type":"uint256","internalType":"uint256"},{"name":"reasonCode","type":"string","internalType":"string"}],"outputs":[],"stateMutability":"nonpayable"},{"type":"event","name":"AdminUpserted","inputs":[{"name":"admin","type":"address","indexed":true,"internalType":"address"},{"name":"isActive","type":"bool","indexed":false,"internalType":"bool"}],"anonymous":false},{"type":"event","name":"ElectionSpaceConfigured","inputs":[{"name":"spaceId","type":"uint256","indexed":true,"internalType":"uint256"},{"name":"space","type":"address","indexed":true,"internalType":"address"},{"name":"proposalId","type":"uint256","indexed":true,"internalType":"uint256"},{"name":"voterCount","type":"uint256","indexed":false,"internalType":"uint256"},{"name":"commitStartsAt","type":"uint256","indexed":false,"internalType":"uint256"},{"name":"commitEndsAt","type":"uint256","indexed":false,"internalType":"uint256"},{"name":"revealStartsAt","type":"uint256","indexed":false,"internalType":"uint256"},{"name":"revealEndsAt","type":"uint256","indexed":false,"internalType":"uint256"}],"anonymous":false},{"type":"event","name":"ElectionSpaceCreated","inputs":[{"name":"spaceId","type":"uint256","indexed":true,"internalType":"uint256"},{"name":"space","type":"address","indexed":true,"internalType":"address"},{"name":"proposalId","type":"uint256","indexed":true,"internalType":"uint256"},{"name":"owner","type":"address","indexed":false,"internalType":"address"},{"name":"candidateCount","type":"uint256","indexed":false,"internalType":"uint256"}],"anonymous":false},{"type":"event","name":"ProposalReviewed","inputs":[{"name":"proposalId","type":"uint256","indexed":true,"internalType":"uint256"},{"name":"decision","type":"uint8","indexed":true,"internalType":"enum VoteChainRegistry.ProposalStatus"},{"name":"reviewer","type":"address","indexed":true,"internalType":"address"}],"anonymous":false},{"type":"event","name":"ProposalSubmitted","inputs":[{"name":"proposalId","type":"uint256","indexed":true,"internalType":"uint256"},{"name":"proposer","type":"address","indexed":true,"internalType":"address"},{"name":"candidateCount","type":"uint256","indexed":false,"internalType":"uint256"}],"anonymous":false},{"type":"event","name":"SpaceAdminTransferred","inputs":[{"name":"spaceId","type":"uint256","indexed":true,"internalType":"uint256"},{"name":"previousAdmin","type":"address","indexed":true,"internalType":"address"},{"name":"newAdmin","type":"address","indexed":true,"internalType":"address"},{"name":"actor","type":"address","indexed":false,"internalType":"address"},{"name":"reasonCode","type":"string","indexed":false,"internalType":"string"}],"anonymous":false},{"type":"event","name":"SuperAdminUpserted","inputs":[{"name":"admin","type":"address","indexed":true,"internalType":"address"},{"name":"isActive","type":"bool","indexed":false,"internalType":"bool"},{"name":"rootSuperAdmin","type":"address","indexed":true,"internalType":"address"}],"anonymous":false},{"type":"error","name":"InvalidAdmin","inputs":[]},{"type":"error","name":"InvalidCandidateCount","inputs":[]},{"type":"error","name":"NotPlatformAdmin","inputs":[]},{"type":"error","name":"NotRootSuperAdmin","inputs":[]},{"type":"error","name":"NotSuperAdmin","inputs":[]},{"type":"error","name":"SpaceNotFound","inputs":[]}],"bytecode":{"object":"0x60a0346100d657601f613e0238819003918201601f19168301916001600160401b038311848410176100da578084926020946040528339810103126100d657516001600160a01b038116908181036100d65760015f556001805581156100c457608052805f52600360205260405f20600160ff19825416179055807fa8ed7ecd3c9aebcd5b1bd3ebd05b287dd60268b40026387e1e88ad7722d43823602060405160018152a3604051613d1390816100ef8239608051818181610ef60152610f540152f35b604051630b5eba9f60e41b8152600490fd5b5f80fd5b634e487b7160e01b5f52604160045260245ffdfe6080604052600436101562000012575f80fd5b5f803560e01c8063013cf08b1462000f8357806329575f6a1462000f3d5780632ab09d141462000f1f5780634902e4aa1462000e5f5780634b0bddd21462000dc757806356b5f8ee1462000d0f57806361a982fd1462000b2457806370de50a21462000aef57806380cd7f2a1462000a7957806384aa616914620009a75780639db237931462000233578063ad25cb421462000140578063b3292ff01462000183578063df7f453b1462000140578063e565e66114620001205763f918385414620000db575f80fd5b346200011d5760203660031901126200011d5760209060ff906040906001600160a01b0362000109620011b0565b168152600284522054166040519015158152f35b80fd5b50346200011d57806003193601126200011d576020600154604051908152f35b50346200011d5760203660031901126200011d5760209060ff906040906001600160a01b036200016f620011b0565b168152600384522054166040519015158152f35b50346200011d5760203660031901126200011d57620001a1620011b0565b338252600360205260ff6040832054161562000221576001600160a01b031680156200020f57808252600360205260408220600160ff1982541617905560405190600182527fa8ed7ecd3c9aebcd5b1bd3ebd05b287dd60268b40026387e1e88ad7722d4382360203393a380f35b604051630b5eba9f60e41b8152600490fd5b6040516316c726b160e01b8152600490fd5b50346200011d576101203660031901126200011d5762000252620011b0565b6024356001600160401b038111620009a35762000274903690600401620011c7565b6044929192356001600160401b0381116200099f5762000299903690600401620011c7565b93906001600160401b03608435116200099b573660236084350112156200099b576001600160401b0360843560040135116200099b573660246084356004013560051b6084350101116200099b57338652600360205260ff6040872054161562000221576001600160a01b038416156200020f5760643515620009895785549460018601861162000975576001860187556040518060e08101106001600160401b0360e083011117620009615760e0810160409081526001600160a01b038716825260643560208301526003908201526200037636868662001275565b60608201526200038836838562001275565b60808201523360a08201524260c08201528688526004602052604088209060018060a01b038151166bffffffffffffffffffffffff60a01b8354161782556020810151600183015560028201604082015160048110156200094d5760ff8019835416911617905560608101518051906001600160401b0382116200086357819062000417600386015462001051565b601f8111620008f6575b50602090601f831160011462000883578c9262000877575b50508160011b915f199060031b1c19161760038301555b60808101518051906001600160401b038211620008635762000476600485015462001051565b601f811162000819575b506020908b601f8411600114620007a2579260069492819260c0959262000796575b50508160011b915f199060031b1c19161760048501555b60a08101516005850180546001600160a01b0319166001600160a01b03928316179055910151919092015560405160643581529086169087907f6595205dae276ce902b2ea66a70a1f42db62056854c3c4dba1e00ec5e2d56e3d90602090a360405192336001887fef0d88bbaeb4891d8e9303afd9d553f2807df5898cedf46c37ec9feba34741d38b80a46001549460018601808711620007825760015584612a1f8101106001600160401b03612a1f870111176200076e5792602092620005c2620005d9938796612a1f620012bf893930612a1f89019081526001600160a01b038c1688820152604081018b905260643560608201526101806080820181905201916200122e565b91612a1f8601830360a0612a1f880101526200122e565b3360c0612a1f85010152612a1f8301810360e0612a1f8501015260843560040135815201602460843501875b6084356004013581106200073957505060a435612a1f830161010081019190915260c43561012082015260e4356101408201526101043561016090910152039085f09182156200072e578185526005602090815260409586902080546001600160a01b0319166001600160a01b0386811691821790925587519190931681526064359181019190915260609585929184917f6d01a0c816e379a259b63ac8da3edf1179b0db179da21d6ae21999dc0ec0f15e91a48260405160843560040135815260a435602082015260c435604082015260e43586820152610104356080820152827fcd4604e82186011728c3154c128c33a40fed0cc3b3798108122986aed5a9171d60a0600180821b03871693a4604051928352602083015260018060a01b03166040820152f35b6040513d86823e3d90fd5b9092509082356001600160a01b03811691908290036200076a57908152839260209182019291019060010162000605565b5f80fd5b634e487b7160e01b89526041600452602489fd5b634e487b7160e01b8a52601160045260248afd5b015190505f80620004a2565b5090600485018c5260208c20918c5b601f1985168110620008005750926006949260019260c09583601f19811610620007e7575b505050811b016004850155620004b9565b01515f1960f88460031b161c191690555f8080620007d6565b91926020600181928685015181550194019201620007b1565b600485018c5260208c20601f840160051c8101602085106200085b575b8d601f840160051c83018210620008505750505062000480565b815560010162000836565b508062000836565b634e487b7160e01b8b52604160045260248bfd5b015190505f8062000439565b9250600385018c5260208c20908c935b601f1984168510620008da576001945083601f19811610620008c1575b505050811b01600383015562000450565b01515f1960f88460031b161c191690555f8080620008b0565b8181015183556020948501946001909301929091019062000893565b909150600385018c5260208c20601f840160051c81016020851062000945575b84939291908e5b601f840160051c83018210620009365750505062000421565b81558594506001018e6200091d565b508062000916565b634e487b7160e01b8b52602160045260248bfd5b634e487b7160e01b5f52604160045260245ffd5b634e487b7160e01b87526011600452602487fd5b604051632853b25560e01b8152600490fd5b8580fd5b8480fd5b8280fd5b50346200011d57620009b936620011f7565b9091338452600360205260ff6040852054161562000221578352600560205260408320546001600160a01b031690811562000a67578392823b1562000a625762000a3192849283604051809681958294637edfb26160e11b84525f60048501523360248501526060604485015260648401916200122e565b03925af1801562000a575762000a445750f35b62000a4f906200108c565b6200011d5780f35b6040513d84823e3d90fd5b505050fd5b604051636255b06960e01b8152600490fd5b50346200011d5762000a8b36620011f7565b91338452600360205260ff6040852054161562000221578352600560205260408320546001600160a01b031690811562000a67578392823b1562000a625762000a31928492836040518096819582946329a7074f60e11b845233600485016200124e565b50346200011d5760203660031901126200011d57602090600435815260058252604060018060a01b0391205416604051908152f35b50346200011d5760603660031901126200011d576024356001600160a01b0381811691600435908390036200076a576044356001600160401b0381116200099f5762000b75903690600401620011c7565b909233865260206003815260ff6040882054161562000221578387526005815281604088205416801562000a675786156200020f578688526002825260ff604089205416158062000cfb575b62000ce957604051637a967cd360e01b81528891908381600481855afa93841562000cde57839462000c9e575b5050803b1562000c9a578160405180926371544e2560e11b82528a60048301523360248301526060604483015281838162000c2f8d8c60648401916200122e565b03925af1801562000a575762000c7e575b505062000c787fbe1cc4eb33fa3157c6e975e4dc49e5744ee7070832804598fafd71f5aced1d1193604051938493169633846200124e565b0390a480f35b62000c89906200108c565b62000c9657865f62000c40565b8680fd5b5080fd5b9080929450813d831162000cd6575b62000cb98183620010a0565b8101031262000c9a5751838116810362000c9a57915f8062000bee565b503d62000cad565b6040513d85823e3d90fd5b60405163d4d7478360e01b8152600490fd5b506003825260ff6040892054161562000bc1565b50346200076a5762000d2136620011f7565b9091335f52600360205260ff60405f2054161562000221575f908152600560205260409020546001600160a01b031691821562000a6757823b156200076a5762000d9a925f9283604051809681958294637edfb26160e11b8452600160048501523360248501526060604485015260648401916200122e565b03925af1801562000dbc5762000dae575080f35b62000dba91506200108c565b005b6040513d5f823e3d90fd5b346200076a5760403660031901126200076a5762000de4620011b0565b602435908115158092036200076a57335f52600360205260ff60405f2054161562000221576001600160a01b03169081156200020f5760207fde2ec5a61cb25575c35ed8c41a10938fdf23711909527a1abac273444cf21e7591835f526002825260405f2060ff1981541660ff8316179055604051908152a2005b346200076a5760203660031901126200076a5762000e7c620011b0565b335f52600360205260ff60405f2054161562000221576001600160a01b0390811690811590811562000ef2575b506200020f57805f52600360205260405f2060ff198154169055604051905f82527fa8ed7ecd3c9aebcd5b1bd3ebd05b287dd60268b40026387e1e88ad7722d4382360203393a3005b90507f00000000000000000000000000000000000000000000000000000000000000001681148262000ea9565b346200076a575f3660031901126200076a5760205f54604051908152f35b346200076a575f3660031901126200076a576040517f00000000000000000000000000000000000000000000000000000000000000006001600160a01b03168152602090f35b346200076a5760203660031901126200076a576004355f52600460205260405f2060018060a01b038082541691600181015460ff6002830154169262000fcc60038401620010c2565b90600662000fdd60048601620010c2565b9160058601541694015492604051968752602087015260048510156200103d576200101f6200102e928796604088015260e0606088015260e087019062001170565b90858203608087015262001170565b9160a084015260c08301520390f35b634e487b7160e01b5f52602160045260245ffd5b90600182811c9216801562001081575b60208310146200106d57565b634e487b7160e01b5f52602260045260245ffd5b91607f169162001061565b6001600160401b0381116200096157604052565b90601f801991011681019081106001600160401b038211176200096157604052565b9060405191825f8254620010d68162001051565b908184526020946001916001811690815f146200114c57506001146200110a575b5050506200110892500383620010a0565b565b5f90815285812095935091905b818310620011335750506200110893508201015f8080620010f7565b8554888401850152948501948794509183019162001117565b925050506200110894925060ff191682840152151560051b8201015f8080620010f7565b91908251928382525f5b8481106200119b575050825f602080949584010152601f8019910116010190565b6020818301810151848301820152016200117a565b600435906001600160a01b03821682036200076a57565b9181601f840112156200076a578235916001600160401b0383116200076a57602083818601950101116200076a57565b9060406003198301126200076a5760043591602435906001600160401b0382116200076a576200122a91600401620011c7565b9091565b908060209392818452848401375f828201840152601f01601f1916010190565b6001600160a01b03909116815260406020820181905262001272939101916200122e565b90565b9291926001600160401b038211620009615760405191620012a1601f8201601f191660200184620010a0565b8294818452818301116200076a578281602093845f96013701015256fe604060e08152346200079a5762002a1f803803806200001e816200079e565b928339810190610180818303126200079a576200003b81620007c4565b916200004a60208301620007c4565b82850151606084015160808501519095906001600160401b0381116200079a578462000078918701620007d9565b60a08601516001600160401b0381116200079a57856200009a918801620007d9565b90620000a960c08801620007c4565b60e08801519098906001600160401b0381116200079a5788019680601f890112156200079a578751976001600160401b03891162000644578860051b90602080620000f68185016200079e565b809c815201928201019283116200079a57602001905b8282106200077f5750505061010088015194610120890151966101606101408b01519a01519560018060a01b0381161580156200076d575b6200075c5783156200074b576080525f80546001600160a01b0319166001600160a01b039290921691909117905560a05260c0528051906001600160401b038211620006445760015490600182811c9216801562000740575b6020831014620006255781601f849311620006df575b50602090601f831160011462000664575f9262000658575b50508160011b915f199060031b1c1916176001555b8051906001600160401b038211620006445760025490600182811c9216801562000639575b6020831014620006255781601f849311620005c4575b50602090601f83116001146200054d575f9262000541575b50508160011b915f199060031b1c1916176002555b61ffff196003541660035583516200049e575b8115948515958087889262000494575b80156200048a575b801562000480575b620003cd575b5050505050505190811590811591620003c4575b5062000360575b82516120e29081620008fd82396080518181816101e8015281816104000152818161052501528181610ade01528181610ccf01528181610ffa01528181611104015281816115cf0152611880015260a0518181816102920152818161048301528181610607015281816109cb01528181610b9101528181610dfe01528181610f4801528181611075015281816111de015281816114e7015281816116970152818161193b0152611efb015260c051818181610833015281816108b70152611f550152f35b60c07fa8dbf017bc75dd8e14ed96c66028f2fb1d209e4398405364261fe9bc77e572499160a05193600454600554600654906007549289519586526020860152888501526060840152608083015260018060a01b031660a0820152a25f806200029c565b90505f62000295565b9062000475575b80156200046b575b801562000460575b6200044f579160a0917f26f7315aaf2926e91db90b9e8be8c5c36e6a366c93950652ce964393555390c493826004558560055580600655816007558351958a519384526020840152898301526060820152600180831b0387166080820152a25f808080858162000281565b875163a74634cd60e01b8152600490fd5b5080821115620003e4565b50838110620003dc565b5082841115620003d4565b508315156200027b565b5082151562000273565b508515156200026b565b949391905f5b84518110156200053657600581901b8501602001516001600160a01b0316801562000525579081620004d860019362000849565b620004e6575b5001620004a4565b60a0517f5b551e9aea49b0b85a31d13fd569c911ded7781feaae60c3603e3a968b05fc138b8051868152868060a01b038c166020820152a35f620004de565b88516311745b2b60e31b8152600490fd5b50909193946200025b565b015190505f8062000233565b60025f9081525f80516020620029df8339815191529350601f198516905b818110620005ab575090846001959493921062000592575b505050811b0160025562000248565b01515f1960f88460031b161c191690555f808062000583565b929360206001819287860151815501950193016200056b565b60025f529091505f80516020620029df833981519152601f840160051c810191602085106200061a575b90601f859493920160051c01905b8181106200060b57506200021b565b5f8155849350600101620005fc565b9091508190620005ee565b634e487b7160e01b5f52602260045260245ffd5b91607f169162000205565b634e487b7160e01b5f52604160045260245ffd5b015190505f80620001cb565b60015f90815293505f80516020620029ff83398151915291905b601f1984168510620006c3576001945083601f19811610620006aa575b505050811b01600155620001e0565b01515f1960f88460031b161c191690555f80806200069b565b818101518355602094850194600190930192909101906200067e565b60015f529091505f80516020620029ff833981519152601f840160051c8101916020851062000735575b90601f859493920160051c01905b818110620007265750620001b3565b5f815584935060010162000717565b909150819062000709565b91607f16916200019d565b8c5163e66ea08f60e01b8152600490fd5b8c5163ea8e4eb560e01b8152600490fd5b506001600160a01b0382161562000144565b602080916200078e84620007c4565b8152019101906200010c565b5f80fd5b6040519190601f01601f191682016001600160401b038111838210176200064457604052565b51906001600160a01b03821682036200079a57565b919080601f840112156200079a5782516001600160401b03811162000644576020906200080f601f8201601f191683016200079e565b928184528282870101116200079a575f5b818110620008355750825f9394955001015290565b858101830151848201840152820162000820565b6001600160a01b03165f818152600860205260409020805460ff8116620008f55760ff19166001179055600d546801000000000000000081101562000644576001810180600d55811015620008e1577fd7b6990105719101dabeb77144f2a3385c8033acd3af97e9423a695e81ad1eb50180546001600160a01b03191682179055600d545f918252600e602052604090912055600190565b634e487b7160e01b5f52603260045260245ffd5b5050505f9056fe608060409080825260049081361015610016575f80fd5b5f3560e01c90816303ee438c14611ac757508063055ad42e14611aa15780630e866fa514611a835780630f8779c6146118625780631dcf2e39146118445780631e8f048914611826578063200d2ed2146117e457806338db6dd3146115a857806339a3fb2e1461158a5780633af32abf1461154e5780633e858923146114465780634a79d50c146113435780634d35574f146110d65780634fc8a20d146110ae578063534e0e9e14610fb15780635688e29914610ecf57806369edbcda14610e215780636bf2ffa114610de757806378905e2e14610d255780637a967cd314610cfe5780637b10399914610cbb5780637ed1775114610ab6578063874359ed14610913578063995e433914610856578063a9a981a31461081c578063b1c9fe6e146107f2578063b9a53013146107b6578063c6dbe15a1461077a578063d55ec9c1146104c9578063e2a89c4a146103ad578063f662b88114610376578063f826fee814610359578063fae50523146103245763fdbf64c214610196575f80fd5b346103205760603660031901126103205780358015158103610320576101ba611c3a565b9060443567ffffffffffffffff8111610320576101da9036908501611c50565b92909460018060a01b0392837f0000000000000000000000000000000000000000000000000000000000000000163303610310576003549060ff8260081c1660038110156102fd576002146102ed57156102e75760015b60038110156102d4579061ff0060ff9260081b169061ff001916178060035560081c169460038610156102c15750906102bc7f7bf94aa98e004220f19fb43e7d8d6dabd2c23e3fadc2908d16dd25f52cd1c43b9392519283926020845216967f0000000000000000000000000000000000000000000000000000000000000000956020840191611c96565b0390a4005b602190634e487b7160e01b5f525260245ffd5b602187634e487b7160e01b5f525260245ffd5b5f610231565b825163214dacf960e11b81528790fd5b602188634e487b7160e01b5f525260245ffd5b8151633217675b60e21b81528690fd5b5f80fd5b5090346103205760203660031901126103205761034360209235611d0f565b905491519160018060a01b039160031b1c168152f35b509034610320575f36600319011261032057602091549051908152f35b8234610320576020366003190112610320576020906001600160a01b0361039b611c24565b165f52600b8252805f20549051908152f35b509034610320576060366003190112610320576103c8611c24565b906103d1611c3a565b9160443567ffffffffffffffff8111610320576103f19036908601611c50565b936001600160a01b03929091907f0000000000000000000000000000000000000000000000000000000000000000841633036104b95783169586156104ab5750906102bc83927fbe1cc4eb33fa3157c6e975e4dc49e5744ee7070832804598fafd71f5aced1d11945f54896bffffffffffffffffffffffff60a01b8216175f55875195869516855287602086015216967f000000000000000000000000000000000000000000000000000000000000000096840191611c96565b8451630b5eba9f60e41b8152fd5b8451633217675b60e21b81528790fd5b50903461032057602091826003193601126103205780359267ffffffffffffffff92838511610320573660238601121561032057848301359384116103205760059460243686881b83018201116103205760018060a01b0391827f0000000000000000000000000000000000000000000000000000000000000000168286855f541633148061071f575b1592836106b5575b5050506106a55760ff60035460081c169760038910156106935760019860018114610683576002146106735761058f611cb6565b87811015610661578061063e57505f5b8881106105a857005b8381831b840101358581169081810361032057811561062e57906105cd8c9392611d58565b6105d9575b500161059f565b8751838152338a8201527f5b551e9aea49b0b85a31d13fd569c911ded7781feaae60c3603e3a968b05fc13897f000000000000000000000000000000000000000000000000000000000000000092a35f6105d2565b87516311745b2b60e31b81528a90fd5b85516305fb5e1b60e01b81525f818a015260449161065f9082870190611c03565bfd5b83602189634e487b7160e01b5f52525ffd5b845163214dacf960e11b81528790fd5b85516327c0e7b560e01b81528890fd5b82602188634e487b7160e01b5f52525ffd5b835163ea8e4eb560e01b81528690fd5b875163df7f453b60e01b8152338b82015293509091839182905afa908115610715575f916106e8575b501582865f61055b565b6107089150863d881161070e575b6107008183611b86565b810190611c7e565b5f6106de565b503d6106f6565b85513d5f823e3d90fd5b50508551633e460e1560e21b81523389820152905086818581855afa90811561077057849188915f91610753575b50610553565b61076a9150823d841161070e576107008183611b86565b5f61074d565b86513d5f823e3d90fd5b8234610320576020366003190112610320576020906001600160a01b0361079f611c24565b165f526009825260ff815f20541690519015158152f35b8234610320576020366003190112610320576020906001600160a01b036107db611c24565b165f52600a825260ff815f20541690519015158152f35b8234610320575f3660031901126103205760209061081a610811611cb6565b91518092611c03565bf35b8234610320575f36600319011261032057602090517f00000000000000000000000000000000000000000000000000000000000000008152f35b509034610320576020366003190112610320578135610873611cb6565b8381101561090057600381036108dd5750801580156108b4575b6108a657602092505f52600c8252805f20549051908152f35b505163e66ea08f60e01b8152fd5b507f0000000000000000000000000000000000000000000000000000000000000000811161088d565b82516305fb5e1b60e01b815260038186015260449161065f906024830190611c03565b602184634e487b7160e01b5f525260245ffd5b503461032057816003193601126103205761092c611c24565b916024359260ff60035460081c1660038110156109005760018114610aa757600214610a995761095a611cb6565b838110156109005760018103610a7657506001600160a01b0316918215610a6857825f52600860205260ff825f20541615610a5a57825f52600960205260ff825f205416610a4c578315610a3e5750815f526009602052805f20600160ff19825416179055600b60205282815f20557f00000000000000000000000000000000000000000000000000000000000000009051928083837f26a454697a4923cb3646779d831b5e4696bd3fab14b67dd6dfe23d72354f57dd5f80a483527ffe0c7364ffb74b1ea082bb70c7112cc6ed8c85202628a077d369805f1ffd14ac60203394a4005b9051636033c4fd60e11b8152fd5b90516317fd8aab60e31b8152fd5b905163aba4733960e01b8152fd5b90516311745b2b60e31b8152fd5b82516305fb5e1b60e01b815260018186015260449161065f906024830190611c03565b505163214dacf960e11b8152fd5b5050516327c0e7b560e01b8152fd5b5034610320576020908160031936011261032057610ad2611c24565b9060018060a01b0390817f00000000000000000000000000000000000000000000000000000000000000001684835f5416331480610c64575b159182610c14575b5050610c065760ff60035460081c166003811015610bd65760018114610bf757600214610be957610b42611cb6565b81811015610bd65780610bb4575050610b5a82611fc0565b610b6057005b7f5b551e9aea49b0b85a31d13fd569c911ded7781feaae60c3603e3a968b05fc13918451935f8552339085015216927f000000000000000000000000000000000000000000000000000000000000000092a3005b9061065f6044925f8851936305fb5e1b60e01b85528401526024830190611c03565b602182634e487b7160e01b5f525260245ffd5b845163214dacf960e11b8152fd5b5084516327c0e7b560e01b8152fd5b845163ea8e4eb560e01b8152fd5b875163df7f453b60e01b815233858201529250829060249082905afa908115610770575f91610c47575b5015845f610b13565b610c5e9150853d871161070e576107008183611b86565b5f610c3e565b50508551633e460e1560e21b815233838201528581602481855afa8015610cb15786915f91610c94575b50610b0b565b610cab9150823d841161070e576107008183611b86565b5f610c8e565b87513d5f823e3d90fd5b8234610320575f36600319011261032057517f00000000000000000000000000000000000000000000000000000000000000006001600160a01b03168152602090f35b8234610320575f366003190112610320575f5490516001600160a01b039091168152602090f35b8234610320575f3660031901126103205780519081600d549081815260208091018092600d5f527fd7b6990105719101dabeb77144f2a3385c8033acd3af97e9423a695e81ad1eb5905f5b818110610dca5750505084610d86910385611b86565b825181815293518185018190528493840192915f5b828110610daa57505050500390f35b83516001600160a01b031685528695509381019392810192600101610d9b565b82546001600160a01b031684529284019260019283019201610d70565b8234610320575f36600319011261032057602090517f00000000000000000000000000000000000000000000000000000000000000008152f35b5034610320578160031936011261032057335f52600860205260ff825f20541615610a5a5760ff60035460081c166003811015610bd65760018114610ec057600214610eb257610e6f611cb6565b9181831015610bd65760028303610e9057610e8e602435833533611de8565b005b604492600261065f9251936305fb5e1b60e01b85528401526024830190611c03565b905163214dacf960e11b8152fd5b5090516327c0e7b560e01b8152fd5b503461032057606036600319011261032057610ee9611c24565b916024359160ff60035460081c166003811015610bd65760018114610ec057600214610eb257610f17611cb6565b81811015610bd65760028103610f8f575050610f366044358385611de8565b5190815233916001600160a01b0316907f0000000000000000000000000000000000000000000000000000000000000000907e61840683c17d5c16bbabef1c635624cffef2223aced524b735371a8334846790602090a4005b61065f90600260449451936305fb5e1b60e01b85528401526024830190611c03565b5034610320578160031936011261032057610fca611c24565b9160243567ffffffffffffffff811161032057610fea9036908401611c50565b909390916001600160a01b0391907f00000000000000000000000000000000000000000000000000000000000000008316330361109f5760ff61020061ff001960035416178060035560081c169460038610156102c15750906102bc7f7bf94aa98e004220f19fb43e7d8d6dabd2c23e3fadc2908d16dd25f52cd1c43b9392519283926020845216967f0000000000000000000000000000000000000000000000000000000000000000956020840191611c96565b51633217675b60e21b81528490fd5b50903461032057602036600319011261032057602091355f52600c8252805f20549051908152f35b509034610320576080366003190112610320578135916024918235604435926064359460018060a01b0381817f000000000000000000000000000000000000000000000000000000000000000016915f54163314806112f2575b1591826112a0575b50506112915760ff60035460081c16600381101561127e576001811461126e5760021461125f57611167611cb6565b908282101561124d578161122c57505085158015611222575b8015611219575b801561120f575b611201578590558060055582600655836007558151948552602085015283015260608201523360808201527f26f7315aaf2926e91db90b9e8be8c5c36e6a366c93950652ce964393555390c460a07f000000000000000000000000000000000000000000000000000000000000000092a2005b825163a74634cd60e01b8152fd5b508385111561118e565b50818410611187565b5085821115611180565b61065f9293505f60449551946305fb5e1b60e01b8652850152830190611c03565b634e487b7160e01b5f90815260218452fd5b50825163214dacf960e11b8152fd5b84516327c0e7b560e01b81528390fd5b50634e487b7160e01b5f90815260218352fd5b50825163ea8e4eb560e01b8152fd5b865163df7f453b60e01b815233868201529250602091839182905afa908115610715575f916112d3575b5015815f611138565b6112ec915060203d60201161070e576107008183611b86565b5f6112ca565b50508451633e460e1560e21b815233848201526020818481855afa908115610770579083915f91611324575b50611130565b61133d915060203d60201161070e576107008183611b86565b5f61131e565b509034610320575f366003190112610320578051905f9260018054908160011c9160018116801561143c575b6020948585108214611429575083875290811561140957506001146113af575b5050506113a1826113ab940383611b86565b5191829182611bbc565b0390f35b60015f9081529295507fb10e2d527612073b26eecdfd717e6a320cf44b4afac2b0732d9fcbe2b7fa0cf65b8284106113f657505050826113ab946113a1928201019461138f565b80548685018801529286019281016113da565b60ff1916868501525050151560051b83010192506113a1826113ab61138f565b602290634e487b7160e01b5f525260245ffd5b92607f169261136f565b50903461032057602036600319011261032057813591335f52600860205260ff825f20541615610a5a5760ff60035460081c166003811015610bd65760018114610ec057600214610eb257611499611cb6565b81811015610bd6576001810361152c5750335f52600960205260ff825f205416610a4c578215610a3e57508190335f526009602052805f20600160ff19825416179055600b6020525f2055337f00000000000000000000000000000000000000000000000000000000000000007f26a454697a4923cb3646779d831b5e4696bd3fab14b67dd6dfe23d72354f57dd5f80a4005b61065f90600160449451936305fb5e1b60e01b85528401526024830190611c03565b8234610320576020366003190112610320576020906001600160a01b03611573611c24565b165f526008825260ff815f20541690519015158152f35b8234610320575f36600319011261032057602090600d549051908152f35b5090346103205760209081600319360112610320576115c5611c24565b60018060a01b03807f00000000000000000000000000000000000000000000000000000000000000001684825f5416331480611795575b15918261173b575b505061172b5760ff60035460081c1660038110156116f8576001811461171b5760021461170b57611633611cb6565b858110156116f857806116d6575081169384156116c857845f526008845260ff835f2054166116ba5750906116887f5b551e9aea49b0b85a31d13fd569c911ded7781feaae60c3603e3a968b05fc1392611d58565b508051926001845233908401527f000000000000000000000000000000000000000000000000000000000000000092a3005b8251630ea075bf60e21b8152fd5b82516311745b2b60e31b8152fd5b83516305fb5e1b60e01b81525f8188015260449161065f906024830190611c03565b602186634e487b7160e01b5f525260245ffd5b825163214dacf960e11b81528590fd5b83516327c0e7b560e01b81528690fd5b825163ea8e4eb560e01b81528590fd5b855163df7f453b60e01b815233898201529250829060249082905afa90811561178b575f9161176e575b5015845f611604565b6117859150853d871161070e576107008183611b86565b5f611765565b84513d5f823e3d90fd5b50508351633e460e1560e21b815233878201528581602481855afa908115610715579086915f916117c7575b506115fc565b6117de9150823d841161070e576107008183611b86565b5f6117c1565b509034610320575f3660031901126103205760ff60035460081c16905190600381101561181357602092508152f35b602183634e487b7160e01b5f525260245ffd5b8234610320575f366003190112610320576020906007549051908152f35b8234610320575f366003190112610320576020906005549051908152f35b509034610320575f366003190112610320575f546001600160a01b037f000000000000000000000000000000000000000000000000000000000000000081169116331480611a2b575b1590816119cd575b506119c05760039081549160ff8360081c168181101561198d57600181146119b0576002146119a05760ff8316928484101561198d57818414611971576001840160ff811161195e5760ff1694808610156102c15750849060ff1916179055513381527fb08bfe79d11e67f65c878f279728c4d53fc5dfc3373a20958345fcad3750953e60207f000000000000000000000000000000000000000000000000000000000000000092a4005b601186634e487b7160e01b5f525260245ffd5b60448583808651926335c1372560e01b84528301526024820152fd5b602185634e487b7160e01b5f525260245ffd5b815163214dacf960e11b81528490fd5b82516327c0e7b560e01b81528590fd5b5163ea8e4eb560e01b8152fd5b825163df7f453b60e01b815233858201529150602090829060249082905afa908115611a21575f91611a02575b50155f6118b3565b611a1b915060203d60201161070e576107008183611b86565b5f6119fa565b82513d5f823e3d90fd5b508151633e460e1560e21b81523384820152602081602481855afa908115611a79575f91611a5a575b506118ab565b611a73915060203d60201161070e576107008183611b86565b5f611a54565b83513d5f823e3d90fd5b8234610320575f366003190112610320576020906006549051908152f35b8234610320575f3660031901126103205760209061081a60ff6003541691518092611c03565b90508234610320575f366003190112610320575f9260025460018160011c91600181168015611b7c575b602094858510821461142957508387529081156114095750600114611b22575050506113a1826113ab940383611b86565b60025f9081529295507f405787fa12a823e0f2b7631cc41b3ba8828b3321ca811111fa75cd3aa3bb5ace5b828410611b6957505050826113ab946113a1928201019461138f565b8054868501880152928601928101611b4d565b92607f1692611af1565b90601f8019910116810190811067ffffffffffffffff821117611ba857604052565b634e487b7160e01b5f52604160045260245ffd5b602080825282518183018190529093925f5b828110611bef57505060409293505f838284010152601f8019910116010190565b818101860151848201604001528501611bce565b906004821015611c105752565b634e487b7160e01b5f52602160045260245ffd5b600435906001600160a01b038216820361032057565b602435906001600160a01b038216820361032057565b9181601f840112156103205782359167ffffffffffffffff8311610320576020838186019501011161032057565b90816020910312610320575180151581036103205790565b908060209392818452848401375f828201840152601f01601f1916010190565b6004548015611d05574210611ceb576005544210611d0057600754421080611cf4575b611cef576006544210611ceb57600390565b5f90565b600290565b50600654421015611cd9565b600190565b5060ff6003541690565b600d54811015611d4457600d5f527fd7b6990105719101dabeb77144f2a3385c8033acd3af97e9423a695e81ad1eb501905f90565b634e487b7160e01b5f52603260045260245ffd5b6001600160a01b0381165f818152600860205260409020805491929160ff8116611de05760ff19166001179055600d549068010000000000000000821015611ba857611dad826001611dcb9401600d55611d0f565b90919060018060a01b038084549260031b9316831b921b1916179055565b600d54905f52600e60205260405f2055600190565b505050505f90565b90916001600160a01b03909116908115611fae57815f5260206008815260409160ff835f20541615611f9d57835f526009825260ff835f20541615611f8c57835f52600a825260ff835f205416611f7b5784158015611f52575b611f415782519082820190868252848301528460608301523060808301524660a083015260a0825260c082019180831067ffffffffffffffff841117611ba857828552519020845f52600b8352835f205403611f325750825f52600a8152815f20600160ff19825416179055835f52600c8152815f2090815460018101809111611f1e577f63ab6e5dc98a7d72f7b887b4479c584f5d1cc5e644f8b756c1213bc8e32f4f429255845f52600c8152825f205492519283527f000000000000000000000000000000000000000000000000000000000000000092a4565b634e487b7160e01b5f52601160045260245ffd5b635054097b60e01b8152600490fd5b825163e66ea08f60e01b8152600490fd5b507f00000000000000000000000000000000000000000000000000000000000000008511611e42565b825163a89ac15160e01b8152600490fd5b8251631918952960e01b8152600490fd5b825163aba4733960e01b8152600490fd5b6040516311745b2b60e31b8152600490fd5b6001600160a01b039081165f8181526008602052604090205490919060ff16156120a657600e60205260405f20545f1990818101818111611f1e57600d54838101908111611f1e578181869303612071575b50505050600d54801561205d57019061202a82611d0f565b909182549160031b1b19169055600d555f52600e6020525f6040812055600860205260405f2060ff198154169055600190565b634e487b7160e01b5f52603160045260245ffd5b611dad9261208161209193611d0f565b90549060031b1c16928391611d0f565b5f52600e60205260405f20555f828180612012565b50505f9056fea2646970667358221220073b8f6f049e6c6ff5f621b203bfde4d067b624f15dd988948e7ab2af26cfd2264736f6c63430008180033405787fa12a823e0f2b7631cc41b3ba8828b3321ca811111fa75cd3aa3bb5aceb10e2d527612073b26eecdfd717e6a320cf44b4afac2b0732d9fcbe2b7fa0cf6a26469706673582212206d7767bf4cce6767a69e5433429a65d3af36ac555245de6344733cfd5decefcd64736f6c63430008180033","linkReferences":{}},"methodIdentifiers":{"addSuperAdmin(address)":"b3292ff0","createElectionForAdminWithConfig(address,string,string,uint256,address[],uint256,uint256,uint256,uint256)":"9db23793","isPlatformAdmin(address)":"f9183854","isSuperAdmin(address)":"df7f453b","nextProposalId()":"2ab09d14","nextSpaceId()":"e565e661","proposals(uint256)":"013cf08b","removeSuperAdmin(address)":"4902e4aa","setAdmin(address,bool)":"4b0bddd2","spaceById(uint256)":"70de50a2","superAdmin()":"29575f6a","superAdmins(address)":"ad25cb42","suspendSpace(uint256,string)":"56b5f8ee","terminateSpace(uint256,string)":"80cd7f2a","transferSpaceAdmin(uint256,address,string)":"61a982fd","unsuspendSpace(uint256,string)":"84aa6169"},"id":23}