{"abi":[{"type":"constructor","inputs":[],"stateMutability":"nonpayable"},{"type":"function","name":"changeProposals","inputs":[{"name":"","type":"uint256","internalType":"uint256"}],"outputs":[{"name":"spaceId","type":"uint256","internalType":"uint256"},{"name":"title","type":"string","internalType":"string"},{"name":"metadataURI","type":"string","internalType":"string"},{"name":"status","type":"uint8","internalType":"enum VoteChainRegistry.ProposalStatus"},{"name":"proposer","type":"address","internalType":"address"}],"stateMutability":"view"},{"type":"function","name":"createElectionFromProposal","inputs":[{"name":"proposalId","type":"uint256","internalType":"uint256"}],"outputs":[{"name":"spaceId","type":"uint256","internalType":"uint256"},{"name":"spaceAddress","type":"address","internalType":"address"}],"stateMutability":"nonpayable"},{"type":"function","name":"isPlatformAdmin","inputs":[{"name":"","type":"address","internalType":"address"}],"outputs":[{"name":"","type":"bool","internalType":"bool"}],"stateMutability":"view"},{"type":"function","name":"isSuperAdmin","inputs":[{"name":"account","type":"address","internalType":"address"}],"outputs":[{"name":"","type":"bool","internalType":"bool"}],"stateMutability":"view"},{"type":"function","name":"nextChangeProposalId","inputs":[],"outputs":[{"name":"","type":"uint256","internalType":"uint256"}],"stateMutability":"view"},{"type":"function","name":"nextProposalId","inputs":[],"outputs":[{"name":"","type":"uint256","internalType":"uint256"}],"stateMutability":"view"},{"type":"function","name":"nextSpaceId","inputs":[],"outputs":[{"name":"","type":"uint256","internalType":"uint256"}],"stateMutability":"view"},{"type":"function","name":"proposals","inputs":[{"name":"","type":"uint256","internalType":"uint256"}],"outputs":[{"name":"proposer","type":"address","internalType":"address"},{"name":"candidateCount","type":"uint256","internalType":"uint256"},{"name":"status","type":"uint8","internalType":"enum VoteChainRegistry.ProposalStatus"},{"name":"title","type":"string","internalType":"string"},{"name":"metadataURI","type":"string","internalType":"string"},{"name":"reviewer","type":"address","internalType":"address"},{"name":"reviewedAt","type":"uint256","internalType":"uint256"}],"stateMutability":"view"},{"type":"function","name":"proposeSpaceUpdate","inputs":[{"name":"spaceId","type":"uint256","internalType":"uint256"},{"name":"title","type":"string","internalType":"string"},{"name":"metadataURI","type":"string","internalType":"string"}],"outputs":[{"name":"changeId","type":"uint256","internalType":"uint256"}],"stateMutability":"nonpayable"},{"type":"function","name":"reviewProposal","inputs":[{"name":"proposalId","type":"uint256","internalType":"uint256"},{"name":"approve","type":"bool","internalType":"bool"}],"outputs":[],"stateMutability":"nonpayable"},{"type":"function","name":"reviewSpaceUpdate","inputs":[{"name":"changeId","type":"uint256","internalType":"uint256"},{"name":"approve","type":"bool","internalType":"bool"}],"outputs":[],"stateMutability":"nonpayable"},{"type":"function","name":"setAdmin","inputs":[{"name":"admin","type":"address","internalType":"address"},{"name":"isActive","type":"bool","internalType":"bool"}],"outputs":[],"stateMutability":"nonpayable"},{"type":"function","name":"spaceById","inputs":[{"name":"","type":"uint256","internalType":"uint256"}],"outputs":[{"name":"","type":"address","internalType":"address"}],"stateMutability":"view"},{"type":"function","name":"submitProposal","inputs":[{"name":"title","type":"string","internalType":"string"},{"name":"metadataURI","type":"string","internalType":"string"},{"name":"candidateCount","type":"uint256","internalType":"uint256"}],"outputs":[{"name":"proposalId","type":"uint256","internalType":"uint256"}],"stateMutability":"nonpayable"},{"type":"function","name":"superAdmin","inputs":[],"outputs":[{"name":"","type":"address","internalType":"address"}],"stateMutability":"view"},{"type":"function","name":"suspendSpace","inputs":[{"name":"spaceId","type":"uint256","internalType":"uint256"},{"name":"reasonCode","type":"string","internalType":"string"}],"outputs":[],"stateMutability":"nonpayable"},{"type":"function","name":"terminateSpace","inputs":[{"name":"spaceId","type":"uint256","internalType":"uint256"},{"name":"reasonCode","type":"string","internalType":"string"}],"outputs":[],"stateMutability":"nonpayable"},{"type":"function","name":"unsuspendSpace","inputs":[{"name":"spaceId","type":"uint256","internalType":"uint256"},{"name":"reasonCode","type":"string","internalType":"string"}],"outputs":[],"stateMutability":"nonpayable"},{"type":"event","name":"AdminUpserted","inputs":[{"name":"admin","type":"address","indexed":true,"internalType":"address"},{"name":"isActive","type":"bool","indexed":false,"internalType":"bool"}],"anonymous":false},{"type":"event","name":"ChangeProposalReviewed","inputs":[{"name":"changeId","type":"uint256","indexed":true,"internalType":"uint256"},{"name":"decision","type":"uint8","indexed":true,"internalType":"enum VoteChainRegistry.ProposalStatus"},{"name":"reviewer","type":"address","indexed":true,"internalType":"address"}],"anonymous":false},{"type":"event","name":"ChangeProposalSubmitted","inputs":[{"name":"changeId","type":"uint256","indexed":true,"internalType":"uint256"},{"name":"spaceId","type":"uint256","indexed":true,"internalType":"uint256"},{"name":"proposer","type":"address","indexed":false,"internalType":"address"}],"anonymous":false},{"type":"event","name":"ElectionSpaceCreated","inputs":[{"name":"spaceId","type":"uint256","indexed":true,"internalType":"uint256"},{"name":"space","type":"address","indexed":true,"internalType":"address"},{"name":"proposalId","type":"uint256","indexed":true,"internalType":"uint256"},{"name":"owner","type":"address","indexed":false,"internalType":"address"},{"name":"candidateCount","type":"uint256","indexed":false,"internalType":"uint256"}],"anonymous":false},{"type":"event","name":"ProposalReviewed","inputs":[{"name":"proposalId","type":"uint256","indexed":true,"internalType":"uint256"},{"name":"decision","type":"uint8","indexed":true,"internalType":"enum VoteChainRegistry.ProposalStatus"},{"name":"reviewer","type":"address","indexed":true,"internalType":"address"}],"anonymous":false},{"type":"event","name":"ProposalSubmitted","inputs":[{"name":"proposalId","type":"uint256","indexed":true,"internalType":"uint256"},{"name":"proposer","type":"address","indexed":true,"internalType":"address"},{"name":"candidateCount","type":"uint256","indexed":false,"internalType":"uint256"}],"anonymous":false},{"type":"error","name":"InvalidAdmin","inputs":[]},{"type":"error","name":"InvalidCandidateCount","inputs":[]},{"type":"error","name":"InvalidProposalStatus","inputs":[{"name":"current","type":"uint8","internalType":"enum VoteChainRegistry.ProposalStatus"},{"name":"expected","type":"uint8","internalType":"enum VoteChainRegistry.ProposalStatus"}]},{"type":"error","name":"NotPlatformAdmin","inputs":[]},{"type":"error","name":"NotProposalOwner","inputs":[]},{"type":"error","name":"NotSuperAdmin","inputs":[]},{"type":"error","name":"ProposalNotFound","inputs":[]},{"type":"error","name":"SpaceNotFound","inputs":[]}],"bytecode":{"object":"0x60a060405260015f5560018055600160025534801561001c575f80fd5b503360805260805161366d61007f5f395f8181610167015281816102a501528181610506015281816106d9015281816107a9015281816108930152818161096001528181610b6b01528181610c3a01528181610ef40152611054015261366d5ff3fe608060405234801562000010575f80fd5b506004361062000128575f3560e01c806382b8427411620000ab578063e565e6611162000077578063e565e66114620002e6578063ec6b498b14620002f0578063f13c71581462000325578063f9183854146200033c578063fc5a4efe1462000361575f80fd5b806382b84274146200024d57806384aa61691462000264578063ba8554c7146200027b578063df7f453b1462000292575f80fd5b80634b0bddd211620000f75780634b0bddd214620001d357806356b5f8ee14620001ea57806370de50a214620002015780637514fc6c146200022c57806380cd7f2a1462000236575f80fd5b8063013cf08b146200012c57806329575f6a14620001615780632ab09d1414620001a257806343c6121314620001ba575b5f80fd5b620001436200013d36600462001317565b6200038b565b604051620001589796959493929190620013a9565b60405180910390f35b620001897f000000000000000000000000000000000000000000000000000000000000000081565b6040516001600160a01b03909116815260200162000158565b620001ab5f5481565b60405190815260200162000158565b620001d1620001cb36600462001425565b620004fb565b005b620001d1620001e436600462001469565b620006ce565b620001d1620001fb366004620014de565b6200079e565b620001896200021236600462001317565b60066020525f90815260409020546001600160a01b031681565b620001ab60015481565b620001d162000247366004620014de565b62000888565b620001ab6200025e3660046200152a565b6200093a565b620001d162000275366004620014de565b62000b60565b620001ab6200028c366004620015a5565b62000c14565b620002d5620002a33660046200161a565b7f00000000000000000000000000000000000000000000000000000000000000006001600160a01b0390811691161490565b604051901515815260200162000158565b620001ab60025481565b620003076200030136600462001317565b62000e4f565b604080519283526001600160a01b0390911660208301520162000158565b620001d16200033636600462001425565b62001049565b620002d56200034d3660046200161a565b60036020525f908152604090205460ff1681565b620003786200037236600462001317565b620011b1565b604051620001589594939291906200163d565b60046020525f908152604090208054600182015460028301546003840180546001600160a01b0390941694929360ff9092169291620003ca9062001698565b80601f0160208091040260200160405190810160405280929190818152602001828054620003f89062001698565b8015620004475780601f106200041d5761010080835404028352916020019162000447565b820191905f5260205f20905b8154815290600101906020018083116200042957829003601f168201915b5050505050908060040180546200045e9062001698565b80601f01602080910402602001604051908101604052809291908181526020018280546200048c9062001698565b8015620004db5780601f10620004b157610100808354040283529160200191620004db565b820191905f5260205f20905b815481529060010190602001808311620004bd57829003601f168201915b50505050600583015460069093015491926001600160a01b031691905087565b336001600160a01b037f0000000000000000000000000000000000000000000000000000000000000000161462000545576040516316c726b160e01b815260040160405180910390fd5b5f828152600560205260409020600381015461010090046001600160a01b0316620005835760405163635e873760e01b815260040160405180910390fd5b5f60038083015460ff1690811115620005a057620005a06200132f565b14620005d5576003810154604051633233a43d60e21b8152620005cc9160ff16905f90600401620016d2565b60405180910390fd5b81156200066f5760038101805460ff1916600190811790915581545f90815260066020526040908190205490516307b63c2960e01b81526001600160a01b039091169182916307b63c29916200063991908601906002870190339060040162001772565b5f604051808303815f87803b15801562000651575f80fd5b505af115801562000664573d5f803e3d5ffd5b50505050506200067f565b60038101805460ff191660021790555b600380820154339160ff909116908111156200069f576200069f6200132f565b60405185907f016dd1e56d48265dd218010889b30d8b9d0af2c496aae1b48e47dd16520d8158905f90a4505050565b336001600160a01b037f0000000000000000000000000000000000000000000000000000000000000000161462000718576040516316c726b160e01b815260040160405180910390fd5b6001600160a01b0382166200074057604051630b5eba9f60e41b815260040160405180910390fd5b6001600160a01b0382165f81815260036020908152604091829020805460ff191685151590811790915591519182527fde2ec5a61cb25575c35ed8c41a10938fdf23711909527a1abac273444cf21e75910160405180910390a25050565b336001600160a01b037f00000000000000000000000000000000000000000000000000000000000000001614620007e8576040516316c726b160e01b815260040160405180910390fd5b5f838152600660205260409020546001600160a01b0316806200081e57604051636255b06960e01b815260040160405180910390fd5b604051637edfb26160e11b81526001600160a01b0382169063fdbf64c2906200085390600190339088908890600401620017db565b5f604051808303815f87803b1580156200086b575f80fd5b505af11580156200087e573d5f803e3d5ffd5b5050505050505050565b336001600160a01b037f00000000000000000000000000000000000000000000000000000000000000001614620008d2576040516316c726b160e01b815260040160405180910390fd5b5f838152600660205260409020546001600160a01b0316806200090857604051636255b06960e01b815260040160405180910390fd5b6040516329a7074f60e11b81526001600160a01b0382169063534e0e9e90620008539033908790879060040162001813565b335f9081526003602052604081205460ff16158015620009835750336001600160a01b037f00000000000000000000000000000000000000000000000000000000000000001614155b15620009a25760405163d4d7478360e01b815260040160405180910390fd5b5f868152600660205260409020546001600160a01b0316620009d757604051636255b06960e01b815260040160405180910390fd5b506001805490805f620009eb828562001842565b925050819055506040518060a0016040528087815260200186868080601f0160208091040260200160405190810160405280939291908181526020018383808284375f92019190915250505090825250604080516020601f8701819004810282018101909252858152918101919086908690819084018382808284375f920182905250938552505050602080830182905233604093840152848252600581529190208251815590820151600182019062000aa69082620018cc565b506040820151600282019062000abd9082620018cc565b506060820151816003015f6101000a81548160ff0219169083600381111562000aea5762000aea6200132f565b021790555060809190910151600390910180546001600160a01b0390921661010002610100600160a81b0319909216919091179055604051338152869082907f87bc07659f51a77af8076b97a1b510ccb69c3bea3105e08b0706bf42f7cbc69b906020015b60405180910390a395945050505050565b336001600160a01b037f0000000000000000000000000000000000000000000000000000000000000000161462000baa576040516316c726b160e01b815260040160405180910390fd5b5f838152600660205260409020546001600160a01b03168062000be057604051636255b06960e01b815260040160405180910390fd5b604051637edfb26160e11b81526001600160a01b0382169063fdbf64c29062000853905f90339088908890600401620017db565b335f9081526003602052604081205460ff1615801562000c5d5750336001600160a01b037f00000000000000000000000000000000000000000000000000000000000000001614155b1562000c7c5760405163d4d7478360e01b815260040160405180910390fd5b815f0362000c9d57604051632853b25560e01b815260040160405180910390fd5b505f8054906001908062000cb2838562001842565b90915550506040805160e081018252338152602081018490529081015f815260200187878080601f0160208091040260200160405190810160405280939291908181526020018383808284375f92019190915250505090825250604080516020601f8801819004810282018101909252868152918101919087908790819084018382808284375f920182905250938552505050602080830182905260409283018290528482526004815290829020835181546001600160a01b0319166001600160a01b03909116178155908301516001808301919091559183015160028201805492939192909160ff199091169083600381111562000db55762000db56200132f565b02179055506060820151600382019062000dd09082620018cc565b506080820151600482019062000de79082620018cc565b5060a08201516005820180546001600160a01b0319166001600160a01b0390921691909117905560c090910151600690910155604051828152339082907f6595205dae276ce902b2ea66a70a1f42db62056854c3c4dba1e00ec5e2d56e3d9060200162000b4f565b5f81815260046020526040812080548291906001600160a01b031662000e885760405163635e873760e01b815260040160405180910390fd5b6001600282015460ff16600381111562000ea65762000ea66200132f565b1462000ed3576002810154604051633233a43d60e21b8152620005cc9160ff1690600190600401620016d2565b80546001600160a01b0316331480159062000f175750336001600160a01b037f00000000000000000000000000000000000000000000000000000000000000001614155b1562000f365760405163287a405960e01b815260040160405180910390fd5b6002805493506001905f62000f4c838762001842565b9091555050805460018201546040515f9230926001600160a01b03909116918791906003870190600488019062000f839062001309565b62000f949695949392919062001999565b604051809103905ff08015801562000fae573d5f803e3d5ffd5b505f85815260066020526040902080546001600160a01b0319166001600160a01b03831617905560028301805491945084925060039160ff1916600183021790555081546001830154604080516001600160a01b0393841681526020810192909252879286169187917f6d01a0c816e379a259b63ac8da3edf1179b0db179da21d6ae21999dc0ec0f15e910160405180910390a45050915091565b336001600160a01b037f0000000000000000000000000000000000000000000000000000000000000000161462001093576040516316c726b160e01b815260040160405180910390fd5b5f82815260046020526040902080546001600160a01b0316620010c95760405163635e873760e01b815260040160405180910390fd5b5f600282015460ff166003811115620010e657620010e66200132f565b1462001112576002810154604051633233a43d60e21b8152620005cc9160ff16905f90600401620016d2565b816200112057600262001123565b60015b60028201805460ff191660018360038111156200114457620011446200132f565b02179055506005810180546001600160a01b03191633908117909155426006830155600282015460ff1660038111156200118257620011826200132f565b60405185907fef0d88bbaeb4891d8e9303afd9d553f2807df5898cedf46c37ec9feba34741d3905f90a4505050565b60056020525f908152604090208054600182018054919291620011d49062001698565b80601f0160208091040260200160405190810160405280929190818152602001828054620012029062001698565b8015620012515780601f10620012275761010080835404028352916020019162001251565b820191905f5260205f20905b8154815290600101906020018083116200123357829003601f168201915b505050505090806002018054620012689062001698565b80601f0160208091040260200160405190810160405280929190818152602001828054620012969062001698565b8015620012e55780601f10620012bb57610100808354040283529160200191620012e5565b820191905f5260205f20905b815481529060010190602001808311620012c757829003601f168201915b5050506003909301549192505060ff8116906001600160a01b036101009091041685565b611c4280620019f683390190565b5f6020828403121562001328575f80fd5b5035919050565b634e487b7160e01b5f52602160045260245ffd5b600481106200136057634e487b7160e01b5f52602160045260245ffd5b9052565b5f81518084525f5b818110156200138a576020818501810151868301820152016200136c565b505f602082860101526020601f19601f83011685010191505092915050565b6001600160a01b038881168252602082018890525f90620013ce604084018962001343565b60e06060840152620013e460e084018862001364565b8381036080850152620013f8818862001364565b9590911660a0840152505060c0015295945050505050565b8035801515811462001420575f80fd5b919050565b5f806040838503121562001437575f80fd5b82359150620014496020840162001410565b90509250929050565b80356001600160a01b038116811462001420575f80fd5b5f80604083850312156200147b575f80fd5b620014868362001452565b9150620014496020840162001410565b5f8083601f840112620014a7575f80fd5b50813567ffffffffffffffff811115620014bf575f80fd5b602083019150836020828501011115620014d7575f80fd5b9250929050565b5f805f60408486031215620014f1575f80fd5b83359250602084013567ffffffffffffffff8111156200150f575f80fd5b6200151d8682870162001496565b9497909650939450505050565b5f805f805f606086880312156200153f575f80fd5b85359450602086013567ffffffffffffffff808211156200155e575f80fd5b6200156c89838a0162001496565b9096509450604088013591508082111562001585575f80fd5b50620015948882890162001496565b969995985093965092949392505050565b5f805f805f60608688031215620015ba575f80fd5b853567ffffffffffffffff80821115620015d2575f80fd5b620015e089838a0162001496565b90975095506020880135915080821115620015f9575f80fd5b50620016088882890162001496565b96999598509660400135949350505050565b5f602082840312156200162b575f80fd5b620016368262001452565b9392505050565b85815260a060208201525f6200165760a083018762001364565b82810360408401526200166b818762001364565b9150506200167d606083018562001343565b6001600160a01b039290921660809190910152949350505050565b600181811c90821680620016ad57607f821691505b602082108103620016cc57634e487b7160e01b5f52602260045260245ffd5b50919050565b60408101620016e2828562001343565b62001636602083018462001343565b5f8154620016ff8162001698565b8085526020600183811680156200171f57600181146200173a5762001767565b60ff1985168884015283151560051b88018301955062001767565b865f52825f205f5b858110156200175f5781548a820186015290830190840162001742565b890184019650505b505050505092915050565b606081525f620017866060830186620016f1565b82810360208401526200179a8186620016f1565b91505060018060a01b0383166040830152949350505050565b81835281816020850137505f828201602090810191909152601f909101601f19169091010190565b84151581526001600160a01b03841660208201526060604082018190525f90620018099083018486620017b3565b9695505050505050565b6001600160a01b03841681526040602082018190525f90620018399083018486620017b3565b95945050505050565b808201808211156200186257634e487b7160e01b5f52601160045260245ffd5b92915050565b634e487b7160e01b5f52604160045260245ffd5b601f821115620018c757805f5260205f20601f840160051c81016020851015620018a35750805b601f840160051c820191505b81811015620018c4575f8155600101620018af565b50505b505050565b815167ffffffffffffffff811115620018e957620018e962001868565b6200190181620018fa845462001698565b846200187c565b602080601f83116001811462001937575f84156200191f5750858301515b5f19600386901b1c1916600185901b17855562001991565b5f85815260208120601f198616915b82811015620019675788860151825594840194600190910190840162001946565b50858210156200198557878501515f19600388901b60f8161c191681555b505060018460011b0185555b505050505050565b6001600160a01b03878116825286166020820152604081018590526060810184905260c0608082018190525f90620019d490830185620016f1565b82810360a0840152620019e88185620016f1565b999850505050505050505056fe61010060405234801562000011575f80fd5b5060405162001c4238038062001c428339810160408190526200003491620001c1565b6001600160a01b03861615806200005257506001600160a01b038516155b15620000715760405163ea8e4eb560e01b815260040160405180910390fd5b825f03620000925760405163e66ea08f60e01b815260040160405180910390fd5b6001600160a01b03808716608052851660a05260c084905260e08390525f620000bc8382620002e8565b506001620000cb8282620002e8565b50506002805461ffff1916905550620003b49350505050565b80516001600160a01b0381168114620000fb575f80fd5b919050565b634e487b7160e01b5f52604160045260245ffd5b5f82601f83011262000124575f80fd5b81516001600160401b038082111562000141576200014162000100565b604051601f8301601f19908116603f011681019082821181831017156200016c576200016c62000100565b816040528381526020925086602085880101111562000189575f80fd5b5f91505b83821015620001ac57858201830151818301840152908201906200018d565b5f602085830101528094505050505092915050565b5f805f805f8060c08789031215620001d7575f80fd5b620001e287620000e4565b9550620001f260208801620000e4565b6040880151606089015160808a015192975090955093506001600160401b03808211156200021e575f80fd5b6200022c8a838b0162000114565b935060a089015191508082111562000242575f80fd5b506200025189828a0162000114565b9150509295509295509295565b600181811c908216806200027357607f821691505b6020821081036200029257634e487b7160e01b5f52602260045260245ffd5b50919050565b601f821115620002e357805f5260205f20601f840160051c81016020851015620002bf5750805b601f840160051c820191505b81811015620002e0575f8155600101620002cb565b50505b505050565b81516001600160401b0381111562000304576200030462000100565b6200031c816200031584546200025e565b8462000298565b602080601f83116001811462000352575f84156200033a5750858301515b5f19600386901b1c1916600185901b178555620003ac565b5f85815260208120601f198616915b82811015620003825788860151825594840194600190910190840162000361565b5085821015620003a057878501515f19600388901b60f8161c191681555b505060018460011b0185555b505050505050565b60805160a05160c05160e0516117d56200046d5f395f818161032001528181610d9a015261113f01525f818161026d015281816104aa0152818161072e0152818161098201528181610b1801528181610beb01528181610e89015281816110a9015261127701525f81816102940152818161051a015281816107890152610ef001525f81816102d30152818161044f01528181610558015281816107c701528181610b7701528181610f2e01526111a101526117d55ff3fe608060405234801561000f575f80fd5b506004361061013d575f3560e01c806369edbcda116100b4578063995e433911610079578063995e433914610308578063a9a981a31461031b578063b9a5301314610342578063c6dbe15a14610364578063f662b88114610386578063fdbf64c2146103a5575f80fd5b806369edbcda146102555780636bf2ffa1146102685780637a967cd31461028f5780637b103999146102ce5780637ed17751146102f5575f80fd5b806338db6dd31161010557806338db6dd3146101b55780633af32abf146101c85780633e858923146101fa5780634a79d50c1461020d5780634fc8a20d14610215578063534e0e9e14610242575f80fd5b806303ee438c14610141578063055ad42e1461015f57806307b63c29146101795780630f8779c61461018e578063200d2ed214610196575b5f80fd5b6101496103b8565b60405161015691906112c7565b60405180910390f35b60025461016c9060ff1681565b604051610156919061133b565b61018c6101873660046113af565b610444565b005b61018c61050f565b6002546101a890610100900460ff1681565b604051610156919061142a565b61018c6101c3366004611444565b61077e565b6101ea6101d6366004611444565b60036020525f908152604090205460ff1681565b6040519015158152602001610156565b61018c610208366004611464565b6109d2565b610149610b60565b610234610223366004611464565b60076020525f908152604090205481565b604051908152602001610156565b61018c61025036600461147b565b610b6c565b61018c6102633660046114ca565b610c48565b6102347f000000000000000000000000000000000000000000000000000000000000000081565b6102b67f000000000000000000000000000000000000000000000000000000000000000081565b6040516001600160a01b039091168152602001610156565b6102b67f000000000000000000000000000000000000000000000000000000000000000081565b61018c610303366004611444565b610ee5565b610234610316366004611464565b6110f1565b6102347f000000000000000000000000000000000000000000000000000000000000000081565b6101ea610350366004611444565b60056020525f908152604090205460ff1681565b6101ea610372366004611444565b60046020525f908152604090205460ff1681565b610234610394366004611444565b60066020525f908152604090205481565b61018c6103b33660046114fa565b611196565b600180546103c590611559565b80601f01602080910402602001604051908101604052809291908181526020018280546103f190611559565b801561043c5780601f106104135761010080835404028352916020019161043c565b820191905f5260205f20905b81548152906001019060200180831161041f57829003601f168201915b505050505081565b336001600160a01b037f0000000000000000000000000000000000000000000000000000000000000000161461048d57604051633217675b60e21b815260040160405180910390fd5b5f6104998587836115eb565b5060016104a78385836115eb565b507f00000000000000000000000000000000000000000000000000000000000000007f4f86676f84ed8c8823cd1b5c0682bdfc9263d14d9879cd7609262de9f280002b86868686866040516105009594939291906116cd565b60405180910390a25050505050565b336001600160a01b037f000000000000000000000000000000000000000000000000000000000000000016148015906105cb575060405163df7f453b60e01b81523360048201527f00000000000000000000000000000000000000000000000000000000000000006001600160a01b03169063df7f453b90602401602060405180830381865afa1580156105a5573d5f803e3d5ffd5b505050506040513d601f19601f820116820180604052508101906105c9919061170e565b155b156105e95760405163ea8e4eb560e01b815260040160405180910390fd5b600160028054610100900460ff169081111561060757610607611313565b03610625576040516327c0e7b560e01b815260040160405180910390fd5b6002808054610100900460ff169081111561064257610642611313565b036106605760405163214dacf960e11b815260040160405180910390fd5b600360025460ff16600381111561067957610679611313565b036106a5576003806040516335c1372560e01b815260040161069c929190611729565b60405180910390fd5b60025460ff168060038111156106bd576106bd611313565b6106c8906001611758565b60ff1660038111156106dc576106dc611313565b6002805460ff191660018360038111156106f8576106f8611313565b021790555060025460ff16600381111561071457610714611313565b81600381111561072657610726611313565b6040513381527f0000000000000000000000000000000000000000000000000000000000000000907fb08bfe79d11e67f65c878f279728c4d53fc5dfc3373a20958345fcad3750953e9060200160405180910390a450565b336001600160a01b037f0000000000000000000000000000000000000000000000000000000000000000161480159061083a575060405163df7f453b60e01b81523360048201527f00000000000000000000000000000000000000000000000000000000000000006001600160a01b03169063df7f453b90602401602060405180830381865afa158015610814573d5f803e3d5ffd5b505050506040513d601f19601f82011682018060405250810190610838919061170e565b155b156108585760405163ea8e4eb560e01b815260040160405180910390fd5b600160028054610100900460ff169081111561087657610876611313565b03610894576040516327c0e7b560e01b815260040160405180910390fd5b6002808054610100900460ff16908111156108b1576108b1611313565b036108cf5760405163214dacf960e11b815260040160405180910390fd5b5f8060025460ff1660038111156108e8576108e8611313565b14610911576002546040516305fb5e1b60e01b815261069c91839160ff90911690600401611729565b6001600160a01b0382165f9081526003602052604090205460ff161561094a57604051630ea075bf60e21b815260040160405180910390fd5b6001600160a01b0382165f81815260036020908152604091829020805460ff19166001908117909155825190815233918101919091527f0000000000000000000000000000000000000000000000000000000000000000917f5b551e9aea49b0b85a31d13fd569c911ded7781feaae60c3603e3a968b05fc1391015b60405180910390a35050565b335f9081526003602052604090205460ff16610a015760405163aba4733960e01b815260040160405180910390fd5b600160028054610100900460ff1690811115610a1f57610a1f611313565b03610a3d576040516327c0e7b560e01b815260040160405180910390fd5b6002808054610100900460ff1690811115610a5a57610a5a611313565b03610a785760405163214dacf960e11b815260040160405180910390fd5b60018060025460ff166003811115610a9257610a92611313565b14610abb576002546040516305fb5e1b60e01b815261069c91839160ff90911690600401611729565b335f9081526004602052604090205460ff1615610aeb576040516317fd8aab60e31b815260040160405180910390fd5b335f818152600460209081526040808320805460ff191660011790556006909152808220859055518492917f0000000000000000000000000000000000000000000000000000000000000000917f26a454697a4923cb3646779d831b5e4696bd3fab14b67dd6dfe23d72354f57dd9190a45050565b5f80546103c590611559565b336001600160a01b037f00000000000000000000000000000000000000000000000000000000000000001614610bb557604051633217675b60e21b815260040160405180910390fd5b6002805461ff001916610200178082556001600160a01b0385169161010090910460ff1690811115610be957610be9611313565b7f00000000000000000000000000000000000000000000000000000000000000007f7bf94aa98e004220f19fb43e7d8d6dabd2c23e3fadc2908d16dd25f52cd1c43b8585604051610c3b929190611771565b60405180910390a4505050565b335f9081526003602052604090205460ff16610c775760405163aba4733960e01b815260040160405180910390fd5b600160028054610100900460ff1690811115610c9557610c95611313565b03610cb3576040516327c0e7b560e01b815260040160405180910390fd5b6002808054610100900460ff1690811115610cd057610cd0611313565b03610cee5760405163214dacf960e11b815260040160405180910390fd5b60028060025460ff166003811115610d0857610d08611313565b14610d31576002546040516305fb5e1b60e01b815261069c91839160ff90911690600401611729565b335f9081526004602052604090205460ff16610d6057604051631918952960e01b815260040160405180910390fd5b335f9081526005602052604090205460ff1615610d905760405163a89ac15160e01b815260040160405180910390fd5b821580610dbc57507f000000000000000000000000000000000000000000000000000000000000000083115b15610dda5760405163e66ea08f60e01b815260040160405180910390fd5b60408051602080820186905281830185905282518083038401815260609092018352815191810191909120335f9081526006909252919020548114610e3257604051635054097b60e01b815260040160405180910390fd5b335f908152600560209081526040808320805460ff1916600190811790915587845260079092528220805491929091610e6c90849061178c565b90915550505f8481526007602052604090819020549051859133917f0000000000000000000000000000000000000000000000000000000000000000917f63ab6e5dc98a7d72f7b887b4479c584f5d1cc5e644f8b756c1213bc8e32f4f4291610ed791815260200190565b60405180910390a450505050565b336001600160a01b037f00000000000000000000000000000000000000000000000000000000000000001614801590610fa1575060405163df7f453b60e01b81523360048201527f00000000000000000000000000000000000000000000000000000000000000006001600160a01b03169063df7f453b90602401602060405180830381865afa158015610f7b573d5f803e3d5ffd5b505050506040513d601f19601f82011682018060405250810190610f9f919061170e565b155b15610fbf5760405163ea8e4eb560e01b815260040160405180910390fd5b600160028054610100900460ff1690811115610fdd57610fdd611313565b03610ffb576040516327c0e7b560e01b815260040160405180910390fd5b6002808054610100900460ff169081111561101857611018611313565b036110365760405163214dacf960e11b815260040160405180910390fd5b5f8060025460ff16600381111561104f5761104f611313565b14611078576002546040516305fb5e1b60e01b815261069c91839160ff90911690600401611729565b6001600160a01b0382165f818152600360209081526040808320805460ff19169055805192835233918301919091527f0000000000000000000000000000000000000000000000000000000000000000917f5b551e9aea49b0b85a31d13fd569c911ded7781feaae60c3603e3a968b05fc1391016109c6565b5f60038060025460ff16600381111561110c5761110c611313565b14611135576002546040516305fb5e1b60e01b815261069c91839160ff90911690600401611729565b82158061116157507f000000000000000000000000000000000000000000000000000000000000000083115b1561117f5760405163e66ea08f60e01b815260040160405180910390fd5b5f8381526007602052604090205491505b50919050565b336001600160a01b037f000000000000000000000000000000000000000000000000000000000000000016146111df57604051633217675b60e21b815260040160405180910390fd5b6002808054610100900460ff16908111156111fc576111fc611313565b0361121a5760405163214dacf960e11b815260040160405180910390fd5b83611225575f611228565b60015b6002805461ff001916610100838381111561124557611245611313565b0217905550826001600160a01b0316600260019054906101000a900460ff16600281111561127557611275611313565b7f00000000000000000000000000000000000000000000000000000000000000007f7bf94aa98e004220f19fb43e7d8d6dabd2c23e3fadc2908d16dd25f52cd1c43b8585604051610ed7929190611771565b5f602080835283518060208501525f5b818110156112f3578581018301518582016040015282016112d7565b505f604082860101526040601f19601f8301168501019250505092915050565b634e487b7160e01b5f52602160045260245ffd5b6004811061133757611337611313565b9052565b602081016113498284611327565b92915050565b5f8083601f84011261135f575f80fd5b50813567ffffffffffffffff811115611376575f80fd5b60208301915083602082850101111561138d575f80fd5b9250929050565b80356001600160a01b03811681146113aa575f80fd5b919050565b5f805f805f606086880312156113c3575f80fd5b853567ffffffffffffffff808211156113da575f80fd5b6113e689838a0161134f565b909750955060208801359150808211156113fe575f80fd5b5061140b8882890161134f565b909450925061141e905060408701611394565b90509295509295909350565b602081016003831061143e5761143e611313565b91905290565b5f60208284031215611454575f80fd5b61145d82611394565b9392505050565b5f60208284031215611474575f80fd5b5035919050565b5f805f6040848603121561148d575f80fd5b61149684611394565b9250602084013567ffffffffffffffff8111156114b1575f80fd5b6114bd8682870161134f565b9497909650939450505050565b5f80604083850312156114db575f80fd5b50508035926020909101359150565b80151581146114f7575f80fd5b50565b5f805f806060858703121561150d575f80fd5b8435611518816114ea565b935061152660208601611394565b9250604085013567ffffffffffffffff811115611541575f80fd5b61154d8782880161134f565b95989497509550505050565b600181811c9082168061156d57607f821691505b60208210810361119057634e487b7160e01b5f52602260045260245ffd5b634e487b7160e01b5f52604160045260245ffd5b601f8211156115e657805f5260205f20601f840160051c810160208510156115c45750805b601f840160051c820191505b818110156115e3575f81556001016115d0565b50505b505050565b67ffffffffffffffff8311156116035761160361158b565b611617836116118354611559565b8361159f565b5f601f841160018114611648575f85156116315750838201355b5f19600387901b1c1916600186901b1783556115e3565b5f83815260208120601f198716915b828110156116775786850135825560209485019460019092019101611657565b5086821015611693575f1960f88860031b161c19848701351681555b505060018560011b0183555050505050565b81835281816020850137505f828201602090810191909152601f909101601f19169091010190565b606081525f6116e06060830187896116a5565b82810360208401526116f38186886116a5565b91505060018060a01b03831660408301529695505050505050565b5f6020828403121561171e575f80fd5b815161145d816114ea565b604081016117378285611327565b61145d6020830184611327565b634e487b7160e01b5f52601160045260245ffd5b60ff818116838216019081111561134957611349611744565b602081525f6117846020830184866116a5565b949350505050565b808201808211156113495761134961174456fea2646970667358221220de1b7fb3cb2a1f117a9826adc0b0ccb9b51cc0d68dc1f1b06fee02980074fc4164736f6c63430008180033a2646970667358221220b8ea3073448d07fc03dbe7c98deb00f432c3121028e67b5813fc3f284943216764736f6c63430008180033","linkReferences":{}},"methodIdentifiers":{"changeProposals(uint256)":"fc5a4efe","createElectionFromProposal(uint256)":"ec6b498b","isPlatformAdmin(address)":"f9183854","isSuperAdmin(address)":"df7f453b","nextChangeProposalId()":"7514fc6c","nextProposalId()":"2ab09d14","nextSpaceId()":"e565e661","proposals(uint256)":"013cf08b","proposeSpaceUpdate(uint256,string,string)":"82b84274","reviewProposal(uint256,bool)":"f13c7158","reviewSpaceUpdate(uint256,bool)":"43c61213","setAdmin(address,bool)":"4b0bddd2","spaceById(uint256)":"70de50a2","submitProposal(string,string,uint256)":"ba8554c7","superAdmin()":"29575f6a","suspendSpace(uint256,string)":"56b5f8ee","terminateSpace(uint256,string)":"80cd7f2a","unsuspendSpace(uint256,string)":"84aa6169"},"id":17}