{"abi":[{"type":"constructor","inputs":[{"name":"_initialSuperAdmin","type":"address","internalType":"address"}],"stateMutability":"nonpayable"},{"type":"function","name":"addSuperAdmin","inputs":[{"name":"admin","type":"address","internalType":"address"}],"outputs":[],"stateMutability":"nonpayable"},{"type":"function","name":"changeProposals","inputs":[{"name":"","type":"uint256","internalType":"uint256"}],"outputs":[{"name":"spaceId","type":"uint256","internalType":"uint256"},{"name":"title","type":"string","internalType":"string"},{"name":"metadataURI","type":"string","internalType":"string"},{"name":"status","type":"uint8","internalType":"enum VoteChainRegistry.ProposalStatus"},{"name":"proposer","type":"address","internalType":"address"}],"stateMutability":"view"},{"type":"function","name":"createElectionForAdmin","inputs":[{"name":"spaceAdmin","type":"address","internalType":"address"},{"name":"title","type":"string","internalType":"string"},{"name":"metadataURI","type":"string","internalType":"string"},{"name":"candidateCount","type":"uint256","internalType":"uint256"}],"outputs":[{"name":"proposalId","type":"uint256","internalType":"uint256"},{"name":"spaceId","type":"uint256","internalType":"uint256"},{"name":"spaceAddress","type":"address","internalType":"address"}],"stateMutability":"nonpayable"},{"type":"function","name":"createElectionForAdminWithConfig","inputs":[{"name":"spaceAdmin","type":"address","internalType":"address"},{"name":"title","type":"string","internalType":"string"},{"name":"metadataURI","type":"string","internalType":"string"},{"name":"candidateCount","type":"uint256","internalType":"uint256"},{"name":"initialVoters","type":"address[]","internalType":"address[]"},{"name":"commitStartsAt","type":"uint256","internalType":"uint256"},{"name":"commitEndsAt","type":"uint256","internalType":"uint256"},{"name":"revealStartsAt","type":"uint256","internalType":"uint256"},{"name":"revealEndsAt","type":"uint256","internalType":"uint256"}],"outputs":[{"name":"proposalId","type":"uint256","internalType":"uint256"},{"name":"spaceId","type":"uint256","internalType":"uint256"},{"name":"spaceAddress","type":"address","internalType":"address"}],"stateMutability":"nonpayable"},{"type":"function","name":"createElectionFromProposal","inputs":[{"name":"proposalId","type":"uint256","internalType":"uint256"}],"outputs":[{"name":"spaceId","type":"uint256","internalType":"uint256"},{"name":"spaceAddress","type":"address","internalType":"address"}],"stateMutability":"nonpayable"},{"type":"function","name":"isPlatformAdmin","inputs":[{"name":"","type":"address","internalType":"address"}],"outputs":[{"name":"","type":"bool","internalType":"bool"}],"stateMutability":"view"},{"type":"function","name":"isSuperAdmin","inputs":[{"name":"account","type":"address","internalType":"address"}],"outputs":[{"name":"","type":"bool","internalType":"bool"}],"stateMutability":"view"},{"type":"function","name":"nextChangeProposalId","inputs":[],"outputs":[{"name":"","type":"uint256","internalType":"uint256"}],"stateMutability":"view"},{"type":"function","name":"nextProposalId","inputs":[],"outputs":[{"name":"","type":"uint256","internalType":"uint256"}],"stateMutability":"view"},{"type":"function","name":"nextSpaceId","inputs":[],"outputs":[{"name":"","type":"uint256","internalType":"uint256"}],"stateMutability":"view"},{"type":"function","name":"proposals","inputs":[{"name":"","type":"uint256","internalType":"uint256"}],"outputs":[{"name":"proposer","type":"address","internalType":"address"},{"name":"candidateCount","type":"uint256","internalType":"uint256"},{"name":"status","type":"uint8","internalType":"enum VoteChainRegistry.ProposalStatus"},{"name":"title","type":"string","internalType":"string"},{"name":"metadataURI","type":"string","internalType":"string"},{"name":"reviewer","type":"address","internalType":"address"},{"name":"reviewedAt","type":"uint256","internalType":"uint256"}],"stateMutability":"view"},{"type":"function","name":"proposeSpaceUpdate","inputs":[{"name":"spaceId","type":"uint256","internalType":"uint256"},{"name":"title","type":"string","internalType":"string"},{"name":"metadataURI","type":"string","internalType":"string"}],"outputs":[{"name":"changeId","type":"uint256","internalType":"uint256"}],"stateMutability":"nonpayable"},{"type":"function","name":"removeSuperAdmin","inputs":[{"name":"admin","type":"address","internalType":"address"}],"outputs":[],"stateMutability":"nonpayable"},{"type":"function","name":"reviewProposal","inputs":[{"name":"proposalId","type":"uint256","internalType":"uint256"},{"name":"approve","type":"bool","internalType":"bool"}],"outputs":[],"stateMutability":"nonpayable"},{"type":"function","name":"reviewSpaceUpdate","inputs":[{"name":"changeId","type":"uint256","internalType":"uint256"},{"name":"approve","type":"bool","internalType":"bool"}],"outputs":[],"stateMutability":"nonpayable"},{"type":"function","name":"setAdmin","inputs":[{"name":"admin","type":"address","internalType":"address"},{"name":"isActive","type":"bool","internalType":"bool"}],"outputs":[],"stateMutability":"nonpayable"},{"type":"function","name":"spaceById","inputs":[{"name":"","type":"uint256","internalType":"uint256"}],"outputs":[{"name":"","type":"address","internalType":"address"}],"stateMutability":"view"},{"type":"function","name":"submitProposal","inputs":[{"name":"title","type":"string","internalType":"string"},{"name":"metadataURI","type":"string","internalType":"string"},{"name":"candidateCount","type":"uint256","internalType":"uint256"}],"outputs":[{"name":"proposalId","type":"uint256","internalType":"uint256"}],"stateMutability":"nonpayable"},{"type":"function","name":"superAdmin","inputs":[],"outputs":[{"name":"","type":"address","internalType":"address"}],"stateMutability":"view"},{"type":"function","name":"superAdmins","inputs":[{"name":"","type":"address","internalType":"address"}],"outputs":[{"name":"","type":"bool","internalType":"bool"}],"stateMutability":"view"},{"type":"function","name":"suspendSpace","inputs":[{"name":"spaceId","type":"uint256","internalType":"uint256"},{"name":"reasonCode","type":"string","internalType":"string"}],"outputs":[],"stateMutability":"nonpayable"},{"type":"function","name":"terminateSpace","inputs":[{"name":"spaceId","type":"uint256","internalType":"uint256"},{"name":"reasonCode","type":"string","internalType":"string"}],"outputs":[],"stateMutability":"nonpayable"},{"type":"function","name":"unsuspendSpace","inputs":[{"name":"spaceId","type":"uint256","internalType":"uint256"},{"name":"reasonCode","type":"string","internalType":"string"}],"outputs":[],"stateMutability":"nonpayable"},{"type":"event","name":"AdminUpserted","inputs":[{"name":"admin","type":"address","indexed":true,"internalType":"address"},{"name":"isActive","type":"bool","indexed":false,"internalType":"bool"}],"anonymous":false},{"type":"event","name":"ChangeProposalReviewed","inputs":[{"name":"changeId","type":"uint256","indexed":true,"internalType":"uint256"},{"name":"decision","type":"uint8","indexed":true,"internalType":"enum VoteChainRegistry.ProposalStatus"},{"name":"reviewer","type":"address","indexed":true,"internalType":"address"}],"anonymous":false},{"type":"event","name":"ChangeProposalSubmitted","inputs":[{"name":"changeId","type":"uint256","indexed":true,"internalType":"uint256"},{"name":"spaceId","type":"uint256","indexed":true,"internalType":"uint256"},{"name":"proposer","type":"address","indexed":false,"internalType":"address"}],"anonymous":false},{"type":"event","name":"ElectionSpaceConfigured","inputs":[{"name":"spaceId","type":"uint256","indexed":true,"internalType":"uint256"},{"name":"space","type":"address","indexed":true,"internalType":"address"},{"name":"proposalId","type":"uint256","indexed":true,"internalType":"uint256"},{"name":"voterCount","type":"uint256","indexed":false,"internalType":"uint256"},{"name":"commitStartsAt","type":"uint256","indexed":false,"internalType":"uint256"},{"name":"commitEndsAt","type":"uint256","indexed":false,"internalType":"uint256"},{"name":"revealStartsAt","type":"uint256","indexed":false,"internalType":"uint256"},{"name":"revealEndsAt","type":"uint256","indexed":false,"internalType":"uint256"}],"anonymous":false},{"type":"event","name":"ElectionSpaceCreated","inputs":[{"name":"spaceId","type":"uint256","indexed":true,"internalType":"uint256"},{"name":"space","type":"address","indexed":true,"internalType":"address"},{"name":"proposalId","type":"uint256","indexed":true,"internalType":"uint256"},{"name":"owner","type":"address","indexed":false,"internalType":"address"},{"name":"candidateCount","type":"uint256","indexed":false,"internalType":"uint256"}],"anonymous":false},{"type":"event","name":"ProposalReviewed","inputs":[{"name":"proposalId","type":"uint256","indexed":true,"internalType":"uint256"},{"name":"decision","type":"uint8","indexed":true,"internalType":"enum VoteChainRegistry.ProposalStatus"},{"name":"reviewer","type":"address","indexed":true,"internalType":"address"}],"anonymous":false},{"type":"event","name":"ProposalSubmitted","inputs":[{"name":"proposalId","type":"uint256","indexed":true,"internalType":"uint256"},{"name":"proposer","type":"address","indexed":true,"internalType":"address"},{"name":"candidateCount","type":"uint256","indexed":false,"internalType":"uint256"}],"anonymous":false},{"type":"event","name":"SuperAdminUpserted","inputs":[{"name":"admin","type":"address","indexed":true,"internalType":"address"},{"name":"isActive","type":"bool","indexed":false,"internalType":"bool"},{"name":"rootSuperAdmin","type":"address","indexed":true,"internalType":"address"}],"anonymous":false},{"type":"error","name":"InvalidAdmin","inputs":[]},{"type":"error","name":"InvalidCandidateCount","inputs":[]},{"type":"error","name":"InvalidProposalStatus","inputs":[{"name":"current","type":"uint8","internalType":"enum VoteChainRegistry.ProposalStatus"},{"name":"expected","type":"uint8","internalType":"enum VoteChainRegistry.ProposalStatus"}]},{"type":"error","name":"NotPlatformAdmin","inputs":[]},{"type":"error","name":"NotProposalOwner","inputs":[]},{"type":"error","name":"NotRootSuperAdmin","inputs":[]},{"type":"error","name":"NotSuperAdmin","inputs":[]},{"type":"error","name":"ProposalNotFound","inputs":[]},{"type":"error","name":"SpaceNotFound","inputs":[]}],"bytecode":{"object":"0x60a0346100e257601f62004e6038819003918201601f19168301916001600160401b038311848410176100e6578084926020946040528339810103126100e257516001600160a01b038116908181036100e2576001805f558080558060025582156100d05760207fa8ed7ecd3c9aebcd5b1bd3ebd05b287dd60268b40026387e1e88ad7722d43823918493608052835f526004825260405f208160ff19825416179055604051908152a3604051614d659081620000fb8239608051818181610aeb01528181611ff7015261225f0152f35b604051630b5eba9f60e41b8152600490fd5b5f80fd5b634e487b7160e01b5f52604160045260245ffdfe6080604052600436101562000012575f80fd5b5f803560e01c8063013cf08b146200228e57806329575f6a14620022485780632ab09d14146200222a57806343c6121314620020845780634902e4aa1462001fcf5780634b0bddd21462001f3557806356b5f8ee1462001eaa57806370de50a21462001e755780637514fc6c1462001e5557806378cb02da146200187057806380cd7f2a14620017ec57806382b8427414620013a157806384aa616914620012cf5780639db237931462000b87578063ad25cb421462000612578063b3292ff01462000ac2578063ba8554c71462000655578063df7f453b1462000612578063e565e66114620005f2578063ec6b498b146200036d578063f13c71581462000214578063f918385414620001d15763fc5a4efe146200012f575f80fd5b34620001ce576020366003190112620001ce57604090600435815260066020522080546200016060018301620023f1565b91620001a660036200017560028401620023f1565b9201549162000197604051958695865260a0602087015260a0860190620024ad565b908482036040860152620024ad565b90620001b96060840160ff83166200249f565b60081c6001600160a01b031660808301520390f35b80fd5b5034620001ce576020366003190112620001ce5760209060ff906040906001600160a01b0362000200620024fd565b168152600384522054166040519015158152f35b5034620001ce576040366003190112620001ce576004359062000236620024ed565b91338252600460205260ff604083205416156200035b5780825260056020526040822080546001600160a01b0316156200034957600281019060ff8254169460048610156200033557856200030e5760ff9291901562000302576200029e60015b836200257b565b6005810180546001600160a01b031916331790554260069091015554166004811015620002ee5733917fef0d88bbaeb4891d8e9303afd9d553f2807df5898cedf46c37ec9feba34741d38480a480f35b634e487b7160e01b83526021600452602483fd5b6200029e600262000297565b604051633233a43d60e21b81526044906200032d60048201896200249f565b5f6024820152fd5b634e487b7160e01b85526021600452602485fd5b60405163635e873760e01b8152600490fd5b6040516316c726b160e01b8152600490fd5b5034620001ce576020366003190112620001ce57600435815260056020526040812080549091906001600160a01b03168015620003495760ff6002840154166004811015620002ee5760018103620005c9575033141580620005b1575b6200059f5760025490600182018083116200058b576002558254600184015460405190916001600160a01b03166200040282620023b3565b838252604051928361265b8101106001600160401b0361265b86011117620005775791620004896200046f620004aa93869561265b620026d588393061265b88019081526020810192909252604082018a90526060820152610180608082018190520160038a0162002594565b61265b8501810360a061265b870101526004890162002594565b903360c061265b8601015261265b8401820360e061265b8601015262002696565b61265b820161010081018590526101208101859052610140810185905261016001849052039082f09283156200056a578282526007602090815260409283902080546001600160a01b0319166001600160a01b0396871690811790915560028301805460ff1916600317905582546001939093015484519390961683529082019490945290929060043590829084907f6d01a0c816e379a259b63ac8da3edf1179b0db179da21d6ae21999dc0ec0f15e908790a482519182526020820152f35b50604051903d90823e3d90fd5b634e487b7160e01b85526041600452602485fd5b634e487b7160e01b82526011600452602482fd5b60405163287a405960e01b8152600490fd5b50338152600460205260ff60408220541615620003ca565b604051633233a43d60e21b8152604491620005e99060048301906200249f565b60016024820152fd5b5034620001ce5780600319360112620001ce576020600254604051908152f35b5034620001ce576020366003190112620001ce5760209060ff906040906001600160a01b0362000641620024fd565b168152600484522054166040519015158152f35b5034620001ce576060366003190112620001ce576004356001600160401b03811162000abe576200068b90369060040162002514565b906024356001600160401b03811162000aba57620006ae90369060040162002514565b338552600360205260ff604086205416158062000aa5575b62000a93576044351562000a81578454936001850180861162000a6d5786556200072960405193620006f88562002397565b338552620007196020860196604435885260408701948a865236916200264d565b936060860194855236916200264d565b608084015260a0830186905260c08301869052848652600560205260408620835181546001600160a01b0319166001600160a01b03919091161781559351600185015551600481101562000a59576200078690600285016200257b565b518051906001600160401b03821162000971578190620007aa600386015462002348565b601f811162000a04575b50602090601f83116001146200099157879262000985575b50508160011b915f199060031b1c19161760038301555b60808101518051906001600160401b038211620009715762000809600485015462002348565b601f811162000928575b50946020958691601f8411600114620008b7579260069492819260c09592620008ab575b50508160011b915f199060031b1c19161760048501555b6005840160018060a01b0360a0830151166001600160601b0360a01b82541617905501519101556040516044358152817f6595205dae276ce902b2ea66a70a1f42db62056854c3c4dba1e00ec5e2d56e3d843393a3604051908152f35b015190505f8062000837565b9190601f198416600487018452888420935b81811062000910575092600192859260c0966006989610620008f7575b505050811b0160048501556200084e565b01515f1960f88460031b161c191690555f8080620008e6565b929389600181928786015181550195019301620008c9565b60048501875260208720601f840160051c81016020851062000969575b601f830160051c820181106200095d57505062000813565b88815560010162000945565b508062000945565b634e487b7160e01b86526041600452602486fd5b015190505f80620007cc565b9250600385018752602087209087935b601f1984168510620009e8576001945083601f19811610620009cf575b505050811b016003830155620007e3565b01515f1960f88460031b161c191690555f8080620009be565b81810151835560209485019460019093019290910190620009a1565b90915060038501875260208720601f840160051c81016020851062000a51575b90849392915b601f830160051c8201811062000a42575050620007b4565b89815585945060010162000a2a565b508062000a24565b634e487b7160e01b86526021600452602486fd5b634e487b7160e01b87526011600452602487fd5b604051632853b25560e01b8152600490fd5b60405163d4d7478360e01b8152600490fd5b50600460205260ff60408620541615620006c6565b8380fd5b5080fd5b5034620001ce576020366003190112620001ce5762000ae0620024fd565b6001600160a01b03907f00000000000000000000000000000000000000000000000000000000000000008216330362000b755716801562000b6357808252600460205260408220600160ff1982541617905560405190600182527fa8ed7ecd3c9aebcd5b1bd3ebd05b287dd60268b40026387e1e88ad7722d4382360203393a380f35b604051630b5eba9f60e41b8152600490fd5b604051631bb8390b60e01b8152600490fd5b5034620001ce57610120366003190112620001ce5762000ba6620024fd565b906024356001600160401b03811162000abe5762000bc990369060040162002514565b926044356001600160401b03811162000aba5762000bec90369060040162002514565b92906001600160401b0360843511620012cb57366023608435011215620012cb576001600160401b036084356004013511620012cb573660246084356004013560051b608435010111620012cb57338552600460205260ff604086205416156200035b576001600160a01b0383161562000b63576064351562000a8157845493600185018511620012b75760018501865560405162000c8b8162002397565b6001600160a01b038516815260643560208201526003604082015262000cb33689866200264d565b606082015262000cc53683856200264d565b60808201523360a08201524260c08201528587526005602052604087209060018060a01b038151166001600160601b0360a01b8354161782556020810151600183015560408101516004811015620012a35762000d2690600284016200257b565b60608101518051906001600160401b038211620011ba57819062000d4e600386015462002348565b601f81116200124d575b50602090601f8311600114620011da578b92620011ce575b50508160011b915f199060031b1c19161760038301555b60808101518051906001600160401b038211620011ba5762000dad600485015462002348565b601f811162001170575b50602090601f8311600114620010fa5791806006949260c0948d92620010ee575b50508160011b915f199060031b1c19161760048501555b60a08101516005850180546001600160a01b0319166001600160a01b03928316179055910151919092015560405160643581529085169086907f6595205dae276ce902b2ea66a70a1f42db62056854c3c4dba1e00ec5e2d56e3d90602090a360405192336001877fef0d88bbaeb4891d8e9303afd9d553f2807df5898cedf46c37ec9feba34741d38a80a46002549760018901808a11620010da576002558461265b8101106001600160401b0361265b87011117620010c6579260209262000ef862000f0f93879661265b620026d589393061265b89019081526001600160a01b038b1688820152604081018e905260643560608201526101806080820181905201916200262d565b9161265b8601830360a061265b880101526200262d565b3360c061265b8501015261265b8301810360e061265b8501015260843560040135815201602460843501865b6084356004013581106200108957505060a43561265b830161010081019190915260c43561012082015260e4356101408201526101043561016090910152039084f09283156200107d578481526007602090815260409182902080546001600160a01b0319166001600160a01b03878116918217909255835194909116845260643591840191909152620010799392839287917f6d01a0c816e379a259b63ac8da3edf1179b0db179da21d6ae21999dc0ec0f15e9190a48060405160843560040135815260a435602082015260c435604082015260e4356060820152610104356080820152857fcd4604e82186011728c3154c128c33a40fed0cc3b3798108122986aed5a9171d60a0600180821b03881693a46040805191825260208201949094526001600160a01b03909216928201929092529081906060820190565b0390f35b604051903d90823e3d90fd5b909250908235906001600160a01b0382168203620010c2576001600160a01b039091168152839260209182019291019060010162000f3b565b5f80fd5b634e487b7160e01b88526041600452602488fd5b634e487b7160e01b89526011600452602489fd5b015190505f8062000dd8565b90600485018b5260208b20918b5b601f1985168110620011575750926006949260019260c09583601f198116106200113e575b505050811b01600485015562000def565b01515f1960f88460031b161c191690555f80806200112d565b9192602060018192868501518155019401920162001108565b600485018b5260208b20601f840160051c810160208510620011b2575b8c601f840160051c83018210620011a75750505062000db7565b81556001016200118d565b50806200118d565b634e487b7160e01b8a52604160045260248afd5b015190505f8062000d70565b9250600385018b5260208b20908b935b601f198416851062001231576001945083601f1981161062001218575b505050811b01600383015562000d87565b01515f1960f88460031b161c191690555f808062001207565b81810151835560209485019460019093019290910190620011ea565b909150600385018b5260208b20601f840160051c8101602085106200129b575b90849392915b8d601f840160051c830182106200128d5750505062000d58565b815585945060010162001273565b50806200126d565b634e487b7160e01b89526021600452602489fd5b634e487b7160e01b86526011600452602486fd5b8480fd5b5034620001ce57620012e13662002544565b9091338452600460205260ff604085205416156200035b578352600760205260408320546001600160a01b03169081156200138f578392823b156200138a576200135992849283604051809681958294637edfb26160e11b84525f60048501523360248501526060604485015260648401916200262d565b03925af180156200137f576200136c5750f35b620013779062002383565b620001ce5780f35b6040513d84823e3d90fd5b505050fd5b604051636255b06960e01b8152600490fd5b5034620001ce576060366003190112620001ce576024356001600160401b03811162000abe57620013d790369060040162002514565b90916044356001600160401b03811162000abe57620013fb90369060040162002514565b9092338352600360205260ff6040842054161580620017d7575b62000a93576004358352600760205260408320546001600160a01b0316156200138f576001549360018501808611620017c3576001556040519560a08701908782106001600160401b03831117620017af5762001491936200148192604052600435895236916200264d565b926020870193845236916200264d565b60408501528160608501523360808501528282526006602052604082209084518255518051906001600160401b038211620016cc578190620014d7600185015462002348565b601f81116200175a575b50602090601f8311600114620016ec578592620016e0575b50508160011b915f199060031b1c19161760018201555b60408401518051906001600160401b038211620016cc5762001536600284015462002348565b601f811162001683575b50602090601f83116001146200161357600393929185918362001607575b50508160011b915f1990851b1c19161760028201555b01906060840151906004821015620015f3575060209362001598608092846200257b565b01518154610100600160a81b03191660089190911b610100600160a81b03161790556040513381526004359082907f87bc07659f51a77af8076b97a1b510ccb69c3bea3105e08b0706bf42f7cbc69b908590a3604051908152f35b634e487b7160e01b81526021600452602490fd5b015190505f806200155e565b600284018552602085209190601f198416865b8181106200166a575091600193918560039796941062001652575b505050811b01600282015562001574565b01515f1983871b60f8161c191690555f808062001641565b9293602060018192878601518155019501930162001626565b60028401855260208520601f840160051c810160208510620016c4575b601f830160051c82018110620016b857505062001540565b868155600101620016a0565b5080620016a0565b634e487b7160e01b84526041600452602484fd5b015190505f80620014f9565b600185018652602086209250601f198416865b81811062001741575090846001959493921062001728575b505050811b01600182015562001510565b01515f1960f88460031b161c191690555f808062001717565b92936020600181928786015181550195019301620016ff565b90915060018401855260208520601f840160051c810160208510620017a7575b90849392915b601f830160051c8201811062001798575050620014e1565b87815585945060010162001780565b50806200177a565b634e487b7160e01b5f52604160045260245ffd5b634e487b7160e01b85526011600452602485fd5b50600460205260ff6040842054161562001415565b5034620001ce57620017fe3662002544565b9091338452600460205260ff604085205416156200035b578352600760205260408320546001600160a01b03169081156200138f578392823b156200138a5762001359928492836040518096819582946329a7074f60e11b84523360048501526040602485015260448401916200262d565b5034620001ce576080366003190112620001ce576200188e620024fd565b6024356001600160401b03811162001e5157620018b090369060040162002514565b9290916044356001600160401b03811162001e5157620018d590369060040162002514565b949093338452600460205260ff604085205416156200035b576001600160a01b0383161562000b63576064351562000a8157835494600186018611620017c357600186018555604051620019298162002397565b6001600160a01b0385168152606435602082015260036040820152620019513685856200264d565b6060820152620019633689846200264d565b60808201523360a08201524260c08201528686526005602052604086209060018060a01b038151166001600160601b0360a01b835416178255602081015160018301556040810151600481101562001e3d57620019c490600284016200257b565b60608101518051906001600160401b03821162001d55578190620019ec600386015462002348565b601f811162001de8575b50602090601f831160011462001d75578a9262001d69575b50508160011b915f199060031b1c19161760038301555b60808101518051906001600160401b03821162001d555762001a4b600485015462002348565b601f811162001d0c575b50602090601f831160011462001c965791806006949260c0948c9262001c8a575b50508160011b915f199060031b1c19161760048501555b60a08101516005850180546001600160a01b0319166001600160a01b03928316179055910151919092015560405160643581529085169087907f6595205dae276ce902b2ea66a70a1f42db62056854c3c4dba1e00ec5e2d56e3d90602090a3336001877fef0d88bbaeb4891d8e9303afd9d553f2807df5898cedf46c37ec9feba34741d38880a460025496600188018811620012b757600188016002556040519262001b3984620023b3565b868452604051948561265b8101106001600160401b0361265b88011117620010c6579285949262001baf620004899362001bc69661265b620026d58a393061265b8a019081526001600160a01b038c166020820152604081018f905260643560608201526101806080820181905201916200262d565b9161265b8701830360a061265b890101526200262d565b61265b820161010081018690526101208101869052610140810186905261016001859052039083f080156200137f578483526007602090815260409384902080546001600160a01b0319166001600160a01b03938416908117909155845193909216835260643590830152620010799290918491839187917f6d01a0c816e379a259b63ac8da3edf1179b0db179da21d6ae21999dc0ec0f15e91a46040805193845260208401949094526001600160a01b0316928201929092529081906060820190565b015190505f8062001a76565b90600485018a5260208a20918a5b601f198516811062001cf35750926006949260019260c09583601f1981161062001cda575b505050811b01600485015562001a8d565b01515f1960f88460031b161c191690555f808062001cc9565b9192602060018192868501518155019401920162001ca4565b600485018a5260208a20601f840160051c81016020851062001d4d575b601f830160051c8201811062001d4157505062001a55565b8b815560010162001d29565b508062001d29565b634e487b7160e01b89526041600452602489fd5b015190505f8062001a0e565b9250600385018a5260208a20908a935b601f198416851062001dcc576001945083601f1981161062001db3575b505050811b01600383015562001a25565b01515f1960f88460031b161c191690555f808062001da2565b8181015183556020948501946001909301929091019062001d85565b909150600385018a5260208a20601f840160051c81016020851062001e35575b90849392915b601f830160051c8201811062001e26575050620019f6565b8c815585945060010162001e0e565b508062001e08565b634e487b7160e01b88526021600452602488fd5b8280fd5b5034620001ce5780600319360112620001ce576020600154604051908152f35b5034620001ce576020366003190112620001ce57602090600435815260078252604060018060a01b0391205416604051908152f35b5034620001ce5762001ebc3662002544565b9091338452600460205260ff604085205416156200035b578352600760205260408320546001600160a01b03169081156200138f578392823b156200138a576200135992849283604051809681958294637edfb26160e11b8452600160048501523360248501526060604485015260648401916200262d565b5034620001ce576040366003190112620001ce5762001f53620024fd565b62001f5d620024ed565b90338352600460205260ff604084205416156200035b576001600160a01b031690811562000b635760207fde2ec5a61cb25575c35ed8c41a10938fdf23711909527a1abac273444cf21e759183855260038252604085209015159060ff1981541660ff8316179055604051908152a280f35b5034620001ce576020366003190112620001ce5762001fed620024fd565b6001600160a01b037f00000000000000000000000000000000000000000000000000000000000000008116913383900362000b75571690811590811562002079575b5062000b635780825260046020526040822060ff198154169055604051908282527fa8ed7ecd3c9aebcd5b1bd3ebd05b287dd60268b40026387e1e88ad7722d4382360203393a380f35b905081145f6200202f565b5034620010c257600319604036820112620010c25760043590620020a7620024ed565b90335f52600460205260ff60405f205416156200035b57825f52600660205260405f206003810192835460018060a01b0391828260081c1615620003495760ff82166004811015620022165780620021f6575015620021df5750600160ff1985541617845581545f52600760205260405f20541691823b15620010c2576200216c9260025f8094604051968795869485936307b63c2960e01b8552606060048601526200215b606486016001830162002594565b928584030160248601520162002594565b33604483015203925af18015620021d457620021bd575b5060ff905b54166004811015620002ee5733917f016dd1e56d48265dd218010889b30d8b9d0af2c496aae1b48e47dd16520d81588480a480f35b620021ca91935062002383565b5f9160ff62002183565b6040513d5f823e3d90fd5b60ff191660021784555060ff929150620021889050565b604051633233a43d60e21b81526044916200032d9060048301906200249f565b634e487b7160e01b5f52602160045260245ffd5b34620010c2575f366003190112620010c25760205f54604051908152f35b34620010c2575f366003190112620010c2576040517f00000000000000000000000000000000000000000000000000000000000000006001600160a01b03168152602090f35b34620010c2576020366003190112620010c2576004355f52600560205260405f2060018060a01b039081815416906001810154926200233960ff600284015416916200232a620022e160038601620023f1565b620023186006620022f560048901620023f1565b9460058901541697015495604051998a998a5260208a015260408901906200249f565b60e0606088015260e0870190620024ad565b908582036080870152620024ad565b9160a084015260c08301520390f35b90600182811c9216801562002378575b60208310146200236457565b634e487b7160e01b5f52602260045260245ffd5b91607f169162002358565b6001600160401b038111620017af57604052565b60e081019081106001600160401b03821117620017af57604052565b602081019081106001600160401b03821117620017af57604052565b90601f801991011681019081106001600160401b03821117620017af57604052565b9060405191825f8254620024058162002348565b908184526020946001916001811690815f146200247b575060011462002439575b5050506200243792500383620023cf565b565b5f90815285812095935091905b818310620024625750506200243793508201015f808062002426565b8554888401850152948501948794509183019162002446565b925050506200243794925060ff191682840152151560051b8201015f808062002426565b906004821015620022165752565b91908251928382525f5b848110620024d8575050825f602080949584010152601f8019910116010190565b602081830181015184830182015201620024b7565b602435908115158203620010c257565b600435906001600160a01b0382168203620010c257565b9181601f84011215620010c2578235916001600160401b038311620010c25760208381860195010111620010c257565b906040600319830112620010c25760043591602435906001600160401b038211620010c257620025779160040162002514565b9091565b906004811015620022165760ff80198354169116179055565b80545f9392620025a48262002348565b918282526020936001916001811690815f146200260d5750600114620025cc575b5050505050565b90939495505f92919252835f2092845f945b838610620025f857505050500101905f80808080620025c5565b805485870183015294019385908201620025de565b60ff19168685015250505090151560051b010191505f80808080620025c5565b908060209392818452848401375f828201840152601f01601f1916010190565b9291926001600160401b038211620017af576040519162002679601f8201601f191660200184620023cf565b829481845281830111620010c2578281602093845f960137010152565b9081518082526020808093019301915f5b828110620026b6575050505090565b83516001600160a01b031685529381019392810192600101620026a756fe61010060405234620007b8576200265b803803806200001e81620007bc565b928339810161018082820312620007b8576200003a82620007e2565b906200004960208401620007e2565b604084015192606085015194608081015160018060401b038111620007b8578462000076918301620007f7565b60a08201516001600160401b038111620007b8578562000098918401620007f7565b90620000a760c08401620007e2565b60e08401519098906001600160401b038111620007b85784019680601f89011215620007b8578751976001600160401b03891162000667578860051b90602080620000f4818501620007bc565b809c81520192820101928311620007b857602001905b8282106200079d5750505061010084015197610120850151966101606101408701519601519660018060a01b0381161580156200078b575b62000779578315620007675760805260a05260c05260e0528051906001600160401b03821162000667575f5490600182811c921680156200075c575b6020831014620006485781601f849311620006ff575b50602090601f831160011462000687575f926200067b575b50508160011b915f199060031b1c1916175f555b8051906001600160401b038211620006675760015490600182811c921680156200065c575b6020831014620006485781601f849311620005e7575b50602090601f83116001146200056c575f9262000560575b50508160011b915f199060031b1c1916176001555b61ffff19600254166002558351620004a8575b841594851595808788926200049e575b801562000494575b80156200048a575b620003d4575b5050505050505190811590811591620003cb575b5062000366575b604051611db390816200086882396080518181816101c10152818161055b015281816108d00152818161094301528181610bd601528181610e640152818161128e015281816114ce01526115b3015260a0518181816103ad0152818161078b0152818161098601528181610cdd01528181611120015261137c015260c0518181816102680152818161049301528181610834015281816109cc01528181610b2401528181610c5101528181610daa01528181611038015281816111e40152818161142f015281816116c80152611cb8015260e051818181610683015281816107070152611d120152f35b60c07fa8dbf017bc75dd8e14ed96c66028f2fb1d209e4398405364261fe9bc77e57249918151936003546004546005549060065492604051958652602086015260408501526060840152608083015260018060a01b031660a0820152a25f806200027c565b90505f62000275565b906200047f575b801562000475575b80156200046a575b62000458577f26f7315aaf2926e91db90b9e8be8c5c36e6a366c93950652ce964393555390c49260a0928260035585600455806005558160065560c05195604051938452602084015260408301526060820152600180831b0387166080820152a25f808080858162000261565b60405163a74634cd60e01b8152600490fd5b5081831115620003eb565b50838210620003e3565b5080841115620003db565b508415156200025b565b5083151562000253565b508515156200024b565b9391905f5b84518110156200055657600581901b8501602001516001600160a01b03169081156200054457816001925f52600760205260405f20805460ff811615620004f9575b50505001620004ad565b849060ff191617905560c0517f5b551e9aea49b0b85a31d13fd569c911ded7781feaae60c3603e3a968b05fc1360408051868152868060a01b038d166020820152a35f8080620004ef565b6040516311745b2b60e31b8152600490fd5b509091936200023b565b015190505f8062000213565b60015f90815293505f805160206200263b83398151915291905b601f1984168510620005cb576001945083601f19811610620005b2575b505050811b0160015562000228565b01515f1960f88460031b161c191690555f8080620005a3565b8181015183556020948501946001909301929091019062000586565b60015f529091505f805160206200263b833981519152601f840160051c810191602085106200063d575b90601f859493920160051c01905b8181106200062e5750620001fb565b5f81558493506001016200061f565b909150819062000611565b634e487b7160e01b5f52602260045260245ffd5b91607f1691620001e5565b634e487b7160e01b5f52604160045260245ffd5b015190505f80620001ac565b5f80805293505f805160206200261b83398151915291905b601f1984168510620006e3576001945083601f19811610620006ca575b505050811b015f55620001c0565b01515f1960f88460031b161c191690555f8080620006bc565b818101518355602094850194600190930192909101906200069f565b5f80529091505f805160206200261b833981519152601f840160051c81016020851062000754575b90849392915b601f830160051c820181106200074557505062000194565b5f81558594506001016200072d565b508062000727565b91607f16916200017e565b60405163e66ea08f60e01b8152600490fd5b60405163ea8e4eb560e01b8152600490fd5b506001600160a01b0382161562000142565b60208091620007ac84620007e2565b8152019101906200010a565b5f80fd5b6040519190601f01601f191682016001600160401b038111838210176200066757604052565b51906001600160a01b0382168203620007b857565b919080601f84011215620007b85782516001600160401b03811162000667576020906200082d601f8201601f19168301620007bc565b92818452828287010111620007b8575f5b818110620008535750825f9394955001015290565b85810183015184820184015282016200083e56fe608060409080825260049081361015610016575f80fd5b5f3560e01c90816303ee438c1461195657508063055ad42e1461193057806307b63c291461154d5780630e866fa51461152f5780630f8779c6146113605780631dcf2e39146113435780631e8f048914611325578063200d2ed2146112e357806338db6dd3146110f75780633af32abf146110bb5780633e85892314610f975780634a79d50c14610ebb5780634d35574f14610cb25780634fc8a20d14610c8a578063534e0e9e14610b8d5780635688e29914610aab57806369edbcda146109ef5780636bf2ffa1146109b55780637a967cd3146109725780637b1039991461092f5780637ed1775114610763578063995e4339146106a6578063a9a981a31461066c578063b1c9fe6e14610642578063b9a5301314610606578063c6dbe15a146105ca578063d55ec9c11461034f578063f662b88114610318578063f826fee8146102fa5763fdbf64c21461016a575f80fd5b346102f65760603660031901126102f657803580151581036102f6576001600160a01b0360243581811694908590036102f65760443567ffffffffffffffff81116102f6576101bc9036908601611ad0565b9390927f00000000000000000000000000000000000000000000000000000000000000001633036102e6576002549060ff8260081c1660038110156102d3576002146102c357156102bd5760015b60038110156102aa579061ff0060ff9260081b169061ff001916178060025560081c1693600385101561029757507f7bf94aa98e004220f19fb43e7d8d6dabd2c23e3fadc2908d16dd25f52cd1c43b916102929151918291602083527f0000000000000000000000000000000000000000000000000000000000000000956020840191611b14565b0390a4005b602190634e487b7160e01b5f525260245ffd5b602186634e487b7160e01b5f525260245ffd5b5f61020a565b825163214dacf960e11b81528690fd5b602187634e487b7160e01b5f525260245ffd5b8151633217675b60e21b81528590fd5b5f80fd5b82346102f6575f3660031901126102f6576020906003549051908152f35b82346102f65760203660031901126102f6576020906001600160a01b0361033d611afe565b165f52600a8252805f20549051908152f35b5090346102f657602090816003193601126102f65767ffffffffffffffff9183358381116102f657366023820112156102f657808501359384116102f65760249260059536858760051b850101116102f6576001600160a01b0394337f00000000000000000000000000000000000000000000000000000000000000008716141580610543575b6105345760ff9360ff60025460081c169860038a10156105225760019960018114610512576002146105025761040a611b4c565b848110156104f057806104cd57505f5b89811061042357005b8381831b840101358981168091036102f65780156104bd5790818c925f5260078a52875f208381548b81161561045e575b505050500161041a565b60ff19161790558751838152338b8201527f5b551e9aea49b0b85a31d13fd569c911ded7781feaae60c3603e3a968b05fc13897f000000000000000000000000000000000000000000000000000000000000000092a35f808381610454565b86516311745b2b60e31b81528690fd5b85516305fb5e1b60e01b81525f818701526044916104ee9082870190611aaf565bfd5b83602186634e487b7160e01b5f52525ffd5b845163214dacf960e11b81528490fd5b85516327c0e7b560e01b81528590fd5b82602185634e487b7160e01b5f52525ffd5b50905163ea8e4eb560e01b8152fd5b50825163df7f453b60e01b81523383820152858183817f00000000000000000000000000000000000000000000000000000000000000008b165afa9081156105c0575f91610593575b50156103d6565b6105b39150863d88116105b9575b6105ab8183611a32565b810190611b34565b5f61058c565b503d6105a1565b84513d5f823e3d90fd5b82346102f65760203660031901126102f6576020906001600160a01b036105ef611afe565b165f526008825260ff815f20541690519015158152f35b82346102f65760203660031901126102f6576020906001600160a01b0361062b611afe565b165f526009825260ff815f20541690519015158152f35b82346102f6575f3660031901126102f65760209061066a610661611b4c565b91518092611aaf565bf35b82346102f6575f3660031901126102f657602090517f00000000000000000000000000000000000000000000000000000000000000008152f35b5090346102f65760203660031901126102f65781356106c3611b4c565b83811015610750576003810361072d575080158015610704575b6106f657602092505f52600b8252805f20549051908152f35b505163e66ea08f60e01b8152fd5b507f000000000000000000000000000000000000000000000000000000000000000081116106dd565b82516305fb5e1b60e01b81526003818601526044916104ee906024830190611aaf565b602184634e487b7160e01b5f525260245ffd5b50346102f657602090816003193601126102f65761077f611afe565b6001600160a01b0391337f000000000000000000000000000000000000000000000000000000000000000084161415806108b7575b6108a95760ff60025460081c166003811015610879576001811461089a5760021461088c576107e1611b4c565b818110156108795780610857575050907f5b551e9aea49b0b85a31d13fd569c911ded7781feaae60c3603e3a968b05fc13911692835f5260078352805f2060ff1981541690558051925f845233908401527f000000000000000000000000000000000000000000000000000000000000000092a3005b906104ee6044925f8851936305fb5e1b60e01b85528401526024830190611aaf565b602182634e487b7160e01b5f525260245ffd5b845163214dacf960e11b8152fd5b5084516327c0e7b560e01b8152fd5b845163ea8e4eb560e01b8152fd5b50845163df7f453b60e01b8152338282015284816024817f000000000000000000000000000000000000000000000000000000000000000088165afa908115610925575f91610908575b50156107b4565b61091f9150853d87116105b9576105ab8183611a32565b5f610901565b86513d5f823e3d90fd5b82346102f6575f3660031901126102f657517f00000000000000000000000000000000000000000000000000000000000000006001600160a01b03168152602090f35b82346102f6575f3660031901126102f657517f00000000000000000000000000000000000000000000000000000000000000006001600160a01b03168152602090f35b82346102f6575f3660031901126102f657602090517f00000000000000000000000000000000000000000000000000000000000000008152f35b50346102f657816003193601126102f657335f52600760205260ff825f20541615610a9d5760ff60025460081c1660038110156108795760018114610a8e57600214610a8057610a3d611b4c565b91818310156108795760028303610a5e57610a5c602435833533611ba5565b005b60449260026104ee9251936305fb5e1b60e01b85528401526024830190611aaf565b905163214dacf960e11b8152fd5b5090516327c0e7b560e01b8152fd5b905163aba4733960e01b8152fd5b50346102f65760603660031901126102f657610ac5611afe565b916024359160ff60025460081c1660038110156108795760018114610a8e57600214610a8057610af3611b4c565b818110156108795760028103610b6b575050610b126044358385611ba5565b5190815233916001600160a01b0316907f0000000000000000000000000000000000000000000000000000000000000000907e61840683c17d5c16bbabef1c635624cffef2223aced524b735371a8334846790602090a4005b6104ee90600260449451936305fb5e1b60e01b85528401526024830190611aaf565b50346102f657816003193601126102f657610ba6611afe565b9160243567ffffffffffffffff81116102f657610bc69036908401611ad0565b909390916001600160a01b0391907f000000000000000000000000000000000000000000000000000000000000000083163303610c7b5760ff61020061ff001960025416178060025560081c169460038610156102975750906102927f7bf94aa98e004220f19fb43e7d8d6dabd2c23e3fadc2908d16dd25f52cd1c43b9392519283926020845216967f0000000000000000000000000000000000000000000000000000000000000000956020840191611b14565b51633217675b60e21b81528490fd5b5090346102f65760203660031901126102f657602091355f52600b8252805f20549051908152f35b50346102f65760803660031901126102f65780359160243590604435916064359360018060a01b03807f0000000000000000000000000000000000000000000000000000000000000000163314159081610e45575b50610e375760ff60025460081c1660038110156108795760018114610e2857600214610e1a57610d35611b4c565b818110156108795780610df8575085158015610dee575b8015610de5575b8015610ddb575b610dcd578190866003555582600555836006558151948552602085015283015260608201523360808201527f26f7315aaf2926e91db90b9e8be8c5c36e6a366c93950652ce964393555390c460a07f000000000000000000000000000000000000000000000000000000000000000092a2005b825163a74634cd60e01b8152fd5b5083851115610d5a565b50818410610d53565b5085821115610d4c565b906104ee6044925f8651936305fb5e1b60e01b85528401526024830190611aaf565b825163214dacf960e11b8152fd5b5082516327c0e7b560e01b8152fd5b825163ea8e4eb560e01b8152fd5b845163df7f453b60e01b815233848201529150602090829060249082907f0000000000000000000000000000000000000000000000000000000000000000165afa9081156105c0575f91610e9c575b50155f610d07565b610eb5915060203d6020116105b9576105ab8183611a32565b5f610e94565b82346102f6575f3660031901126102f65780515f8054610eda816119fa565b80845290602090600190818116908115610f6d5750600114610f16575b610f128587610f0882880383611a32565b5191829182611a68565b0390f35b5f80805293507f290decd9548b62a8d60345a988386fc84ba6bc95484008f6362f93160ef3e5635b838510610f5a57505050508101602001610f0882610f12610ef7565b8054868601840152938201938101610f3e565b610f1297955086935060209250610f0894915060ff191682840152151560051b8201019294610ef7565b5090346102f65760203660031901126102f657813591335f52600760205260ff825f20541615610a9d5760ff60025460081c1660038110156108795760018114610a8e57600214610a8057610fea611b4c565b8181101561087957600181036110995750335f52600860205260ff825f20541661108b57821561107d57508190335f526008602052805f20600160ff19825416179055600a6020525f2055337f00000000000000000000000000000000000000000000000000000000000000007f26a454697a4923cb3646779d831b5e4696bd3fab14b67dd6dfe23d72354f57dd5f80a4005b9051636033c4fd60e11b8152fd5b90516317fd8aab60e31b8152fd5b6104ee90600160449451936305fb5e1b60e01b85528401526024830190611aaf565b82346102f65760203660031901126102f6576020906001600160a01b036110e0611afe565b165f526007825260ff815f20541690519015158152f35b5090346102f657602090816003193601126102f657611114611afe565b6001600160a01b0390337f00000000000000000000000000000000000000000000000000000000000000008316141580611275575b6112655760ff60025460081c1660038110156102aa57600181146112555760021461124557611176611b4c565b858110156102aa578061122357501692831561121557835f526007835260ff825f20541661120757507f5b551e9aea49b0b85a31d13fd569c911ded7781feaae60c3603e3a968b05fc1390835f5260078352805f20600160ff198254161790558051926001845233908401527f000000000000000000000000000000000000000000000000000000000000000092a3005b9051630ea075bf60e21b8152fd5b90516311745b2b60e31b8152fd5b83516305fb5e1b60e01b81525f818801526044916104ee906024830190611aaf565b825163214dacf960e11b81528590fd5b83516327c0e7b560e01b81528690fd5b825163ea8e4eb560e01b81528590fd5b50825163df7f453b60e01b8152338682015284816024817f000000000000000000000000000000000000000000000000000000000000000087165afa9081156105c0575f916112c6575b5015611149565b6112dd9150853d87116105b9576105ab8183611a32565b5f6112bf565b5090346102f6575f3660031901126102f65760ff60025460081c16905190600381101561131257602092508152f35b602183634e487b7160e01b5f525260245ffd5b82346102f6575f3660031901126102f6576020906006549051908152f35b5090346102f6575f3660031901126102f657602091549051908152f35b5090346102f6575f3660031901126102f65760018060a01b03807f00000000000000000000000000000000000000000000000000000000000000001633141590816114af575b506114a2576002549060ff8260081c1660038110156107505760018114611492576002146114835760ff821691838310156107505760038314611465576001830160ff81116114525760ff1693808510156102975750839060ff191617600255513381527fb08bfe79d11e67f65c878f279728c4d53fc5dfc3373a20958345fcad3750953e60207f000000000000000000000000000000000000000000000000000000000000000092a4005b601185634e487b7160e01b5f525260245ffd5b81516335c1372560e01b815260038186018190526024820152604490fd5b5163214dacf960e11b81529050fd5b81516327c0e7b560e01b81528490fd5b5163ea8e4eb560e01b8152fd5b825163df7f453b60e01b815233858201529150602090829060249082907f0000000000000000000000000000000000000000000000000000000000000000165afa908115611525575f91611506575b50155f6113a6565b61151f915060203d6020116105b9576105ab8183611a32565b5f6114fe565b82513d5f823e3d90fd5b82346102f6575f3660031901126102f6576020906005549051908152f35b5090346102f65760603660031901126102f65767ffffffffffffffff9180358381116102f6576115809036908301611ad0565b91906024358581116102f6576115999036908401611ad0565b9190956044359360018060a01b038086168096036102f6577f0000000000000000000000000000000000000000000000000000000000000000163303611922576115e1611b4c565b8181101561087957806119005750818611611802576116005f546119fa565b91601f928381116118a1575b50865f848211600114611820575f91611815575b508760011b905f198960031b1c1916175f555b8411611802575060019061164782546119fa565b8181116117a0575b505f9084116001146116f8577f4f86676f84ed8c8823cd1b5c0682bdfc9263d14d9879cd7609262de9f280002b96979284926116c1956116b3935f916116ed575b505f19600386901b1c191684821b1790555b885196606088526060880191611b14565b918583036020870152611b14565b93820152807f0000000000000000000000000000000000000000000000000000000000000000930390a2005b90508501355f611690565b601f19841690825f527fb10e2d527612073b26eecdfd717e6a320cf44b4afac2b0732d9fcbe2b7fa0cf6915f5b81811061178a5750926116b3927f4f86676f84ed8c8823cd1b5c0682bdfc9263d14d9879cd7609262de9f280002b999a9592876116c1989610611771575b50508084811b0190556116a2565b8601355f19600387901b60f8161c191690555f80611763565b8a83013584559284019260209283019201611725565b825f527fb10e2d527612073b26eecdfd717e6a320cf44b4afac2b0732d9fcbe2b7fa0cf68280870160051c820192602088106117f9575b0160051c019083905b8281106117ee57505061164f565b5f81550183906117e0565b925081926117d7565b604190634e487b7160e01b5f525260245ffd5b90508401355f611620565b5f8080527f290decd9548b62a8d60345a988386fc84ba6bc95484008f6362f93160ef3e56392508990601f198216905b81811061188657501061186d575b5050600187811b015f55611633565b8501355f1960038a901b60f8161c191690555f8061185e565b8884013585556001909401936020938401938c935001611850565b5f80527f290decd9548b62a8d60345a988386fc84ba6bc95484008f6362f93160ef3e56384808a0160051c82019260208b106118f7575b0160051c01905b8181106118ec575061160c565b5f81556001016118df565b925081926118d8565b906104ee6044925f8a51936305fb5e1b60e01b85528401526024830190611aaf565b8651633217675b60e21b8152fd5b82346102f6575f3660031901126102f65760209061066a60ff6002541691518092611aaf565b8390346102f6575f3660031901126102f6575f60018054611976816119fa565b8085529160209160018116908115610f6d57506001146119a157610f128587610f0882880383611a32565b60015f90815293507fb10e2d527612073b26eecdfd717e6a320cf44b4afac2b0732d9fcbe2b7fa0cf65b8385106119e757505050508101602001610f0882610f12610ef7565b80548686018401529382019381016119cb565b90600182811c92168015611a28575b6020831014611a1457565b634e487b7160e01b5f52602260045260245ffd5b91607f1691611a09565b90601f8019910116810190811067ffffffffffffffff821117611a5457604052565b634e487b7160e01b5f52604160045260245ffd5b602080825282518183018190529093925f5b828110611a9b57505060409293505f838284010152601f8019910116010190565b818101860151848201604001528501611a7a565b906004821015611abc5752565b634e487b7160e01b5f52602160045260245ffd5b9181601f840112156102f65782359167ffffffffffffffff83116102f657602083818601950101116102f657565b600435906001600160a01b03821682036102f657565b908060209392818452848401375f828201840152601f01601f1916010190565b908160209103126102f6575180151581036102f65790565b6003548015611b9b574210611b81576004544210611b9657600654421080611b8a575b611b85576005544210611b8157600390565b5f90565b600290565b50600554421015611b6f565b600190565b5060ff6002541690565b90916001600160a01b03909116908115611d6b57815f5260206007815260409160ff835f20541615611d5a57835f526008825260ff835f20541615611d4957835f526009825260ff835f205416611d385784158015611d0f575b611cfe5782519082820190868252848301528460608301523060808301524660a083015260a0825260c082019180831067ffffffffffffffff841117611a5457828552519020845f52600a8352835f205403611cef5750825f5260098152815f20600160ff19825416179055835f52600b8152815f2090815460018101809111611cdb577f63ab6e5dc98a7d72f7b887b4479c584f5d1cc5e644f8b756c1213bc8e32f4f429255845f52600b8152825f205492519283527f000000000000000000000000000000000000000000000000000000000000000092a4565b634e487b7160e01b5f52601160045260245ffd5b635054097b60e01b8152600490fd5b825163e66ea08f60e01b8152600490fd5b507f00000000000000000000000000000000000000000000000000000000000000008511611bff565b825163a89ac15160e01b8152600490fd5b8251631918952960e01b8152600490fd5b825163aba4733960e01b8152600490fd5b6040516311745b2b60e31b8152600490fdfea2646970667358221220faaa17df554c1e822b48e1b7dae36ae46cd8c3356db7453199758bbd5f43370b64736f6c63430008180033290decd9548b62a8d60345a988386fc84ba6bc95484008f6362f93160ef3e563b10e2d527612073b26eecdfd717e6a320cf44b4afac2b0732d9fcbe2b7fa0cf6a26469706673582212203a1629f0d311f45fe9911a70dd32370f876079c3aab8ea6c4404efc99714a1b964736f6c63430008180033","linkReferences":{}},"methodIdentifiers":{"addSuperAdmin(address)":"b3292ff0","changeProposals(uint256)":"fc5a4efe","createElectionForAdmin(address,string,string,uint256)":"78cb02da","createElectionForAdminWithConfig(address,string,string,uint256,address[],uint256,uint256,uint256,uint256)":"9db23793","createElectionFromProposal(uint256)":"ec6b498b","isPlatformAdmin(address)":"f9183854","isSuperAdmin(address)":"df7f453b","nextChangeProposalId()":"7514fc6c","nextProposalId()":"2ab09d14","nextSpaceId()":"e565e661","proposals(uint256)":"013cf08b","proposeSpaceUpdate(uint256,string,string)":"82b84274","removeSuperAdmin(address)":"4902e4aa","reviewProposal(uint256,bool)":"f13c7158","reviewSpaceUpdate(uint256,bool)":"43c61213","setAdmin(address,bool)":"4b0bddd2","spaceById(uint256)":"70de50a2","submitProposal(string,string,uint256)":"ba8554c7","superAdmin()":"29575f6a","superAdmins(address)":"ad25cb42","suspendSpace(uint256,string)":"56b5f8ee","terminateSpace(uint256,string)":"80cd7f2a","unsuspendSpace(uint256,string)":"84aa6169"},"id":21}