{"abi":[{"type":"constructor","inputs":[{"name":"_initialSuperAdmin","type":"address","internalType":"address"}],"stateMutability":"nonpayable"},{"type":"function","name":"addSuperAdmin","inputs":[{"name":"admin","type":"address","internalType":"address"}],"outputs":[],"stateMutability":"nonpayable"},{"type":"function","name":"changeProposals","inputs":[{"name":"","type":"uint256","internalType":"uint256"}],"outputs":[{"name":"spaceId","type":"uint256","internalType":"uint256"},{"name":"title","type":"string","internalType":"string"},{"name":"metadataURI","type":"string","internalType":"string"},{"name":"status","type":"uint8","internalType":"enum VoteChainRegistry.ProposalStatus"},{"name":"proposer","type":"address","internalType":"address"}],"stateMutability":"view"},{"type":"function","name":"createElectionForAdmin","inputs":[{"name":"spaceAdmin","type":"address","internalType":"address"},{"name":"title","type":"string","internalType":"string"},{"name":"metadataURI","type":"string","internalType":"string"},{"name":"candidateCount","type":"uint256","internalType":"uint256"}],"outputs":[{"name":"proposalId","type":"uint256","internalType":"uint256"},{"name":"spaceId","type":"uint256","internalType":"uint256"},{"name":"spaceAddress","type":"address","internalType":"address"}],"stateMutability":"nonpayable"},{"type":"function","name":"createElectionFromProposal","inputs":[{"name":"proposalId","type":"uint256","internalType":"uint256"}],"outputs":[{"name":"spaceId","type":"uint256","internalType":"uint256"},{"name":"spaceAddress","type":"address","internalType":"address"}],"stateMutability":"nonpayable"},{"type":"function","name":"isPlatformAdmin","inputs":[{"name":"","type":"address","internalType":"address"}],"outputs":[{"name":"","type":"bool","internalType":"bool"}],"stateMutability":"view"},{"type":"function","name":"isSuperAdmin","inputs":[{"name":"account","type":"address","internalType":"address"}],"outputs":[{"name":"","type":"bool","internalType":"bool"}],"stateMutability":"view"},{"type":"function","name":"nextChangeProposalId","inputs":[],"outputs":[{"name":"","type":"uint256","internalType":"uint256"}],"stateMutability":"view"},{"type":"function","name":"nextProposalId","inputs":[],"outputs":[{"name":"","type":"uint256","internalType":"uint256"}],"stateMutability":"view"},{"type":"function","name":"nextSpaceId","inputs":[],"outputs":[{"name":"","type":"uint256","internalType":"uint256"}],"stateMutability":"view"},{"type":"function","name":"proposals","inputs":[{"name":"","type":"uint256","internalType":"uint256"}],"outputs":[{"name":"proposer","type":"address","internalType":"address"},{"name":"candidateCount","type":"uint256","internalType":"uint256"},{"name":"status","type":"uint8","internalType":"enum VoteChainRegistry.ProposalStatus"},{"name":"title","type":"string","internalType":"string"},{"name":"metadataURI","type":"string","internalType":"string"},{"name":"reviewer","type":"address","internalType":"address"},{"name":"reviewedAt","type":"uint256","internalType":"uint256"}],"stateMutability":"view"},{"type":"function","name":"proposeSpaceUpdate","inputs":[{"name":"spaceId","type":"uint256","internalType":"uint256"},{"name":"title","type":"string","internalType":"string"},{"name":"metadataURI","type":"string","internalType":"string"}],"outputs":[{"name":"changeId","type":"uint256","internalType":"uint256"}],"stateMutability":"nonpayable"},{"type":"function","name":"removeSuperAdmin","inputs":[{"name":"admin","type":"address","internalType":"address"}],"outputs":[],"stateMutability":"nonpayable"},{"type":"function","name":"reviewProposal","inputs":[{"name":"proposalId","type":"uint256","internalType":"uint256"},{"name":"approve","type":"bool","internalType":"bool"}],"outputs":[],"stateMutability":"nonpayable"},{"type":"function","name":"reviewSpaceUpdate","inputs":[{"name":"changeId","type":"uint256","internalType":"uint256"},{"name":"approve","type":"bool","internalType":"bool"}],"outputs":[],"stateMutability":"nonpayable"},{"type":"function","name":"setAdmin","inputs":[{"name":"admin","type":"address","internalType":"address"},{"name":"isActive","type":"bool","internalType":"bool"}],"outputs":[],"stateMutability":"nonpayable"},{"type":"function","name":"spaceById","inputs":[{"name":"","type":"uint256","internalType":"uint256"}],"outputs":[{"name":"","type":"address","internalType":"address"}],"stateMutability":"view"},{"type":"function","name":"submitProposal","inputs":[{"name":"title","type":"string","internalType":"string"},{"name":"metadataURI","type":"string","internalType":"string"},{"name":"candidateCount","type":"uint256","internalType":"uint256"}],"outputs":[{"name":"proposalId","type":"uint256","internalType":"uint256"}],"stateMutability":"nonpayable"},{"type":"function","name":"superAdmin","inputs":[],"outputs":[{"name":"","type":"address","internalType":"address"}],"stateMutability":"view"},{"type":"function","name":"superAdmins","inputs":[{"name":"","type":"address","internalType":"address"}],"outputs":[{"name":"","type":"bool","internalType":"bool"}],"stateMutability":"view"},{"type":"function","name":"suspendSpace","inputs":[{"name":"spaceId","type":"uint256","internalType":"uint256"},{"name":"reasonCode","type":"string","internalType":"string"}],"outputs":[],"stateMutability":"nonpayable"},{"type":"function","name":"terminateSpace","inputs":[{"name":"spaceId","type":"uint256","internalType":"uint256"},{"name":"reasonCode","type":"string","internalType":"string"}],"outputs":[],"stateMutability":"nonpayable"},{"type":"function","name":"unsuspendSpace","inputs":[{"name":"spaceId","type":"uint256","internalType":"uint256"},{"name":"reasonCode","type":"string","internalType":"string"}],"outputs":[],"stateMutability":"nonpayable"},{"type":"event","name":"AdminUpserted","inputs":[{"name":"admin","type":"address","indexed":true,"internalType":"address"},{"name":"isActive","type":"bool","indexed":false,"internalType":"bool"}],"anonymous":false},{"type":"event","name":"ChangeProposalReviewed","inputs":[{"name":"changeId","type":"uint256","indexed":true,"internalType":"uint256"},{"name":"decision","type":"uint8","indexed":true,"internalType":"enum VoteChainRegistry.ProposalStatus"},{"name":"reviewer","type":"address","indexed":true,"internalType":"address"}],"anonymous":false},{"type":"event","name":"ChangeProposalSubmitted","inputs":[{"name":"changeId","type":"uint256","indexed":true,"internalType":"uint256"},{"name":"spaceId","type":"uint256","indexed":true,"internalType":"uint256"},{"name":"proposer","type":"address","indexed":false,"internalType":"address"}],"anonymous":false},{"type":"event","name":"ElectionSpaceCreated","inputs":[{"name":"spaceId","type":"uint256","indexed":true,"internalType":"uint256"},{"name":"space","type":"address","indexed":true,"internalType":"address"},{"name":"proposalId","type":"uint256","indexed":true,"internalType":"uint256"},{"name":"owner","type":"address","indexed":false,"internalType":"address"},{"name":"candidateCount","type":"uint256","indexed":false,"internalType":"uint256"}],"anonymous":false},{"type":"event","name":"ProposalReviewed","inputs":[{"name":"proposalId","type":"uint256","indexed":true,"internalType":"uint256"},{"name":"decision","type":"uint8","indexed":true,"internalType":"enum VoteChainRegistry.ProposalStatus"},{"name":"reviewer","type":"address","indexed":true,"internalType":"address"}],"anonymous":false},{"type":"event","name":"ProposalSubmitted","inputs":[{"name":"proposalId","type":"uint256","indexed":true,"internalType":"uint256"},{"name":"proposer","type":"address","indexed":true,"internalType":"address"},{"name":"candidateCount","type":"uint256","indexed":false,"internalType":"uint256"}],"anonymous":false},{"type":"event","name":"SuperAdminUpserted","inputs":[{"name":"admin","type":"address","indexed":true,"internalType":"address"},{"name":"isActive","type":"bool","indexed":false,"internalType":"bool"},{"name":"rootSuperAdmin","type":"address","indexed":true,"internalType":"address"}],"anonymous":false},{"type":"error","name":"InvalidAdmin","inputs":[]},{"type":"error","name":"InvalidCandidateCount","inputs":[]},{"type":"error","name":"InvalidProposalStatus","inputs":[{"name":"current","type":"uint8","internalType":"enum VoteChainRegistry.ProposalStatus"},{"name":"expected","type":"uint8","internalType":"enum VoteChainRegistry.ProposalStatus"}]},{"type":"error","name":"NotPlatformAdmin","inputs":[]},{"type":"error","name":"NotProposalOwner","inputs":[]},{"type":"error","name":"NotRootSuperAdmin","inputs":[]},{"type":"error","name":"NotSuperAdmin","inputs":[]},{"type":"error","name":"ProposalNotFound","inputs":[]},{"type":"error","name":"SpaceNotFound","inputs":[]}],"bytecode":{"object":"0x60a0346100e057601f61427538819003918201601f19168301916001600160401b038311848410176100e4578084926020946040528339810103126100e057516001600160a01b038116908181036100e0576001805f558080558060025582156100ce5760207fa8ed7ecd3c9aebcd5b1bd3ebd05b287dd60268b40026387e1e88ad7722d43823918493608052835f526004825260405f208160ff19825416179055604051908152a360405161417c90816100f98239608051818181610a7b015281816118030152611a6f0152f35b604051630b5eba9f60e41b8152600490fd5b5f80fd5b634e487b7160e01b5f52604160045260245ffdfe6080604052600436101562000012575f80fd5b5f803560e01c8063013cf08b1462001a9e57806329575f6a1462001a585780632ab09d141462001a3a57806343c6121314620018905780634902e4aa14620017db5780634b0bddd2146200174157806356b5f8ee14620016b657806370de50a214620016815780637514fc6c146200166157806378cb02da14620010b857806380cd7f2a146200103457806382b842741462000be957806384aa61691462000b17578063ad25cb4214620005a1578063b3292ff01462000a52578063ba8554c714620005e4578063df7f453b14620005a1578063e565e6611462000581578063ec6b498b1462000361578063f13c71581462000208578063f918385414620001c55763fc5a4efe1462000123575f80fd5b34620001c2576020366003190112620001c25760409060043581526006602052208054620001546001830162001be5565b916200019a6003620001696002840162001be5565b920154916200018b604051958695865260a0602087015260a086019062001ca1565b90848203604086015262001ca1565b90620001ad6060840160ff831662001c93565b60081c6001600160a01b031660808301520390f35b80fd5b5034620001c2576020366003190112620001c25760209060ff906040906001600160a01b03620001f462001cf1565b168152600384522054166040519015158152f35b5034620001c2576040366003190112620001c257600435906200022a62001ce1565b91338252600460205260ff604083205416156200034f5780825260056020526040822080546001600160a01b0316156200033d57600281019060ff825416946004861015620003295785620003025760ff92919015620002f6576200029260015b8362001d6f565b6005810180546001600160a01b031916331790554260069091015554166004811015620002e25733917fef0d88bbaeb4891d8e9303afd9d553f2807df5898cedf46c37ec9feba34741d38480a480f35b634e487b7160e01b83526021600452602483fd5b6200029260026200028b565b604051633233a43d60e21b815260449062000321600482018962001c93565b5f6024820152fd5b634e487b7160e01b85526021600452602485fd5b60405163635e873760e01b8152600490fd5b6040516316c726b160e01b8152600490fd5b5034620001c2576020806003193601126200057d5760043580835260058252604083208054909291906001600160a01b039081169081156200033d57600285019160ff83541660048110156200056957600181036200054057503314158062000529575b62000517576002549460018601808711620005035760025581815416926001820193845490604051916122bc91828401928484106001600160401b03851117620004ef5791849391620004569362001e8b86393083528b8301528b6040830152606082015260c060808201526200044360c082016003880162001d88565b9060a08183039101526004860162001d88565b039089f08015620004e4578789526007875260409889902080549185166001600160a01b0319909216821790558154600360ff1990911617909155905492548751939092166001600160a01b031683526020830191909152929190839085907f6d01a0c816e379a259b63ac8da3edf1179b0db179da21d6ae21999dc0ec0f15e908890a48351928352820152f35b6040513d8a823e3d90fd5b634e487b7160e01b8d52604160045260248dfd5b634e487b7160e01b88526011600452602488fd5b60405163287a405960e01b8152600490fd5b503386526004845260ff60408720541615620003c5565b604051633233a43d60e21b81526044916200056090600483019062001c93565b60016024820152fd5b634e487b7160e01b88526021600452602488fd5b5080fd5b5034620001c25780600319360112620001c2576020600254604051908152f35b5034620001c2576020366003190112620001c25760209060ff906040906001600160a01b03620005d062001cf1565b168152600484522054166040519015158152f35b5034620001c2576060366003190112620001c2576004356001600160401b0381116200057d576200061a90369060040162001d08565b906024356001600160401b03811162000a4e576200063d90369060040162001d08565b338552600360205260ff604086205416158062000a39575b62000a27576044351562000a15578454936001850180861162000a01578655620006b860405193620006878562001ba7565b338552620006a86020860196604435885260408701948a8652369162001e41565b9360608601948552369162001e41565b608084015260a0830186905260c08301869052848652600560205260408620835181546001600160a01b0319166001600160a01b039190911617815593516001850155516004811015620009ed5762000715906002850162001d6f565b518051906001600160401b0382116200090557819062000739600386015462001b58565b601f811162000998575b50602090601f83116001146200092557879262000919575b50508160011b915f199060031b1c19161760038301555b60808101518051906001600160401b038211620009055762000798600485015462001b58565b601f8111620008bc575b50946020958691601f84116001146200084b579260069492819260c095926200083f575b50508160011b915f199060031b1c19161760048501555b6005840160018060a01b0360a0830151166bffffffffffffffffffffffff60a01b82541617905501519101556040516044358152817f6595205dae276ce902b2ea66a70a1f42db62056854c3c4dba1e00ec5e2d56e3d843393a3604051908152f35b015190505f80620007c6565b9190601f198416600487018452888420935b818110620008a4575092600192859260c09660069896106200088b575b505050811b016004850155620007dd565b01515f1960f88460031b161c191690555f80806200087a565b9293896001819287860151815501950193016200085d565b60048501875260208720601f840160051c810160208510620008fd575b601f830160051c82018110620008f1575050620007a2565b888155600101620008d9565b5080620008d9565b634e487b7160e01b86526041600452602486fd5b015190505f806200075b565b9250600385018752602087209087935b601f19841685106200097c576001945083601f1981161062000963575b505050811b01600383015562000772565b01515f1960f88460031b161c191690555f808062000952565b8181015183556020948501946001909301929091019062000935565b90915060038501875260208720601f840160051c810160208510620009e5575b90849392915b601f830160051c82018110620009d657505062000743565b898155859450600101620009be565b5080620009b8565b634e487b7160e01b86526021600452602486fd5b634e487b7160e01b87526011600452602487fd5b604051632853b25560e01b8152600490fd5b60405163d4d7478360e01b8152600490fd5b50600460205260ff6040862054161562000655565b8380fd5b5034620001c2576020366003190112620001c25762000a7062001cf1565b6001600160a01b03907f00000000000000000000000000000000000000000000000000000000000000008216330362000b055716801562000af357808252600460205260408220600160ff1982541617905560405190600182527fa8ed7ecd3c9aebcd5b1bd3ebd05b287dd60268b40026387e1e88ad7722d4382360203393a380f35b604051630b5eba9f60e41b8152600490fd5b604051631bb8390b60e01b8152600490fd5b5034620001c25762000b293662001d38565b9091338452600460205260ff604085205416156200034f578352600760205260408320546001600160a01b031690811562000bd7578392823b1562000bd25762000ba192849283604051809681958294637edfb26160e11b84525f600485015233602485015260606044850152606484019162001e21565b03925af1801562000bc75762000bb45750f35b62000bbf9062001b93565b620001c25780f35b6040513d84823e3d90fd5b505050fd5b604051636255b06960e01b8152600490fd5b5034620001c2576060366003190112620001c2576024356001600160401b0381116200057d5762000c1f90369060040162001d08565b90916044356001600160401b0381116200057d5762000c4390369060040162001d08565b9092338352600360205260ff60408420541615806200101f575b62000a27576004358352600760205260408320546001600160a01b03161562000bd75760015493600185018086116200100b576001556040519560a08701908782106001600160401b0383111762000ff75762000cd99362000cc9926040526004358952369162001e41565b9260208701938452369162001e41565b60408501528160608501523360808501528282526006602052604082209084518255518051906001600160401b03821162000f1457819062000d1f600185015462001b58565b601f811162000fa2575b50602090601f831160011462000f3457859262000f28575b50508160011b915f199060031b1c19161760018201555b60408401518051906001600160401b03821162000f145762000d7e600284015462001b58565b601f811162000ecb575b50602090601f831160011462000e5b57600393929185918362000e4f575b50508160011b915f1990851b1c19161760028201555b0190606084015190600482101562000e3b575060209362000de06080928462001d6f565b01518154610100600160a81b03191660089190911b610100600160a81b03161790556040513381526004359082907f87bc07659f51a77af8076b97a1b510ccb69c3bea3105e08b0706bf42f7cbc69b908590a3604051908152f35b634e487b7160e01b81526021600452602490fd5b015190505f8062000da6565b600284018552602085209190601f198416865b81811062000eb2575091600193918560039796941062000e9a575b505050811b01600282015562000dbc565b01515f1983871b60f8161c191690555f808062000e89565b9293602060018192878601518155019501930162000e6e565b60028401855260208520601f840160051c81016020851062000f0c575b601f830160051c8201811062000f0057505062000d88565b86815560010162000ee8565b508062000ee8565b634e487b7160e01b84526041600452602484fd5b015190505f8062000d41565b600185018652602086209250601f198416865b81811062000f89575090846001959493921062000f70575b505050811b01600182015562000d58565b01515f1960f88460031b161c191690555f808062000f5f565b9293602060018192878601518155019501930162000f47565b90915060018401855260208520601f840160051c81016020851062000fef575b90849392915b601f830160051c8201811062000fe057505062000d29565b87815585945060010162000fc8565b508062000fc2565b634e487b7160e01b5f52604160045260245ffd5b634e487b7160e01b85526011600452602485fd5b50600460205260ff6040842054161562000c5d565b5034620001c257620010463662001d38565b9091338452600460205260ff604085205416156200034f578352600760205260408320546001600160a01b031690811562000bd7578392823b1562000bd25762000ba1928492836040518096819582946329a7074f60e11b845233600485015260406024850152604484019162001e21565b5034620001c2576080366003190112620001c257620010d662001cf1565b6024356001600160401b0381116200165d57620010f890369060040162001d08565b916044356001600160401b03811162001659576200111b90369060040162001d08565b93338652600460205260ff604087205416156200034f576001600160a01b0383161562000af3576064351562000a155785549460018601861162000a01576001860187556040516200116d8162001ba7565b6001600160a01b03851681526064356020820152600360408201526200119536848862001e41565b6060820152620011a736838662001e41565b60808201523360a08201524260c08201528688526005602052604088209060018060a01b038151166bffffffffffffffffffffffff60a01b835416178255602081015160018301556040810151600481101562001645576200120d906002840162001d6f565b60608101518051906001600160401b0382116200147a57819062001235600386015462001b58565b601f8111620015ee575b50602090601f83116001146200157b578c926200156f575b50508160011b915f199060031b1c19161760038301555b60808101518051906001600160401b0382116200147a5762001294600485015462001b58565b601f811162001525575b506020908b601f8411600114620014ae579260069492819260c09592620014a2575b50508160011b915f199060031b1c19161760048501555b60a08101516005850180546001600160a01b0319166001600160a01b03928316179055910151919092015560405160643581529085169087907f6595205dae276ce902b2ea66a70a1f42db62056854c3c4dba1e00ec5e2d56e3d90602090a360405192336001887fef0d88bbaeb4891d8e9303afd9d553f2807df5898cedf46c37ec9feba34741d38b80a460025495600187018088116200148e576002556122bc93848601948686106001600160401b038711176200147a57620013e7949287969492620013d89262001e8b89393086526001600160a01b038a166020870152604086018b9052606435606087015260c06080870181905286019162001e21565b9260a081850391015262001e21565b039085f080156200146f578285526007602090815260409586902080546001600160a01b0319166001600160a01b039384169081179091558651939092168352606435908301526060949092918491849184917f6d01a0c816e379a259b63ac8da3edf1179b0db179da21d6ae21999dc0ec0f15e91a460405192835260208301526040820152f35b6040513d86823e3d90fd5b634e487b7160e01b8b52604160045260248bfd5b634e487b7160e01b8a52601160045260248afd5b015190505f80620012c0565b5090600485018c5260208c20918c5b601f19851681106200150c5750926006949260019260c09583601f19811610620014f3575b505050811b016004850155620012d7565b01515f1960f88460031b161c191690555f8080620014e2565b91926020600181928685015181550194019201620014bd565b600485018c5260208c20601f840160051c81016020851062001567575b8d601f840160051c830182106200155c575050506200129e565b815560010162001542565b508062001542565b015190505f8062001257565b9250600385018c5260208c20908c935b601f1984168510620015d2576001945083601f19811610620015b9575b505050811b0160038301556200126e565b01515f1960f88460031b161c191690555f8080620015a8565b818101518355602094850194600190930192909101906200158b565b909150600385018c5260208c20601f840160051c8101602085106200163d575b84939291908e5b601f840160051c830182106200162e575050506200123f565b81558594506001018e62001615565b50806200160e565b634e487b7160e01b8a52602160045260248afd5b8480fd5b8280fd5b5034620001c25780600319360112620001c2576020600154604051908152f35b5034620001c2576020366003190112620001c257602090600435815260078252604060018060a01b0391205416604051908152f35b5034620001c257620016c83662001d38565b9091338452600460205260ff604085205416156200034f578352600760205260408320546001600160a01b031690811562000bd7578392823b1562000bd25762000ba192849283604051809681958294637edfb26160e11b84526001600485015233602485015260606044850152606484019162001e21565b5034620001c2576040366003190112620001c2576200175f62001cf1565b6200176962001ce1565b90338352600460205260ff604084205416156200034f576001600160a01b031690811562000af35760207fde2ec5a61cb25575c35ed8c41a10938fdf23711909527a1abac273444cf21e759183855260038252604085209015159060ff1981541660ff8316179055604051908152a280f35b5034620001c2576020366003190112620001c257620017f962001cf1565b6001600160a01b037f00000000000000000000000000000000000000000000000000000000000000008116913383900362000b05571690811590811562001885575b5062000af35780825260046020526040822060ff198154169055604051908282527fa8ed7ecd3c9aebcd5b1bd3ebd05b287dd60268b40026387e1e88ad7722d4382360203393a380f35b905081145f6200183b565b5034620019eb57600319604036820112620019eb5760043590620018b362001ce1565b90335f52600460205260ff60405f205416156200034f57825f52600660205260405f206003810192835460018060a01b0391828260081c16156200033d5760ff8216600481101562001a26578062001a06575015620019ef5750600160ff1985541617845581545f52600760205260405f20541691823b15620019eb57620019789260025f8094604051968795869485936307b63c2960e01b85526060600486015262001967606486016001830162001d88565b928584030160248601520162001d88565b33604483015203925af18015620019e057620019c9575b5060ff905b54166004811015620002e25733917f016dd1e56d48265dd218010889b30d8b9d0af2c496aae1b48e47dd16520d81588480a480f35b620019d691935062001b93565b5f9160ff6200198f565b6040513d5f823e3d90fd5b5f80fd5b60ff191660021784555060ff929150620019949050565b604051633233a43d60e21b81526044916200032190600483019062001c93565b634e487b7160e01b5f52602160045260245ffd5b34620019eb575f366003190112620019eb5760205f54604051908152f35b34620019eb575f366003190112620019eb576040517f00000000000000000000000000000000000000000000000000000000000000006001600160a01b03168152602090f35b34620019eb576020366003190112620019eb576004355f52600560205260405f2060018060a01b0390818154169060018101549262001b4960ff6002840154169162001b3a62001af16003860162001be5565b62001b28600662001b056004890162001be5565b9460058901541697015495604051998a998a5260208a0152604089019062001c93565b60e0606088015260e087019062001ca1565b90858203608087015262001ca1565b9160a084015260c08301520390f35b90600182811c9216801562001b88575b602083101462001b7457565b634e487b7160e01b5f52602260045260245ffd5b91607f169162001b68565b6001600160401b03811162000ff757604052565b60e081019081106001600160401b0382111762000ff757604052565b90601f801991011681019081106001600160401b0382111762000ff757604052565b9060405191825f825462001bf98162001b58565b908184526020946001916001811690815f1462001c6f575060011462001c2d575b50505062001c2b9250038362001bc3565b565b5f90815285812095935091905b81831062001c5657505062001c2b93508201015f808062001c1a565b8554888401850152948501948794509183019162001c3a565b9250505062001c2b94925060ff191682840152151560051b8201015f808062001c1a565b90600482101562001a265752565b91908251928382525f5b84811062001ccc575050825f602080949584010152601f8019910116010190565b60208183018101518483018201520162001cab565b602435908115158203620019eb57565b600435906001600160a01b0382168203620019eb57565b9181601f84011215620019eb578235916001600160401b038311620019eb5760208381860195010111620019eb57565b906040600319830112620019eb5760043591602435906001600160401b038211620019eb5762001d6b9160040162001d08565b9091565b90600481101562001a265760ff80198354169116179055565b80545f939262001d988262001b58565b918282526020936001916001811690815f1462001e01575060011462001dc0575b5050505050565b90939495505f92919252835f2092845f945b83861062001dec57505050500101905f8080808062001db9565b80548587018301529401938590820162001dd2565b60ff19168685015250505090151560051b010191505f8080808062001db9565b908060209392818452848401375f828201840152601f01601f1916010190565b9291926001600160401b03821162000ff7576040519162001e6d601f8201601f19166020018462001bc3565b829481845281830111620019eb578281602093845f96013701015256fe610100604052346200045957620022bc803803806200001e816200045d565b928339810160c0828203126200045957620000398262000483565b9160206200004981830162000483565b6040830151606084015160808501516001600160401b0395919391908681116200045957876200007b91830162000498565b9660a0820151878111620004595762000095920162000498565b966001600160a01b03808216159081156200044d575b506200043b578315620004295760805260a05260c05260e05282519082821162000347575f54916001948584811c941680156200041e575b8385101462000328578190601f94858111620003cb575b50839085831160011462000367575f926200035b575b50505f19600383901b1c191690851b175f555b8451928311620003475783548481811c911680156200033c575b828210146200032857828111620002e0575b50809183116001146200027c57508192935f9262000270575b50505f19600383901b1c191690821b1790555b61ffff1960025416600255604051611db390816200050982396080518181816101c10152818161055b015281816108d00152818161094301528181610bd601528181610e640152818161128e015281816114ce01526115b3015260a0518181816103ad0152818161078b0152818161098601528181610cdd01528181611120015261137c015260c0518181816102680152818161049301528181610834015281816109cc01528181610b2401528181610c5101528181610daa01528181611038015281816111e40152818161142f015281816116c80152611cb8015260e051818181610683015281816107070152611d120152f35b015190505f8062000168565b90601f19831694845f52825f20925f905b878210620002c857505083859610620002af575b505050811b0190556200017b565b01515f1960f88460031b161c191690555f8080620002a1565b8087859682949686015181550195019301906200028d565b845f52815f208380860160051c8201928487106200031e575b0160051c019085905b828110620003125750506200014f565b5f815501859062000302565b92508192620002f9565b634e487b7160e01b5f52602260045260245ffd5b90607f16906200013d565b634e487b7160e01b5f52604160045260245ffd5b015190505f8062000110565b90879350601f198316915f8052855f20925f5b87828210620003b457505084116200039b575b505050811b015f5562000123565b01515f1960f88460031b161c191690555f80806200038d565b8385015186558b979095019493840193016200037a565b9091505f8052835f208580850160051c82019286861062000414575b918991869594930160051c01915b82811062000405575050620000fa565b5f8155859450899101620003f5565b92508192620003e7565b93607f1693620000e3565b60405163e66ea08f60e01b8152600490fd5b60405163ea8e4eb560e01b8152600490fd5b90508216155f620000ab565b5f80fd5b6040519190601f01601f191682016001600160401b038111838210176200034757604052565b51906001600160a01b03821682036200045957565b919080601f84011215620004595782516001600160401b0381116200034757602090620004ce601f8201601f191683016200045d565b9281845282828701011162000459575f5b818110620004f45750825f9394955001015290565b8581018301518482018401528201620004df56fe608060409080825260049081361015610016575f80fd5b5f3560e01c90816303ee438c1461195657508063055ad42e1461193057806307b63c291461154d5780630e866fa51461152f5780630f8779c6146113605780631dcf2e39146113435780631e8f048914611325578063200d2ed2146112e357806338db6dd3146110f75780633af32abf146110bb5780633e85892314610f975780634a79d50c14610ebb5780634d35574f14610cb25780634fc8a20d14610c8a578063534e0e9e14610b8d5780635688e29914610aab57806369edbcda146109ef5780636bf2ffa1146109b55780637a967cd3146109725780637b1039991461092f5780637ed1775114610763578063995e4339146106a6578063a9a981a31461066c578063b1c9fe6e14610642578063b9a5301314610606578063c6dbe15a146105ca578063d55ec9c11461034f578063f662b88114610318578063f826fee8146102fa5763fdbf64c21461016a575f80fd5b346102f65760603660031901126102f657803580151581036102f6576001600160a01b0360243581811694908590036102f65760443567ffffffffffffffff81116102f6576101bc9036908601611ad0565b9390927f00000000000000000000000000000000000000000000000000000000000000001633036102e6576002549060ff8260081c1660038110156102d3576002146102c357156102bd5760015b60038110156102aa579061ff0060ff9260081b169061ff001916178060025560081c1693600385101561029757507f7bf94aa98e004220f19fb43e7d8d6dabd2c23e3fadc2908d16dd25f52cd1c43b916102929151918291602083527f0000000000000000000000000000000000000000000000000000000000000000956020840191611b14565b0390a4005b602190634e487b7160e01b5f525260245ffd5b602186634e487b7160e01b5f525260245ffd5b5f61020a565b825163214dacf960e11b81528690fd5b602187634e487b7160e01b5f525260245ffd5b8151633217675b60e21b81528590fd5b5f80fd5b82346102f6575f3660031901126102f6576020906003549051908152f35b82346102f65760203660031901126102f6576020906001600160a01b0361033d611afe565b165f52600a8252805f20549051908152f35b5090346102f657602090816003193601126102f65767ffffffffffffffff9183358381116102f657366023820112156102f657808501359384116102f65760249260059536858760051b850101116102f6576001600160a01b0394337f00000000000000000000000000000000000000000000000000000000000000008716141580610543575b6105345760ff9360ff60025460081c169860038a10156105225760019960018114610512576002146105025761040a611b4c565b848110156104f057806104cd57505f5b89811061042357005b8381831b840101358981168091036102f65780156104bd5790818c925f5260078a52875f208381548b81161561045e575b505050500161041a565b60ff19161790558751838152338b8201527f5b551e9aea49b0b85a31d13fd569c911ded7781feaae60c3603e3a968b05fc13897f000000000000000000000000000000000000000000000000000000000000000092a35f808381610454565b86516311745b2b60e31b81528690fd5b85516305fb5e1b60e01b81525f818701526044916104ee9082870190611aaf565bfd5b83602186634e487b7160e01b5f52525ffd5b845163214dacf960e11b81528490fd5b85516327c0e7b560e01b81528590fd5b82602185634e487b7160e01b5f52525ffd5b50905163ea8e4eb560e01b8152fd5b50825163df7f453b60e01b81523383820152858183817f00000000000000000000000000000000000000000000000000000000000000008b165afa9081156105c0575f91610593575b50156103d6565b6105b39150863d88116105b9575b6105ab8183611a32565b810190611b34565b5f61058c565b503d6105a1565b84513d5f823e3d90fd5b82346102f65760203660031901126102f6576020906001600160a01b036105ef611afe565b165f526008825260ff815f20541690519015158152f35b82346102f65760203660031901126102f6576020906001600160a01b0361062b611afe565b165f526009825260ff815f20541690519015158152f35b82346102f6575f3660031901126102f65760209061066a610661611b4c565b91518092611aaf565bf35b82346102f6575f3660031901126102f657602090517f00000000000000000000000000000000000000000000000000000000000000008152f35b5090346102f65760203660031901126102f65781356106c3611b4c565b83811015610750576003810361072d575080158015610704575b6106f657602092505f52600b8252805f20549051908152f35b505163e66ea08f60e01b8152fd5b507f000000000000000000000000000000000000000000000000000000000000000081116106dd565b82516305fb5e1b60e01b81526003818601526044916104ee906024830190611aaf565b602184634e487b7160e01b5f525260245ffd5b50346102f657602090816003193601126102f65761077f611afe565b6001600160a01b0391337f000000000000000000000000000000000000000000000000000000000000000084161415806108b7575b6108a95760ff60025460081c166003811015610879576001811461089a5760021461088c576107e1611b4c565b818110156108795780610857575050907f5b551e9aea49b0b85a31d13fd569c911ded7781feaae60c3603e3a968b05fc13911692835f5260078352805f2060ff1981541690558051925f845233908401527f000000000000000000000000000000000000000000000000000000000000000092a3005b906104ee6044925f8851936305fb5e1b60e01b85528401526024830190611aaf565b602182634e487b7160e01b5f525260245ffd5b845163214dacf960e11b8152fd5b5084516327c0e7b560e01b8152fd5b845163ea8e4eb560e01b8152fd5b50845163df7f453b60e01b8152338282015284816024817f000000000000000000000000000000000000000000000000000000000000000088165afa908115610925575f91610908575b50156107b4565b61091f9150853d87116105b9576105ab8183611a32565b5f610901565b86513d5f823e3d90fd5b82346102f6575f3660031901126102f657517f00000000000000000000000000000000000000000000000000000000000000006001600160a01b03168152602090f35b82346102f6575f3660031901126102f657517f00000000000000000000000000000000000000000000000000000000000000006001600160a01b03168152602090f35b82346102f6575f3660031901126102f657602090517f00000000000000000000000000000000000000000000000000000000000000008152f35b50346102f657816003193601126102f657335f52600760205260ff825f20541615610a9d5760ff60025460081c1660038110156108795760018114610a8e57600214610a8057610a3d611b4c565b91818310156108795760028303610a5e57610a5c602435833533611ba5565b005b60449260026104ee9251936305fb5e1b60e01b85528401526024830190611aaf565b905163214dacf960e11b8152fd5b5090516327c0e7b560e01b8152fd5b905163aba4733960e01b8152fd5b50346102f65760603660031901126102f657610ac5611afe565b916024359160ff60025460081c1660038110156108795760018114610a8e57600214610a8057610af3611b4c565b818110156108795760028103610b6b575050610b126044358385611ba5565b5190815233916001600160a01b0316907f0000000000000000000000000000000000000000000000000000000000000000907e61840683c17d5c16bbabef1c635624cffef2223aced524b735371a8334846790602090a4005b6104ee90600260449451936305fb5e1b60e01b85528401526024830190611aaf565b50346102f657816003193601126102f657610ba6611afe565b9160243567ffffffffffffffff81116102f657610bc69036908401611ad0565b909390916001600160a01b0391907f000000000000000000000000000000000000000000000000000000000000000083163303610c7b5760ff61020061ff001960025416178060025560081c169460038610156102975750906102927f7bf94aa98e004220f19fb43e7d8d6dabd2c23e3fadc2908d16dd25f52cd1c43b9392519283926020845216967f0000000000000000000000000000000000000000000000000000000000000000956020840191611b14565b51633217675b60e21b81528490fd5b5090346102f65760203660031901126102f657602091355f52600b8252805f20549051908152f35b50346102f65760803660031901126102f65780359160243590604435916064359360018060a01b03807f0000000000000000000000000000000000000000000000000000000000000000163314159081610e45575b50610e375760ff60025460081c1660038110156108795760018114610e2857600214610e1a57610d35611b4c565b818110156108795780610df8575085158015610dee575b8015610de5575b8015610ddb575b610dcd578190866003555582600555836006558151948552602085015283015260608201523360808201527f26f7315aaf2926e91db90b9e8be8c5c36e6a366c93950652ce964393555390c460a07f000000000000000000000000000000000000000000000000000000000000000092a2005b825163a74634cd60e01b8152fd5b5083851115610d5a565b50818410610d53565b5085821115610d4c565b906104ee6044925f8651936305fb5e1b60e01b85528401526024830190611aaf565b825163214dacf960e11b8152fd5b5082516327c0e7b560e01b8152fd5b825163ea8e4eb560e01b8152fd5b845163df7f453b60e01b815233848201529150602090829060249082907f0000000000000000000000000000000000000000000000000000000000000000165afa9081156105c0575f91610e9c575b50155f610d07565b610eb5915060203d6020116105b9576105ab8183611a32565b5f610e94565b82346102f6575f3660031901126102f65780515f8054610eda816119fa565b80845290602090600190818116908115610f6d5750600114610f16575b610f128587610f0882880383611a32565b5191829182611a68565b0390f35b5f80805293507f290decd9548b62a8d60345a988386fc84ba6bc95484008f6362f93160ef3e5635b838510610f5a57505050508101602001610f0882610f12610ef7565b8054868601840152938201938101610f3e565b610f1297955086935060209250610f0894915060ff191682840152151560051b8201019294610ef7565b5090346102f65760203660031901126102f657813591335f52600760205260ff825f20541615610a9d5760ff60025460081c1660038110156108795760018114610a8e57600214610a8057610fea611b4c565b8181101561087957600181036110995750335f52600860205260ff825f20541661108b57821561107d57508190335f526008602052805f20600160ff19825416179055600a6020525f2055337f00000000000000000000000000000000000000000000000000000000000000007f26a454697a4923cb3646779d831b5e4696bd3fab14b67dd6dfe23d72354f57dd5f80a4005b9051636033c4fd60e11b8152fd5b90516317fd8aab60e31b8152fd5b6104ee90600160449451936305fb5e1b60e01b85528401526024830190611aaf565b82346102f65760203660031901126102f6576020906001600160a01b036110e0611afe565b165f526007825260ff815f20541690519015158152f35b5090346102f657602090816003193601126102f657611114611afe565b6001600160a01b0390337f00000000000000000000000000000000000000000000000000000000000000008316141580611275575b6112655760ff60025460081c1660038110156102aa57600181146112555760021461124557611176611b4c565b858110156102aa578061122357501692831561121557835f526007835260ff825f20541661120757507f5b551e9aea49b0b85a31d13fd569c911ded7781feaae60c3603e3a968b05fc1390835f5260078352805f20600160ff198254161790558051926001845233908401527f000000000000000000000000000000000000000000000000000000000000000092a3005b9051630ea075bf60e21b8152fd5b90516311745b2b60e31b8152fd5b83516305fb5e1b60e01b81525f818801526044916104ee906024830190611aaf565b825163214dacf960e11b81528590fd5b83516327c0e7b560e01b81528690fd5b825163ea8e4eb560e01b81528590fd5b50825163df7f453b60e01b8152338682015284816024817f000000000000000000000000000000000000000000000000000000000000000087165afa9081156105c0575f916112c6575b5015611149565b6112dd9150853d87116105b9576105ab8183611a32565b5f6112bf565b5090346102f6575f3660031901126102f65760ff60025460081c16905190600381101561131257602092508152f35b602183634e487b7160e01b5f525260245ffd5b82346102f6575f3660031901126102f6576020906006549051908152f35b5090346102f6575f3660031901126102f657602091549051908152f35b5090346102f6575f3660031901126102f65760018060a01b03807f00000000000000000000000000000000000000000000000000000000000000001633141590816114af575b506114a2576002549060ff8260081c1660038110156107505760018114611492576002146114835760ff821691838310156107505760038314611465576001830160ff81116114525760ff1693808510156102975750839060ff191617600255513381527fb08bfe79d11e67f65c878f279728c4d53fc5dfc3373a20958345fcad3750953e60207f000000000000000000000000000000000000000000000000000000000000000092a4005b601185634e487b7160e01b5f525260245ffd5b81516335c1372560e01b815260038186018190526024820152604490fd5b5163214dacf960e11b81529050fd5b81516327c0e7b560e01b81528490fd5b5163ea8e4eb560e01b8152fd5b825163df7f453b60e01b815233858201529150602090829060249082907f0000000000000000000000000000000000000000000000000000000000000000165afa908115611525575f91611506575b50155f6113a6565b61151f915060203d6020116105b9576105ab8183611a32565b5f6114fe565b82513d5f823e3d90fd5b82346102f6575f3660031901126102f6576020906005549051908152f35b5090346102f65760603660031901126102f65767ffffffffffffffff9180358381116102f6576115809036908301611ad0565b91906024358581116102f6576115999036908401611ad0565b9190956044359360018060a01b038086168096036102f6577f0000000000000000000000000000000000000000000000000000000000000000163303611922576115e1611b4c565b8181101561087957806119005750818611611802576116005f546119fa565b91601f928381116118a1575b50865f848211600114611820575f91611815575b508760011b905f198960031b1c1916175f555b8411611802575060019061164782546119fa565b8181116117a0575b505f9084116001146116f8577f4f86676f84ed8c8823cd1b5c0682bdfc9263d14d9879cd7609262de9f280002b96979284926116c1956116b3935f916116ed575b505f19600386901b1c191684821b1790555b885196606088526060880191611b14565b918583036020870152611b14565b93820152807f0000000000000000000000000000000000000000000000000000000000000000930390a2005b90508501355f611690565b601f19841690825f527fb10e2d527612073b26eecdfd717e6a320cf44b4afac2b0732d9fcbe2b7fa0cf6915f5b81811061178a5750926116b3927f4f86676f84ed8c8823cd1b5c0682bdfc9263d14d9879cd7609262de9f280002b999a9592876116c1989610611771575b50508084811b0190556116a2565b8601355f19600387901b60f8161c191690555f80611763565b8a83013584559284019260209283019201611725565b825f527fb10e2d527612073b26eecdfd717e6a320cf44b4afac2b0732d9fcbe2b7fa0cf68280870160051c820192602088106117f9575b0160051c019083905b8281106117ee57505061164f565b5f81550183906117e0565b925081926117d7565b604190634e487b7160e01b5f525260245ffd5b90508401355f611620565b5f8080527f290decd9548b62a8d60345a988386fc84ba6bc95484008f6362f93160ef3e56392508990601f198216905b81811061188657501061186d575b5050600187811b015f55611633565b8501355f1960038a901b60f8161c191690555f8061185e565b8884013585556001909401936020938401938c935001611850565b5f80527f290decd9548b62a8d60345a988386fc84ba6bc95484008f6362f93160ef3e56384808a0160051c82019260208b106118f7575b0160051c01905b8181106118ec575061160c565b5f81556001016118df565b925081926118d8565b906104ee6044925f8a51936305fb5e1b60e01b85528401526024830190611aaf565b8651633217675b60e21b8152fd5b82346102f6575f3660031901126102f65760209061066a60ff6002541691518092611aaf565b8390346102f6575f3660031901126102f6575f60018054611976816119fa565b8085529160209160018116908115610f6d57506001146119a157610f128587610f0882880383611a32565b60015f90815293507fb10e2d527612073b26eecdfd717e6a320cf44b4afac2b0732d9fcbe2b7fa0cf65b8385106119e757505050508101602001610f0882610f12610ef7565b80548686018401529382019381016119cb565b90600182811c92168015611a28575b6020831014611a1457565b634e487b7160e01b5f52602260045260245ffd5b91607f1691611a09565b90601f8019910116810190811067ffffffffffffffff821117611a5457604052565b634e487b7160e01b5f52604160045260245ffd5b602080825282518183018190529093925f5b828110611a9b57505060409293505f838284010152601f8019910116010190565b818101860151848201604001528501611a7a565b906004821015611abc5752565b634e487b7160e01b5f52602160045260245ffd5b9181601f840112156102f65782359167ffffffffffffffff83116102f657602083818601950101116102f657565b600435906001600160a01b03821682036102f657565b908060209392818452848401375f828201840152601f01601f1916010190565b908160209103126102f6575180151581036102f65790565b6003548015611b9b574210611b81576004544210611b9657600654421080611b8a575b611b85576005544210611b8157600390565b5f90565b600290565b50600554421015611b6f565b600190565b5060ff6002541690565b90916001600160a01b03909116908115611d6b57815f5260206007815260409160ff835f20541615611d5a57835f526008825260ff835f20541615611d4957835f526009825260ff835f205416611d385784158015611d0f575b611cfe5782519082820190868252848301528460608301523060808301524660a083015260a0825260c082019180831067ffffffffffffffff841117611a5457828552519020845f52600a8352835f205403611cef5750825f5260098152815f20600160ff19825416179055835f52600b8152815f2090815460018101809111611cdb577f63ab6e5dc98a7d72f7b887b4479c584f5d1cc5e644f8b756c1213bc8e32f4f429255845f52600b8152825f205492519283527f000000000000000000000000000000000000000000000000000000000000000092a4565b634e487b7160e01b5f52601160045260245ffd5b635054097b60e01b8152600490fd5b825163e66ea08f60e01b8152600490fd5b507f00000000000000000000000000000000000000000000000000000000000000008511611bff565b825163a89ac15160e01b8152600490fd5b8251631918952960e01b8152600490fd5b825163aba4733960e01b8152600490fd5b6040516311745b2b60e31b8152600490fdfea26469706673582212206c1c2ed9d49cd7530cd15c918abb699526b435f5efac28d80e9ef4d975265a7464736f6c63430008180033a2646970667358221220a97de9d8a1afdae7d83c6d6d9215ef296116f598ae5c8e8e4b9faa7e4b0c261c64736f6c63430008180033","linkReferences":{}},"methodIdentifiers":{"addSuperAdmin(address)":"b3292ff0","changeProposals(uint256)":"fc5a4efe","createElectionForAdmin(address,string,string,uint256)":"78cb02da","createElectionFromProposal(uint256)":"ec6b498b","isPlatformAdmin(address)":"f9183854","isSuperAdmin(address)":"df7f453b","nextChangeProposalId()":"7514fc6c","nextProposalId()":"2ab09d14","nextSpaceId()":"e565e661","proposals(uint256)":"013cf08b","proposeSpaceUpdate(uint256,string,string)":"82b84274","removeSuperAdmin(address)":"4902e4aa","reviewProposal(uint256,bool)":"f13c7158","reviewSpaceUpdate(uint256,bool)":"43c61213","setAdmin(address,bool)":"4b0bddd2","spaceById(uint256)":"70de50a2","submitProposal(string,string,uint256)":"ba8554c7","superAdmin()":"29575f6a","superAdmins(address)":"ad25cb42","suspendSpace(uint256,string)":"56b5f8ee","terminateSpace(uint256,string)":"80cd7f2a","unsuspendSpace(uint256,string)":"84aa6169"},"id":23}