{"abi":[{"type":"constructor","inputs":[{"name":"_initialSuperAdmin","type":"address","internalType":"address"}],"stateMutability":"nonpayable"},{"type":"function","name":"addSuperAdmin","inputs":[{"name":"admin","type":"address","internalType":"address"}],"outputs":[],"stateMutability":"nonpayable"},{"type":"function","name":"createElectionForAdminWithConfig","inputs":[{"name":"spaceAdmin","type":"address","internalType":"address"},{"name":"title","type":"string","internalType":"string"},{"name":"metadataURI","type":"string","internalType":"string"},{"name":"candidateCount","type":"uint256","internalType":"uint256"},{"name":"initialVoters","type":"address[]","internalType":"address[]"},{"name":"commitStartsAt","type":"uint256","internalType":"uint256"},{"name":"commitEndsAt","type":"uint256","internalType":"uint256"},{"name":"revealStartsAt","type":"uint256","internalType":"uint256"},{"name":"revealEndsAt","type":"uint256","internalType":"uint256"}],"outputs":[{"name":"proposalId","type":"uint256","internalType":"uint256"},{"name":"spaceId","type":"uint256","internalType":"uint256"},{"name":"spaceAddress","type":"address","internalType":"address"}],"stateMutability":"nonpayable"},{"type":"function","name":"isPlatformAdmin","inputs":[{"name":"","type":"address","internalType":"address"}],"outputs":[{"name":"","type":"bool","internalType":"bool"}],"stateMutability":"view"},{"type":"function","name":"isSuperAdmin","inputs":[{"name":"account","type":"address","internalType":"address"}],"outputs":[{"name":"","type":"bool","internalType":"bool"}],"stateMutability":"view"},{"type":"function","name":"nextProposalId","inputs":[],"outputs":[{"name":"","type":"uint256","internalType":"uint256"}],"stateMutability":"view"},{"type":"function","name":"nextSpaceId","inputs":[],"outputs":[{"name":"","type":"uint256","internalType":"uint256"}],"stateMutability":"view"},{"type":"function","name":"proposals","inputs":[{"name":"","type":"uint256","internalType":"uint256"}],"outputs":[{"name":"proposer","type":"address","internalType":"address"},{"name":"candidateCount","type":"uint256","internalType":"uint256"},{"name":"status","type":"uint8","internalType":"enum VoteChainRegistry.ProposalStatus"},{"name":"title","type":"string","internalType":"string"},{"name":"metadataURI","type":"string","internalType":"string"},{"name":"reviewer","type":"address","internalType":"address"},{"name":"reviewedAt","type":"uint256","internalType":"uint256"}],"stateMutability":"view"},{"type":"function","name":"removeSuperAdmin","inputs":[{"name":"admin","type":"address","internalType":"address"}],"outputs":[],"stateMutability":"nonpayable"},{"type":"function","name":"setAdmin","inputs":[{"name":"admin","type":"address","internalType":"address"},{"name":"isActive","type":"bool","internalType":"bool"}],"outputs":[],"stateMutability":"nonpayable"},{"type":"function","name":"spaceById","inputs":[{"name":"","type":"uint256","internalType":"uint256"}],"outputs":[{"name":"","type":"address","internalType":"address"}],"stateMutability":"view"},{"type":"function","name":"superAdmin","inputs":[],"outputs":[{"name":"","type":"address","internalType":"address"}],"stateMutability":"view"},{"type":"function","name":"superAdmins","inputs":[{"name":"","type":"address","internalType":"address"}],"outputs":[{"name":"","type":"bool","internalType":"bool"}],"stateMutability":"view"},{"type":"function","name":"suspendSpace","inputs":[{"name":"spaceId","type":"uint256","internalType":"uint256"},{"name":"reasonCode","type":"string","internalType":"string"}],"outputs":[],"stateMutability":"nonpayable"},{"type":"function","name":"terminateSpace","inputs":[{"name":"spaceId","type":"uint256","internalType":"uint256"},{"name":"reasonCode","type":"string","internalType":"string"}],"outputs":[],"stateMutability":"nonpayable"},{"type":"function","name":"transferSpaceAdmin","inputs":[{"name":"spaceId","type":"uint256","internalType":"uint256"},{"name":"newAdmin","type":"address","internalType":"address"},{"name":"reasonCode","type":"string","internalType":"string"}],"outputs":[],"stateMutability":"nonpayable"},{"type":"function","name":"unsuspendSpace","inputs":[{"name":"spaceId","type":"uint256","internalType":"uint256"},{"name":"reasonCode","type":"string","internalType":"string"}],"outputs":[],"stateMutability":"nonpayable"},{"type":"event","name":"AdminUpserted","inputs":[{"name":"admin","type":"address","indexed":true,"internalType":"address"},{"name":"isActive","type":"bool","indexed":false,"internalType":"bool"}],"anonymous":false},{"type":"event","name":"ElectionSpaceConfigured","inputs":[{"name":"spaceId","type":"uint256","indexed":true,"internalType":"uint256"},{"name":"space","type":"address","indexed":true,"internalType":"address"},{"name":"proposalId","type":"uint256","indexed":true,"internalType":"uint256"},{"name":"voterCount","type":"uint256","indexed":false,"internalType":"uint256"},{"name":"commitStartsAt","type":"uint256","indexed":false,"internalType":"uint256"},{"name":"commitEndsAt","type":"uint256","indexed":false,"internalType":"uint256"},{"name":"revealStartsAt","type":"uint256","indexed":false,"internalType":"uint256"},{"name":"revealEndsAt","type":"uint256","indexed":false,"internalType":"uint256"}],"anonymous":false},{"type":"event","name":"ElectionSpaceCreated","inputs":[{"name":"spaceId","type":"uint256","indexed":true,"internalType":"uint256"},{"name":"space","type":"address","indexed":true,"internalType":"address"},{"name":"proposalId","type":"uint256","indexed":true,"internalType":"uint256"},{"name":"owner","type":"address","indexed":false,"internalType":"address"},{"name":"candidateCount","type":"uint256","indexed":false,"internalType":"uint256"}],"anonymous":false},{"type":"event","name":"ProposalReviewed","inputs":[{"name":"proposalId","type":"uint256","indexed":true,"internalType":"uint256"},{"name":"decision","type":"uint8","indexed":true,"internalType":"enum VoteChainRegistry.ProposalStatus"},{"name":"reviewer","type":"address","indexed":true,"internalType":"address"}],"anonymous":false},{"type":"event","name":"ProposalSubmitted","inputs":[{"name":"proposalId","type":"uint256","indexed":true,"internalType":"uint256"},{"name":"proposer","type":"address","indexed":true,"internalType":"address"},{"name":"candidateCount","type":"uint256","indexed":false,"internalType":"uint256"}],"anonymous":false},{"type":"event","name":"SpaceAdminTransferred","inputs":[{"name":"spaceId","type":"uint256","indexed":true,"internalType":"uint256"},{"name":"previousAdmin","type":"address","indexed":true,"internalType":"address"},{"name":"newAdmin","type":"address","indexed":true,"internalType":"address"},{"name":"actor","type":"address","indexed":false,"internalType":"address"},{"name":"reasonCode","type":"string","indexed":false,"internalType":"string"}],"anonymous":false},{"type":"event","name":"SuperAdminUpserted","inputs":[{"name":"admin","type":"address","indexed":true,"internalType":"address"},{"name":"isActive","type":"bool","indexed":false,"internalType":"bool"},{"name":"rootSuperAdmin","type":"address","indexed":true,"internalType":"address"}],"anonymous":false},{"type":"error","name":"InvalidAdmin","inputs":[]},{"type":"error","name":"InvalidCandidateCount","inputs":[]},{"type":"error","name":"NotPlatformAdmin","inputs":[]},{"type":"error","name":"NotRootSuperAdmin","inputs":[]},{"type":"error","name":"NotSuperAdmin","inputs":[]},{"type":"error","name":"SpaceNotFound","inputs":[]}],"bytecode":{"object":"0x60a0346100d657601f613cf638819003918201601f19168301916001600160401b038311848410176100da578084926020946040528339810103126100d657516001600160a01b038116908181036100d65760015f556001805581156100c457608052805f52600360205260405f20600160ff19825416179055807fa8ed7ecd3c9aebcd5b1bd3ebd05b287dd60268b40026387e1e88ad7722d43823602060405160018152a3604051613c0790816100ef8239608051818181610ef60152610f540152f35b604051630b5eba9f60e41b8152600490fd5b5f80fd5b634e487b7160e01b5f52604160045260245ffdfe6080604052600436101562000012575f80fd5b5f803560e01c8063013cf08b1462000f8357806329575f6a1462000f3d5780632ab09d141462000f1f5780634902e4aa1462000e5f5780634b0bddd21462000dc757806356b5f8ee1462000d0f57806361a982fd1462000b2457806370de50a21462000aef57806380cd7f2a1462000a7957806384aa616914620009a75780639db237931462000233578063ad25cb421462000140578063b3292ff01462000183578063df7f453b1462000140578063e565e66114620001205763f918385414620000db575f80fd5b346200011d5760203660031901126200011d5760209060ff906040906001600160a01b0362000109620011b0565b168152600284522054166040519015158152f35b80fd5b50346200011d57806003193601126200011d576020600154604051908152f35b50346200011d5760203660031901126200011d5760209060ff906040906001600160a01b036200016f620011b0565b168152600384522054166040519015158152f35b50346200011d5760203660031901126200011d57620001a1620011b0565b338252600360205260ff6040832054161562000221576001600160a01b031680156200020f57808252600360205260408220600160ff1982541617905560405190600182527fa8ed7ecd3c9aebcd5b1bd3ebd05b287dd60268b40026387e1e88ad7722d4382360203393a380f35b604051630b5eba9f60e41b8152600490fd5b6040516316c726b160e01b8152600490fd5b50346200011d576101203660031901126200011d5762000252620011b0565b6024356001600160401b038111620009a35762000274903690600401620011c7565b6044929192356001600160401b0381116200099f5762000299903690600401620011c7565b93906001600160401b03608435116200099b573660236084350112156200099b576001600160401b0360843560040135116200099b573660246084356004013560051b6084350101116200099b57338652600360205260ff6040872054161562000221576001600160a01b038416156200020f5760643515620009895785549460018601861162000975576001860187556040518060e08101106001600160401b0360e083011117620009615760e0810160409081526001600160a01b038716825260643560208301526003908201526200037636868662001275565b60608201526200038836838562001275565b60808201523360a08201524260c08201528688526004602052604088209060018060a01b038151166bffffffffffffffffffffffff60a01b8354161782556020810151600183015560028201604082015160048110156200094d5760ff8019835416911617905560608101518051906001600160401b0382116200086357819062000417600386015462001051565b601f8111620008f6575b50602090601f831160011462000883578c9262000877575b50508160011b915f199060031b1c19161760038301555b60808101518051906001600160401b038211620008635762000476600485015462001051565b601f811162000819575b506020908b601f8411600114620007a2579260069492819260c0959262000796575b50508160011b915f199060031b1c19161760048501555b60a08101516005850180546001600160a01b0319166001600160a01b03928316179055910151919092015560405160643581529086169087907f6595205dae276ce902b2ea66a70a1f42db62056854c3c4dba1e00ec5e2d56e3d90602090a360405192336001887fef0d88bbaeb4891d8e9303afd9d553f2807df5898cedf46c37ec9feba34741d38b80a460015494600186018087116200078257600155846129138101106001600160401b03612913870111176200076e5792602092620005c2620005d9938796612913620012bf89393061291389019081526001600160a01b038c1688820152604081018b905260643560608201526101806080820181905201916200122e565b916129138601830360a0612913880101526200122e565b3360c0612913850101526129138301810360e06129138501015260843560040135815201602460843501875b6084356004013581106200073957505060a435612913830161010081019190915260c43561012082015260e4356101408201526101043561016090910152039085f09182156200072e578185526005602090815260409586902080546001600160a01b0319166001600160a01b0386811691821790925587519190931681526064359181019190915260609585929184917f6d01a0c816e379a259b63ac8da3edf1179b0db179da21d6ae21999dc0ec0f15e91a48260405160843560040135815260a435602082015260c435604082015260e43586820152610104356080820152827fcd4604e82186011728c3154c128c33a40fed0cc3b3798108122986aed5a9171d60a0600180821b03871693a4604051928352602083015260018060a01b03166040820152f35b6040513d86823e3d90fd5b9092509082356001600160a01b03811691908290036200076a57908152839260209182019291019060010162000605565b5f80fd5b634e487b7160e01b89526041600452602489fd5b634e487b7160e01b8a52601160045260248afd5b015190505f80620004a2565b5090600485018c5260208c20918c5b601f1985168110620008005750926006949260019260c09583601f19811610620007e7575b505050811b016004850155620004b9565b01515f1960f88460031b161c191690555f8080620007d6565b91926020600181928685015181550194019201620007b1565b600485018c5260208c20601f840160051c8101602085106200085b575b8d601f840160051c83018210620008505750505062000480565b815560010162000836565b508062000836565b634e487b7160e01b8b52604160045260248bfd5b015190505f8062000439565b9250600385018c5260208c20908c935b601f1984168510620008da576001945083601f19811610620008c1575b505050811b01600383015562000450565b01515f1960f88460031b161c191690555f8080620008b0565b8181015183556020948501946001909301929091019062000893565b909150600385018c5260208c20601f840160051c81016020851062000945575b84939291908e5b601f840160051c83018210620009365750505062000421565b81558594506001018e6200091d565b508062000916565b634e487b7160e01b8b52602160045260248bfd5b634e487b7160e01b5f52604160045260245ffd5b634e487b7160e01b87526011600452602487fd5b604051632853b25560e01b8152600490fd5b8580fd5b8480fd5b8280fd5b50346200011d57620009b936620011f7565b9091338452600360205260ff6040852054161562000221578352600560205260408320546001600160a01b031690811562000a67578392823b1562000a625762000a3192849283604051809681958294637edfb26160e11b84525f60048501523360248501526060604485015260648401916200122e565b03925af1801562000a575762000a445750f35b62000a4f906200108c565b6200011d5780f35b6040513d84823e3d90fd5b505050fd5b604051636255b06960e01b8152600490fd5b50346200011d5762000a8b36620011f7565b91338452600360205260ff6040852054161562000221578352600560205260408320546001600160a01b031690811562000a67578392823b1562000a625762000a31928492836040518096819582946329a7074f60e11b845233600485016200124e565b50346200011d5760203660031901126200011d57602090600435815260058252604060018060a01b0391205416604051908152f35b50346200011d5760603660031901126200011d576024356001600160a01b0381811691600435908390036200076a576044356001600160401b0381116200099f5762000b75903690600401620011c7565b909233865260206003815260ff6040882054161562000221578387526005815281604088205416801562000a675786156200020f578688526002825260ff604089205416158062000cfb575b62000ce957604051637a967cd360e01b81528891908381600481855afa93841562000cde57839462000c9e575b5050803b1562000c9a578160405180926371544e2560e11b82528a60048301523360248301526060604483015281838162000c2f8d8c60648401916200122e565b03925af1801562000a575762000c7e575b505062000c787fbe1cc4eb33fa3157c6e975e4dc49e5744ee7070832804598fafd71f5aced1d1193604051938493169633846200124e565b0390a480f35b62000c89906200108c565b62000c9657865f62000c40565b8680fd5b5080fd5b9080929450813d831162000cd6575b62000cb98183620010a0565b8101031262000c9a5751838116810362000c9a57915f8062000bee565b503d62000cad565b6040513d85823e3d90fd5b60405163d4d7478360e01b8152600490fd5b506003825260ff6040892054161562000bc1565b50346200076a5762000d2136620011f7565b9091335f52600360205260ff60405f2054161562000221575f908152600560205260409020546001600160a01b031691821562000a6757823b156200076a5762000d9a925f9283604051809681958294637edfb26160e11b8452600160048501523360248501526060604485015260648401916200122e565b03925af1801562000dbc5762000dae575080f35b62000dba91506200108c565b005b6040513d5f823e3d90fd5b346200076a5760403660031901126200076a5762000de4620011b0565b602435908115158092036200076a57335f52600360205260ff60405f2054161562000221576001600160a01b03169081156200020f5760207fde2ec5a61cb25575c35ed8c41a10938fdf23711909527a1abac273444cf21e7591835f526002825260405f2060ff1981541660ff8316179055604051908152a2005b346200076a5760203660031901126200076a5762000e7c620011b0565b335f52600360205260ff60405f2054161562000221576001600160a01b0390811690811590811562000ef2575b506200020f57805f52600360205260405f2060ff198154169055604051905f82527fa8ed7ecd3c9aebcd5b1bd3ebd05b287dd60268b40026387e1e88ad7722d4382360203393a3005b90507f00000000000000000000000000000000000000000000000000000000000000001681148262000ea9565b346200076a575f3660031901126200076a5760205f54604051908152f35b346200076a575f3660031901126200076a576040517f00000000000000000000000000000000000000000000000000000000000000006001600160a01b03168152602090f35b346200076a5760203660031901126200076a576004355f52600460205260405f2060018060a01b038082541691600181015460ff6002830154169262000fcc60038401620010c2565b90600662000fdd60048601620010c2565b9160058601541694015492604051968752602087015260048510156200103d576200101f6200102e928796604088015260e0606088015260e087019062001170565b90858203608087015262001170565b9160a084015260c08301520390f35b634e487b7160e01b5f52602160045260245ffd5b90600182811c9216801562001081575b60208310146200106d57565b634e487b7160e01b5f52602260045260245ffd5b91607f169162001061565b6001600160401b0381116200096157604052565b90601f801991011681019081106001600160401b038211176200096157604052565b9060405191825f8254620010d68162001051565b908184526020946001916001811690815f146200114c57506001146200110a575b5050506200110892500383620010a0565b565b5f90815285812095935091905b818310620011335750506200110893508201015f8080620010f7565b8554888401850152948501948794509183019162001117565b925050506200110894925060ff191682840152151560051b8201015f8080620010f7565b91908251928382525f5b8481106200119b575050825f602080949584010152601f8019910116010190565b6020818301810151848301820152016200117a565b600435906001600160a01b03821682036200076a57565b9181601f840112156200076a578235916001600160401b0383116200076a57602083818601950101116200076a57565b9060406003198301126200076a5760043591602435906001600160401b0382116200076a576200122a91600401620011c7565b9091565b908060209392818452848401375f828201840152601f01601f1916010190565b6001600160a01b03909116815260406020820181905262001272939101916200122e565b90565b9291926001600160401b038211620009615760405191620012a1601f8201601f191660200184620010a0565b8294818452818301116200076a578281602093845f96013701015256fe604060e0815234620007935762002913803803806200001e8162000797565b9283398101906101808183031262000793576200003b81620007bd565b916200004a60208301620007bd565b82850151606084015160808501519095906001600160401b03811162000793578462000078918701620007d2565b60a08601516001600160401b0381116200079357856200009a918801620007d2565b90620000a960c08801620007bd565b60e08801519098906001600160401b038111620007935788019680601f8901121562000793578751976001600160401b0389116200063d578860051b90602080620000f681850162000797565b809c815201928201019283116200079357602001905b828210620007785750505061010088015194610120890151966101606101408b01519a01519560018060a01b03811615801562000766575b6200075557831562000744576080525f80546001600160a01b0319166001600160a01b039290921691909117905560a05260c0528051906001600160401b0382116200063d5760015490600182811c9216801562000739575b60208310146200061e5781601f849311620006d8575b50602090601f83116001146200065d575f9262000651575b50508160011b915f199060031b1c1916176001555b8051906001600160401b0382116200063d5760025490600182811c9216801562000632575b60208310146200061e5781601f849311620005bd575b50602090601f831160011462000546575f926200053a575b50508160011b915f199060031b1c1916176002555b61ffff1960035416600355835162000497575b811594851595808788926200048d575b801562000483575b801562000479575b620003c6575b5050505050505190811590811591620003bd575b5062000359575b8251611fdd9081620008f682396080518181816101e7015281816103c3015281816104e701528181610a7201528181610c5701528181610f7201528181611044015281816114f30152611773015260a05181818161029101528181610446015281816105d20152818161096401528181610b3001528181610d8601528181610ee20152818161112501528181611412015281816115c60152818161185f0152611df6015260c0518181816107db0152818161085f0152611e500152f35b60c07fa8dbf017bc75dd8e14ed96c66028f2fb1d209e4398405364261fe9bc77e572499160a05193600454600554600654906007549289519586526020860152888501526060840152608083015260018060a01b031660a0820152a25f806200029c565b90505f62000295565b906200046e575b801562000464575b801562000459575b62000448579160a0917f26f7315aaf2926e91db90b9e8be8c5c36e6a366c93950652ce964393555390c493826004558560055580600655816007558351958a519384526020840152898301526060820152600180831b0387166080820152a25f808080858162000281565b875163a74634cd60e01b8152600490fd5b5080821115620003dd565b50838110620003d5565b5082841115620003cd565b508315156200027b565b5082151562000273565b508515156200026b565b949391905f5b84518110156200052f57600581901b8501602001516001600160a01b031680156200051e579081620004d160019362000842565b620004df575b50016200049d565b60a0517f5b551e9aea49b0b85a31d13fd569c911ded7781feaae60c3603e3a968b05fc138b8051868152868060a01b038c166020820152a35f620004d7565b88516311745b2b60e31b8152600490fd5b50909193946200025b565b015190505f8062000233565b60025f9081525f80516020620028d38339815191529350601f198516905b818110620005a457509084600195949392106200058b575b505050811b0160025562000248565b01515f1960f88460031b161c191690555f80806200057c565b9293602060018192878601518155019501930162000564565b60025f529091505f80516020620028d3833981519152601f840160051c8101916020851062000613575b90601f859493920160051c01905b8181106200060457506200021b565b5f8155849350600101620005f5565b9091508190620005e7565b634e487b7160e01b5f52602260045260245ffd5b91607f169162000205565b634e487b7160e01b5f52604160045260245ffd5b015190505f80620001cb565b60015f90815293505f80516020620028f383398151915291905b601f1984168510620006bc576001945083601f19811610620006a3575b505050811b01600155620001e0565b01515f1960f88460031b161c191690555f808062000694565b8181015183556020948501946001909301929091019062000677565b60015f529091505f80516020620028f3833981519152601f840160051c810191602085106200072e575b90601f859493920160051c01905b8181106200071f5750620001b3565b5f815584935060010162000710565b909150819062000702565b91607f16916200019d565b8c5163e66ea08f60e01b8152600490fd5b8c5163ea8e4eb560e01b8152600490fd5b506001600160a01b0382161562000144565b602080916200078784620007bd565b8152019101906200010c565b5f80fd5b6040519190601f01601f191682016001600160401b038111838210176200063d57604052565b51906001600160a01b03821682036200079357565b919080601f84011215620007935782516001600160401b0381116200063d5760209062000808601f8201601f1916830162000797565b9281845282828701011162000793575f5b8181106200082e5750825f9394955001015290565b858101830151848201840152820162000819565b6001600160a01b03165f818152600860205260409020805460ff8116620008ee5760ff19166001179055600d54680100000000000000008110156200063d576001810180600d55811015620008da577fd7b6990105719101dabeb77144f2a3385c8033acd3af97e9423a695e81ad1eb50180546001600160a01b03191682179055600d545f918252600e602052604090912055600190565b634e487b7160e01b5f52603260045260245ffd5b5050505f9056fe6080604081815260049182361015610015575f80fd5b5f3560e01c90816303ee438c146119ca57508063055ad42e146119a55780630e866fa5146119875780630f8779c6146117555780631dcf2e39146117375780631e8f048914611719578063200d2ed2146116f157806338db6dd3146114cd57806339a3fb2e146114af5780633af32abf146114735780633e8589231461136a5780634a79d50c146112685780634d35574f146110155780634fc8a20d14610fee578063534e0e9e14610f295780635688e29914610e5d57806369edbcda14610da95780636bf2ffa114610d6f57806378905e2e14610cad5780637a967cd314610c865780637b10399914610c435780637ed1775114610a49578063874359ed146108a3578063995e4339146107fe578063a9a981a3146107c4578063b1c9fe6e14610798578063b9a530131461075c578063c6dbe15a14610720578063d55ec9c11461048c578063e2a89c4a14610371578063f662b8811461033a578063f826fee81461031e578063fae50523146102ea5763fdbf64c214610195575f80fd5b346102e65760603660031901126102e657813580151581036102e6576101b9611b3a565b9060443567ffffffffffffffff81116102e6576101d99036908601611b50565b92909460018060a01b0392837f00000000000000000000000000000000000000000000000000000000000000001633036102d75760035491600260ff8460081c1661022381611b06565b146102c9575060ff7f7bf94aa98e004220f19fb43e7d8d6dabd2c23e3fadc2908d16dd25f52cd1c43b9493926102bb925f146102c05761ff0060015b61026881611b06565b60081b169061ff001916178060035560081c169561028587611b06565b519283926020845216967f0000000000000000000000000000000000000000000000000000000000000000956020840191611b96565b0390a4005b61ff005f61025f565b865163214dacf960e11b8152fd5b508451633217675b60e21b8152fd5b5f80fd5b50346102e65760203660031901126102e65761030860209235611c0a565b905491519160018060a01b039160031b1c168152f35b50346102e6575f3660031901126102e657602091549051908152f35b50346102e65760203660031901126102e6576020906001600160a01b0361035f611b24565b165f52600b8252805f20549051908152f35b50346102e65760603660031901126102e65761038b611b24565b90610394611b3a565b9160443567ffffffffffffffff81116102e6576103b49036908601611b50565b936001600160a01b03929091907f00000000000000000000000000000000000000000000000000000000000000008416330361047c57831695861561046e5750906102bb83927fbe1cc4eb33fa3157c6e975e4dc49e5744ee7070832804598fafd71f5aced1d11945f54896bffffffffffffffffffffffff60a01b8216175f55875195869516855287602086015216967f000000000000000000000000000000000000000000000000000000000000000096840191611b96565b8451630b5eba9f60e41b8152fd5b8451633217675b60e21b81528790fd5b50346102e657602091826003193601126102e65780359267ffffffffffffffff928385116102e657366023860112156102e657848301359384116102e65760059460243686881b83018201116102e65760018060a01b0391827f00000000000000000000000000000000000000000000000000000000000000001685845f54163314806106c7575b15918261065d575b505061064d5760ff60035460081c169761053589611b06565b6001986001811461063d578061054c600292611b06565b1461062d57610559611bb6565b61056281611b06565b8061060957505f5b88811061057357005b8381831b84010135858116908181036102e65781156105f957906105988c9392611c53565b6105a4575b500161056a565b8751838152338a8201527f5b551e9aea49b0b85a31d13fd569c911ded7781feaae60c3603e3a968b05fc13897f000000000000000000000000000000000000000000000000000000000000000092a35f61059d565b87516311745b2b60e31b81528a90fd5b85516305fb5e1b60e01b81525f818a015260449161062681611b06565b6024820152fd5b845163214dacf960e11b81528790fd5b85516327c0e7b560e01b81528890fd5b835163ea8e4eb560e01b81528690fd5b865163df7f453b60e01b8152338a8201529250829060249082905afa9081156106bd575f91610690575b5015855f61051c565b6106b09150863d88116106b6575b6106a88183611a89565b810190611b7e565b5f610687565b503d61069e565b85513d5f823e3d90fd5b50508451633e460e1560e21b815233888201528681602481855afa908115610716579087915f916106f9575b50610514565b6107109150823d84116106b6576106a88183611a89565b5f6106f3565b86513d5f823e3d90fd5b50346102e65760203660031901126102e6576020906001600160a01b03610745611b24565b165f526009825260ff815f20541690519015158152f35b50346102e65760203660031901126102e6576020906001600160a01b03610781611b24565b165f52600a825260ff815f20541690519015158152f35b50346102e6575f3660031901126102e6576020906107b4611bb6565b9051906107c081611b06565b8152f35b50346102e6575f3660031901126102e657602090517f00000000000000000000000000000000000000000000000000000000000000008152f35b50346102e65760203660031901126102e657813561081a611bb6565b61082381611b06565b6002810361088557508015801561085c575b61084e57602092505f52600c8252805f20549051908152f35b505163e66ea08f60e01b8152fd5b507f00000000000000000000000000000000000000000000000000000000000000008111610835565b82516305fb5e1b60e01b815260028186015260449161062681611b06565b5090346102e657816003193601126102e6576108bd611b24565b916024359260ff60035460081c166108d481611b06565b60018114610a3a57806108e8600292611b06565b14610a2c576108f5611bb6565b6108fe81611b06565b80610a0f57506001600160a01b0316918215610a0157825f52600860205260ff825f205416156109f357825f52600960205260ff825f2054166109e55783156109d75750815f526009602052805f20600160ff19825416179055600b60205282815f20557f00000000000000000000000000000000000000000000000000000000000000009051928083837f26a454697a4923cb3646779d831b5e4696bd3fab14b67dd6dfe23d72354f57dd5f80a483527ffe0c7364ffb74b1ea082bb70c7112cc6ed8c85202628a077d369805f1ffd14ac60203394a4005b9051636033c4fd60e11b8152fd5b90516317fd8aab60e31b8152fd5b905163aba4733960e01b8152fd5b90516311745b2b60e31b8152fd5b82516305fb5e1b60e01b81525f8186015260449161062681611b06565b505163214dacf960e11b8152fd5b5050516327c0e7b560e01b8152fd5b5090346102e657602090816003193601126102e657610a66611b24565b9060018060a01b0390817f00000000000000000000000000000000000000000000000000000000000000001684835f5416331480610bec575b159182610b9c575b5050610b8e5760ff60035460081c16610abf81611b06565b60018114610b7f5780610ad3600292611b06565b14610b7157610ae0611bb6565b610ae981611b06565b80610b53575050610af982611ebb565b610aff57005b7f5b551e9aea49b0b85a31d13fd569c911ded7781feaae60c3603e3a968b05fc13918451935f8552339085015216927f000000000000000000000000000000000000000000000000000000000000000092a3005b604492505f8651926305fb5e1b60e01b845283015261062681611b06565b845163214dacf960e11b8152fd5b5084516327c0e7b560e01b8152fd5b845163ea8e4eb560e01b8152fd5b875163df7f453b60e01b815233858201529250829060249082905afa908115610716575f91610bcf575b5015845f610aa7565b610be69150853d87116106b6576106a88183611a89565b5f610bc6565b50508551633e460e1560e21b815233838201528581602481855afa8015610c395786915f91610c1c575b50610a9f565b610c339150823d84116106b6576106a88183611a89565b5f610c16565b87513d5f823e3d90fd5b50346102e6575f3660031901126102e657517f00000000000000000000000000000000000000000000000000000000000000006001600160a01b03168152602090f35b50346102e6575f3660031901126102e6575f5490516001600160a01b039091168152602090f35b50346102e6575f3660031901126102e65780519081600d549081815260208091018092600d5f527fd7b6990105719101dabeb77144f2a3385c8033acd3af97e9423a695e81ad1eb5905f5b818110610d525750505084610d0e910385611a89565b825181815293518185018190528493840192915f5b828110610d3257505050500390f35b83516001600160a01b031685528695509381019392810192600101610d23565b82546001600160a01b031684529284019260019283019201610cf8565b50346102e6575f3660031901126102e657602090517f00000000000000000000000000000000000000000000000000000000000000008152f35b5090346102e657816003193601126102e657335f52600860205260ff825f205416156109f35760ff60035460081c16610de181611b06565b60018114610e4e5780610df5600292611b06565b14610e4057610e02611bb6565b610e0b81611b06565b60018103610e2357610e21602435833533611ce3565b005b600160449351926305fb5e1b60e01b845283015261062681611b06565b905163214dacf960e11b8152fd5b5090516327c0e7b560e01b8152fd5b5090346102e65760603660031901126102e657610e78611b24565b916024359160ff60035460081c16610e8f81611b06565b60018114610e4e5780610ea3600292611b06565b14610e4057610eb0611bb6565b610eb981611b06565b60018103610e23575050610ed06044358385611ce3565b5190815233916001600160a01b0316907f0000000000000000000000000000000000000000000000000000000000000000907e61840683c17d5c16bbabef1c635624cffef2223aced524b735371a8334846790602090a4005b50346102e657806003193601126102e657610f42611b24565b9160243567ffffffffffffffff81116102e657610f629036908301611b50565b909390916001600160a01b0391907f000000000000000000000000000000000000000000000000000000000000000083163303610fe05750907f7bf94aa98e004220f19fb43e7d8d6dabd2c23e3fadc2908d16dd25f52cd1c43b916102bb60ff61020061ff001960035416178060035560081c169561028587611b06565b8451633217675b60e21b8152fd5b50346102e65760203660031901126102e657602091355f52600c8252805f20549051908152f35b5090346102e65760803660031901126102e6575f54813592606435926044359260243591906001600160a01b037f00000000000000000000000000000000000000000000000000000000000000008116911633148061121a575b1590816111bc575b506111ae5760ff60035460081c1661108e81611b06565b6001811461119f57806110a2600292611b06565b14611191576110af611bb6565b6110b881611b06565b80611173575085158015611169575b8015611160575b8015611156575b611148578590558060055582600655836007558151948552602085015283015260608201523360808201527f26f7315aaf2926e91db90b9e8be8c5c36e6a366c93950652ce964393555390c460a07f000000000000000000000000000000000000000000000000000000000000000092a2005b825163a74634cd60e01b8152fd5b50838511156110d5565b508184106110ce565b50858211156110c7565b604492505f8451926305fb5e1b60e01b845283015261062681611b06565b825163214dacf960e11b8152fd5b5082516327c0e7b560e01b8152fd5b825163ea8e4eb560e01b8152fd5b845163df7f453b60e01b815233848201529150602090829060249082905afa908115611210575f916111f1575b50155f611077565b61120a915060203d6020116106b6576106a88183611a89565b5f6111e9565b84513d5f823e3d90fd5b508351633e460e1560e21b81523383820152602081602481855afa9081156106bd575f91611249575b5061106f565b611262915060203d6020116106b6576106a88183611a89565b5f611243565b50346102e6575f3660031901126102e6578051905f9260018054908160011c91600181168015611360575b602094858510821461134d575083875290811561132d57506001146112d3575b5050506112c5826112cf940383611a89565b5191829182611abf565b0390f35b60015f9081529295507fb10e2d527612073b26eecdfd717e6a320cf44b4afac2b0732d9fcbe2b7fa0cf65b82841061131a57505050826112cf946112c592820101946112b3565b80548685018801529286019281016112fe565b60ff1916868501525050151560051b83010192506112c5826112cf6112b3565b602290634e487b7160e01b5f525260245ffd5b92607f1692611293565b50346102e65760203660031901126102e657813591335f52600860205260ff825f205416156109f35760ff60035460081c166113a581611b06565b60018114610e4e57806113b9600292611b06565b14610e40576113c6611bb6565b6113cf81611b06565b806114575750335f52600960205260ff825f2054166109e55782156109d757508190335f526009602052805f20600160ff19825416179055600b6020525f2055337f00000000000000000000000000000000000000000000000000000000000000007f26a454697a4923cb3646779d831b5e4696bd3fab14b67dd6dfe23d72354f57dd5f80a4005b5f60449351926305fb5e1b60e01b845283015261062681611b06565b50346102e65760203660031901126102e6576020906001600160a01b03611498611b24565b165f526008825260ff815f20541690519015158152f35b50346102e6575f3660031901126102e657602090600d549051908152f35b50346102e657602090816003193601126102e6576114e9611b24565b60018060a01b03807f00000000000000000000000000000000000000000000000000000000000000001684825f54163314806116a2575b159182611652575b50506116425760ff60035460081c1661154081611b06565b600181146116325780611554600292611b06565b1461162257611561611bb6565b61156a81611b06565b80611605575081169384156115f757845f526008845260ff835f2054166115e95750906115b77f5b551e9aea49b0b85a31d13fd569c911ded7781feaae60c3603e3a968b05fc1392611c53565b508051926001845233908401527f000000000000000000000000000000000000000000000000000000000000000092a3005b8251630ea075bf60e21b8152fd5b82516311745b2b60e31b8152fd5b83516305fb5e1b60e01b81525f8188015260449161062681611b06565b825163214dacf960e11b81528590fd5b83516327c0e7b560e01b81528690fd5b825163ea8e4eb560e01b81528590fd5b855163df7f453b60e01b815233898201529250829060249082905afa908115611210575f91611685575b5015845f611528565b61169c9150853d87116106b6576106a88183611a89565b5f61167c565b50508351633e460e1560e21b815233878201528581602481855afa9081156106bd579086915f916116d4575b50611520565b6116eb9150823d84116106b6576106a88183611a89565b5f6116ce565b50346102e6575f3660031901126102e657600354905160209160081c60ff166107c081611b06565b50346102e6575f3660031901126102e6576020906007549051908152f35b50346102e6575f3660031901126102e6576020906005549051908152f35b5090346102e6575f3660031901126102e6575f546001600160a01b037f000000000000000000000000000000000000000000000000000000000000000081169116331480611939575b1590816118db575b506118cd576003549160ff8360081c166117bf81611b06565b600181146118bf57806117d3600292611b06565b146118b25760ff8316916117e683611b06565b60028314611895576117f783611b06565b600183019060ff8211611882575060ff16809361181382611b06565b61181c82611b06565b60ff19161760035561182d82611b06565b61183683611b06565b513381527fb08bfe79d11e67f65c878f279728c4d53fc5dfc3373a20958345fcad3750953e60207f000000000000000000000000000000000000000000000000000000000000000092a4005b601190634e487b7160e01b5f525260245ffd5b600260449251916335c1372560e01b835282015260026024820152fd5b5163214dacf960e11b8152fd5b50516327c0e7b560e01b8152fd5b905163ea8e4eb560e01b8152fd5b835163df7f453b60e01b815233848201529150602090829060249082905afa90811561192f575f91611910575b50155f6117a6565b611929915060203d6020116106b6576106a88183611a89565b5f611908565b83513d5f823e3d90fd5b508251633e460e1560e21b81523383820152602081602481855afa908115611210575f91611968575b5061179e565b611981915060203d6020116106b6576106a88183611a89565b5f611962565b50346102e6575f3660031901126102e6576020906006549051908152f35b50346102e6575f3660031901126102e657600354905160209160ff166107c081611b06565b919050346102e6575f3660031901126102e6575f9260025460018160011c91600181168015611a7f575b602094858510821461134d575083875290811561132d5750600114611a25575050506112c5826112cf940383611a89565b60025f9081529295507f405787fa12a823e0f2b7631cc41b3ba8828b3321ca811111fa75cd3aa3bb5ace5b828410611a6c57505050826112cf946112c592820101946112b3565b8054868501880152928601928101611a50565b92607f16926119f4565b90601f8019910116810190811067ffffffffffffffff821117611aab57604052565b634e487b7160e01b5f52604160045260245ffd5b602080825282518183018190529093925f5b828110611af257505060409293505f838284010152601f8019910116010190565b818101860151848201604001528501611ad1565b60031115611b1057565b634e487b7160e01b5f52602160045260245ffd5b600435906001600160a01b03821682036102e657565b602435906001600160a01b03821682036102e657565b9181601f840112156102e65782359167ffffffffffffffff83116102e657602083818601950101116102e657565b908160209103126102e6575180151581036102e65790565b908060209392818452848401375f828201840152601f01601f1916010190565b6004548015611c00574210611beb576005544210611beb57600754421080611bf4575b611bef576006544210611beb57600290565b5f90565b600190565b50600654421015611bd9565b5060ff6003541690565b600d54811015611c3f57600d5f527fd7b6990105719101dabeb77144f2a3385c8033acd3af97e9423a695e81ad1eb501905f90565b634e487b7160e01b5f52603260045260245ffd5b6001600160a01b0381165f818152600860205260409020805491929160ff8116611cdb5760ff19166001179055600d549068010000000000000000821015611aab57611ca8826001611cc69401600d55611c0a565b90919060018060a01b038084549260031b9316831b921b1916179055565b600d54905f52600e60205260405f2055600190565b505050505f90565b90916001600160a01b03909116908115611ea957815f5260206008815260409160ff835f20541615611e9857835f526009825260ff835f20541615611e8757835f52600a825260ff835f205416611e765784158015611e4d575b611e3c5782519082820190868252848301528460608301523060808301524660a083015260a0825260c082019180831067ffffffffffffffff841117611aab57828552519020845f52600b8352835f205403611e2d5750825f52600a8152815f20600160ff19825416179055835f52600c8152815f2090815460018101809111611e19577f63ab6e5dc98a7d72f7b887b4479c584f5d1cc5e644f8b756c1213bc8e32f4f429255845f52600c8152825f205492519283527f000000000000000000000000000000000000000000000000000000000000000092a4565b634e487b7160e01b5f52601160045260245ffd5b635054097b60e01b8152600490fd5b825163e66ea08f60e01b8152600490fd5b507f00000000000000000000000000000000000000000000000000000000000000008511611d3d565b825163a89ac15160e01b8152600490fd5b8251631918952960e01b8152600490fd5b825163aba4733960e01b8152600490fd5b6040516311745b2b60e31b8152600490fd5b6001600160a01b039081165f8181526008602052604090205490919060ff1615611fa157600e60205260405f20545f1990818101818111611e1957600d54838101908111611e19578181869303611f6c575b50505050600d548015611f58570190611f2582611c0a565b909182549160031b1b19169055600d555f52600e6020525f6040812055600860205260405f2060ff198154169055600190565b634e487b7160e01b5f52603160045260245ffd5b611ca892611f7c611f8c93611c0a565b90549060031b1c16928391611c0a565b5f52600e60205260405f20555f828180611f0d565b50505f9056fea26469706673582212202ecf030f130cc209ff2486151865715ac7878bbf56a958ec1eff0cb66d1c647964736f6c63430008180033405787fa12a823e0f2b7631cc41b3ba8828b3321ca811111fa75cd3aa3bb5aceb10e2d527612073b26eecdfd717e6a320cf44b4afac2b0732d9fcbe2b7fa0cf6a2646970667358221220256d37e2b8200414fe7a2ab390897a66a43182c1d3c523c56c9f3384fd8f95e464736f6c63430008180033","linkReferences":{}},"methodIdentifiers":{"addSuperAdmin(address)":"b3292ff0","createElectionForAdminWithConfig(address,string,string,uint256,address[],uint256,uint256,uint256,uint256)":"9db23793","isPlatformAdmin(address)":"f9183854","isSuperAdmin(address)":"df7f453b","nextProposalId()":"2ab09d14","nextSpaceId()":"e565e661","proposals(uint256)":"013cf08b","removeSuperAdmin(address)":"4902e4aa","setAdmin(address,bool)":"4b0bddd2","spaceById(uint256)":"70de50a2","superAdmin()":"29575f6a","superAdmins(address)":"ad25cb42","suspendSpace(uint256,string)":"56b5f8ee","terminateSpace(uint256,string)":"80cd7f2a","transferSpaceAdmin(uint256,address,string)":"61a982fd","unsuspendSpace(uint256,string)":"84aa6169"},"id":23}