{"abi":[{"type":"constructor","inputs":[],"stateMutability":"nonpayable"},{"type":"function","name":"checkVoterStatus","inputs":[{"name":"electionId","type":"uint256","internalType":"uint256"},{"name":"voter","type":"address","internalType":"address"}],"outputs":[{"name":"whitelisted","type":"bool","internalType":"bool"},{"name":"committed","type":"bool","internalType":"bool"},{"name":"revealed","type":"bool","internalType":"bool"}],"stateMutability":"view"},{"type":"function","name":"commitVote","inputs":[{"name":"electionId","type":"uint256","internalType":"uint256"},{"name":"commitment","type":"bytes32","internalType":"bytes32"}],"outputs":[],"stateMutability":"nonpayable"},{"type":"function","name":"createElection","inputs":[{"name":"title","type":"string","internalType":"string"},{"name":"candidateCount","type":"uint256","internalType":"uint256"},{"name":"admin","type":"address","internalType":"address"}],"outputs":[{"name":"electionId","type":"uint256","internalType":"uint256"}],"stateMutability":"nonpayable"},{"type":"function","name":"elections","inputs":[{"name":"","type":"uint256","internalType":"uint256"}],"outputs":[{"name":"title","type":"string","internalType":"string"},{"name":"candidateCount","type":"uint256","internalType":"uint256"},{"name":"currentPhase","type":"uint8","internalType":"enum VoteChainUnified.Phase"},{"name":"admin","type":"address","internalType":"address"},{"name":"exists","type":"bool","internalType":"bool"}],"stateMutability":"view"},{"type":"function","name":"getElectionInfo","inputs":[{"name":"electionId","type":"uint256","internalType":"uint256"}],"outputs":[{"name":"title","type":"string","internalType":"string"},{"name":"candidateCount","type":"uint256","internalType":"uint256"},{"name":"currentPhase","type":"uint8","internalType":"enum VoteChainUnified.Phase"},{"name":"admin","type":"address","internalType":"address"}],"stateMutability":"view"},{"type":"function","name":"getResult","inputs":[{"name":"electionId","type":"uint256","internalType":"uint256"},{"name":"candidateId","type":"uint256","internalType":"uint256"}],"outputs":[{"name":"","type":"uint256","internalType":"uint256"}],"stateMutability":"view"},{"type":"function","name":"nextElectionId","inputs":[],"outputs":[{"name":"","type":"uint256","internalType":"uint256"}],"stateMutability":"view"},{"type":"function","name":"registerVoter","inputs":[{"name":"electionId","type":"uint256","internalType":"uint256"},{"name":"voter","type":"address","internalType":"address"}],"outputs":[],"stateMutability":"nonpayable"},{"type":"function","name":"registerVoters","inputs":[{"name":"electionId","type":"uint256","internalType":"uint256"},{"name":"voters","type":"address[]","internalType":"address[]"}],"outputs":[],"stateMutability":"nonpayable"},{"type":"function","name":"revealVote","inputs":[{"name":"electionId","type":"uint256","internalType":"uint256"},{"name":"candidateId","type":"uint256","internalType":"uint256"},{"name":"salt","type":"bytes32","internalType":"bytes32"}],"outputs":[],"stateMutability":"nonpayable"},{"type":"function","name":"superAdmin","inputs":[],"outputs":[{"name":"","type":"address","internalType":"address"}],"stateMutability":"view"},{"type":"function","name":"transitionPhase","inputs":[{"name":"electionId","type":"uint256","internalType":"uint256"}],"outputs":[],"stateMutability":"nonpayable"},{"type":"event","name":"Committed","inputs":[{"name":"electionId","type":"uint256","indexed":true,"internalType":"uint256"},{"name":"voter","type":"address","indexed":true,"internalType":"address"},{"name":"commitment","type":"bytes32","indexed":false,"internalType":"bytes32"}],"anonymous":false},{"type":"event","name":"ElectionCreated","inputs":[{"name":"electionId","type":"uint256","indexed":true,"internalType":"uint256"},{"name":"title","type":"string","indexed":false,"internalType":"string"},{"name":"admin","type":"address","indexed":true,"internalType":"address"}],"anonymous":false},{"type":"event","name":"PhaseChanged","inputs":[{"name":"electionId","type":"uint256","indexed":true,"internalType":"uint256"},{"name":"previousPhase","type":"uint8","indexed":false,"internalType":"enum VoteChainUnified.Phase"},{"name":"newPhase","type":"uint8","indexed":false,"internalType":"enum VoteChainUnified.Phase"}],"anonymous":false},{"type":"event","name":"Revealed","inputs":[{"name":"electionId","type":"uint256","indexed":true,"internalType":"uint256"},{"name":"voter","type":"address","indexed":true,"internalType":"address"},{"name":"candidateId","type":"uint256","indexed":false,"internalType":"uint256"}],"anonymous":false},{"type":"event","name":"WhitelistUpdated","inputs":[{"name":"electionId","type":"uint256","indexed":true,"internalType":"uint256"},{"name":"voter","type":"address","indexed":true,"internalType":"address"},{"name":"isRegistered","type":"bool","indexed":false,"internalType":"bool"}],"anonymous":false},{"type":"error","name":"AlreadyVoted","inputs":[]},{"type":"error","name":"CommitmentMismatch","inputs":[]},{"type":"error","name":"ElectionNotFound","inputs":[]},{"type":"error","name":"InvalidCandidate","inputs":[]},{"type":"error","name":"NotElectionAdmin","inputs":[]},{"type":"error","name":"NotRegistered","inputs":[]},{"type":"error","name":"NotSuperAdmin","inputs":[]},{"type":"error","name":"WrongPhase","inputs":[{"name":"expected","type":"uint8","internalType":"enum VoteChainUnified.Phase"},{"name":"actual","type":"uint8","internalType":"enum VoteChainUnified.Phase"}]}],"bytecode":{"object":"0x608060405260018055348015610013575f80fd5b505f80546001600160a01b031916331790556110f8806100325f395ff3fe608060405234801561000f575f80fd5b50600436106100b1575f3560e01c80637c6306421161006e5780637c630642146101c0578063949f80c5146101d357806394c790bb146101e65780639da69180146101f9578063ce99b5df1461020c578063d16dd9af1461022f575f80fd5b80631168e964146100b55780631d2cd6441461013357806329575f6a146101485780633ddb1eb3146101725780635313837b146101855780635e6fef011461019c575b5f80fd5b61010f6100c3366004610c2a565b5f8281526002602090815260408083206001600160a01b03851684526003810183528184205460048201845282852054600590920190935292205460ff91821692821691169250925092565b60408051931515845291151560208401521515908201526060015b60405180910390f35b610146610141366004610c54565b610242565b005b5f5461015a906001600160a01b031681565b6040516001600160a01b03909116815260200161012a565b610146610180366004610c7d565b610402565b61018e60015481565b60405190815260200161012a565b6101af6101aa366004610c7d565b61057c565b60405161012a959493929190610d0b565b61018e6101ce366004610d53565b610640565b61018e6101e1366004610dd5565b61071e565b6101466101f4366004610c2a565b61078c565b610146610207366004610dd5565b61089a565b61021f61021a366004610c7d565b6109b3565b60405161012a9493929190610df5565b61014661023d366004610e36565b610a88565b5f83815260026020819052604090912090600282015460ff16600381111561026c5761026c610cd7565b1461029e576002818101546040516305fb5e1b60e01b8152610295929160ff1690600401610eae565b60405180910390fd5b335f90815260048201602052604090205460ff166102cf5760405163aba4733960e01b815260040160405180910390fd5b335f90815260058201602052604090205460ff161561030157604051637c9a1cf960e01b815260040160405180910390fd5b8215806103115750806001015483115b1561032f5760405163e66ea08f60e01b815260040160405180910390fd5b60408051602080820186905281830185905282518083038401815260609092018352815191810191909120335f9081526006850190925291902054811461038957604051635054097b60e01b815260040160405180910390fd5b335f9081526005830160209081526040808320805460ff191660011790558683526007850190915281208054916103bf83610ee4565b9091555050604051848152339086907ff87397f8ccf18c41bfee81144299ad64e11085c5a27b280fde98beeefd3e71bd9060200160405180910390a35050505050565b5f8181526002602081905260409091200154819061010090046001600160a01b0316331480159061043d57505f546001600160a01b03163314155b1561045b5760405163a89350bd60e01b815260040160405180910390fd5b5f82815260026020819052604090912090810154600160a81b900460ff16610496576040516305ce45f760e51b815260040160405180910390fd5b6003600282015460ff1660038111156104b1576104b1610cd7565b036104d557600260036040516305fb5e1b60e01b8152600401610295929190610eae565b600281015460ff168060038111156104ef576104ef610cd7565b6104fa906001610efc565b60ff16600381111561050e5761050e610cd7565b60028301805460ff1916600183600381111561052c5761052c610cd7565b0217905550600282015460405185917f1bba12eb87c816556283945b09398ebfa2cac6bb08cf688bdbf552c1d4a361fb9161056e91859160ff90911690610eae565b60405180910390a250505050565b60026020525f908152604090208054819061059690610f15565b80601f01602080910402602001604051908101604052809291908181526020018280546105c290610f15565b801561060d5780601f106105e45761010080835404028352916020019161060d565b820191905f5260205f20905b8154815290600101906020018083116105f057829003601f168201915b50505050600183015460029093015491929160ff808216925061010082046001600160a01b031691600160a81b90041685565b5f80546001600160a01b0316331461066b576040516316c726b160e01b815260040160405180910390fd5b60018054905f61067a83610ee4565b909155505f8181526002602052604090209091508061069a868883610fad565b50600181018490556002810180546001600160b01b0319166101006001600160a01b03861690810260ff60ff60a81b01191691909117600160a81b1790915560405183907f86a3370600c4089c572e5fa1f974825253da2be6295eb9e0eef3423aebd991b09061070d908a908a90611067565b60405180910390a350949350505050565b5f8281526002602052604081206003600282015460ff16600381111561074657610746610cd7565b146107725760028101546040516305fb5e1b60e01b81526102959160039160ff90911690600401610eae565b5f8381526007909101602052604090205490505b92915050565b5f8281526002602081905260409091200154829061010090046001600160a01b031633148015906107c757505f546001600160a01b03163314155b156107e55760405163a89350bd60e01b815260040160405180910390fd5b5f83815260026020526040812090600282015460ff16600381111561080c5761080c610cd7565b146108375760028101546040516305fb5e1b60e01b8152610295915f9160ff90911690600401610eae565b6001600160a01b0383165f818152600383016020908152604091829020805460ff19166001908117909155915191825286917f6ac489d45eb8bf1a970353adde961baf16a2ab4af3d2a8f0cb488b0cd30af856910160405180910390a350505050565b5f828152600260209081526040808320338452600381019092529091205460ff166108d85760405163aba4733960e01b815260040160405180910390fd5b6001600282015460ff1660038111156108f3576108f3610cd7565b1461091f5760028101546040516305fb5e1b60e01b81526102959160019160ff90911690600401610eae565b335f90815260048201602052604090205460ff161561095157604051637c9a1cf960e01b815260040160405180910390fd5b335f8181526004830160209081526040808320805460ff1916600117905560068501825291829020859055905184815285917f26a454697a4923cb3646779d831b5e4696bd3fab14b67dd6dfe23d72354f57dd910160405180910390a3505050565b5f818152600260208190526040822060018101549181015481546060949384938493909283929160ff8116916101009091046001600160a01b03169084906109fa90610f15565b80601f0160208091040260200160405190810160405280929190818152602001828054610a2690610f15565b8015610a715780601f10610a4857610100808354040283529160200191610a71565b820191905f5260205f20905b815481529060010190602001808311610a5457829003601f168201915b505050505093509450945094509450509193509193565b5f8381526002602081905260409091200154839061010090046001600160a01b03163314801590610ac357505f546001600160a01b03163314155b15610ae15760405163a89350bd60e01b815260040160405180910390fd5b5f84815260026020526040812090600282015460ff166003811115610b0857610b08610cd7565b14610b335760028101546040516305fb5e1b60e01b8152610295915f9160ff90911690600401610eae565b5f5b83811015610c07576001826003015f878785818110610b5657610b56611095565b9050602002016020810190610b6b91906110a9565b6001600160a01b0316815260208101919091526040015f20805460ff1916911515919091179055848482818110610ba457610ba4611095565b9050602002016020810190610bb991906110a9565b6001600160a01b0316867f6ac489d45eb8bf1a970353adde961baf16a2ab4af3d2a8f0cb488b0cd30af8566001604051610bf7911515815260200190565b60405180910390a3600101610b35565b505050505050565b80356001600160a01b0381168114610c25575f80fd5b919050565b5f8060408385031215610c3b575f80fd5b82359150610c4b60208401610c0f565b90509250929050565b5f805f60608486031215610c66575f80fd5b505081359360208301359350604090920135919050565b5f60208284031215610c8d575f80fd5b5035919050565b5f81518084525f5b81811015610cb857602081850181015186830182015201610c9c565b505f602082860101526020601f19601f83011685010191505092915050565b634e487b7160e01b5f52602160045260245ffd5b60048110610d0757634e487b7160e01b5f52602160045260245ffd5b9052565b60a081525f610d1d60a0830188610c94565b9050856020830152610d326040830186610ceb565b6001600160a01b039390931660608201529015156080909101529392505050565b5f805f8060608587031215610d66575f80fd5b843567ffffffffffffffff80821115610d7d575f80fd5b818701915087601f830112610d90575f80fd5b813581811115610d9e575f80fd5b886020828501011115610daf575f80fd5b602092830196509450508501359150610dca60408601610c0f565b905092959194509250565b5f8060408385031215610de6575f80fd5b50508035926020909101359150565b608081525f610e076080830187610c94565b9050846020830152610e1c6040830185610ceb565b6001600160a01b0392909216606091909101529392505050565b5f805f60408486031215610e48575f80fd5b83359250602084013567ffffffffffffffff80821115610e66575f80fd5b818601915086601f830112610e79575f80fd5b813581811115610e87575f80fd5b8760208260051b8501011115610e9b575f80fd5b6020830194508093505050509250925092565b60408101610ebc8285610ceb565b610ec96020830184610ceb565b9392505050565b634e487b7160e01b5f52601160045260245ffd5b5f60018201610ef557610ef5610ed0565b5060010190565b60ff818116838216019081111561078657610786610ed0565b600181811c90821680610f2957607f821691505b602082108103610f4757634e487b7160e01b5f52602260045260245ffd5b50919050565b634e487b7160e01b5f52604160045260245ffd5b601f821115610fa857805f5260205f20601f840160051c81016020851015610f865750805b601f840160051c820191505b81811015610fa5575f8155600101610f92565b50505b505050565b67ffffffffffffffff831115610fc557610fc5610f4d565b610fd983610fd38354610f15565b83610f61565b5f601f84116001811461100a575f8515610ff35750838201355b5f19600387901b1c1916600186901b178355610fa5565b5f83815260208120601f198716915b828110156110395786850135825560209485019460019092019101611019565b5086821015611055575f1960f88860031b161c19848701351681555b505060018560011b0183555050505050565b60208152816020820152818360408301375f818301604090810191909152601f909201601f19160101919050565b634e487b7160e01b5f52603260045260245ffd5b5f602082840312156110b9575f80fd5b610ec982610c0f56fea2646970667358221220d783889b52802144d522b87e40770a9cd7d393f9961774b20739dedec0bf6f1464736f6c63430008180033","linkReferences":{}},"methodIdentifiers":{"checkVoterStatus(uint256,address)":"1168e964","commitVote(uint256,bytes32)":"9da69180","createElection(string,uint256,address)":"7c630642","elections(uint256)":"5e6fef01","getElectionInfo(uint256)":"ce99b5df","getResult(uint256,uint256)":"949f80c5","nextElectionId()":"5313837b","registerVoter(uint256,address)":"94c790bb","registerVoters(uint256,address[])":"d16dd9af","revealVote(uint256,uint256,bytes32)":"1d2cd644","superAdmin()":"29575f6a","transitionPhase(uint256)":"3ddb1eb3"},"id":0}