{"abi":[{"type":"constructor","inputs":[],"stateMutability":"nonpayable"},{"type":"function","name":"checkVoterStatus","inputs":[{"name":"electionId","type":"uint256","internalType":"uint256"},{"name":"voter","type":"address","internalType":"address"}],"outputs":[{"name":"whitelisted","type":"bool","internalType":"bool"},{"name":"committed","type":"bool","internalType":"bool"},{"name":"revealed","type":"bool","internalType":"bool"}],"stateMutability":"view"},{"type":"function","name":"commitVote","inputs":[{"name":"electionId","type":"uint256","internalType":"uint256"},{"name":"commitment","type":"bytes32","internalType":"bytes32"}],"outputs":[],"stateMutability":"nonpayable"},{"type":"function","name":"createElection","inputs":[{"name":"title","type":"string","internalType":"string"},{"name":"candidateCount","type":"uint256","internalType":"uint256"},{"name":"admin","type":"address","internalType":"address"}],"outputs":[{"name":"electionId","type":"uint256","internalType":"uint256"}],"stateMutability":"nonpayable"},{"type":"function","name":"elections","inputs":[{"name":"","type":"uint256","internalType":"uint256"}],"outputs":[{"name":"title","type":"string","internalType":"string"},{"name":"candidateCount","type":"uint256","internalType":"uint256"},{"name":"currentPhase","type":"uint8","internalType":"enum VoteChainUnified.Phase"},{"name":"admin","type":"address","internalType":"address"},{"name":"exists","type":"bool","internalType":"bool"}],"stateMutability":"view"},{"type":"function","name":"getElectionInfo","inputs":[{"name":"electionId","type":"uint256","internalType":"uint256"}],"outputs":[{"name":"title","type":"string","internalType":"string"},{"name":"candidateCount","type":"uint256","internalType":"uint256"},{"name":"currentPhase","type":"uint8","internalType":"enum VoteChainUnified.Phase"},{"name":"admin","type":"address","internalType":"address"}],"stateMutability":"view"},{"type":"function","name":"getResult","inputs":[{"name":"electionId","type":"uint256","internalType":"uint256"},{"name":"candidateId","type":"uint256","internalType":"uint256"}],"outputs":[{"name":"","type":"uint256","internalType":"uint256"}],"stateMutability":"view"},{"type":"function","name":"nextElectionId","inputs":[],"outputs":[{"name":"","type":"uint256","internalType":"uint256"}],"stateMutability":"view"},{"type":"function","name":"registerVoter","inputs":[{"name":"electionId","type":"uint256","internalType":"uint256"},{"name":"voter","type":"address","internalType":"address"}],"outputs":[],"stateMutability":"nonpayable"},{"type":"function","name":"registerVoters","inputs":[{"name":"electionId","type":"uint256","internalType":"uint256"},{"name":"voters","type":"address[]","internalType":"address[]"}],"outputs":[],"stateMutability":"nonpayable"},{"type":"function","name":"revealVote","inputs":[{"name":"electionId","type":"uint256","internalType":"uint256"},{"name":"candidateId","type":"uint256","internalType":"uint256"},{"name":"salt","type":"bytes32","internalType":"bytes32"}],"outputs":[],"stateMutability":"nonpayable"},{"type":"function","name":"superAdmin","inputs":[],"outputs":[{"name":"","type":"address","internalType":"address"}],"stateMutability":"view"},{"type":"function","name":"transitionPhase","inputs":[{"name":"electionId","type":"uint256","internalType":"uint256"}],"outputs":[],"stateMutability":"nonpayable"},{"type":"event","name":"Committed","inputs":[{"name":"electionId","type":"uint256","indexed":true,"internalType":"uint256"},{"name":"voter","type":"address","indexed":true,"internalType":"address"},{"name":"commitment","type":"bytes32","indexed":false,"internalType":"bytes32"}],"anonymous":false},{"type":"event","name":"ElectionCreated","inputs":[{"name":"electionId","type":"uint256","indexed":true,"internalType":"uint256"},{"name":"title","type":"string","indexed":false,"internalType":"string"},{"name":"admin","type":"address","indexed":true,"internalType":"address"}],"anonymous":false},{"type":"event","name":"PhaseChanged","inputs":[{"name":"electionId","type":"uint256","indexed":true,"internalType":"uint256"},{"name":"previousPhase","type":"uint8","indexed":false,"internalType":"enum VoteChainUnified.Phase"},{"name":"newPhase","type":"uint8","indexed":false,"internalType":"enum VoteChainUnified.Phase"}],"anonymous":false},{"type":"event","name":"Revealed","inputs":[{"name":"electionId","type":"uint256","indexed":true,"internalType":"uint256"},{"name":"voter","type":"address","indexed":true,"internalType":"address"},{"name":"candidateId","type":"uint256","indexed":false,"internalType":"uint256"}],"anonymous":false},{"type":"event","name":"WhitelistUpdated","inputs":[{"name":"electionId","type":"uint256","indexed":true,"internalType":"uint256"},{"name":"voter","type":"address","indexed":true,"internalType":"address"},{"name":"isRegistered","type":"bool","indexed":false,"internalType":"bool"}],"anonymous":false},{"type":"error","name":"AlreadyVoted","inputs":[]},{"type":"error","name":"CommitmentMismatch","inputs":[]},{"type":"error","name":"ElectionNotFound","inputs":[]},{"type":"error","name":"InvalidCandidate","inputs":[]},{"type":"error","name":"NotElectionAdmin","inputs":[]},{"type":"error","name":"NotRegistered","inputs":[]},{"type":"error","name":"NotSuperAdmin","inputs":[]},{"type":"error","name":"WrongPhase","inputs":[{"name":"expected","type":"uint8","internalType":"enum VoteChainUnified.Phase"},{"name":"actual","type":"uint8","internalType":"enum VoteChainUnified.Phase"}]}],"bytecode":{"object":"0x6080806040523461002b57600180555f80546001600160a01b03191633179055610d3390816100308239f35b5f80fdfe608060409080825260049081361015610016575f80fd5b5f3560e01c9081631168e96414610ac0575080631d2cd6441461095057806329575f6a146109295780633ddb1eb3146107d15780635313837b146107b35780635e6fef01146107325780637c630642146104de578063949f80c51461046c57806394c790bb1461037e5780639da691801461028a578063ce99b5df146102175763d16dd9af146100a4575f80fd5b3461021357816003193601126102135760243591813567ffffffffffffffff80851161021357366023860112156102135784840135908111610213576024850194602436918360051b01011161021357815f526020600260205260018060a01b0395866002865f20015460081c1633141580610206575b6101f657835f526002602052845f209560ff600288015416818110156101e357806101bf57505060035f979601965b83811061015357005b808761016a6101656001948887610cc5565b610ce9565b165f52888452865f2082908160ff19825416179055867f6ac489d45eb8bf1a970353adde961baf16a2ab4af3d2a8f0cb488b0cd30af856868b6101b1610165878c8b610cc5565b16938b51908152a30161014a565b906101e16044925f8951936305fb5e1b60e01b85528401526024830190610c82565bfd5b602182634e487b7160e01b5f525260245ffd5b845163a89350bd60e01b81528690fd5b50865f541633141561011b565b5f80fd5b5090346102135760203660031901126102135761026491355f526002602052805f20600181015490610275610250600283015492610b80565b938051958695608087526080870190610c44565b936020860152840160ff8316610c82565b60081c6001600160a01b031660608301520390f35b503461021357816003193601126102135780359060243592825f5260209160028352815f2090335f5260038201845260ff835f205416156103705760ff600283015416818110156101e3576001810361034d575080820190335f5281855260ff845f20541661033f57507f26a454697a4923cb3646779d831b5e4696bd3fab14b67dd6dfe23d72354f57dd939291600691335f528452825f20600160ff1982541617905501825284815f2055519384523393a3005b8351637c9a1cf960e01b8152fd5b906101e160449260018651936305fb5e1b60e01b85528401526024830190610c82565b825163aba4733960e01b8152fd5b50903461021357806003193601126102135781359061039b610b32565b825f52600260205260018060a01b0390816002845f20015460081c163314158061045f575b61044f57835f526002602052825f209460ff600287015416818110156101e3578061042d5750509160036020927f6ac489d45eb8bf1a970353adde961baf16a2ab4af3d2a8f0cb488b0cd30af856941695865f52018252805f20600160ff198254161790555160018152a3005b906101e16044925f8751936305fb5e1b60e01b85528401526024830190610c82565b825163a89350bd60e01b81528590fd5b50815f54163314156103c0565b50903461021357806003193601126102135781355f526002602052805f209160ff600284015416818110156101e357600381036104bc576020836007866024355f52018252805f20549051908152f35b6101e190600360449451936305fb5e1b60e01b85528401526024830190610c82565b5090346102135760603660031901126102135781359067ffffffffffffffff92838311610213573660238401121561021357828101359384116102135760243681868601011161021357604435946001600160a01b038087169390848803610213575f54163303610724575060019184835496879361055c85610ca3565b8655845f5260209960028b52835f20966105768854610b48565b601f81116106ca575b505f601f841160011461063a579760029184887f86a3370600c4089c572e5fa1f974825253da2be6295eb9e0eef3423aebd991b09a9b5f9261062d575b50505f19600387901b1c191685821b1782555b8735908201550180546001600160b01b03191660089290921b610100600160a81b031691909117600160a81b17905582518a81528a8101829052938492829101838501375f828201840152601f01601f19168101030190a351908152f35b880101359050885f6105bc565b5f8981528d81209190601f198616908f5b8282106106ad5750509160029391867f86a3370600c4089c572e5fa1f974825253da2be6295eb9e0eef3423aebd991b09b9c9410610692575b50508085811b0182556105cf565b87018901355f19600388901b60f8161c191690555f80610684565b8884018b013585558f9b508e99509385019392830192018f61064b565b9193959650919350865f528a5f20601f850160051c8101918c861061071a575b918a959391601f8d999896940160051c01905b81811061070a575061057f565b5f81558c98508b965082016106fd565b90915081906106ea565b84516316c726b160e01b8152fd5b5090346102135760203660031901126102135761078191355f526002602052805f2060ff61075f82610b80565b926107916002600185015494015491805196879660a0885260a0880190610c44565b9460208701528501838316610c82565b600881901c6001600160a01b0316606085015260a81c16151560808301520390f35b8234610213575f366003190112610213576020906001549051908152f35b50903461021357602036600319011261021357813590815f52600260205260018060a01b03806002835f20015460081c16331415908161091b575b5061090c57815f5260026020526002815f200180549060ff8260a81c16156108fc5760ff821691858310156108e957600383146108cb576001830160ff81116108b85760ff1695808710156108a55750946108a291817f1bba12eb87c816556283945b09398ebfa2cac6bb08cf688bdbf552c1d4a361fb969760ff191617905561089884518094610c82565b6020830190610c82565ba2005b602190634e487b7160e01b5f525260245ffd5b601187634e487b7160e01b5f525260245ffd5b83516305fb5e1b60e01b815260028188015260036024820152604490fd5b602186634e487b7160e01b5f525260245ffd5b82516305ce45f760e51b81528590fd5b5163a89350bd60e01b81529050fd5b90505f54163314155f61080c565b8234610213575f366003190112610213575f5490516001600160a01b039091168152602090f35b50346102135760603660031901126102135780359060243592825f5260209160028352815f209060ff600283015416818110156101e35760028103610a9d5750335f52808201845260ff835f20541615610370576005820190335f5281855260ff845f20541661033f5786158015610a90575b610a8257835185810188815260443586830152858252606082019180831067ffffffffffffffff841117610a6f57828752519020335f52600685018752855f205403610a635750507ff87397f8ccf18c41bfee81144299ad64e11085c5a27b280fde98beeefd3e71bd939291600791335f528452825f20600160ff19825416179055865f52018252805f20610a588154610ca3565b9055519384523393a3005b635054097b60e01b8152fd5b604184634e487b7160e01b5f525260245ffd5b835163e66ea08f60e01b8152fd5b50600183015487116109c3565b906101e160449260028651936305fb5e1b60e01b85528401526024830190610c82565b90508234610213578060031936011261021357606092610ade610b32565b81355f526002602052825f209060018060a01b03165f526003810160205260ff835f205416918101602052600560ff845f205416910160205260ff835f205416911515845215156020840152151590820152f35b602435906001600160a01b038216820361021357565b90600182811c92168015610b76575b6020831014610b6257565b634e487b7160e01b5f52602260045260245ffd5b91607f1691610b57565b90604051915f908054610b9281610b48565b908186526020926001916001811690815f14610c265750600114610bed575b50505050829003601f01601f1916820167ffffffffffffffff811183821017610bd957604052565b634e487b7160e01b5f52604160045260245ffd5b909293505f52825f2091835f935b838510610c1257505050508301015f808080610bb1565b805488860183015293019284908201610bfb565b60ff191688860152505050151560051b84010190505f808080610bb1565b91908251928382525f5b848110610c6e575050825f602080949584010152601f8019910116010190565b602081830181015184830182015201610c4e565b906004821015610c8f5752565b634e487b7160e01b5f52602160045260245ffd5b5f198114610cb15760010190565b634e487b7160e01b5f52601160045260245ffd5b9190811015610cd55760051b0190565b634e487b7160e01b5f52603260045260245ffd5b356001600160a01b0381168103610213579056fea264697066735822122080110c2f353f4c02b725eadc951e39a1baf8d5de54dcd6f41c75ddfc8770073e64736f6c63430008180033","linkReferences":{}},"methodIdentifiers":{"checkVoterStatus(uint256,address)":"1168e964","commitVote(uint256,bytes32)":"9da69180","createElection(string,uint256,address)":"7c630642","elections(uint256)":"5e6fef01","getElectionInfo(uint256)":"ce99b5df","getResult(uint256,uint256)":"949f80c5","nextElectionId()":"5313837b","registerVoter(uint256,address)":"94c790bb","registerVoters(uint256,address[])":"d16dd9af","revealVote(uint256,uint256,bytes32)":"1d2cd644","superAdmin()":"29575f6a","transitionPhase(uint256)":"3ddb1eb3"},"id":22}