{
  "abi": [
    {
      "type": "constructor",
      "inputs": [
        {
          "name": "_registry",
          "type": "address",
          "internalType": "address"
        },
        {
          "name": "_spaceAdmin",
          "type": "address",
          "internalType": "address"
        },
        {
          "name": "_spaceId",
          "type": "uint256",
          "internalType": "uint256"
        },
        {
          "name": "_candidateCount",
          "type": "uint256",
          "internalType": "uint256"
        },
        {
          "name": "_title",
          "type": "string",
          "internalType": "string"
        },
        {
          "name": "_metadataURI",
          "type": "string",
          "internalType": "string"
        },
        {
          "name": "_initialActor",
          "type": "address",
          "internalType": "address"
        },
        {
          "name": "_initialVoters",
          "type": "address[]",
          "internalType": "address[]"
        },
        {
          "name": "_commitStartsAt",
          "type": "uint256",
          "internalType": "uint256"
        },
        {
          "name": "_commitEndsAt",
          "type": "uint256",
          "internalType": "uint256"
        },
        {
          "name": "_revealStartsAt",
          "type": "uint256",
          "internalType": "uint256"
        },
        {
          "name": "_revealEndsAt",
          "type": "uint256",
          "internalType": "uint256"
        }
      ],
      "stateMutability": "nonpayable"
    },
    {
      "type": "function",
      "name": "candidateCount",
      "inputs": [],
      "outputs": [
        {
          "name": "",
          "type": "uint256",
          "internalType": "uint256"
        }
      ],
      "stateMutability": "view"
    },
    {
      "type": "function",
      "name": "commitEndsAt",
      "inputs": [],
      "outputs": [
        {
          "name": "",
          "type": "uint256",
          "internalType": "uint256"
        }
      ],
      "stateMutability": "view"
    },
    {
      "type": "function",
      "name": "commitStartsAt",
      "inputs": [],
      "outputs": [
        {
          "name": "",
          "type": "uint256",
          "internalType": "uint256"
        }
      ],
      "stateMutability": "view"
    },
    {
      "type": "function",
      "name": "commitVote",
      "inputs": [
        {
          "name": "commitment",
          "type": "bytes32",
          "internalType": "bytes32"
        }
      ],
      "outputs": [],
      "stateMutability": "nonpayable"
    },
    {
      "type": "function",
      "name": "commitFor",
      "inputs": [
        {
          "name": "voter",
          "type": "address",
          "internalType": "address"
        },
        {
          "name": "commitment",
          "type": "bytes32",
          "internalType": "bytes32"
        }
      ],
      "outputs": [],
      "stateMutability": "nonpayable"
    },
    {
      "type": "function",
      "name": "commitmentOf",
      "inputs": [
        {
          "name": "",
          "type": "address",
          "internalType": "address"
        }
      ],
      "outputs": [
        {
          "name": "",
          "type": "bytes32",
          "internalType": "bytes32"
        }
      ],
      "stateMutability": "view"
    },
    {
      "type": "function",
      "name": "currentPhase",
      "inputs": [],
      "outputs": [
        {
          "name": "",
          "type": "uint8",
          "internalType": "enum ElectionSpace.Phase"
        }
      ],
      "stateMutability": "view"
    },
    {
      "type": "function",
      "name": "getResult",
      "inputs": [
        {
          "name": "candidateId",
          "type": "uint256",
          "internalType": "uint256"
        }
      ],
      "outputs": [
        {
          "name": "",
          "type": "uint256",
          "internalType": "uint256"
        }
      ],
      "stateMutability": "view"
    },
    {
      "type": "function",
      "name": "hasCommitted",
      "inputs": [
        {
          "name": "",
          "type": "address",
          "internalType": "address"
        }
      ],
      "outputs": [
        {
          "name": "",
          "type": "bool",
          "internalType": "bool"
        }
      ],
      "stateMutability": "view"
    },
    {
      "type": "function",
      "name": "hasRevealed",
      "inputs": [
        {
          "name": "",
          "type": "address",
          "internalType": "address"
        }
      ],
      "outputs": [
        {
          "name": "",
          "type": "bool",
          "internalType": "bool"
        }
      ],
      "stateMutability": "view"
    },
    {
      "type": "function",
      "name": "isWhitelisted",
      "inputs": [
        {
          "name": "",
          "type": "address",
          "internalType": "address"
        }
      ],
      "outputs": [
        {
          "name": "",
          "type": "bool",
          "internalType": "bool"
        }
      ],
      "stateMutability": "view"
    },
    {
      "type": "function",
      "name": "metadataURI",
      "inputs": [],
      "outputs": [
        {
          "name": "",
          "type": "string",
          "internalType": "string"
        }
      ],
      "stateMutability": "view"
    },
    {
      "type": "function",
      "name": "phase",
      "inputs": [],
      "outputs": [
        {
          "name": "",
          "type": "uint8",
          "internalType": "enum ElectionSpace.Phase"
        }
      ],
      "stateMutability": "view"
    },
    {
      "type": "function",
      "name": "registerVoter",
      "inputs": [
        {
          "name": "voter",
          "type": "address",
          "internalType": "address"
        }
      ],
      "outputs": [],
      "stateMutability": "nonpayable"
    },
    {
      "type": "function",
      "name": "registerVoters",
      "inputs": [
        {
          "name": "voters",
          "type": "address[]",
          "internalType": "address[]"
        }
      ],
      "outputs": [],
      "stateMutability": "nonpayable"
    },
    {
      "type": "function",
      "name": "registry",
      "inputs": [],
      "outputs": [
        {
          "name": "",
          "type": "address",
          "internalType": "address"
        }
      ],
      "stateMutability": "view"
    },
    {
      "type": "function",
      "name": "revealEndsAt",
      "inputs": [],
      "outputs": [
        {
          "name": "",
          "type": "uint256",
          "internalType": "uint256"
        }
      ],
      "stateMutability": "view"
    },
    {
      "type": "function",
      "name": "revealFor",
      "inputs": [
        {
          "name": "voter",
          "type": "address",
          "internalType": "address"
        },
        {
          "name": "candidateId",
          "type": "uint256",
          "internalType": "uint256"
        },
        {
          "name": "salt",
          "type": "bytes32",
          "internalType": "bytes32"
        }
      ],
      "outputs": [],
      "stateMutability": "nonpayable"
    },
    {
      "type": "function",
      "name": "revealStartsAt",
      "inputs": [],
      "outputs": [
        {
          "name": "",
          "type": "uint256",
          "internalType": "uint256"
        }
      ],
      "stateMutability": "view"
    },
    {
      "type": "function",
      "name": "revealVote",
      "inputs": [
        {
          "name": "candidateId",
          "type": "uint256",
          "internalType": "uint256"
        },
        {
          "name": "salt",
          "type": "bytes32",
          "internalType": "bytes32"
        }
      ],
      "outputs": [],
      "stateMutability": "nonpayable"
    },
    {
      "type": "function",
      "name": "setPhaseSchedule",
      "inputs": [
        {
          "name": "_commitStartsAt",
          "type": "uint256",
          "internalType": "uint256"
        },
        {
          "name": "_commitEndsAt",
          "type": "uint256",
          "internalType": "uint256"
        },
        {
          "name": "_revealStartsAt",
          "type": "uint256",
          "internalType": "uint256"
        },
        {
          "name": "_revealEndsAt",
          "type": "uint256",
          "internalType": "uint256"
        }
      ],
      "outputs": [],
      "stateMutability": "nonpayable"
    },
    {
      "type": "function",
      "name": "setSuspended",
      "inputs": [
        {
          "name": "suspended",
          "type": "bool",
          "internalType": "bool"
        },
        {
          "name": "actor",
          "type": "address",
          "internalType": "address"
        },
        {
          "name": "reasonCode",
          "type": "string",
          "internalType": "string"
        }
      ],
      "outputs": [],
      "stateMutability": "nonpayable"
    },
    {
      "type": "function",
      "name": "spaceAdmin",
      "inputs": [],
      "outputs": [
        {
          "name": "",
          "type": "address",
          "internalType": "address"
        }
      ],
      "stateMutability": "view"
    },
    {
      "type": "function",
      "name": "spaceId",
      "inputs": [],
      "outputs": [
        {
          "name": "",
          "type": "uint256",
          "internalType": "uint256"
        }
      ],
      "stateMutability": "view"
    },
    {
      "type": "function",
      "name": "status",
      "inputs": [],
      "outputs": [
        {
          "name": "",
          "type": "uint8",
          "internalType": "enum ElectionSpace.ElectionStatus"
        }
      ],
      "stateMutability": "view"
    },
    {
      "type": "function",
      "name": "terminate",
      "inputs": [
        {
          "name": "actor",
          "type": "address",
          "internalType": "address"
        },
        {
          "name": "reasonCode",
          "type": "string",
          "internalType": "string"
        }
      ],
      "outputs": [],
      "stateMutability": "nonpayable"
    },
    {
      "type": "function",
      "name": "title",
      "inputs": [],
      "outputs": [
        {
          "name": "",
          "type": "string",
          "internalType": "string"
        }
      ],
      "stateMutability": "view"
    },
    {
      "type": "function",
      "name": "transferSpaceAdmin",
      "inputs": [
        {
          "name": "newAdmin",
          "type": "address",
          "internalType": "address"
        },
        {
          "name": "actor",
          "type": "address",
          "internalType": "address"
        },
        {
          "name": "reasonCode",
          "type": "string",
          "internalType": "string"
        }
      ],
      "outputs": [],
      "stateMutability": "nonpayable"
    },
    {
      "type": "function",
      "name": "transitionToNextPhase",
      "inputs": [],
      "outputs": [],
      "stateMutability": "nonpayable"
    },
    {
      "type": "function",
      "name": "unregisterVoter",
      "inputs": [
        {
          "name": "voter",
          "type": "address",
          "internalType": "address"
        }
      ],
      "outputs": [],
      "stateMutability": "nonpayable"
    },
    {
      "type": "function",
      "name": "updateMetadata",
      "inputs": [
        {
          "name": "_title",
          "type": "string",
          "internalType": "string"
        },
        {
          "name": "_metadataURI",
          "type": "string",
          "internalType": "string"
        },
        {
          "name": "actor",
          "type": "address",
          "internalType": "address"
        }
      ],
      "outputs": [],
      "stateMutability": "nonpayable"
    },
    {
      "type": "function",
      "name": "voteCount",
      "inputs": [
        {
          "name": "",
          "type": "uint256",
          "internalType": "uint256"
        }
      ],
      "outputs": [
        {
          "name": "",
          "type": "uint256",
          "internalType": "uint256"
        }
      ],
      "stateMutability": "view"
    },
    {
      "type": "event",
      "name": "Committed",
      "inputs": [
        {
          "name": "spaceId",
          "type": "uint256",
          "indexed": true,
          "internalType": "uint256"
        },
        {
          "name": "voter",
          "type": "address",
          "indexed": true,
          "internalType": "address"
        },
        {
          "name": "commitment",
          "type": "bytes32",
          "indexed": true,
          "internalType": "bytes32"
        }
      ],
      "anonymous": false
    },
    {
      "type": "event",
      "name": "ElectionMetadataUpdated",
      "inputs": [
        {
          "name": "spaceId",
          "type": "uint256",
          "indexed": true,
          "internalType": "uint256"
        },
        {
          "name": "title",
          "type": "string",
          "indexed": false,
          "internalType": "string"
        },
        {
          "name": "metadataURI",
          "type": "string",
          "indexed": false,
          "internalType": "string"
        },
        {
          "name": "actor",
          "type": "address",
          "indexed": false,
          "internalType": "address"
        }
      ],
      "anonymous": false
    },
    {
      "type": "event",
      "name": "ElectionStatusChanged",
      "inputs": [
        {
          "name": "spaceId",
          "type": "uint256",
          "indexed": true,
          "internalType": "uint256"
        },
        {
          "name": "status",
          "type": "uint8",
          "indexed": true,
          "internalType": "enum ElectionSpace.ElectionStatus"
        },
        {
          "name": "actor",
          "type": "address",
          "indexed": true,
          "internalType": "address"
        },
        {
          "name": "reasonCode",
          "type": "string",
          "indexed": false,
          "internalType": "string"
        }
      ],
      "anonymous": false
    },
    {
      "type": "event",
      "name": "InitialConfigurationApplied",
      "inputs": [
        {
          "name": "spaceId",
          "type": "uint256",
          "indexed": true,
          "internalType": "uint256"
        },
        {
          "name": "voterCount",
          "type": "uint256",
          "indexed": false,
          "internalType": "uint256"
        },
        {
          "name": "commitStartsAt",
          "type": "uint256",
          "indexed": false,
          "internalType": "uint256"
        },
        {
          "name": "commitEndsAt",
          "type": "uint256",
          "indexed": false,
          "internalType": "uint256"
        },
        {
          "name": "revealStartsAt",
          "type": "uint256",
          "indexed": false,
          "internalType": "uint256"
        },
        {
          "name": "revealEndsAt",
          "type": "uint256",
          "indexed": false,
          "internalType": "uint256"
        },
        {
          "name": "actor",
          "type": "address",
          "indexed": false,
          "internalType": "address"
        }
      ],
      "anonymous": false
    },
    {
      "type": "event",
      "name": "PhaseChanged",
      "inputs": [
        {
          "name": "spaceId",
          "type": "uint256",
          "indexed": true,
          "internalType": "uint256"
        },
        {
          "name": "previousPhase",
          "type": "uint8",
          "indexed": true,
          "internalType": "enum ElectionSpace.Phase"
        },
        {
          "name": "newPhase",
          "type": "uint8",
          "indexed": true,
          "internalType": "enum ElectionSpace.Phase"
        },
        {
          "name": "actor",
          "type": "address",
          "indexed": false,
          "internalType": "address"
        }
      ],
      "anonymous": false
    },
    {
      "type": "event",
      "name": "PhaseScheduleUpdated",
      "inputs": [
        {
          "name": "spaceId",
          "type": "uint256",
          "indexed": true,
          "internalType": "uint256"
        },
        {
          "name": "commitStartsAt",
          "type": "uint256",
          "indexed": false,
          "internalType": "uint256"
        },
        {
          "name": "commitEndsAt",
          "type": "uint256",
          "indexed": false,
          "internalType": "uint256"
        },
        {
          "name": "revealStartsAt",
          "type": "uint256",
          "indexed": false,
          "internalType": "uint256"
        },
        {
          "name": "revealEndsAt",
          "type": "uint256",
          "indexed": false,
          "internalType": "uint256"
        },
        {
          "name": "actor",
          "type": "address",
          "indexed": false,
          "internalType": "address"
        }
      ],
      "anonymous": false
    },
    {
      "type": "event",
      "name": "RevealRelayed",
      "inputs": [
        {
          "name": "spaceId",
          "type": "uint256",
          "indexed": true,
          "internalType": "uint256"
        },
        {
          "name": "voter",
          "type": "address",
          "indexed": true,
          "internalType": "address"
        },
        {
          "name": "relayer",
          "type": "address",
          "indexed": true,
          "internalType": "address"
        },
        {
          "name": "candidateId",
          "type": "uint256",
          "indexed": false,
          "internalType": "uint256"
        }
      ],
      "anonymous": false
    },
    {
      "type": "event",
      "name": "CommitRelayed",
      "inputs": [
        {
          "name": "spaceId",
          "type": "uint256",
          "indexed": true,
          "internalType": "uint256"
        },
        {
          "name": "voter",
          "type": "address",
          "indexed": true,
          "internalType": "address"
        },
        {
          "name": "relayer",
          "type": "address",
          "indexed": true,
          "internalType": "address"
        },
        {
          "name": "commitment",
          "type": "bytes32",
          "indexed": false,
          "internalType": "bytes32"
        }
      ],
      "anonymous": false
    },
    {
      "type": "event",
      "name": "Revealed",
      "inputs": [
        {
          "name": "spaceId",
          "type": "uint256",
          "indexed": true,
          "internalType": "uint256"
        },
        {
          "name": "voter",
          "type": "address",
          "indexed": true,
          "internalType": "address"
        },
        {
          "name": "candidateId",
          "type": "uint256",
          "indexed": true,
          "internalType": "uint256"
        },
        {
          "name": "newVoteCount",
          "type": "uint256",
          "indexed": false,
          "internalType": "uint256"
        }
      ],
      "anonymous": false
    },
    {
      "type": "event",
      "name": "SpaceAdminTransferred",
      "inputs": [
        {
          "name": "spaceId",
          "type": "uint256",
          "indexed": true,
          "internalType": "uint256"
        },
        {
          "name": "previousAdmin",
          "type": "address",
          "indexed": true,
          "internalType": "address"
        },
        {
          "name": "newAdmin",
          "type": "address",
          "indexed": true,
          "internalType": "address"
        },
        {
          "name": "actor",
          "type": "address",
          "indexed": false,
          "internalType": "address"
        },
        {
          "name": "reasonCode",
          "type": "string",
          "indexed": false,
          "internalType": "string"
        }
      ],
      "anonymous": false
    },
    {
      "type": "event",
      "name": "WhitelistUpdated",
      "inputs": [
        {
          "name": "spaceId",
          "type": "uint256",
          "indexed": true,
          "internalType": "uint256"
        },
        {
          "name": "voter",
          "type": "address",
          "indexed": true,
          "internalType": "address"
        },
        {
          "name": "isRegistered",
          "type": "bool",
          "indexed": false,
          "internalType": "bool"
        },
        {
          "name": "actor",
          "type": "address",
          "indexed": false,
          "internalType": "address"
        }
      ],
      "anonymous": false
    },
    {
      "type": "error",
      "name": "AlreadyCommitted",
      "inputs": []
    },
    {
      "type": "error",
      "name": "AlreadyRegistered",
      "inputs": []
    },
    {
      "type": "error",
      "name": "AlreadyRevealed",
      "inputs": []
    },
    {
      "type": "error",
      "name": "CommitmentMismatch",
      "inputs": []
    },
    {
      "type": "error",
      "name": "ElectionSuspended",
      "inputs": []
    },
    {
      "type": "error",
      "name": "ElectionTerminated",
      "inputs": []
    },
    {
      "type": "error",
      "name": "InvalidAdmin",
      "inputs": []
    },
    {
      "type": "error",
      "name": "InvalidCandidate",
      "inputs": []
    },
    {
      "type": "error",
      "name": "InvalidCommitment",
      "inputs": []
    },
    {
      "type": "error",
      "name": "InvalidPhaseSchedule",
      "inputs": []
    },
    {
      "type": "error",
      "name": "InvalidPhaseTransition",
      "inputs": [
        {
          "name": "current",
          "type": "uint8",
          "internalType": "enum ElectionSpace.Phase"
        },
        {
          "name": "requested",
          "type": "uint8",
          "internalType": "enum ElectionSpace.Phase"
        }
      ]
    },
    {
      "type": "error",
      "name": "InvalidVoter",
      "inputs": []
    },
    {
      "type": "error",
      "name": "NotAuthorized",
      "inputs": []
    },
    {
      "type": "error",
      "name": "NotCommittedYet",
      "inputs": []
    },
    {
      "type": "error",
      "name": "NotRegistered",
      "inputs": []
    },
    {
      "type": "error",
      "name": "NotRegistry",
      "inputs": []
    },
    {
      "type": "error",
      "name": "WrongPhase",
      "inputs": [
        {
          "name": "expected",
          "type": "uint8",
          "internalType": "enum ElectionSpace.Phase"
        },
        {
          "name": "actual",
          "type": "uint8",
          "internalType": "enum ElectionSpace.Phase"
        }
      ]
    }
  ],
  "bytecode": {
    "object": "0x604060e0815234620007b5576200292e803803806200001e81620007b9565b92833981019061018081830312620007b5576200003b81620007df565b916200004a60208301620007df565b82850151606084015160808501519095906001600160401b038111620007b5578462000078918701620007f4565b60a08601516001600160401b038111620007b557856200009a918801620007f4565b90620000a960c08801620007df565b60e08801519098906001600160401b038111620007b55788019680601f89011215620007b5578751976001600160401b0389116200065f578860051b90602080620000f6818501620007b9565b809c81520192820101928311620007b557602001905b8282106200079a5750505061010088015194610120890151966101606101408b01519a01519560018060a01b03811615801562000788575b6200077757831562000766576080525f80546001600160a01b0319166001600160a01b039290921691909117905560a05260c0528051906001600160401b0382116200065f5760015490600182811c921680156200075b575b6020831014620006405781601f849311620006fa575b50602090601f83116001146200067f575f9262000673575b50508160011b915f199060031b1c1916176001555b8051906001600160401b0382116200065f5760025490600182811c9216801562000654575b6020831014620006405781601f849311620005df575b50602090601f831160011462000568575f926200055c575b50508160011b915f199060031b1c1916176002555b61ffff19600354166003558351620004a5575b811594851595808788926200049b575b801562000491575b801562000487575b620003d4575b5050505050505190811590811591620003cb575b5062000367575b825161208990816200086582396080518181816101c7015281816103aa015281816104d1015281816108fe01528181610afd01528181610d7401528181610e7e01528181611323015281816115d4015261185a015260a0518181816102710152818161042d015281816105ca015281816109b501528181610b6a01528181610cc201528181610def01528181610f580152818161123c015281816113f50152818161168f0152818161196f0152611f8e015260c0518181816107f70152818161087b0152611fe80152f35b60c07fa8dbf017bc75dd8e14ed96c66028f2fb1d209e4398405364261fe9bc77e572499160a05193600454600554600654906007549289519586526020860152888501526060840152608083015260018060a01b031660a0820152a25f806200029c565b90505f62000295565b906200047c575b801562000472575b801562000467575b62000456579160a0917f26f7315aaf2926e91db90b9e8be8c5c36e6a366c93950652ce964393555390c493826004558560055580600655816007558351958a519384526020840152898301526060820152600180831b0387166080820152a25f808080858162000281565b875163a74634cd60e01b8152600490fd5b5080821115620003eb565b50838110620003e3565b5082841115620003db565b508315156200027b565b5082151562000273565b508515156200026b565b949391905f5b84518110156200055157600581901b8501602001516001600160a01b03168015620005405790816001925f526008602052895f20805460ff811615620004f6575b50505001620004ab565b849060ff191617905560a0517f5b551e9aea49b0b85a31d13fd569c911ded7781feaae60c3603e3a968b05fc138b8051868152868060a01b038c166020820152a35f8080620004ec565b88516311745b2b60e31b8152600490fd5b50909193946200025b565b015190505f8062000233565b60025f9081525f80516020620028ee8339815191529350601f198516905b818110620005c65750908460019594939210620005ad575b505050811b0160025562000248565b01515f1960f88460031b161c191690555f80806200059e565b9293602060018192878601518155019501930162000586565b60025f529091505f80516020620028ee833981519152601f840160051c8101916020851062000635575b90601f859493920160051c01905b8181106200062657506200021b565b5f815584935060010162000617565b909150819062000609565b634e487b7160e01b5f52602260045260245ffd5b91607f169162000205565b634e487b7160e01b5f52604160045260245ffd5b015190505f80620001cb565b60015f90815293505f805160206200290e83398151915291905b601f1984168510620006de576001945083601f19811610620006c5575b505050811b01600155620001e0565b01515f1960f88460031b161c191690555f8080620006b6565b8181015183556020948501946001909301929091019062000699565b60015f529091505f805160206200290e833981519152601f840160051c8101916020851062000750575b90601f859493920160051c01905b818110620007415750620001b3565b5f815584935060010162000732565b909150819062000724565b91607f16916200019d565b8c5163e66ea08f60e01b8152600490fd5b8c5163ea8e4eb560e01b8152600490fd5b506001600160a01b0382161562000144565b60208091620007a984620007df565b8152019101906200010c565b5f80fd5b6040519190601f01601f191682016001600160401b038111838210176200065f57604052565b51906001600160a01b0382168203620007b557565b919080601f84011215620007b55782516001600160401b0381116200065f576020906200082a601f8201601f19168301620007b9565b92818452828287010111620007b5575f5b818110620008505750825f9394955001015290565b85810183015184820184015282016200083b56fe608060409080825260049081361015610016575f80fd5b5f3560e01c90816303ee438c14611c1557508063055ad42e14611bef57806307b63c29146117f55780630e866fa5146117d75780630f8779c6146115b65780631dcf2e39146115985780631e8f04891461157a578063200d2ed21461153857806338db6dd3146112fb5780633af32abf146112bf5780633e8589231461119b5780634a79d50c146110bd5780634d35574f14610e505780634fc8a20d14610e28578063534e0e9e14610d2b5780635688e29914610c4957806369edbcda14610b8d5780636bf2ffa114610b535780637a967cd314610b2c5780637b10399914610ae95780637ed17751146108d7578063995e43391461081a578063a9a981a3146107e0578063b1c9fe6e146107b6578063b9a530131461077a578063c6dbe15a1461073e578063d55ec9c114610473578063e2a89c4a14610357578063f662b88114610320578063f826fee8146103035763fdbf64c214610175575f80fd5b346102ff5760603660031901126102ff57803580151581036102ff57610199611dd4565b9060443567ffffffffffffffff81116102ff576101b99036908501611d90565b92909460018060a01b0392837f00000000000000000000000000000000000000000000000000000000000000001633036102ef576003549060ff8260081c1660038110156102dc576002146102cc57156102c65760015b60038110156102b3579061ff0060ff9260081b169061ff001916178060035560081c169460038610156102a057509061029b7f7bf94aa98e004220f19fb43e7d8d6dabd2c23e3fadc2908d16dd25f52cd1c43b9392519283926020845216967f0000000000000000000000000000000000000000000000000000000000000000956020840191611dea565b0390a4005b602190634e487b7160e01b5f525260245ffd5b602187634e487b7160e01b5f525260245ffd5b5f610210565b825163214dacf960e11b81528790fd5b602188634e487b7160e01b5f525260245ffd5b8151633217675b60e21b81528690fd5b5f80fd5b5090346102ff575f3660031901126102ff57602091549051908152f35b82346102ff5760203660031901126102ff576020906001600160a01b03610345611dbe565b165f52600b8252805f20549051908152f35b5090346102ff5760603660031901126102ff57610372611dbe565b9061037b611dd4565b9160443567ffffffffffffffff81116102ff5761039b9036908601611d90565b936001600160a01b03929091907f00000000000000000000000000000000000000000000000000000000000000008416330361046357831695861561045557509061029b83927fbe1cc4eb33fa3157c6e975e4dc49e5744ee7070832804598fafd71f5aced1d11945f54896bffffffffffffffffffffffff60a01b8216175f55875195869516855287602086015216967f000000000000000000000000000000000000000000000000000000000000000096840191611dea565b8451630b5eba9f60e41b8152fd5b8451633217675b60e21b81528790fd5b5090346102ff57602091826003193601126102ff5780359267ffffffffffffffff928385116102ff57366023860112156102ff57848301359384116102ff5760249060059536838760051b830101116102ff5760018060a01b0394857f0000000000000000000000000000000000000000000000000000000000000000168486885f54163314806106e3575b159283610679575b50505061066b5760ff936003549260ff60089460081c169960038b10156106595760019a600181146106495760021461063957610542611e22565b84811015610627578061060457505f5b8a811061055b57005b8381831b840101358a81168091036102ff5780156105f45790818d925f52878b52885f208381548c811615610595575b5050505001610552565b60ff19161790558851838152338c8201527f5b551e9aea49b0b85a31d13fd569c911ded7781feaae60c3603e3a968b05fc138a7f000000000000000000000000000000000000000000000000000000000000000092a35f80838161058b565b87516311745b2b60e31b81528690fd5b86516305fb5e1b60e01b81525f818701526044916106259082870190611d6f565bfd5b83602186634e487b7160e01b5f52525ffd5b855163214dacf960e11b81528490fd5b86516327c0e7b560e01b81528590fd5b82602185634e487b7160e01b5f52525ffd5b825163ea8e4eb560e01b8152fd5b865163df7f453b60e01b8152338682015293509091839182905afa9081156106d9575f916106ac575b501584865f610507565b6106cc9150863d88116106d2575b6106c48183611cf2565b810190611e0a565b5f6106a2565b503d6106ba565b84513d5f823e3d90fd5b50508451633e460e1560e21b81523384820152905086818781855afa90811561073457869188915f91610717575b506104ff565b61072e9150823d84116106d2576106c48183611cf2565b5f610711565b85513d5f823e3d90fd5b82346102ff5760203660031901126102ff576020906001600160a01b03610763611dbe565b165f526009825260ff815f20541690519015158152f35b82346102ff5760203660031901126102ff576020906001600160a01b0361079f611dbe565b165f52600a825260ff815f20541690519015158152f35b82346102ff575f3660031901126102ff576020906107de6107d5611e22565b91518092611d6f565bf35b82346102ff575f3660031901126102ff57602090517f00000000000000000000000000000000000000000000000000000000000000008152f35b5090346102ff5760203660031901126102ff578135610837611e22565b838110156108c457600381036108a1575080158015610878575b61086a57602092505f52600c8252805f20549051908152f35b505163e66ea08f60e01b8152fd5b507f00000000000000000000000000000000000000000000000000000000000000008111610851565b82516305fb5e1b60e01b8152600381860152604491610625906024830190611d6f565b602184634e487b7160e01b5f525260245ffd5b50346102ff57602090816003193601126102ff576108f3611dbe565b60018060a01b0391827f00000000000000000000000000000000000000000000000000000000000000001684845f5416331480610a92575b159182610a38575b5050610a2a5760ff60035460081c1660038110156109fa5760018114610a1b57600214610a0d57610962611e22565b818110156109fa57806109d8575050907f5b551e9aea49b0b85a31d13fd569c911ded7781feaae60c3603e3a968b05fc13911692835f5260088352805f2060ff1981541690558051925f845233908401527f000000000000000000000000000000000000000000000000000000000000000092a3005b906106256044925f8851936305fb5e1b60e01b85528401526024830190611d6f565b602182634e487b7160e01b5f525260245ffd5b845163214dacf960e11b8152fd5b5084516327c0e7b560e01b8152fd5b845163ea8e4eb560e01b8152fd5b875163df7f453b60e01b815233858201529250829060249082905afa908115610a88575f91610a6b575b5015845f610933565b610a829150853d87116106d2576106c48183611cf2565b5f610a62565b86513d5f823e3d90fd5b50508551633e460e1560e21b815233838201528581602481855afa8015610adf5786915f91610ac2575b5061092b565b610ad99150823d84116106d2576106c48183611cf2565b5f610abc565b87513d5f823e3d90fd5b82346102ff575f3660031901126102ff57517f00000000000000000000000000000000000000000000000000000000000000006001600160a01b03168152602090f35b82346102ff575f3660031901126102ff575f5490516001600160a01b039091168152602090f35b82346102ff575f3660031901126102ff57602090517f00000000000000000000000000000000000000000000000000000000000000008152f35b50346102ff57816003193601126102ff57335f52600860205260ff825f20541615610c3b5760ff60035460081c1660038110156109fa5760018114610c2c57600214610c1e57610bdb611e22565b91818310156109fa5760028303610bfc57610bfa602435833533611e7b565b005b60449260026106259251936305fb5e1b60e01b85528401526024830190611d6f565b905163214dacf960e11b8152fd5b5090516327c0e7b560e01b8152fd5b905163aba4733960e01b8152fd5b50346102ff5760603660031901126102ff57610c63611dbe565b916024359160ff60035460081c1660038110156109fa5760018114610c2c57600214610c1e57610c91611e22565b818110156109fa5760028103610d09575050610cb06044358385611e7b565b5190815233916001600160a01b0316907f0000000000000000000000000000000000000000000000000000000000000000907e61840683c17d5c16bbabef1c635624cffef2223aced524b735371a8334846790602090a4005b61062590600260449451936305fb5e1b60e01b85528401526024830190611d6f565b50346102ff57816003193601126102ff57610d44611dbe565b9160243567ffffffffffffffff81116102ff57610d649036908401611d90565b909390916001600160a01b0391907f000000000000000000000000000000000000000000000000000000000000000083163303610e195760ff61020061ff001960035416178060035560081c169460038610156102a057509061029b7f7bf94aa98e004220f19fb43e7d8d6dabd2c23e3fadc2908d16dd25f52cd1c43b9392519283926020845216967f0000000000000000000000000000000000000000000000000000000000000000956020840191611dea565b51633217675b60e21b81528490fd5b5090346102ff5760203660031901126102ff57602091355f52600c8252805f20549051908152f35b5090346102ff5760803660031901126102ff578135916024918235604435926064359460018060a01b0381817f000000000000000000000000000000000000000000000000000000000000000016915f541633148061106c575b15918261101a575b505061100b5760ff60035460081c166003811015610ff85760018114610fe857600214610fd957610ee1611e22565b9082821015610fc75781610fa657505085158015610f9c575b8015610f93575b8015610f89575b610f7b578590558060055582600655836007558151948552602085015283015260608201523360808201527f26f7315aaf2926e91db90b9e8be8c5c36e6a366c93950652ce964393555390c460a07f000000000000000000000000000000000000000000000000000000000000000092a2005b825163a74634cd60e01b8152fd5b5083851115610f08565b50818410610f01565b5085821115610efa565b6106259293505f60449551946305fb5e1b60e01b8652850152830190611d6f565b634e487b7160e01b5f90815260218452fd5b50825163214dacf960e11b8152fd5b84516327c0e7b560e01b81528390fd5b50634e487b7160e01b5f90815260218352fd5b50825163ea8e4eb560e01b8152fd5b865163df7f453b60e01b815233868201529250602091839182905afa908115610734575f9161104d575b5015815f610eb2565b611066915060203d6020116106d2576106c48183611cf2565b5f611044565b50508451633e460e1560e21b815233848201526020818481855afa908115610a88579083915f9161109e575b50610eaa565b6110b7915060203d6020116106d2576106c48183611cf2565b5f611098565b82346102ff575f3660031901126102ff5780515f600180546110de81611cba565b80855291602091600181169081156111715750600114611118575b611114858761110a82880383611cf2565b5191829182611d28565b0390f35b60015f90815293507fb10e2d527612073b26eecdfd717e6a320cf44b4afac2b0732d9fcbe2b7fa0cf65b83851061115e5750505050810160200161110a826111146110f9565b8054868601840152938201938101611142565b6111149795508693506020925061110a94915060ff191682840152151560051b82010192946110f9565b5090346102ff5760203660031901126102ff57813591335f52600860205260ff825f20541615610c3b5760ff60035460081c1660038110156109fa5760018114610c2c57600214610c1e576111ee611e22565b818110156109fa576001810361129d5750335f52600960205260ff825f20541661128f57821561128157508190335f526009602052805f20600160ff19825416179055600b6020525f2055337f00000000000000000000000000000000000000000000000000000000000000007f26a454697a4923cb3646779d831b5e4696bd3fab14b67dd6dfe23d72354f57dd5f80a4005b9051636033c4fd60e11b8152fd5b90516317fd8aab60e31b8152fd5b61062590600160449451936305fb5e1b60e01b85528401526024830190611d6f565b82346102ff5760203660031901126102ff576020906001600160a01b036112e4611dbe565b165f526008825260ff815f20541690519015158152f35b5090346102ff57602090816003193601126102ff57611318611dbe565b60018060a01b0390817f00000000000000000000000000000000000000000000000000000000000000001684835f54163314806114e9575b159182611499575b50506114895760ff60035460081c16600381101561145657600181146114795760021461146957611387611e22565b85811015611456578061143457501692831561142657835f526008835260ff825f20541661141857507f5b551e9aea49b0b85a31d13fd569c911ded7781feaae60c3603e3a968b05fc1390835f5260088352805f20600160ff198254161790558051926001845233908401527f000000000000000000000000000000000000000000000000000000000000000092a3005b9051630ea075bf60e21b8152fd5b90516311745b2b60e31b8152fd5b83516305fb5e1b60e01b81525f81880152604491610625906024830190611d6f565b602186634e487b7160e01b5f525260245ffd5b825163214dacf960e11b81528590fd5b83516327c0e7b560e01b81528690fd5b825163ea8e4eb560e01b81528590fd5b855163df7f453b60e01b815233898201529250829060249082905afa9081156106d9575f916114cc575b5015845f611358565b6114e39150853d87116106d2576106c48183611cf2565b5f6114c3565b50508351633e460e1560e21b815233878201528581602481855afa908115610734579086915f9161151b575b50611350565b6115329150823d84116106d2576106c48183611cf2565b5f611515565b5090346102ff575f3660031901126102ff5760ff60035460081c16905190600381101561156757602092508152f35b602183634e487b7160e01b5f525260245ffd5b82346102ff575f3660031901126102ff576020906007549051908152f35b82346102ff575f3660031901126102ff576020906005549051908152f35b5090346102ff575f3660031901126102ff575f546001600160a01b037f00000000000000000000000000000000000000000000000000000000000000008116911633148061177f575b159081611721575b506117145760039081549160ff8360081c16818110156116e15760018114611704576002146116f45760ff831692848410156116e1578184146116c5576001840160ff81116116b25760ff1694808610156102a05750849060ff1916179055513381527fb08bfe79d11e67f65c878f279728c4d53fc5dfc3373a20958345fcad3750953e60207f000000000000000000000000000000000000000000000000000000000000000092a4005b601186634e487b7160e01b5f525260245ffd5b60448583808651926335c1372560e01b84528301526024820152fd5b602185634e487b7160e01b5f525260245ffd5b815163214dacf960e11b81528490fd5b82516327c0e7b560e01b81528590fd5b5163ea8e4eb560e01b8152fd5b825163df7f453b60e01b815233858201529150602090829060249082905afa908115611775575f91611756575b50155f611607565b61176f915060203d6020116106d2576106c48183611cf2565b5f61174e565b82513d5f823e3d90fd5b508151633e460e1560e21b81523384820152602081602481855afa9081156117cd575f916117ae575b506115ff565b6117c7915060203d6020116106d2576106c48183611cf2565b5f6117a8565b83513d5f823e3d90fd5b82346102ff575f3660031901126102ff576020906006549051908152f35b5090346102ff5760603660031901126102ff5767ffffffffffffffff82358181116102ff576118279036908501611d90565b91906024358281116102ff576118409036908701611d90565b9190956044359360018060a01b038086168096036102ff577f0000000000000000000000000000000000000000000000000000000000000000163303611be057611888611e22565b828110156115675780611bbe5750808611611bab576001916118aa8354611cba565b91601f92838111611b49575b50875f848211600114611ac9575f91611abe575b505f1960038a901b1c191688851b1784555b8511611aab57506118ee600254611cba565b818111611a48575b505f90841160011461199f577f4f86676f84ed8c8823cd1b5c0682bdfc9263d14d9879cd7609262de9f280002b9697928480611968969461195a945f93611994575b501b905f198560031b1c1916176002555b885196606088526060880191611dea565b918583036020870152611dea565b93820152807f0000000000000000000000000000000000000000000000000000000000000000930390a2005b87013592505f611938565b601f1984169060025f527f405787fa12a823e0f2b7631cc41b3ba8828b3321ca811111fa75cd3aa3bb5ace915f5b818110611a3257509261195a927f4f86676f84ed8c8823cd1b5c0682bdfc9263d14d9879cd7609262de9f280002b999a959287611968989610611a19575b505083811b01600255611949565b8601355f19600387901b60f8161c191690555f80611a0b565b8a830135845592840192602092830192016119cd565b60025f527f405787fa12a823e0f2b7631cc41b3ba8828b3321ca811111fa75cd3aa3bb5ace8280870160051c82019260208810611aa2575b0160051c019083905b828110611a975750506118f6565b5f8155018390611a89565b92508192611a80565b604190634e487b7160e01b5f525260245ffd5b90508501355f6118ca565b5f8681527fb10e2d527612073b26eecdfd717e6a320cf44b4afac2b0732d9fcbe2b7fa0cf692508a90601f198216905b88828210611b3057505010611b17575b50508388811b0184556118dc565b8601355f1960038b901b60f8161c191690555f80611b09565b8a8501358655909401936020938401938d935001611af9565b845f527fb10e2d527612073b26eecdfd717e6a320cf44b4afac2b0732d9fcbe2b7fa0cf684808b0160051c82019260208c10611ba2575b0160051c019085905b828110611b975750506118b6565b5f8155018590611b89565b92508192611b80565b604182634e487b7160e01b5f525260245ffd5b87516305fb5e1b60e01b81525f81850152604491610625906024830190611d6f565b508551633217675b60e21b8152fd5b82346102ff575f3660031901126102ff576020906107de60ff6003541691518092611d6f565b8390346102ff575f3660031901126102ff575f600254611c3481611cba565b808452906020906001908181169081156111715750600114611c6157611114858761110a82880383611cf2565b60025f90815293507f405787fa12a823e0f2b7631cc41b3ba8828b3321ca811111fa75cd3aa3bb5ace5b838510611ca75750505050810160200161110a826111146110f9565b8054868601840152938201938101611c8b565b90600182811c92168015611ce8575b6020831014611cd457565b634e487b7160e01b5f52602260045260245ffd5b91607f1691611cc9565b90601f8019910116810190811067ffffffffffffffff821117611d1457604052565b634e487b7160e01b5f52604160045260245ffd5b602080825282518183018190529093925f5b828110611d5b57505060409293505f838284010152601f8019910116010190565b818101860151848201604001528501611d3a565b906004821015611d7c5752565b634e487b7160e01b5f52602160045260245ffd5b9181601f840112156102ff5782359167ffffffffffffffff83116102ff57602083818601950101116102ff57565b600435906001600160a01b03821682036102ff57565b602435906001600160a01b03821682036102ff57565b908060209392818452848401375f828201840152601f01601f1916010190565b908160209103126102ff575180151581036102ff5790565b6004548015611e71574210611e57576005544210611e6c57600754421080611e60575b611e5b576006544210611e5757600390565b5f90565b600290565b50600654421015611e45565b600190565b5060ff6003541690565b90916001600160a01b0390911690811561204157815f5260206008815260409160ff835f2054161561203057835f526009825260ff835f2054161561201f57835f52600a825260ff835f20541661200e5784158015611fe5575b611fd45782519082820190868252848301528460608301523060808301524660a083015260a0825260c082019180831067ffffffffffffffff841117611d1457828552519020845f52600b8352835f205403611fc55750825f52600a8152815f20600160ff19825416179055835f52600c8152815f2090815460018101809111611fb1577f63ab6e5dc98a7d72f7b887b4479c584f5d1cc5e644f8b756c1213bc8e32f4f429255845f52600c8152825f205492519283527f000000000000000000000000000000000000000000000000000000000000000092a4565b634e487b7160e01b5f52601160045260245ffd5b635054097b60e01b8152600490fd5b825163e66ea08f60e01b8152600490fd5b507f00000000000000000000000000000000000000000000000000000000000000008511611ed5565b825163a89ac15160e01b8152600490fd5b8251631918952960e01b8152600490fd5b825163aba4733960e01b8152600490fd5b6040516311745b2b60e31b8152600490fdfea264697066735822122060a4a848b363196527fef2d6ff6cdaad8dc93c58310443af86a99a743d74ba2b64736f6c63430008180033405787fa12a823e0f2b7631cc41b3ba8828b3321ca811111fa75cd3aa3bb5aceb10e2d527612073b26eecdfd717e6a320cf44b4afac2b0732d9fcbe2b7fa0cf6",
    "linkReferences": {}
  },
  "methodIdentifiers": {
    "candidateCount()": "a9a981a3",
    "commitEndsAt()": "1dcf2e39",
    "commitStartsAt()": "f826fee8",
    "commitVote(bytes32)": "3e858923",
    "commitmentOf(address)": "f662b881",
    "currentPhase()": "055ad42e",
    "getResult(uint256)": "995e4339",
    "hasCommitted(address)": "c6dbe15a",
    "hasRevealed(address)": "b9a53013",
    "isWhitelisted(address)": "3af32abf",
    "metadataURI()": "03ee438c",
    "phase()": "b1c9fe6e",
    "registerVoter(address)": "38db6dd3",
    "registerVoters(address[])": "d55ec9c1",
    "registry()": "7b103999",
    "revealEndsAt()": "1e8f0489",
    "revealFor(address,uint256,bytes32)": "5688e299",
    "revealStartsAt()": "0e866fa5",
    "revealVote(uint256,bytes32)": "69edbcda",
    "setPhaseSchedule(uint256,uint256,uint256,uint256)": "4d35574f",
    "setSuspended(bool,address,string)": "fdbf64c2",
    "spaceAdmin()": "7a967cd3",
    "spaceId()": "6bf2ffa1",
    "status()": "200d2ed2",
    "terminate(address,string)": "534e0e9e",
    "title()": "4a79d50c",
    "transferSpaceAdmin(address,address,string)": "e2a89c4a",
    "transitionToNextPhase()": "0f8779c6",
    "unregisterVoter(address)": "7ed17751",
    "updateMetadata(string,string,address)": "07b63c29",
    "voteCount(uint256)": "4fc8a20d"
  },
  "id": 21
}