{"abi":[{"type":"constructor","inputs":[],"stateMutability":"nonpayable"},{"type":"function","name":"createElectionFromProposal","inputs":[{"name":"proposalId","type":"uint256","internalType":"uint256"}],"outputs":[{"name":"spaceId","type":"uint256","internalType":"uint256"},{"name":"spaceAddress","type":"address","internalType":"address"}],"stateMutability":"nonpayable"},{"type":"function","name":"isPlatformAdmin","inputs":[{"name":"","type":"address","internalType":"address"}],"outputs":[{"name":"","type":"bool","internalType":"bool"}],"stateMutability":"view"},{"type":"function","name":"isSuperAdmin","inputs":[{"name":"account","type":"address","internalType":"address"}],"outputs":[{"name":"","type":"bool","internalType":"bool"}],"stateMutability":"view"},{"type":"function","name":"nextProposalId","inputs":[],"outputs":[{"name":"","type":"uint256","internalType":"uint256"}],"stateMutability":"view"},{"type":"function","name":"nextSpaceId","inputs":[],"outputs":[{"name":"","type":"uint256","internalType":"uint256"}],"stateMutability":"view"},{"type":"function","name":"proposals","inputs":[{"name":"","type":"uint256","internalType":"uint256"}],"outputs":[{"name":"proposer","type":"address","internalType":"address"},{"name":"candidateCount","type":"uint256","internalType":"uint256"},{"name":"status","type":"uint8","internalType":"enum VoteChainRegistry.ProposalStatus"},{"name":"title","type":"string","internalType":"string"},{"name":"metadataURI","type":"string","internalType":"string"},{"name":"reviewer","type":"address","internalType":"address"},{"name":"reviewedAt","type":"uint256","internalType":"uint256"}],"stateMutability":"view"},{"type":"function","name":"reviewProposal","inputs":[{"name":"proposalId","type":"uint256","internalType":"uint256"},{"name":"approve","type":"bool","internalType":"bool"}],"outputs":[],"stateMutability":"nonpayable"},{"type":"function","name":"setAdmin","inputs":[{"name":"admin","type":"address","internalType":"address"},{"name":"isActive","type":"bool","internalType":"bool"}],"outputs":[],"stateMutability":"nonpayable"},{"type":"function","name":"spaceById","inputs":[{"name":"","type":"uint256","internalType":"uint256"}],"outputs":[{"name":"","type":"address","internalType":"address"}],"stateMutability":"view"},{"type":"function","name":"submitProposal","inputs":[{"name":"title","type":"string","internalType":"string"},{"name":"metadataURI","type":"string","internalType":"string"},{"name":"candidateCount","type":"uint256","internalType":"uint256"}],"outputs":[{"name":"proposalId","type":"uint256","internalType":"uint256"}],"stateMutability":"nonpayable"},{"type":"function","name":"superAdmin","inputs":[],"outputs":[{"name":"","type":"address","internalType":"address"}],"stateMutability":"view"},{"type":"function","name":"suspendSpace","inputs":[{"name":"spaceId","type":"uint256","internalType":"uint256"},{"name":"reasonCode","type":"string","internalType":"string"}],"outputs":[],"stateMutability":"nonpayable"},{"type":"function","name":"terminateSpace","inputs":[{"name":"spaceId","type":"uint256","internalType":"uint256"},{"name":"reasonCode","type":"string","internalType":"string"}],"outputs":[],"stateMutability":"nonpayable"},{"type":"function","name":"unsuspendSpace","inputs":[{"name":"spaceId","type":"uint256","internalType":"uint256"},{"name":"reasonCode","type":"string","internalType":"string"}],"outputs":[],"stateMutability":"nonpayable"},{"type":"event","name":"AdminUpserted","inputs":[{"name":"admin","type":"address","indexed":true,"internalType":"address"},{"name":"isActive","type":"bool","indexed":false,"internalType":"bool"}],"anonymous":false},{"type":"event","name":"ElectionSpaceCreated","inputs":[{"name":"spaceId","type":"uint256","indexed":true,"internalType":"uint256"},{"name":"space","type":"address","indexed":true,"internalType":"address"},{"name":"proposalId","type":"uint256","indexed":true,"internalType":"uint256"},{"name":"owner","type":"address","indexed":false,"internalType":"address"},{"name":"candidateCount","type":"uint256","indexed":false,"internalType":"uint256"}],"anonymous":false},{"type":"event","name":"ProposalReviewed","inputs":[{"name":"proposalId","type":"uint256","indexed":true,"internalType":"uint256"},{"name":"decision","type":"uint8","indexed":true,"internalType":"enum VoteChainRegistry.ProposalStatus"},{"name":"reviewer","type":"address","indexed":true,"internalType":"address"}],"anonymous":false},{"type":"event","name":"ProposalSubmitted","inputs":[{"name":"proposalId","type":"uint256","indexed":true,"internalType":"uint256"},{"name":"proposer","type":"address","indexed":true,"internalType":"address"},{"name":"candidateCount","type":"uint256","indexed":false,"internalType":"uint256"}],"anonymous":false},{"type":"error","name":"InvalidAdmin","inputs":[]},{"type":"error","name":"InvalidCandidateCount","inputs":[]},{"type":"error","name":"InvalidProposalStatus","inputs":[{"name":"current","type":"uint8","internalType":"enum VoteChainRegistry.ProposalStatus"},{"name":"expected","type":"uint8","internalType":"enum VoteChainRegistry.ProposalStatus"}]},{"type":"error","name":"NotPlatformAdmin","inputs":[]},{"type":"error","name":"NotProposalOwner","inputs":[]},{"type":"error","name":"NotSuperAdmin","inputs":[]},{"type":"error","name":"ProposalNotFound","inputs":[]},{"type":"error","name":"SpaceNotFound","inputs":[]}],"bytecode":{"object":"0x60a060405260015f5560018055348015610017575f80fd5b50336080526080516126fd61006c5f395f818161011d0152818161020601528181610420015281816104ee015281816105d2015281816106800152818161074a01528181610a040152610b6401526126fd5ff3fe608060405234801561000f575f80fd5b50600436106100e5575f3560e01c806384aa616911610088578063e565e66111610063578063e565e66114610246578063ec6b498b1461024f578063f13c71581461027f578063f918385414610292575f80fd5b806384aa6169146101d0578063ba8554c7146101e3578063df7f453b146101f6575f80fd5b80634b0bddd2116100c35780634b0bddd21461016d57806356b5f8ee1461018257806370de50a21461019557806380cd7f2a146101bd575f80fd5b8063013cf08b146100e957806329575f6a146101185780632ab09d1414610157575b5f80fd5b6100fc6100f7366004610cbf565b6102b4565b60405161010f9796959493929190610d4d565b60405180910390f35b61013f7f000000000000000000000000000000000000000000000000000000000000000081565b6040516001600160a01b03909116815260200161010f565b61015f5f5481565b60405190815260200161010f565b61018061017b366004610dd8565b610415565b005b610180610190366004610e4e565b6104e3565b61013f6101a3366004610cbf565b60046020525f90815260409020546001600160a01b031681565b6101806101cb366004610e4e565b6105c7565b6101806101de366004610e4e565b610675565b61015f6101f1366004610e96565b610725565b610236610204366004610f04565b7f00000000000000000000000000000000000000000000000000000000000000006001600160a01b0390811691161490565b604051901515815260200161010f565b61015f60015481565b61026261025d366004610cbf565b61095e565b604080519283526001600160a01b0390911660208301520161010f565b61018061028d366004610f24565b610b59565b6102366102a0366004610f04565b60026020525f908152604090205460ff1681565b600360208190525f918252604090912080546001820154600283015493830180546001600160a01b0390931694919360ff909216926102f290610f45565b80601f016020809104026020016040519081016040528092919081815260200182805461031e90610f45565b80156103695780601f1061034057610100808354040283529160200191610369565b820191905f5260205f20905b81548152906001019060200180831161034c57829003601f168201915b50505050509080600401805461037e90610f45565b80601f01602080910402602001604051908101604052809291908181526020018280546103aa90610f45565b80156103f55780601f106103cc576101008083540402835291602001916103f5565b820191905f5260205f20905b8154815290600101906020018083116103d857829003601f168201915b50505050600583015460069093015491926001600160a01b031691905087565b336001600160a01b037f0000000000000000000000000000000000000000000000000000000000000000161461045e576040516316c726b160e01b815260040160405180910390fd5b6001600160a01b03821661048557604051630b5eba9f60e41b815260040160405180910390fd5b6001600160a01b0382165f81815260026020908152604091829020805460ff191685151590811790915591519182527fde2ec5a61cb25575c35ed8c41a10938fdf23711909527a1abac273444cf21e75910160405180910390a25050565b336001600160a01b037f0000000000000000000000000000000000000000000000000000000000000000161461052c576040516316c726b160e01b815260040160405180910390fd5b5f838152600460205260409020546001600160a01b03168061056157604051636255b06960e01b815260040160405180910390fd5b604051637edfb26160e11b81526001600160a01b0382169063fdbf64c29061059490600190339088908890600401610fa5565b5f604051808303815f87803b1580156105ab575f80fd5b505af11580156105bd573d5f803e3d5ffd5b5050505050505050565b336001600160a01b037f00000000000000000000000000000000000000000000000000000000000000001614610610576040516316c726b160e01b815260040160405180910390fd5b5f838152600460205260409020546001600160a01b03168061064557604051636255b06960e01b815260040160405180910390fd5b6040516329a7074f60e11b81526001600160a01b0382169063534e0e9e9061059490339087908790600401610fdb565b336001600160a01b037f000000000000000000000000000000000000000000000000000000000000000016146106be576040516316c726b160e01b815260040160405180910390fd5b5f838152600460205260409020546001600160a01b0316806106f357604051636255b06960e01b815260040160405180910390fd5b604051637edfb26160e11b81526001600160a01b0382169063fdbf64c290610594905f90339088908890600401610fa5565b335f9081526002602052604081205460ff1615801561076d5750336001600160a01b037f00000000000000000000000000000000000000000000000000000000000000001614155b1561078b5760405163d4d7478360e01b815260040160405180910390fd5b815f036107ab57604051632853b25560e01b815260040160405180910390fd5b505f805490600190806107be8385611008565b90915550506040805160e081018252338152602081018490529081015f815260200187878080601f0160208091040260200160405190810160405280939291908181526020018383808284375f92019190915250505090825250604080516020601f8801819004810282018101909252868152918101919087908790819084018382808284375f92018290525093855250505060208083018290526040928301829052848252600380825291839020845181546001600160a01b0319166001600160a01b03909116178155908401516001808301919091559284015160028201805492949193909260ff1916919084908111156108bd576108bd610cd6565b0217905550606082015160038201906108d6908261108d565b50608082015160048201906108eb908261108d565b5060a08201516005820180546001600160a01b0319166001600160a01b0390921691909117905560c090910151600690910155604051828152339082907f6595205dae276ce902b2ea66a70a1f42db62056854c3c4dba1e00ec5e2d56e3d9060200160405180910390a395945050505050565b5f81815260036020526040812080548291906001600160a01b03166109965760405163635e873760e01b815260040160405180910390fd5b6001600282015460ff1660038111156109b1576109b1610cd6565b146109e4576002810154604051633233a43d60e21b81526109db9160ff169060019060040161114d565b60405180910390fd5b80546001600160a01b03163314801590610a275750336001600160a01b037f00000000000000000000000000000000000000000000000000000000000000001614155b15610a455760405163287a405960e01b815260040160405180910390fd5b600180549350805f610a578287611008565b9091555050805460018201546040515f9230926001600160a01b0390911691879190610a8290610cb1565b6001600160a01b03948516815293909216602084015260408301526060820152608001604051809103905ff080158015610abe573d5f803e3d5ffd5b505f85815260046020526040902080546001600160a01b0319166001600160a01b03831617905560028301805491945084925060039160ff1916600183021790555081546001830154604080516001600160a01b0393841681526020810192909252879286169187917f6d01a0c816e379a259b63ac8da3edf1179b0db179da21d6ae21999dc0ec0f15e910160405180910390a45050915091565b336001600160a01b037f00000000000000000000000000000000000000000000000000000000000000001614610ba2576040516316c726b160e01b815260040160405180910390fd5b5f82815260036020526040902080546001600160a01b0316610bd75760405163635e873760e01b815260040160405180910390fd5b5f600282015460ff166003811115610bf157610bf1610cd6565b14610c1a576002810154604051633233a43d60e21b81526109db9160ff16905f9060040161114d565b81610c26576002610c29565b60015b60028201805460ff19166001836003811115610c4757610c47610cd6565b02179055506005810180546001600160a01b03191633908117909155426006830155600282015460ff166003811115610c8257610c82610cd6565b60405185907fef0d88bbaeb4891d8e9303afd9d553f2807df5898cedf46c37ec9feba34741d3905f90a4505050565b61155f806200116983390190565b5f60208284031215610ccf575f80fd5b5035919050565b634e487b7160e01b5f52602160045260245ffd5b60048110610d0657634e487b7160e01b5f52602160045260245ffd5b9052565b5f81518084525f5b81811015610d2e57602081850181015186830182015201610d12565b505f602082860101526020601f19601f83011685010191505092915050565b6001600160a01b038881168252602082018890525f90610d706040840189610cea565b60e06060840152610d8460e0840188610d0a565b8381036080850152610d968188610d0a565b9590911660a0840152505060c0015295945050505050565b80356001600160a01b0381168114610dc4575f80fd5b919050565b80358015158114610dc4575f80fd5b5f8060408385031215610de9575f80fd5b610df283610dae565b9150610e0060208401610dc9565b90509250929050565b5f8083601f840112610e19575f80fd5b50813567ffffffffffffffff811115610e30575f80fd5b602083019150836020828501011115610e47575f80fd5b9250929050565b5f805f60408486031215610e60575f80fd5b83359250602084013567ffffffffffffffff811115610e7d575f80fd5b610e8986828701610e09565b9497909650939450505050565b5f805f805f60608688031215610eaa575f80fd5b853567ffffffffffffffff80821115610ec1575f80fd5b610ecd89838a01610e09565b90975095506020880135915080821115610ee5575f80fd5b50610ef288828901610e09565b96999598509660400135949350505050565b5f60208284031215610f14575f80fd5b610f1d82610dae565b9392505050565b5f8060408385031215610f35575f80fd5b82359150610e0060208401610dc9565b600181811c90821680610f5957607f821691505b602082108103610f7757634e487b7160e01b5f52602260045260245ffd5b50919050565b81835281816020850137505f828201602090810191909152601f909101601f19169091010190565b84151581526001600160a01b03841660208201526060604082018190525f90610fd19083018486610f7d565b9695505050505050565b6001600160a01b03841681526040602082018190525f90610fff9083018486610f7d565b95945050505050565b8082018082111561102757634e487b7160e01b5f52601160045260245ffd5b92915050565b634e487b7160e01b5f52604160045260245ffd5b601f82111561108857805f5260205f20601f840160051c810160208510156110665750805b601f840160051c820191505b81811015611085575f8155600101611072565b50505b505050565b815167ffffffffffffffff8111156110a7576110a761102d565b6110bb816110b58454610f45565b84611041565b602080601f8311600181146110ee575f84156110d75750858301515b5f19600386901b1c1916600185901b178555611145565b5f85815260208120601f198616915b8281101561111c578886015182559484019460019091019084016110fd565b508582101561113957878501515f19600388901b60f8161c191681555b505060018460011b0185555b505050505050565b6040810161115b8285610cea565b610f1d6020830184610cea56fe61010060405234801562000011575f80fd5b506040516200155f3803806200155f8339810160408190526200003491620000dc565b6001600160a01b03841615806200005257506001600160a01b038316155b15620000715760405163ea8e4eb560e01b815260040160405180910390fd5b805f03620000925760405163e66ea08f60e01b815260040160405180910390fd5b6001600160a01b039384166080529190921660a05260c09190915260e0525f805461ffff1916905562000121565b80516001600160a01b0381168114620000d7575f80fd5b919050565b5f805f8060808587031215620000f0575f80fd5b620000fb85620000c0565b93506200010b60208601620000c0565b6040860151606090960151949790965092505050565b60805160a05160c05160e051611393620001cc5f395f81816102cd01528181610bcf0152610f6f01525f818161021a0152818161057f015281816107c90152818161095c01528181610a2301528181610cbe01528181610edb015261109e01525f818161024101528181610370015281816105da0152610d2501525f8181610280015281816103ae01528181610618015281816109af01528181610d630152610fcd01526113935ff3fe608060405234801561000f575f80fd5b506004361061011c575f3560e01c80636bf2ffa1116100a9578063a9a981a31161006e578063a9a981a3146102c8578063b9a53013146102ef578063c6dbe15a14610311578063f662b88114610333578063fdbf64c214610352575f80fd5b80636bf2ffa1146102155780637a967cd31461023c5780637b1039991461027b5780637ed17751146102a2578063995e4339146102b5575f80fd5b80633af32abf116100ef5780633af32abf1461017d5780633e858923146101af5780634fc8a20d146101c2578063534e0e9e146101ef57806369edbcda14610202575f80fd5b8063055ad42e146101205780630f8779c614610142578063200d2ed21461014c57806338db6dd31461016a575b5f80fd5b5f5461012c9060ff1681565b6040516101399190611116565b60405180910390f35b61014a610365565b005b5f5461015d90610100900460ff1681565b604051610139919061112a565b61014a61017836600461115f565b6105cf565b61019f61018b36600461115f565b60016020525f908152604090205460ff1681565b6040519015158152602001610139565b61014a6101bd36600461117f565b610819565b6101e16101d036600461117f565b60056020525f908152604090205481565b604051908152602001610139565b61014a6101fd3660046111db565b6109a4565b61014a61021036600461122a565b610a80565b6101e17f000000000000000000000000000000000000000000000000000000000000000081565b6102637f000000000000000000000000000000000000000000000000000000000000000081565b6040516001600160a01b039091168152602001610139565b6102637f000000000000000000000000000000000000000000000000000000000000000081565b61014a6102b036600461115f565b610d1a565b6101e16102c336600461117f565b610f23565b6101e17f000000000000000000000000000000000000000000000000000000000000000081565b61019f6102fd36600461115f565b60036020525f908152604090205460ff1681565b61019f61031f36600461115f565b60026020525f908152604090205460ff1681565b6101e161034136600461115f565b60046020525f908152604090205481565b61014a61036036600461125a565b610fc2565b336001600160a01b037f00000000000000000000000000000000000000000000000000000000000000001614801590610421575060405163df7f453b60e01b81523360048201527f00000000000000000000000000000000000000000000000000000000000000006001600160a01b03169063df7f453b90602401602060405180830381865afa1580156103fb573d5f803e3d5ffd5b505050506040513d601f19601f8201168201806040525081019061041f91906112b9565b155b1561043f5760405163ea8e4eb560e01b815260040160405180910390fd5b60015f54610100900460ff16600281111561045c5761045c6110ee565b0361047a576040516327c0e7b560e01b815260040160405180910390fd5b60025f54610100900460ff166002811115610497576104976110ee565b036104b55760405163214dacf960e11b815260040160405180910390fd5b60035f5460ff1660038111156104cd576104cd6110ee565b036104f9576003806040516335c1372560e01b81526004016104f09291906112d4565b60405180910390fd5b5f5460ff16806003811115610510576105106110ee565b61051b906001611303565b60ff16600381111561052f5761052f6110ee565b5f805460ff1916600183600381111561054a5761054a6110ee565b02179055505f5460ff166003811115610565576105656110ee565b816003811115610577576105776110ee565b6040513381527f0000000000000000000000000000000000000000000000000000000000000000907fb08bfe79d11e67f65c878f279728c4d53fc5dfc3373a20958345fcad3750953e9060200160405180910390a450565b336001600160a01b037f0000000000000000000000000000000000000000000000000000000000000000161480159061068b575060405163df7f453b60e01b81523360048201527f00000000000000000000000000000000000000000000000000000000000000006001600160a01b03169063df7f453b90602401602060405180830381865afa158015610665573d5f803e3d5ffd5b505050506040513d601f19601f8201168201806040525081019061068991906112b9565b155b156106a95760405163ea8e4eb560e01b815260040160405180910390fd5b60015f54610100900460ff1660028111156106c6576106c66110ee565b036106e4576040516327c0e7b560e01b815260040160405180910390fd5b60025f54610100900460ff166002811115610701576107016110ee565b0361071f5760405163214dacf960e11b815260040160405180910390fd5b5f805f5460ff166003811115610737576107376110ee565b1461075f575f546040516305fb5e1b60e01b81526104f091839160ff909116906004016112d4565b6001600160a01b0382165f9081526001602052604090205460ff161561079857604051630ea075bf60e21b815260040160405180910390fd5b6001600160a01b0382165f81815260016020818152604092839020805460ff191683179055825191825233908201527f0000000000000000000000000000000000000000000000000000000000000000917f5b551e9aea49b0b85a31d13fd569c911ded7781feaae60c3603e3a968b05fc1391015b60405180910390a35050565b335f9081526001602052604090205460ff166108485760405163aba4733960e01b815260040160405180910390fd5b60015f54610100900460ff166002811115610865576108656110ee565b03610883576040516327c0e7b560e01b815260040160405180910390fd5b60025f54610100900460ff1660028111156108a0576108a06110ee565b036108be5760405163214dacf960e11b815260040160405180910390fd5b6001805f5460ff1660038111156108d7576108d76110ee565b146108ff575f546040516305fb5e1b60e01b81526104f091839160ff909116906004016112d4565b335f9081526002602052604090205460ff161561092f576040516317fd8aab60e31b815260040160405180910390fd5b335f818152600260209081526040808320805460ff191660011790556004909152808220859055518492917f0000000000000000000000000000000000000000000000000000000000000000917f26a454697a4923cb3646779d831b5e4696bd3fab14b67dd6dfe23d72354f57dd9190a45050565b336001600160a01b037f000000000000000000000000000000000000000000000000000000000000000016146109ed57604051633217675b60e21b815260040160405180910390fd5b5f805461ff00191661020017908190556001600160a01b03841690610100900460ff166002811115610a2157610a216110ee565b7f00000000000000000000000000000000000000000000000000000000000000007f7bf94aa98e004220f19fb43e7d8d6dabd2c23e3fadc2908d16dd25f52cd1c43b8585604051610a7392919061131c565b60405180910390a4505050565b335f9081526001602052604090205460ff16610aaf5760405163aba4733960e01b815260040160405180910390fd5b60015f54610100900460ff166002811115610acc57610acc6110ee565b03610aea576040516327c0e7b560e01b815260040160405180910390fd5b60025f54610100900460ff166002811115610b0757610b076110ee565b03610b255760405163214dacf960e11b815260040160405180910390fd5b6002805f5460ff166003811115610b3e57610b3e6110ee565b14610b66575f546040516305fb5e1b60e01b81526104f091839160ff909116906004016112d4565b335f9081526002602052604090205460ff16610b9557604051631918952960e01b815260040160405180910390fd5b335f9081526003602052604090205460ff1615610bc55760405163a89ac15160e01b815260040160405180910390fd5b821580610bf157507f000000000000000000000000000000000000000000000000000000000000000083115b15610c0f5760405163e66ea08f60e01b815260040160405180910390fd5b60408051602080820186905281830185905282518083038401815260609092018352815191810191909120335f9081526004909252919020548114610c6757604051635054097b60e01b815260040160405180910390fd5b335f908152600360209081526040808320805460ff1916600190811790915587845260059092528220805491929091610ca190849061134a565b90915550505f8481526005602052604090819020549051859133917f0000000000000000000000000000000000000000000000000000000000000000917f63ab6e5dc98a7d72f7b887b4479c584f5d1cc5e644f8b756c1213bc8e32f4f4291610d0c91815260200190565b60405180910390a450505050565b336001600160a01b037f00000000000000000000000000000000000000000000000000000000000000001614801590610dd6575060405163df7f453b60e01b81523360048201527f00000000000000000000000000000000000000000000000000000000000000006001600160a01b03169063df7f453b90602401602060405180830381865afa158015610db0573d5f803e3d5ffd5b505050506040513d601f19601f82011682018060405250810190610dd491906112b9565b155b15610df45760405163ea8e4eb560e01b815260040160405180910390fd5b60015f54610100900460ff166002811115610e1157610e116110ee565b03610e2f576040516327c0e7b560e01b815260040160405180910390fd5b60025f54610100900460ff166002811115610e4c57610e4c6110ee565b03610e6a5760405163214dacf960e11b815260040160405180910390fd5b5f805f5460ff166003811115610e8257610e826110ee565b14610eaa575f546040516305fb5e1b60e01b81526104f091839160ff909116906004016112d4565b6001600160a01b0382165f818152600160209081526040808320805460ff19169055805192835233918301919091527f0000000000000000000000000000000000000000000000000000000000000000917f5b551e9aea49b0b85a31d13fd569c911ded7781feaae60c3603e3a968b05fc13910161080d565b5f6003805f5460ff166003811115610f3d57610f3d6110ee565b14610f65575f546040516305fb5e1b60e01b81526104f091839160ff909116906004016112d4565b821580610f9157507f000000000000000000000000000000000000000000000000000000000000000083115b15610faf5760405163e66ea08f60e01b815260040160405180910390fd5b50505f9081526005602052604090205490565b336001600160a01b037f0000000000000000000000000000000000000000000000000000000000000000161461100b57604051633217675b60e21b815260040160405180910390fd5b60025f54610100900460ff166002811115611028576110286110ee565b036110465760405163214dacf960e11b815260040160405180910390fd5b83611051575f611054565b60015b5f805461ff001916610100836002811115611071576110716110ee565b02179055505f546001600160a01b03841690610100900460ff16600281111561109c5761109c6110ee565b7f00000000000000000000000000000000000000000000000000000000000000007f7bf94aa98e004220f19fb43e7d8d6dabd2c23e3fadc2908d16dd25f52cd1c43b8585604051610d0c92919061131c565b634e487b7160e01b5f52602160045260245ffd5b60048110611112576111126110ee565b9052565b602081016111248284611102565b92915050565b602081016003831061113e5761113e6110ee565b91905290565b80356001600160a01b038116811461115a575f80fd5b919050565b5f6020828403121561116f575f80fd5b61117882611144565b9392505050565b5f6020828403121561118f575f80fd5b5035919050565b5f8083601f8401126111a6575f80fd5b50813567ffffffffffffffff8111156111bd575f80fd5b6020830191508360208285010111156111d4575f80fd5b9250929050565b5f805f604084860312156111ed575f80fd5b6111f684611144565b9250602084013567ffffffffffffffff811115611211575f80fd5b61121d86828701611196565b9497909650939450505050565b5f806040838503121561123b575f80fd5b50508035926020909101359150565b8015158114611257575f80fd5b50565b5f805f806060858703121561126d575f80fd5b84356112788161124a565b935061128660208601611144565b9250604085013567ffffffffffffffff8111156112a1575f80fd5b6112ad87828801611196565b95989497509550505050565b5f602082840312156112c9575f80fd5b81516111788161124a565b604081016112e28285611102565b6111786020830184611102565b634e487b7160e01b5f52601160045260245ffd5b60ff8181168382160190811115611124576111246112ef565b60208152816020820152818360408301375f818301604090810191909152601f909201601f19160101919050565b80820180821115611124576111246112ef56fea26469706673582212200c05f8f54c1d5c36a5bdcd17a19777e570c634bb6e48e7014dd78dd0cd1ea28364736f6c63430008180033a2646970667358221220f3124326c868627ab1678456de57ef4274f7f590c1fd5f110a235fb38da4295564736f6c63430008180033","linkReferences":{}},"methodIdentifiers":{"createElectionFromProposal(uint256)":"ec6b498b","isPlatformAdmin(address)":"f9183854","isSuperAdmin(address)":"df7f453b","nextProposalId()":"2ab09d14","nextSpaceId()":"e565e661","proposals(uint256)":"013cf08b","reviewProposal(uint256,bool)":"f13c7158","setAdmin(address,bool)":"4b0bddd2","spaceById(uint256)":"70de50a2","submitProposal(string,string,uint256)":"ba8554c7","superAdmin()":"29575f6a","suspendSpace(uint256,string)":"56b5f8ee","terminateSpace(uint256,string)":"80cd7f2a","unsuspendSpace(uint256,string)":"84aa6169"},"id":1}