{"abi":[{"type":"constructor","inputs":[{"name":"_registry","type":"address","internalType":"address"},{"name":"_spaceAdmin","type":"address","internalType":"address"},{"name":"_spaceId","type":"uint256","internalType":"uint256"},{"name":"_candidateCount","type":"uint256","internalType":"uint256"},{"name":"_title","type":"string","internalType":"string"},{"name":"_metadataURI","type":"string","internalType":"string"}],"stateMutability":"nonpayable"},{"type":"function","name":"candidateCount","inputs":[],"outputs":[{"name":"","type":"uint256","internalType":"uint256"}],"stateMutability":"view"},{"type":"function","name":"commitVote","inputs":[{"name":"commitment","type":"bytes32","internalType":"bytes32"}],"outputs":[],"stateMutability":"nonpayable"},{"type":"function","name":"commitmentOf","inputs":[{"name":"","type":"address","internalType":"address"}],"outputs":[{"name":"","type":"bytes32","internalType":"bytes32"}],"stateMutability":"view"},{"type":"function","name":"currentPhase","inputs":[],"outputs":[{"name":"","type":"uint8","internalType":"enum ElectionSpace.Phase"}],"stateMutability":"view"},{"type":"function","name":"getResult","inputs":[{"name":"candidateId","type":"uint256","internalType":"uint256"}],"outputs":[{"name":"","type":"uint256","internalType":"uint256"}],"stateMutability":"view"},{"type":"function","name":"hasCommitted","inputs":[{"name":"","type":"address","internalType":"address"}],"outputs":[{"name":"","type":"bool","internalType":"bool"}],"stateMutability":"view"},{"type":"function","name":"hasRevealed","inputs":[{"name":"","type":"address","internalType":"address"}],"outputs":[{"name":"","type":"bool","internalType":"bool"}],"stateMutability":"view"},{"type":"function","name":"isWhitelisted","inputs":[{"name":"","type":"address","internalType":"address"}],"outputs":[{"name":"","type":"bool","internalType":"bool"}],"stateMutability":"view"},{"type":"function","name":"metadataURI","inputs":[],"outputs":[{"name":"","type":"string","internalType":"string"}],"stateMutability":"view"},{"type":"function","name":"registerVoter","inputs":[{"name":"voter","type":"address","internalType":"address"}],"outputs":[],"stateMutability":"nonpayable"},{"type":"function","name":"registerVoters","inputs":[{"name":"voters","type":"address[]","internalType":"address[]"}],"outputs":[],"stateMutability":"nonpayable"},{"type":"function","name":"registry","inputs":[],"outputs":[{"name":"","type":"address","internalType":"address"}],"stateMutability":"view"},{"type":"function","name":"revealVote","inputs":[{"name":"candidateId","type":"uint256","internalType":"uint256"},{"name":"salt","type":"bytes32","internalType":"bytes32"}],"outputs":[],"stateMutability":"nonpayable"},{"type":"function","name":"setSuspended","inputs":[{"name":"suspended","type":"bool","internalType":"bool"},{"name":"actor","type":"address","internalType":"address"},{"name":"reasonCode","type":"string","internalType":"string"}],"outputs":[],"stateMutability":"nonpayable"},{"type":"function","name":"spaceAdmin","inputs":[],"outputs":[{"name":"","type":"address","internalType":"address"}],"stateMutability":"view"},{"type":"function","name":"spaceId","inputs":[],"outputs":[{"name":"","type":"uint256","internalType":"uint256"}],"stateMutability":"view"},{"type":"function","name":"status","inputs":[],"outputs":[{"name":"","type":"uint8","internalType":"enum ElectionSpace.ElectionStatus"}],"stateMutability":"view"},{"type":"function","name":"terminate","inputs":[{"name":"actor","type":"address","internalType":"address"},{"name":"reasonCode","type":"string","internalType":"string"}],"outputs":[],"stateMutability":"nonpayable"},{"type":"function","name":"title","inputs":[],"outputs":[{"name":"","type":"string","internalType":"string"}],"stateMutability":"view"},{"type":"function","name":"transitionToNextPhase","inputs":[],"outputs":[],"stateMutability":"nonpayable"},{"type":"function","name":"unregisterVoter","inputs":[{"name":"voter","type":"address","internalType":"address"}],"outputs":[],"stateMutability":"nonpayable"},{"type":"function","name":"updateMetadata","inputs":[{"name":"_title","type":"string","internalType":"string"},{"name":"_metadataURI","type":"string","internalType":"string"},{"name":"actor","type":"address","internalType":"address"}],"outputs":[],"stateMutability":"nonpayable"},{"type":"function","name":"voteCount","inputs":[{"name":"","type":"uint256","internalType":"uint256"}],"outputs":[{"name":"","type":"uint256","internalType":"uint256"}],"stateMutability":"view"},{"type":"event","name":"Committed","inputs":[{"name":"spaceId","type":"uint256","indexed":true,"internalType":"uint256"},{"name":"voter","type":"address","indexed":true,"internalType":"address"},{"name":"commitment","type":"bytes32","indexed":true,"internalType":"bytes32"}],"anonymous":false},{"type":"event","name":"ElectionMetadataUpdated","inputs":[{"name":"spaceId","type":"uint256","indexed":true,"internalType":"uint256"},{"name":"title","type":"string","indexed":false,"internalType":"string"},{"name":"metadataURI","type":"string","indexed":false,"internalType":"string"},{"name":"actor","type":"address","indexed":false,"internalType":"address"}],"anonymous":false},{"type":"event","name":"ElectionStatusChanged","inputs":[{"name":"spaceId","type":"uint256","indexed":true,"internalType":"uint256"},{"name":"status","type":"uint8","indexed":true,"internalType":"enum ElectionSpace.ElectionStatus"},{"name":"actor","type":"address","indexed":true,"internalType":"address"},{"name":"reasonCode","type":"string","indexed":false,"internalType":"string"}],"anonymous":false},{"type":"event","name":"PhaseChanged","inputs":[{"name":"spaceId","type":"uint256","indexed":true,"internalType":"uint256"},{"name":"previousPhase","type":"uint8","indexed":true,"internalType":"enum ElectionSpace.Phase"},{"name":"newPhase","type":"uint8","indexed":true,"internalType":"enum ElectionSpace.Phase"},{"name":"actor","type":"address","indexed":false,"internalType":"address"}],"anonymous":false},{"type":"event","name":"Revealed","inputs":[{"name":"spaceId","type":"uint256","indexed":true,"internalType":"uint256"},{"name":"voter","type":"address","indexed":true,"internalType":"address"},{"name":"candidateId","type":"uint256","indexed":true,"internalType":"uint256"},{"name":"newVoteCount","type":"uint256","indexed":false,"internalType":"uint256"}],"anonymous":false},{"type":"event","name":"WhitelistUpdated","inputs":[{"name":"spaceId","type":"uint256","indexed":true,"internalType":"uint256"},{"name":"voter","type":"address","indexed":true,"internalType":"address"},{"name":"isRegistered","type":"bool","indexed":false,"internalType":"bool"},{"name":"actor","type":"address","indexed":false,"internalType":"address"}],"anonymous":false},{"type":"error","name":"AlreadyCommitted","inputs":[]},{"type":"error","name":"AlreadyRegistered","inputs":[]},{"type":"error","name":"AlreadyRevealed","inputs":[]},{"type":"error","name":"CommitmentMismatch","inputs":[]},{"type":"error","name":"ElectionSuspended","inputs":[]},{"type":"error","name":"ElectionTerminated","inputs":[]},{"type":"error","name":"InvalidCandidate","inputs":[]},{"type":"error","name":"InvalidPhaseTransition","inputs":[{"name":"current","type":"uint8","internalType":"enum ElectionSpace.Phase"},{"name":"requested","type":"uint8","internalType":"enum ElectionSpace.Phase"}]},{"type":"error","name":"NotAuthorized","inputs":[]},{"type":"error","name":"NotCommittedYet","inputs":[]},{"type":"error","name":"NotRegistered","inputs":[]},{"type":"error","name":"NotRegistry","inputs":[]},{"type":"error","name":"WrongPhase","inputs":[{"name":"expected","type":"uint8","internalType":"enum ElectionSpace.Phase"},{"name":"actual","type":"uint8","internalType":"enum ElectionSpace.Phase"}]}],"bytecode":{"object":"0x61010060405234801562000011575f80fd5b5060405162001f7238038062001f728339810160408190526200003491620001c1565b6001600160a01b03861615806200005257506001600160a01b038516155b15620000715760405163ea8e4eb560e01b815260040160405180910390fd5b825f03620000925760405163e66ea08f60e01b815260040160405180910390fd5b6001600160a01b03808716608052851660a05260c084905260e08390525f620000bc8382620002e8565b506001620000cb8282620002e8565b50506002805461ffff1916905550620003b49350505050565b80516001600160a01b0381168114620000fb575f80fd5b919050565b634e487b7160e01b5f52604160045260245ffd5b5f82601f83011262000124575f80fd5b81516001600160401b038082111562000141576200014162000100565b604051601f8301601f19908116603f011681019082821181831017156200016c576200016c62000100565b816040528381526020925086602085880101111562000189575f80fd5b5f91505b83821015620001ac57858201830151818301840152908201906200018d565b5f602085830101528094505050505092915050565b5f805f805f8060c08789031215620001d7575f80fd5b620001e287620000e4565b9550620001f260208801620000e4565b6040880151606089015160808a015192975090955093506001600160401b03808211156200021e575f80fd5b6200022c8a838b0162000114565b935060a089015191508082111562000242575f80fd5b506200025189828a0162000114565b9150509295509295509295565b600181811c908216806200027357607f821691505b6020821081036200029257634e487b7160e01b5f52602260045260245ffd5b50919050565b601f821115620002e357805f5260205f20601f840160051c81016020851015620002bf5750805b601f840160051c820191505b81811015620002e0575f8155600101620002cb565b50505b505050565b81516001600160401b0381111562000304576200030462000100565b6200031c816200031584546200025e565b8462000298565b602080601f83116001811462000352575f84156200033a5750858301515b5f19600386901b1c1916600185901b178555620003ac565b5f85815260208120601f198616915b82811015620003825788860151825594840194600190910190840162000361565b5085821015620003a057878501515f19600388901b60f8161c191681555b505060018460011b0185555b505050505050565b60805160a05160c05160e051611af0620004825f395f818161032b01528181610db8015261115d01525f8181610278015281816104c80152818161074c015281816109a001528181610b3601528181610c0901528181610ea7015281816110c7015281816113d3015261150f01525f818161029f01528181610538015281816107a701528181610f0e01526111bf01525f81816102de0152818161046d01528181610576015281816107e501528181610b9501528181610f4c015281816111fd01526114390152611af05ff3fe608060405234801561000f575f80fd5b5060043610610148575f3560e01c806369edbcda116100bf578063a9a981a311610079578063a9a981a314610326578063b9a530131461034d578063c6dbe15a1461036f578063d55ec9c114610391578063f662b881146103a4578063fdbf64c2146103c3575f80fd5b806369edbcda146102605780636bf2ffa1146102735780637a967cd31461029a5780637b103999146102d95780637ed1775114610300578063995e433914610313575f80fd5b806338db6dd31161011057806338db6dd3146101c05780633af32abf146101d35780633e858923146102055780634a79d50c146102185780634fc8a20d14610220578063534e0e9e1461024d575f80fd5b806303ee438c1461014c578063055ad42e1461016a57806307b63c29146101845780630f8779c614610199578063200d2ed2146101a1575b5f80fd5b6101546103d6565b604051610161919061155f565b60405180910390f35b6002546101779060ff1681565b60405161016191906115d3565b610197610192366004611647565b610462565b005b61019761052d565b6002546101b390610100900460ff1681565b60405161016191906116c2565b6101976101ce3660046116dc565b61079c565b6101f56101e13660046116dc565b60036020525f908152604090205460ff1681565b6040519015158152602001610161565b6101976102133660046116fc565b6109f0565b610154610b7e565b61023f61022e3660046116fc565b60076020525f908152604090205481565b604051908152602001610161565b61019761025b366004611713565b610b8a565b61019761026e366004611762565b610c66565b61023f7f000000000000000000000000000000000000000000000000000000000000000081565b6102c17f000000000000000000000000000000000000000000000000000000000000000081565b6040516001600160a01b039091168152602001610161565b6102c17f000000000000000000000000000000000000000000000000000000000000000081565b61019761030e3660046116dc565b610f03565b61023f6103213660046116fc565b61110f565b61023f7f000000000000000000000000000000000000000000000000000000000000000081565b6101f561035b3660046116dc565b60056020525f908152604090205460ff1681565b6101f561037d3660046116dc565b60046020525f908152604090205460ff1681565b61019761039f366004611782565b6111b4565b61023f6103b23660046116dc565b60066020525f908152604090205481565b6101976103d1366004611801565b61142e565b600180546103e390611860565b80601f016020809104026020016040519081016040528092919081815260200182805461040f90611860565b801561045a5780601f106104315761010080835404028352916020019161045a565b820191905f5260205f20905b81548152906001019060200180831161043d57829003601f168201915b505050505081565b336001600160a01b037f000000000000000000000000000000000000000000000000000000000000000016146104ab57604051633217675b60e21b815260040160405180910390fd5b5f6104b78587836118f2565b5060016104c58385836118f2565b507f00000000000000000000000000000000000000000000000000000000000000007f4f86676f84ed8c8823cd1b5c0682bdfc9263d14d9879cd7609262de9f280002b868686868660405161051e9594939291906119d4565b60405180910390a25050505050565b336001600160a01b037f000000000000000000000000000000000000000000000000000000000000000016148015906105e9575060405163df7f453b60e01b81523360048201527f00000000000000000000000000000000000000000000000000000000000000006001600160a01b03169063df7f453b90602401602060405180830381865afa1580156105c3573d5f803e3d5ffd5b505050506040513d601f19601f820116820180604052508101906105e79190611a15565b155b156106075760405163ea8e4eb560e01b815260040160405180910390fd5b600160028054610100900460ff1690811115610625576106256115ab565b03610643576040516327c0e7b560e01b815260040160405180910390fd5b6002808054610100900460ff1690811115610660576106606115ab565b0361067e5760405163214dacf960e11b815260040160405180910390fd5b600360025460ff166003811115610697576106976115ab565b036106c3576003806040516335c1372560e01b81526004016106ba929190611a30565b60405180910390fd5b60025460ff168060038111156106db576106db6115ab565b6106e6906001611a5f565b60ff1660038111156106fa576106fa6115ab565b6002805460ff19166001836003811115610716576107166115ab565b021790555060025460ff166003811115610732576107326115ab565b816003811115610744576107446115ab565b6040513381527f0000000000000000000000000000000000000000000000000000000000000000907fb08bfe79d11e67f65c878f279728c4d53fc5dfc3373a20958345fcad3750953e9060200160405180910390a450565b336001600160a01b037f00000000000000000000000000000000000000000000000000000000000000001614801590610858575060405163df7f453b60e01b81523360048201527f00000000000000000000000000000000000000000000000000000000000000006001600160a01b03169063df7f453b90602401602060405180830381865afa158015610832573d5f803e3d5ffd5b505050506040513d601f19601f820116820180604052508101906108569190611a15565b155b156108765760405163ea8e4eb560e01b815260040160405180910390fd5b600160028054610100900460ff1690811115610894576108946115ab565b036108b2576040516327c0e7b560e01b815260040160405180910390fd5b6002808054610100900460ff16908111156108cf576108cf6115ab565b036108ed5760405163214dacf960e11b815260040160405180910390fd5b5f8060025460ff166003811115610906576109066115ab565b1461092f576002546040516305fb5e1b60e01b81526106ba91839160ff90911690600401611a30565b6001600160a01b0382165f9081526003602052604090205460ff161561096857604051630ea075bf60e21b815260040160405180910390fd5b6001600160a01b0382165f81815260036020908152604091829020805460ff19166001908117909155825190815233918101919091527f0000000000000000000000000000000000000000000000000000000000000000917f5b551e9aea49b0b85a31d13fd569c911ded7781feaae60c3603e3a968b05fc1391015b60405180910390a35050565b335f9081526003602052604090205460ff16610a1f5760405163aba4733960e01b815260040160405180910390fd5b600160028054610100900460ff1690811115610a3d57610a3d6115ab565b03610a5b576040516327c0e7b560e01b815260040160405180910390fd5b6002808054610100900460ff1690811115610a7857610a786115ab565b03610a965760405163214dacf960e11b815260040160405180910390fd5b60018060025460ff166003811115610ab057610ab06115ab565b14610ad9576002546040516305fb5e1b60e01b81526106ba91839160ff90911690600401611a30565b335f9081526004602052604090205460ff1615610b09576040516317fd8aab60e31b815260040160405180910390fd5b335f818152600460209081526040808320805460ff191660011790556006909152808220859055518492917f0000000000000000000000000000000000000000000000000000000000000000917f26a454697a4923cb3646779d831b5e4696bd3fab14b67dd6dfe23d72354f57dd9190a45050565b5f80546103e390611860565b336001600160a01b037f00000000000000000000000000000000000000000000000000000000000000001614610bd357604051633217675b60e21b815260040160405180910390fd5b6002805461ff001916610200178082556001600160a01b0385169161010090910460ff1690811115610c0757610c076115ab565b7f00000000000000000000000000000000000000000000000000000000000000007f7bf94aa98e004220f19fb43e7d8d6dabd2c23e3fadc2908d16dd25f52cd1c43b8585604051610c59929190611a78565b60405180910390a4505050565b335f9081526003602052604090205460ff16610c955760405163aba4733960e01b815260040160405180910390fd5b600160028054610100900460ff1690811115610cb357610cb36115ab565b03610cd1576040516327c0e7b560e01b815260040160405180910390fd5b6002808054610100900460ff1690811115610cee57610cee6115ab565b03610d0c5760405163214dacf960e11b815260040160405180910390fd5b60028060025460ff166003811115610d2657610d266115ab565b14610d4f576002546040516305fb5e1b60e01b81526106ba91839160ff90911690600401611a30565b335f9081526004602052604090205460ff16610d7e57604051631918952960e01b815260040160405180910390fd5b335f9081526005602052604090205460ff1615610dae5760405163a89ac15160e01b815260040160405180910390fd5b821580610dda57507f000000000000000000000000000000000000000000000000000000000000000083115b15610df85760405163e66ea08f60e01b815260040160405180910390fd5b60408051602080820186905281830185905282518083038401815260609092018352815191810191909120335f9081526006909252919020548114610e5057604051635054097b60e01b815260040160405180910390fd5b335f908152600560209081526040808320805460ff1916600190811790915587845260079092528220805491929091610e8a908490611a93565b90915550505f8481526007602052604090819020549051859133917f0000000000000000000000000000000000000000000000000000000000000000917f63ab6e5dc98a7d72f7b887b4479c584f5d1cc5e644f8b756c1213bc8e32f4f4291610ef591815260200190565b60405180910390a450505050565b336001600160a01b037f00000000000000000000000000000000000000000000000000000000000000001614801590610fbf575060405163df7f453b60e01b81523360048201527f00000000000000000000000000000000000000000000000000000000000000006001600160a01b03169063df7f453b90602401602060405180830381865afa158015610f99573d5f803e3d5ffd5b505050506040513d601f19601f82011682018060405250810190610fbd9190611a15565b155b15610fdd5760405163ea8e4eb560e01b815260040160405180910390fd5b600160028054610100900460ff1690811115610ffb57610ffb6115ab565b03611019576040516327c0e7b560e01b815260040160405180910390fd5b6002808054610100900460ff1690811115611036576110366115ab565b036110545760405163214dacf960e11b815260040160405180910390fd5b5f8060025460ff16600381111561106d5761106d6115ab565b14611096576002546040516305fb5e1b60e01b81526106ba91839160ff90911690600401611a30565b6001600160a01b0382165f818152600360209081526040808320805460ff19169055805192835233918301919091527f0000000000000000000000000000000000000000000000000000000000000000917f5b551e9aea49b0b85a31d13fd569c911ded7781feaae60c3603e3a968b05fc1391016109e4565b5f60038060025460ff16600381111561112a5761112a6115ab565b14611153576002546040516305fb5e1b60e01b81526106ba91839160ff90911690600401611a30565b82158061117f57507f000000000000000000000000000000000000000000000000000000000000000083115b1561119d5760405163e66ea08f60e01b815260040160405180910390fd5b5f8381526007602052604090205491505b50919050565b336001600160a01b037f00000000000000000000000000000000000000000000000000000000000000001614801590611270575060405163df7f453b60e01b81523360048201527f00000000000000000000000000000000000000000000000000000000000000006001600160a01b03169063df7f453b90602401602060405180830381865afa15801561124a573d5f803e3d5ffd5b505050506040513d601f19601f8201168201806040525081019061126e9190611a15565b155b1561128e5760405163ea8e4eb560e01b815260040160405180910390fd5b600160028054610100900460ff16908111156112ac576112ac6115ab565b036112ca576040516327c0e7b560e01b815260040160405180910390fd5b6002808054610100900460ff16908111156112e7576112e76115ab565b036113055760405163214dacf960e11b815260040160405180910390fd5b5f8060025460ff16600381111561131e5761131e6115ab565b14611347576002546040516305fb5e1b60e01b81526106ba91839160ff90911690600401611a30565b5f5b82811015611428575f84848381811061136457611364611aa6565b905060200201602081019061137991906116dc565b6001600160a01b0381165f9081526003602052604090205490915060ff1661141f576001600160a01b0381165f81815260036020908152604091829020805460ff19166001908117909155825190815233918101919091527f0000000000000000000000000000000000000000000000000000000000000000917f5b551e9aea49b0b85a31d13fd569c911ded7781feaae60c3603e3a968b05fc13910160405180910390a35b50600101611349565b50505050565b336001600160a01b037f0000000000000000000000000000000000000000000000000000000000000000161461147757604051633217675b60e21b815260040160405180910390fd5b6002808054610100900460ff1690811115611494576114946115ab565b036114b25760405163214dacf960e11b815260040160405180910390fd5b836114bd575f6114c0565b60015b6002805461ff00191661010083838111156114dd576114dd6115ab565b0217905550826001600160a01b0316600260019054906101000a900460ff16600281111561150d5761150d6115ab565b7f00000000000000000000000000000000000000000000000000000000000000007f7bf94aa98e004220f19fb43e7d8d6dabd2c23e3fadc2908d16dd25f52cd1c43b8585604051610ef5929190611a78565b5f602080835283518060208501525f5b8181101561158b5785810183015185820160400152820161156f565b505f604082860101526040601f19601f8301168501019250505092915050565b634e487b7160e01b5f52602160045260245ffd5b600481106115cf576115cf6115ab565b9052565b602081016115e182846115bf565b92915050565b5f8083601f8401126115f7575f80fd5b50813567ffffffffffffffff81111561160e575f80fd5b602083019150836020828501011115611625575f80fd5b9250929050565b80356001600160a01b0381168114611642575f80fd5b919050565b5f805f805f6060868803121561165b575f80fd5b853567ffffffffffffffff80821115611672575f80fd5b61167e89838a016115e7565b90975095506020880135915080821115611696575f80fd5b506116a3888289016115e7565b90945092506116b690506040870161162c565b90509295509295909350565b60208101600383106116d6576116d66115ab565b91905290565b5f602082840312156116ec575f80fd5b6116f58261162c565b9392505050565b5f6020828403121561170c575f80fd5b5035919050565b5f805f60408486031215611725575f80fd5b61172e8461162c565b9250602084013567ffffffffffffffff811115611749575f80fd5b611755868287016115e7565b9497909650939450505050565b5f8060408385031215611773575f80fd5b50508035926020909101359150565b5f8060208385031215611793575f80fd5b823567ffffffffffffffff808211156117aa575f80fd5b818501915085601f8301126117bd575f80fd5b8135818111156117cb575f80fd5b8660208260051b85010111156117df575f80fd5b60209290920196919550909350505050565b80151581146117fe575f80fd5b50565b5f805f8060608587031215611814575f80fd5b843561181f816117f1565b935061182d6020860161162c565b9250604085013567ffffffffffffffff811115611848575f80fd5b611854878288016115e7565b95989497509550505050565b600181811c9082168061187457607f821691505b6020821081036111ae57634e487b7160e01b5f52602260045260245ffd5b634e487b7160e01b5f52604160045260245ffd5b601f8211156118ed57805f5260205f20601f840160051c810160208510156118cb5750805b601f840160051c820191505b818110156118ea575f81556001016118d7565b50505b505050565b67ffffffffffffffff83111561190a5761190a611892565b61191e836119188354611860565b836118a6565b5f601f84116001811461194f575f85156119385750838201355b5f19600387901b1c1916600186901b1783556118ea565b5f83815260208120601f198716915b8281101561197e578685013582556020948501946001909201910161195e565b508682101561199a575f1960f88860031b161c19848701351681555b505060018560011b0183555050505050565b81835281816020850137505f828201602090810191909152601f909101601f19169091010190565b606081525f6119e76060830187896119ac565b82810360208401526119fa8186886119ac565b91505060018060a01b03831660408301529695505050505050565b5f60208284031215611a25575f80fd5b81516116f5816117f1565b60408101611a3e82856115bf565b6116f560208301846115bf565b634e487b7160e01b5f52601160045260245ffd5b60ff81811683821601908111156115e1576115e1611a4b565b602081525f611a8b6020830184866119ac565b949350505050565b808201808211156115e1576115e1611a4b565b634e487b7160e01b5f52603260045260245ffdfea26469706673582212204bfe239d5cf1eb1a85af8b9b6f07aded1836bf3727fd726b6396f8930b25022764736f6c63430008180033","linkReferences":{}},"methodIdentifiers":{"candidateCount()":"a9a981a3","commitVote(bytes32)":"3e858923","commitmentOf(address)":"f662b881","currentPhase()":"055ad42e","getResult(uint256)":"995e4339","hasCommitted(address)":"c6dbe15a","hasRevealed(address)":"b9a53013","isWhitelisted(address)":"3af32abf","metadataURI()":"03ee438c","registerVoter(address)":"38db6dd3","registerVoters(address[])":"d55ec9c1","registry()":"7b103999","revealVote(uint256,bytes32)":"69edbcda","setSuspended(bool,address,string)":"fdbf64c2","spaceAdmin()":"7a967cd3","spaceId()":"6bf2ffa1","status()":"200d2ed2","terminate(address,string)":"534e0e9e","title()":"4a79d50c","transitionToNextPhase()":"0f8779c6","unregisterVoter(address)":"7ed17751","updateMetadata(string,string,address)":"07b63c29","voteCount(uint256)":"4fc8a20d"},"id":16}