{"abi":[{"type":"constructor","inputs":[{"name":"_registry","type":"address","internalType":"address"},{"name":"_spaceAdmin","type":"address","internalType":"address"},{"name":"_spaceId","type":"uint256","internalType":"uint256"},{"name":"_candidateCount","type":"uint256","internalType":"uint256"},{"name":"_title","type":"string","internalType":"string"},{"name":"_metadataURI","type":"string","internalType":"string"}],"stateMutability":"nonpayable"},{"type":"function","name":"candidateCount","inputs":[],"outputs":[{"name":"","type":"uint256","internalType":"uint256"}],"stateMutability":"view"},{"type":"function","name":"commitEndsAt","inputs":[],"outputs":[{"name":"","type":"uint256","internalType":"uint256"}],"stateMutability":"view"},{"type":"function","name":"commitStartsAt","inputs":[],"outputs":[{"name":"","type":"uint256","internalType":"uint256"}],"stateMutability":"view"},{"type":"function","name":"commitVote","inputs":[{"name":"commitment","type":"bytes32","internalType":"bytes32"}],"outputs":[],"stateMutability":"nonpayable"},{"type":"function","name":"commitmentOf","inputs":[{"name":"","type":"address","internalType":"address"}],"outputs":[{"name":"","type":"bytes32","internalType":"bytes32"}],"stateMutability":"view"},{"type":"function","name":"currentPhase","inputs":[],"outputs":[{"name":"","type":"uint8","internalType":"enum ElectionSpace.Phase"}],"stateMutability":"view"},{"type":"function","name":"getResult","inputs":[{"name":"candidateId","type":"uint256","internalType":"uint256"}],"outputs":[{"name":"","type":"uint256","internalType":"uint256"}],"stateMutability":"view"},{"type":"function","name":"hasCommitted","inputs":[{"name":"","type":"address","internalType":"address"}],"outputs":[{"name":"","type":"bool","internalType":"bool"}],"stateMutability":"view"},{"type":"function","name":"hasRevealed","inputs":[{"name":"","type":"address","internalType":"address"}],"outputs":[{"name":"","type":"bool","internalType":"bool"}],"stateMutability":"view"},{"type":"function","name":"isWhitelisted","inputs":[{"name":"","type":"address","internalType":"address"}],"outputs":[{"name":"","type":"bool","internalType":"bool"}],"stateMutability":"view"},{"type":"function","name":"metadataURI","inputs":[],"outputs":[{"name":"","type":"string","internalType":"string"}],"stateMutability":"view"},{"type":"function","name":"phase","inputs":[],"outputs":[{"name":"","type":"uint8","internalType":"enum ElectionSpace.Phase"}],"stateMutability":"view"},{"type":"function","name":"registerVoter","inputs":[{"name":"voter","type":"address","internalType":"address"}],"outputs":[],"stateMutability":"nonpayable"},{"type":"function","name":"registerVoters","inputs":[{"name":"voters","type":"address[]","internalType":"address[]"}],"outputs":[],"stateMutability":"nonpayable"},{"type":"function","name":"registry","inputs":[],"outputs":[{"name":"","type":"address","internalType":"address"}],"stateMutability":"view"},{"type":"function","name":"revealEndsAt","inputs":[],"outputs":[{"name":"","type":"uint256","internalType":"uint256"}],"stateMutability":"view"},{"type":"function","name":"revealFor","inputs":[{"name":"voter","type":"address","internalType":"address"},{"name":"candidateId","type":"uint256","internalType":"uint256"},{"name":"salt","type":"bytes32","internalType":"bytes32"}],"outputs":[],"stateMutability":"nonpayable"},{"type":"function","name":"revealStartsAt","inputs":[],"outputs":[{"name":"","type":"uint256","internalType":"uint256"}],"stateMutability":"view"},{"type":"function","name":"revealVote","inputs":[{"name":"candidateId","type":"uint256","internalType":"uint256"},{"name":"salt","type":"bytes32","internalType":"bytes32"}],"outputs":[],"stateMutability":"nonpayable"},{"type":"function","name":"setPhaseSchedule","inputs":[{"name":"_commitStartsAt","type":"uint256","internalType":"uint256"},{"name":"_commitEndsAt","type":"uint256","internalType":"uint256"},{"name":"_revealStartsAt","type":"uint256","internalType":"uint256"},{"name":"_revealEndsAt","type":"uint256","internalType":"uint256"}],"outputs":[],"stateMutability":"nonpayable"},{"type":"function","name":"setSuspended","inputs":[{"name":"suspended","type":"bool","internalType":"bool"},{"name":"actor","type":"address","internalType":"address"},{"name":"reasonCode","type":"string","internalType":"string"}],"outputs":[],"stateMutability":"nonpayable"},{"type":"function","name":"spaceAdmin","inputs":[],"outputs":[{"name":"","type":"address","internalType":"address"}],"stateMutability":"view"},{"type":"function","name":"spaceId","inputs":[],"outputs":[{"name":"","type":"uint256","internalType":"uint256"}],"stateMutability":"view"},{"type":"function","name":"status","inputs":[],"outputs":[{"name":"","type":"uint8","internalType":"enum ElectionSpace.ElectionStatus"}],"stateMutability":"view"},{"type":"function","name":"terminate","inputs":[{"name":"actor","type":"address","internalType":"address"},{"name":"reasonCode","type":"string","internalType":"string"}],"outputs":[],"stateMutability":"nonpayable"},{"type":"function","name":"title","inputs":[],"outputs":[{"name":"","type":"string","internalType":"string"}],"stateMutability":"view"},{"type":"function","name":"transitionToNextPhase","inputs":[],"outputs":[],"stateMutability":"nonpayable"},{"type":"function","name":"unregisterVoter","inputs":[{"name":"voter","type":"address","internalType":"address"}],"outputs":[],"stateMutability":"nonpayable"},{"type":"function","name":"updateMetadata","inputs":[{"name":"_title","type":"string","internalType":"string"},{"name":"_metadataURI","type":"string","internalType":"string"},{"name":"actor","type":"address","internalType":"address"}],"outputs":[],"stateMutability":"nonpayable"},{"type":"function","name":"voteCount","inputs":[{"name":"","type":"uint256","internalType":"uint256"}],"outputs":[{"name":"","type":"uint256","internalType":"uint256"}],"stateMutability":"view"},{"type":"event","name":"Committed","inputs":[{"name":"spaceId","type":"uint256","indexed":true,"internalType":"uint256"},{"name":"voter","type":"address","indexed":true,"internalType":"address"},{"name":"commitment","type":"bytes32","indexed":true,"internalType":"bytes32"}],"anonymous":false},{"type":"event","name":"ElectionMetadataUpdated","inputs":[{"name":"spaceId","type":"uint256","indexed":true,"internalType":"uint256"},{"name":"title","type":"string","indexed":false,"internalType":"string"},{"name":"metadataURI","type":"string","indexed":false,"internalType":"string"},{"name":"actor","type":"address","indexed":false,"internalType":"address"}],"anonymous":false},{"type":"event","name":"ElectionStatusChanged","inputs":[{"name":"spaceId","type":"uint256","indexed":true,"internalType":"uint256"},{"name":"status","type":"uint8","indexed":true,"internalType":"enum ElectionSpace.ElectionStatus"},{"name":"actor","type":"address","indexed":true,"internalType":"address"},{"name":"reasonCode","type":"string","indexed":false,"internalType":"string"}],"anonymous":false},{"type":"event","name":"PhaseChanged","inputs":[{"name":"spaceId","type":"uint256","indexed":true,"internalType":"uint256"},{"name":"previousPhase","type":"uint8","indexed":true,"internalType":"enum ElectionSpace.Phase"},{"name":"newPhase","type":"uint8","indexed":true,"internalType":"enum ElectionSpace.Phase"},{"name":"actor","type":"address","indexed":false,"internalType":"address"}],"anonymous":false},{"type":"event","name":"PhaseScheduleUpdated","inputs":[{"name":"spaceId","type":"uint256","indexed":true,"internalType":"uint256"},{"name":"commitStartsAt","type":"uint256","indexed":false,"internalType":"uint256"},{"name":"commitEndsAt","type":"uint256","indexed":false,"internalType":"uint256"},{"name":"revealStartsAt","type":"uint256","indexed":false,"internalType":"uint256"},{"name":"revealEndsAt","type":"uint256","indexed":false,"internalType":"uint256"},{"name":"actor","type":"address","indexed":false,"internalType":"address"}],"anonymous":false},{"type":"event","name":"RevealRelayed","inputs":[{"name":"spaceId","type":"uint256","indexed":true,"internalType":"uint256"},{"name":"voter","type":"address","indexed":true,"internalType":"address"},{"name":"relayer","type":"address","indexed":true,"internalType":"address"},{"name":"candidateId","type":"uint256","indexed":false,"internalType":"uint256"}],"anonymous":false},{"type":"event","name":"Revealed","inputs":[{"name":"spaceId","type":"uint256","indexed":true,"internalType":"uint256"},{"name":"voter","type":"address","indexed":true,"internalType":"address"},{"name":"candidateId","type":"uint256","indexed":true,"internalType":"uint256"},{"name":"newVoteCount","type":"uint256","indexed":false,"internalType":"uint256"}],"anonymous":false},{"type":"event","name":"WhitelistUpdated","inputs":[{"name":"spaceId","type":"uint256","indexed":true,"internalType":"uint256"},{"name":"voter","type":"address","indexed":true,"internalType":"address"},{"name":"isRegistered","type":"bool","indexed":false,"internalType":"bool"},{"name":"actor","type":"address","indexed":false,"internalType":"address"}],"anonymous":false},{"type":"error","name":"AlreadyCommitted","inputs":[]},{"type":"error","name":"AlreadyRegistered","inputs":[]},{"type":"error","name":"AlreadyRevealed","inputs":[]},{"type":"error","name":"CommitmentMismatch","inputs":[]},{"type":"error","name":"ElectionSuspended","inputs":[]},{"type":"error","name":"ElectionTerminated","inputs":[]},{"type":"error","name":"InvalidCandidate","inputs":[]},{"type":"error","name":"InvalidCommitment","inputs":[]},{"type":"error","name":"InvalidPhaseSchedule","inputs":[]},{"type":"error","name":"InvalidPhaseTransition","inputs":[{"name":"current","type":"uint8","internalType":"enum ElectionSpace.Phase"},{"name":"requested","type":"uint8","internalType":"enum ElectionSpace.Phase"}]},{"type":"error","name":"InvalidVoter","inputs":[]},{"type":"error","name":"NotAuthorized","inputs":[]},{"type":"error","name":"NotCommittedYet","inputs":[]},{"type":"error","name":"NotRegistered","inputs":[]},{"type":"error","name":"NotRegistry","inputs":[]},{"type":"error","name":"WrongPhase","inputs":[{"name":"expected","type":"uint8","internalType":"enum ElectionSpace.Phase"},{"name":"actual","type":"uint8","internalType":"enum ElectionSpace.Phase"}]}],"bytecode":{"object":"0x610100604052346200045957620022bc803803806200001e816200045d565b928339810160c0828203126200045957620000398262000483565b9160206200004981830162000483565b6040830151606084015160808501516001600160401b0395919391908681116200045957876200007b91830162000498565b9660a0820151878111620004595762000095920162000498565b966001600160a01b03808216159081156200044d575b506200043b578315620004295760805260a05260c05260e05282519082821162000347575f54916001948584811c941680156200041e575b8385101462000328578190601f94858111620003cb575b50839085831160011462000367575f926200035b575b50505f19600383901b1c191690851b175f555b8451928311620003475783548481811c911680156200033c575b828210146200032857828111620002e0575b50809183116001146200027c57508192935f9262000270575b50505f19600383901b1c191690821b1790555b61ffff1960025416600255604051611db390816200050982396080518181816101c10152818161055b015281816108d00152818161094301528181610bd601528181610e640152818161128e015281816114ce01526115b3015260a0518181816103ad0152818161078b0152818161098601528181610cdd01528181611120015261137c015260c0518181816102680152818161049301528181610834015281816109cc01528181610b2401528181610c5101528181610daa01528181611038015281816111e40152818161142f015281816116c80152611cb8015260e051818181610683015281816107070152611d120152f35b015190505f8062000168565b90601f19831694845f52825f20925f905b878210620002c857505083859610620002af575b505050811b0190556200017b565b01515f1960f88460031b161c191690555f8080620002a1565b8087859682949686015181550195019301906200028d565b845f52815f208380860160051c8201928487106200031e575b0160051c019085905b828110620003125750506200014f565b5f815501859062000302565b92508192620002f9565b634e487b7160e01b5f52602260045260245ffd5b90607f16906200013d565b634e487b7160e01b5f52604160045260245ffd5b015190505f8062000110565b90879350601f198316915f8052855f20925f5b87828210620003b457505084116200039b575b505050811b015f5562000123565b01515f1960f88460031b161c191690555f80806200038d565b8385015186558b979095019493840193016200037a565b9091505f8052835f208580850160051c82019286861062000414575b918991869594930160051c01915b82811062000405575050620000fa565b5f8155859450899101620003f5565b92508192620003e7565b93607f1693620000e3565b60405163e66ea08f60e01b8152600490fd5b60405163ea8e4eb560e01b8152600490fd5b90508216155f620000ab565b5f80fd5b6040519190601f01601f191682016001600160401b038111838210176200034757604052565b51906001600160a01b03821682036200045957565b919080601f84011215620004595782516001600160401b0381116200034757602090620004ce601f8201601f191683016200045d565b9281845282828701011162000459575f5b818110620004f45750825f9394955001015290565b8581018301518482018401528201620004df56fe608060409080825260049081361015610016575f80fd5b5f3560e01c90816303ee438c1461195657508063055ad42e1461193057806307b63c291461154d5780630e866fa51461152f5780630f8779c6146113605780631dcf2e39146113435780631e8f048914611325578063200d2ed2146112e357806338db6dd3146110f75780633af32abf146110bb5780633e85892314610f975780634a79d50c14610ebb5780634d35574f14610cb25780634fc8a20d14610c8a578063534e0e9e14610b8d5780635688e29914610aab57806369edbcda146109ef5780636bf2ffa1146109b55780637a967cd3146109725780637b1039991461092f5780637ed1775114610763578063995e4339146106a6578063a9a981a31461066c578063b1c9fe6e14610642578063b9a5301314610606578063c6dbe15a146105ca578063d55ec9c11461034f578063f662b88114610318578063f826fee8146102fa5763fdbf64c21461016a575f80fd5b346102f65760603660031901126102f657803580151581036102f6576001600160a01b0360243581811694908590036102f65760443567ffffffffffffffff81116102f6576101bc9036908601611ad0565b9390927f00000000000000000000000000000000000000000000000000000000000000001633036102e6576002549060ff8260081c1660038110156102d3576002146102c357156102bd5760015b60038110156102aa579061ff0060ff9260081b169061ff001916178060025560081c1693600385101561029757507f7bf94aa98e004220f19fb43e7d8d6dabd2c23e3fadc2908d16dd25f52cd1c43b916102929151918291602083527f0000000000000000000000000000000000000000000000000000000000000000956020840191611b14565b0390a4005b602190634e487b7160e01b5f525260245ffd5b602186634e487b7160e01b5f525260245ffd5b5f61020a565b825163214dacf960e11b81528690fd5b602187634e487b7160e01b5f525260245ffd5b8151633217675b60e21b81528590fd5b5f80fd5b82346102f6575f3660031901126102f6576020906003549051908152f35b82346102f65760203660031901126102f6576020906001600160a01b0361033d611afe565b165f52600a8252805f20549051908152f35b5090346102f657602090816003193601126102f65767ffffffffffffffff9183358381116102f657366023820112156102f657808501359384116102f65760249260059536858760051b850101116102f6576001600160a01b0394337f00000000000000000000000000000000000000000000000000000000000000008716141580610543575b6105345760ff9360ff60025460081c169860038a10156105225760019960018114610512576002146105025761040a611b4c565b848110156104f057806104cd57505f5b89811061042357005b8381831b840101358981168091036102f65780156104bd5790818c925f5260078a52875f208381548b81161561045e575b505050500161041a565b60ff19161790558751838152338b8201527f5b551e9aea49b0b85a31d13fd569c911ded7781feaae60c3603e3a968b05fc13897f000000000000000000000000000000000000000000000000000000000000000092a35f808381610454565b86516311745b2b60e31b81528690fd5b85516305fb5e1b60e01b81525f818701526044916104ee9082870190611aaf565bfd5b83602186634e487b7160e01b5f52525ffd5b845163214dacf960e11b81528490fd5b85516327c0e7b560e01b81528590fd5b82602185634e487b7160e01b5f52525ffd5b50905163ea8e4eb560e01b8152fd5b50825163df7f453b60e01b81523383820152858183817f00000000000000000000000000000000000000000000000000000000000000008b165afa9081156105c0575f91610593575b50156103d6565b6105b39150863d88116105b9575b6105ab8183611a32565b810190611b34565b5f61058c565b503d6105a1565b84513d5f823e3d90fd5b82346102f65760203660031901126102f6576020906001600160a01b036105ef611afe565b165f526008825260ff815f20541690519015158152f35b82346102f65760203660031901126102f6576020906001600160a01b0361062b611afe565b165f526009825260ff815f20541690519015158152f35b82346102f6575f3660031901126102f65760209061066a610661611b4c565b91518092611aaf565bf35b82346102f6575f3660031901126102f657602090517f00000000000000000000000000000000000000000000000000000000000000008152f35b5090346102f65760203660031901126102f65781356106c3611b4c565b83811015610750576003810361072d575080158015610704575b6106f657602092505f52600b8252805f20549051908152f35b505163e66ea08f60e01b8152fd5b507f000000000000000000000000000000000000000000000000000000000000000081116106dd565b82516305fb5e1b60e01b81526003818601526044916104ee906024830190611aaf565b602184634e487b7160e01b5f525260245ffd5b50346102f657602090816003193601126102f65761077f611afe565b6001600160a01b0391337f000000000000000000000000000000000000000000000000000000000000000084161415806108b7575b6108a95760ff60025460081c166003811015610879576001811461089a5760021461088c576107e1611b4c565b818110156108795780610857575050907f5b551e9aea49b0b85a31d13fd569c911ded7781feaae60c3603e3a968b05fc13911692835f5260078352805f2060ff1981541690558051925f845233908401527f000000000000000000000000000000000000000000000000000000000000000092a3005b906104ee6044925f8851936305fb5e1b60e01b85528401526024830190611aaf565b602182634e487b7160e01b5f525260245ffd5b845163214dacf960e11b8152fd5b5084516327c0e7b560e01b8152fd5b845163ea8e4eb560e01b8152fd5b50845163df7f453b60e01b8152338282015284816024817f000000000000000000000000000000000000000000000000000000000000000088165afa908115610925575f91610908575b50156107b4565b61091f9150853d87116105b9576105ab8183611a32565b5f610901565b86513d5f823e3d90fd5b82346102f6575f3660031901126102f657517f00000000000000000000000000000000000000000000000000000000000000006001600160a01b03168152602090f35b82346102f6575f3660031901126102f657517f00000000000000000000000000000000000000000000000000000000000000006001600160a01b03168152602090f35b82346102f6575f3660031901126102f657602090517f00000000000000000000000000000000000000000000000000000000000000008152f35b50346102f657816003193601126102f657335f52600760205260ff825f20541615610a9d5760ff60025460081c1660038110156108795760018114610a8e57600214610a8057610a3d611b4c565b91818310156108795760028303610a5e57610a5c602435833533611ba5565b005b60449260026104ee9251936305fb5e1b60e01b85528401526024830190611aaf565b905163214dacf960e11b8152fd5b5090516327c0e7b560e01b8152fd5b905163aba4733960e01b8152fd5b50346102f65760603660031901126102f657610ac5611afe565b916024359160ff60025460081c1660038110156108795760018114610a8e57600214610a8057610af3611b4c565b818110156108795760028103610b6b575050610b126044358385611ba5565b5190815233916001600160a01b0316907f0000000000000000000000000000000000000000000000000000000000000000907e61840683c17d5c16bbabef1c635624cffef2223aced524b735371a8334846790602090a4005b6104ee90600260449451936305fb5e1b60e01b85528401526024830190611aaf565b50346102f657816003193601126102f657610ba6611afe565b9160243567ffffffffffffffff81116102f657610bc69036908401611ad0565b909390916001600160a01b0391907f000000000000000000000000000000000000000000000000000000000000000083163303610c7b5760ff61020061ff001960025416178060025560081c169460038610156102975750906102927f7bf94aa98e004220f19fb43e7d8d6dabd2c23e3fadc2908d16dd25f52cd1c43b9392519283926020845216967f0000000000000000000000000000000000000000000000000000000000000000956020840191611b14565b51633217675b60e21b81528490fd5b5090346102f65760203660031901126102f657602091355f52600b8252805f20549051908152f35b50346102f65760803660031901126102f65780359160243590604435916064359360018060a01b03807f0000000000000000000000000000000000000000000000000000000000000000163314159081610e45575b50610e375760ff60025460081c1660038110156108795760018114610e2857600214610e1a57610d35611b4c565b818110156108795780610df8575085158015610dee575b8015610de5575b8015610ddb575b610dcd578190866003555582600555836006558151948552602085015283015260608201523360808201527f26f7315aaf2926e91db90b9e8be8c5c36e6a366c93950652ce964393555390c460a07f000000000000000000000000000000000000000000000000000000000000000092a2005b825163a74634cd60e01b8152fd5b5083851115610d5a565b50818410610d53565b5085821115610d4c565b906104ee6044925f8651936305fb5e1b60e01b85528401526024830190611aaf565b825163214dacf960e11b8152fd5b5082516327c0e7b560e01b8152fd5b825163ea8e4eb560e01b8152fd5b845163df7f453b60e01b815233848201529150602090829060249082907f0000000000000000000000000000000000000000000000000000000000000000165afa9081156105c0575f91610e9c575b50155f610d07565b610eb5915060203d6020116105b9576105ab8183611a32565b5f610e94565b82346102f6575f3660031901126102f65780515f8054610eda816119fa565b80845290602090600190818116908115610f6d5750600114610f16575b610f128587610f0882880383611a32565b5191829182611a68565b0390f35b5f80805293507f290decd9548b62a8d60345a988386fc84ba6bc95484008f6362f93160ef3e5635b838510610f5a57505050508101602001610f0882610f12610ef7565b8054868601840152938201938101610f3e565b610f1297955086935060209250610f0894915060ff191682840152151560051b8201019294610ef7565b5090346102f65760203660031901126102f657813591335f52600760205260ff825f20541615610a9d5760ff60025460081c1660038110156108795760018114610a8e57600214610a8057610fea611b4c565b8181101561087957600181036110995750335f52600860205260ff825f20541661108b57821561107d57508190335f526008602052805f20600160ff19825416179055600a6020525f2055337f00000000000000000000000000000000000000000000000000000000000000007f26a454697a4923cb3646779d831b5e4696bd3fab14b67dd6dfe23d72354f57dd5f80a4005b9051636033c4fd60e11b8152fd5b90516317fd8aab60e31b8152fd5b6104ee90600160449451936305fb5e1b60e01b85528401526024830190611aaf565b82346102f65760203660031901126102f6576020906001600160a01b036110e0611afe565b165f526007825260ff815f20541690519015158152f35b5090346102f657602090816003193601126102f657611114611afe565b6001600160a01b0390337f00000000000000000000000000000000000000000000000000000000000000008316141580611275575b6112655760ff60025460081c1660038110156102aa57600181146112555760021461124557611176611b4c565b858110156102aa578061122357501692831561121557835f526007835260ff825f20541661120757507f5b551e9aea49b0b85a31d13fd569c911ded7781feaae60c3603e3a968b05fc1390835f5260078352805f20600160ff198254161790558051926001845233908401527f000000000000000000000000000000000000000000000000000000000000000092a3005b9051630ea075bf60e21b8152fd5b90516311745b2b60e31b8152fd5b83516305fb5e1b60e01b81525f818801526044916104ee906024830190611aaf565b825163214dacf960e11b81528590fd5b83516327c0e7b560e01b81528690fd5b825163ea8e4eb560e01b81528590fd5b50825163df7f453b60e01b8152338682015284816024817f000000000000000000000000000000000000000000000000000000000000000087165afa9081156105c0575f916112c6575b5015611149565b6112dd9150853d87116105b9576105ab8183611a32565b5f6112bf565b5090346102f6575f3660031901126102f65760ff60025460081c16905190600381101561131257602092508152f35b602183634e487b7160e01b5f525260245ffd5b82346102f6575f3660031901126102f6576020906006549051908152f35b5090346102f6575f3660031901126102f657602091549051908152f35b5090346102f6575f3660031901126102f65760018060a01b03807f00000000000000000000000000000000000000000000000000000000000000001633141590816114af575b506114a2576002549060ff8260081c1660038110156107505760018114611492576002146114835760ff821691838310156107505760038314611465576001830160ff81116114525760ff1693808510156102975750839060ff191617600255513381527fb08bfe79d11e67f65c878f279728c4d53fc5dfc3373a20958345fcad3750953e60207f000000000000000000000000000000000000000000000000000000000000000092a4005b601185634e487b7160e01b5f525260245ffd5b81516335c1372560e01b815260038186018190526024820152604490fd5b5163214dacf960e11b81529050fd5b81516327c0e7b560e01b81528490fd5b5163ea8e4eb560e01b8152fd5b825163df7f453b60e01b815233858201529150602090829060249082907f0000000000000000000000000000000000000000000000000000000000000000165afa908115611525575f91611506575b50155f6113a6565b61151f915060203d6020116105b9576105ab8183611a32565b5f6114fe565b82513d5f823e3d90fd5b82346102f6575f3660031901126102f6576020906005549051908152f35b5090346102f65760603660031901126102f65767ffffffffffffffff9180358381116102f6576115809036908301611ad0565b91906024358581116102f6576115999036908401611ad0565b9190956044359360018060a01b038086168096036102f6577f0000000000000000000000000000000000000000000000000000000000000000163303611922576115e1611b4c565b8181101561087957806119005750818611611802576116005f546119fa565b91601f928381116118a1575b50865f848211600114611820575f91611815575b508760011b905f198960031b1c1916175f555b8411611802575060019061164782546119fa565b8181116117a0575b505f9084116001146116f8577f4f86676f84ed8c8823cd1b5c0682bdfc9263d14d9879cd7609262de9f280002b96979284926116c1956116b3935f916116ed575b505f19600386901b1c191684821b1790555b885196606088526060880191611b14565b918583036020870152611b14565b93820152807f0000000000000000000000000000000000000000000000000000000000000000930390a2005b90508501355f611690565b601f19841690825f527fb10e2d527612073b26eecdfd717e6a320cf44b4afac2b0732d9fcbe2b7fa0cf6915f5b81811061178a5750926116b3927f4f86676f84ed8c8823cd1b5c0682bdfc9263d14d9879cd7609262de9f280002b999a9592876116c1989610611771575b50508084811b0190556116a2565b8601355f19600387901b60f8161c191690555f80611763565b8a83013584559284019260209283019201611725565b825f527fb10e2d527612073b26eecdfd717e6a320cf44b4afac2b0732d9fcbe2b7fa0cf68280870160051c820192602088106117f9575b0160051c019083905b8281106117ee57505061164f565b5f81550183906117e0565b925081926117d7565b604190634e487b7160e01b5f525260245ffd5b90508401355f611620565b5f8080527f290decd9548b62a8d60345a988386fc84ba6bc95484008f6362f93160ef3e56392508990601f198216905b81811061188657501061186d575b5050600187811b015f55611633565b8501355f1960038a901b60f8161c191690555f8061185e565b8884013585556001909401936020938401938c935001611850565b5f80527f290decd9548b62a8d60345a988386fc84ba6bc95484008f6362f93160ef3e56384808a0160051c82019260208b106118f7575b0160051c01905b8181106118ec575061160c565b5f81556001016118df565b925081926118d8565b906104ee6044925f8a51936305fb5e1b60e01b85528401526024830190611aaf565b8651633217675b60e21b8152fd5b82346102f6575f3660031901126102f65760209061066a60ff6002541691518092611aaf565b8390346102f6575f3660031901126102f6575f60018054611976816119fa565b8085529160209160018116908115610f6d57506001146119a157610f128587610f0882880383611a32565b60015f90815293507fb10e2d527612073b26eecdfd717e6a320cf44b4afac2b0732d9fcbe2b7fa0cf65b8385106119e757505050508101602001610f0882610f12610ef7565b80548686018401529382019381016119cb565b90600182811c92168015611a28575b6020831014611a1457565b634e487b7160e01b5f52602260045260245ffd5b91607f1691611a09565b90601f8019910116810190811067ffffffffffffffff821117611a5457604052565b634e487b7160e01b5f52604160045260245ffd5b602080825282518183018190529093925f5b828110611a9b57505060409293505f838284010152601f8019910116010190565b818101860151848201604001528501611a7a565b906004821015611abc5752565b634e487b7160e01b5f52602160045260245ffd5b9181601f840112156102f65782359167ffffffffffffffff83116102f657602083818601950101116102f657565b600435906001600160a01b03821682036102f657565b908060209392818452848401375f828201840152601f01601f1916010190565b908160209103126102f6575180151581036102f65790565b6003548015611b9b574210611b81576004544210611b9657600654421080611b8a575b611b85576005544210611b8157600390565b5f90565b600290565b50600554421015611b6f565b600190565b5060ff6002541690565b90916001600160a01b03909116908115611d6b57815f5260206007815260409160ff835f20541615611d5a57835f526008825260ff835f20541615611d4957835f526009825260ff835f205416611d385784158015611d0f575b611cfe5782519082820190868252848301528460608301523060808301524660a083015260a0825260c082019180831067ffffffffffffffff841117611a5457828552519020845f52600a8352835f205403611cef5750825f5260098152815f20600160ff19825416179055835f52600b8152815f2090815460018101809111611cdb577f63ab6e5dc98a7d72f7b887b4479c584f5d1cc5e644f8b756c1213bc8e32f4f429255845f52600b8152825f205492519283527f000000000000000000000000000000000000000000000000000000000000000092a4565b634e487b7160e01b5f52601160045260245ffd5b635054097b60e01b8152600490fd5b825163e66ea08f60e01b8152600490fd5b507f00000000000000000000000000000000000000000000000000000000000000008511611bff565b825163a89ac15160e01b8152600490fd5b8251631918952960e01b8152600490fd5b825163aba4733960e01b8152600490fd5b6040516311745b2b60e31b8152600490fdfea26469706673582212206c1c2ed9d49cd7530cd15c918abb699526b435f5efac28d80e9ef4d975265a7464736f6c63430008180033","linkReferences":{}},"methodIdentifiers":{"candidateCount()":"a9a981a3","commitEndsAt()":"1dcf2e39","commitStartsAt()":"f826fee8","commitVote(bytes32)":"3e858923","commitmentOf(address)":"f662b881","currentPhase()":"055ad42e","getResult(uint256)":"995e4339","hasCommitted(address)":"c6dbe15a","hasRevealed(address)":"b9a53013","isWhitelisted(address)":"3af32abf","metadataURI()":"03ee438c","phase()":"b1c9fe6e","registerVoter(address)":"38db6dd3","registerVoters(address[])":"d55ec9c1","registry()":"7b103999","revealEndsAt()":"1e8f0489","revealFor(address,uint256,bytes32)":"5688e299","revealStartsAt()":"0e866fa5","revealVote(uint256,bytes32)":"69edbcda","setPhaseSchedule(uint256,uint256,uint256,uint256)":"4d35574f","setSuspended(bool,address,string)":"fdbf64c2","spaceAdmin()":"7a967cd3","spaceId()":"6bf2ffa1","status()":"200d2ed2","terminate(address,string)":"534e0e9e","title()":"4a79d50c","transitionToNextPhase()":"0f8779c6","unregisterVoter(address)":"7ed17751","updateMetadata(string,string,address)":"07b63c29","voteCount(uint256)":"4fc8a20d"},"id":21}