{"abi":[{"type":"constructor","inputs":[{"name":"_registry","type":"address","internalType":"address"},{"name":"_spaceAdmin","type":"address","internalType":"address"},{"name":"_spaceId","type":"uint256","internalType":"uint256"},{"name":"_candidateCount","type":"uint256","internalType":"uint256"},{"name":"_title","type":"string","internalType":"string"},{"name":"_metadataURI","type":"string","internalType":"string"}],"stateMutability":"nonpayable"},{"type":"function","name":"candidateCount","inputs":[],"outputs":[{"name":"","type":"uint256","internalType":"uint256"}],"stateMutability":"view"},{"type":"function","name":"commitEndsAt","inputs":[],"outputs":[{"name":"","type":"uint256","internalType":"uint256"}],"stateMutability":"view"},{"type":"function","name":"commitStartsAt","inputs":[],"outputs":[{"name":"","type":"uint256","internalType":"uint256"}],"stateMutability":"view"},{"type":"function","name":"commitVote","inputs":[{"name":"commitment","type":"bytes32","internalType":"bytes32"}],"outputs":[],"stateMutability":"nonpayable"},{"type":"function","name":"commitmentOf","inputs":[{"name":"","type":"address","internalType":"address"}],"outputs":[{"name":"","type":"bytes32","internalType":"bytes32"}],"stateMutability":"view"},{"type":"function","name":"currentPhase","inputs":[],"outputs":[{"name":"","type":"uint8","internalType":"enum ElectionSpace.Phase"}],"stateMutability":"view"},{"type":"function","name":"getResult","inputs":[{"name":"candidateId","type":"uint256","internalType":"uint256"}],"outputs":[{"name":"","type":"uint256","internalType":"uint256"}],"stateMutability":"view"},{"type":"function","name":"hasCommitted","inputs":[{"name":"","type":"address","internalType":"address"}],"outputs":[{"name":"","type":"bool","internalType":"bool"}],"stateMutability":"view"},{"type":"function","name":"hasRevealed","inputs":[{"name":"","type":"address","internalType":"address"}],"outputs":[{"name":"","type":"bool","internalType":"bool"}],"stateMutability":"view"},{"type":"function","name":"isWhitelisted","inputs":[{"name":"","type":"address","internalType":"address"}],"outputs":[{"name":"","type":"bool","internalType":"bool"}],"stateMutability":"view"},{"type":"function","name":"metadataURI","inputs":[],"outputs":[{"name":"","type":"string","internalType":"string"}],"stateMutability":"view"},{"type":"function","name":"phase","inputs":[],"outputs":[{"name":"","type":"uint8","internalType":"enum ElectionSpace.Phase"}],"stateMutability":"view"},{"type":"function","name":"registerVoter","inputs":[{"name":"voter","type":"address","internalType":"address"}],"outputs":[],"stateMutability":"nonpayable"},{"type":"function","name":"registerVoters","inputs":[{"name":"voters","type":"address[]","internalType":"address[]"}],"outputs":[],"stateMutability":"nonpayable"},{"type":"function","name":"registry","inputs":[],"outputs":[{"name":"","type":"address","internalType":"address"}],"stateMutability":"view"},{"type":"function","name":"revealEndsAt","inputs":[],"outputs":[{"name":"","type":"uint256","internalType":"uint256"}],"stateMutability":"view"},{"type":"function","name":"revealFor","inputs":[{"name":"voter","type":"address","internalType":"address"},{"name":"candidateId","type":"uint256","internalType":"uint256"},{"name":"salt","type":"bytes32","internalType":"bytes32"}],"outputs":[],"stateMutability":"nonpayable"},{"type":"function","name":"revealStartsAt","inputs":[],"outputs":[{"name":"","type":"uint256","internalType":"uint256"}],"stateMutability":"view"},{"type":"function","name":"revealVote","inputs":[{"name":"candidateId","type":"uint256","internalType":"uint256"},{"name":"salt","type":"bytes32","internalType":"bytes32"}],"outputs":[],"stateMutability":"nonpayable"},{"type":"function","name":"setPhaseSchedule","inputs":[{"name":"_commitStartsAt","type":"uint256","internalType":"uint256"},{"name":"_commitEndsAt","type":"uint256","internalType":"uint256"},{"name":"_revealStartsAt","type":"uint256","internalType":"uint256"},{"name":"_revealEndsAt","type":"uint256","internalType":"uint256"}],"outputs":[],"stateMutability":"nonpayable"},{"type":"function","name":"setSuspended","inputs":[{"name":"suspended","type":"bool","internalType":"bool"},{"name":"actor","type":"address","internalType":"address"},{"name":"reasonCode","type":"string","internalType":"string"}],"outputs":[],"stateMutability":"nonpayable"},{"type":"function","name":"spaceAdmin","inputs":[],"outputs":[{"name":"","type":"address","internalType":"address"}],"stateMutability":"view"},{"type":"function","name":"spaceId","inputs":[],"outputs":[{"name":"","type":"uint256","internalType":"uint256"}],"stateMutability":"view"},{"type":"function","name":"status","inputs":[],"outputs":[{"name":"","type":"uint8","internalType":"enum ElectionSpace.ElectionStatus"}],"stateMutability":"view"},{"type":"function","name":"terminate","inputs":[{"name":"actor","type":"address","internalType":"address"},{"name":"reasonCode","type":"string","internalType":"string"}],"outputs":[],"stateMutability":"nonpayable"},{"type":"function","name":"title","inputs":[],"outputs":[{"name":"","type":"string","internalType":"string"}],"stateMutability":"view"},{"type":"function","name":"transitionToNextPhase","inputs":[],"outputs":[],"stateMutability":"nonpayable"},{"type":"function","name":"unregisterVoter","inputs":[{"name":"voter","type":"address","internalType":"address"}],"outputs":[],"stateMutability":"nonpayable"},{"type":"function","name":"updateMetadata","inputs":[{"name":"_title","type":"string","internalType":"string"},{"name":"_metadataURI","type":"string","internalType":"string"},{"name":"actor","type":"address","internalType":"address"}],"outputs":[],"stateMutability":"nonpayable"},{"type":"function","name":"voteCount","inputs":[{"name":"","type":"uint256","internalType":"uint256"}],"outputs":[{"name":"","type":"uint256","internalType":"uint256"}],"stateMutability":"view"},{"type":"event","name":"Committed","inputs":[{"name":"spaceId","type":"uint256","indexed":true,"internalType":"uint256"},{"name":"voter","type":"address","indexed":true,"internalType":"address"},{"name":"commitment","type":"bytes32","indexed":true,"internalType":"bytes32"}],"anonymous":false},{"type":"event","name":"ElectionMetadataUpdated","inputs":[{"name":"spaceId","type":"uint256","indexed":true,"internalType":"uint256"},{"name":"title","type":"string","indexed":false,"internalType":"string"},{"name":"metadataURI","type":"string","indexed":false,"internalType":"string"},{"name":"actor","type":"address","indexed":false,"internalType":"address"}],"anonymous":false},{"type":"event","name":"ElectionStatusChanged","inputs":[{"name":"spaceId","type":"uint256","indexed":true,"internalType":"uint256"},{"name":"status","type":"uint8","indexed":true,"internalType":"enum ElectionSpace.ElectionStatus"},{"name":"actor","type":"address","indexed":true,"internalType":"address"},{"name":"reasonCode","type":"string","indexed":false,"internalType":"string"}],"anonymous":false},{"type":"event","name":"PhaseChanged","inputs":[{"name":"spaceId","type":"uint256","indexed":true,"internalType":"uint256"},{"name":"previousPhase","type":"uint8","indexed":true,"internalType":"enum ElectionSpace.Phase"},{"name":"newPhase","type":"uint8","indexed":true,"internalType":"enum ElectionSpace.Phase"},{"name":"actor","type":"address","indexed":false,"internalType":"address"}],"anonymous":false},{"type":"event","name":"PhaseScheduleUpdated","inputs":[{"name":"spaceId","type":"uint256","indexed":true,"internalType":"uint256"},{"name":"commitStartsAt","type":"uint256","indexed":false,"internalType":"uint256"},{"name":"commitEndsAt","type":"uint256","indexed":false,"internalType":"uint256"},{"name":"revealStartsAt","type":"uint256","indexed":false,"internalType":"uint256"},{"name":"revealEndsAt","type":"uint256","indexed":false,"internalType":"uint256"},{"name":"actor","type":"address","indexed":false,"internalType":"address"}],"anonymous":false},{"type":"event","name":"RevealRelayed","inputs":[{"name":"spaceId","type":"uint256","indexed":true,"internalType":"uint256"},{"name":"voter","type":"address","indexed":true,"internalType":"address"},{"name":"relayer","type":"address","indexed":true,"internalType":"address"},{"name":"candidateId","type":"uint256","indexed":false,"internalType":"uint256"}],"anonymous":false},{"type":"event","name":"Revealed","inputs":[{"name":"spaceId","type":"uint256","indexed":true,"internalType":"uint256"},{"name":"voter","type":"address","indexed":true,"internalType":"address"},{"name":"candidateId","type":"uint256","indexed":true,"internalType":"uint256"},{"name":"newVoteCount","type":"uint256","indexed":false,"internalType":"uint256"}],"anonymous":false},{"type":"event","name":"WhitelistUpdated","inputs":[{"name":"spaceId","type":"uint256","indexed":true,"internalType":"uint256"},{"name":"voter","type":"address","indexed":true,"internalType":"address"},{"name":"isRegistered","type":"bool","indexed":false,"internalType":"bool"},{"name":"actor","type":"address","indexed":false,"internalType":"address"}],"anonymous":false},{"type":"error","name":"AlreadyCommitted","inputs":[]},{"type":"error","name":"AlreadyRegistered","inputs":[]},{"type":"error","name":"AlreadyRevealed","inputs":[]},{"type":"error","name":"CommitmentMismatch","inputs":[]},{"type":"error","name":"ElectionSuspended","inputs":[]},{"type":"error","name":"ElectionTerminated","inputs":[]},{"type":"error","name":"InvalidCandidate","inputs":[]},{"type":"error","name":"InvalidCommitment","inputs":[]},{"type":"error","name":"InvalidPhaseSchedule","inputs":[]},{"type":"error","name":"InvalidPhaseTransition","inputs":[{"name":"current","type":"uint8","internalType":"enum ElectionSpace.Phase"},{"name":"requested","type":"uint8","internalType":"enum ElectionSpace.Phase"}]},{"type":"error","name":"InvalidVoter","inputs":[]},{"type":"error","name":"NotAuthorized","inputs":[]},{"type":"error","name":"NotCommittedYet","inputs":[]},{"type":"error","name":"NotRegistered","inputs":[]},{"type":"error","name":"NotRegistry","inputs":[]},{"type":"error","name":"WrongPhase","inputs":[{"name":"expected","type":"uint8","internalType":"enum ElectionSpace.Phase"},{"name":"actual","type":"uint8","internalType":"enum ElectionSpace.Phase"}]}],"bytecode":{"object":"0x61010060405234801562000011575f80fd5b50604051620026a8380380620026a88339810160408190526200003491620001c1565b6001600160a01b03861615806200005257506001600160a01b038516155b15620000715760405163ea8e4eb560e01b815260040160405180910390fd5b825f03620000925760405163e66ea08f60e01b815260040160405180910390fd5b6001600160a01b03808716608052851660a05260c084905260e08390525f620000bc8382620002e8565b506001620000cb8282620002e8565b50506002805461ffff1916905550620003b49350505050565b80516001600160a01b0381168114620000fb575f80fd5b919050565b634e487b7160e01b5f52604160045260245ffd5b5f82601f83011262000124575f80fd5b81516001600160401b038082111562000141576200014162000100565b604051601f8301601f19908116603f011681019082821181831017156200016c576200016c62000100565b816040528381526020925086602085880101111562000189575f80fd5b5f91505b83821015620001ac57858201830151818301840152908201906200018d565b5f602085830101528094505050505092915050565b5f805f805f8060c08789031215620001d7575f80fd5b620001e287620000e4565b9550620001f260208801620000e4565b6040880151606089015160808a015192975090955093506001600160401b03808211156200021e575f80fd5b6200022c8a838b0162000114565b935060a089015191508082111562000242575f80fd5b506200025189828a0162000114565b9150509295509295509295565b600181811c908216806200027357607f821691505b6020821081036200029257634e487b7160e01b5f52602260045260245ffd5b50919050565b601f821115620002e357805f5260205f20601f840160051c81016020851015620002bf5750805b601f840160051c820191505b81811015620002e0575f8155600101620002cb565b50505b505050565b81516001600160401b0381111562000304576200030462000100565b6200031c816200031584546200025e565b8462000298565b602080601f83116001811462000352575f84156200033a5750858301515b5f19600386901b1c1916600185901b178555620003ac565b5f85815260208120601f198616915b82811015620003825788860151825594840194600190910190840162000361565b5085821015620003a057878501515f19600388901b60f8161c191681555b505060018460011b0185555b505050505050565b60805160a05160c05160e05161220a6200049e5f395f81816103f50152818161151a0152611a9e01525f8181610342015281816105ec0152818161086801528181610af301528181610cb801528181610f2701528181610ff0015281816111380152818161147401528181611829015281816119660152611bb601525f81816103690152818161065d015281816108c301528181610d18015281816112ab01526115df01525f81816103a8015281816105480152818161069b0152818161090101528181610d5601528181610f7c015281816112e90152818161161d0152611890015261220a5ff3fe608060405234801561000f575f80fd5b50600436106101d1575f3560e01c80635688e299116100fe578063a9a981a31161009e578063d55ec9c11161006e578063d55ec9c114610463578063f662b88114610476578063f826fee814610495578063fdbf64c21461049e575f80fd5b8063a9a981a3146103f0578063b1c9fe6e14610417578063b9a530131461041f578063c6dbe15a14610441575f80fd5b80637a967cd3116100d95780637a967cd3146103645780637b103999146103a35780637ed17751146103ca578063995e4339146103dd575f80fd5b80635688e2991461031757806369edbcda1461032a5780636bf2ffa11461033d575f80fd5b8063200d2ed2116101745780634a79d50c116101445780634a79d50c146102ca5780634d35574f146102d25780634fc8a20d146102e5578063534e0e9e14610304575f80fd5b8063200d2ed21461025357806338db6dd3146102725780633af32abf146102855780633e858923146102b7575f80fd5b80630e866fa5116101af5780630e866fa5146102225780630f8779c6146102395780631dcf2e39146102415780631e8f04891461024a575f80fd5b806303ee438c146101d5578063055ad42e146101f357806307b63c291461020d575b5f80fd5b6101dd6104b1565b6040516101ea9190611c17565b60405180910390f35b6002546102009060ff1681565b6040516101ea9190611c8b565b61022061021b366004611cff565b61053d565b005b61022b60055481565b6040519081526020016101ea565b610220610652565b61022b60045481565b61022b60065481565b60025461026590610100900460ff1681565b6040516101ea9190611d7a565b610220610280366004611d94565b6108b8565b6102a7610293366004611d94565b60076020525f908152604090205460ff1681565b60405190151581526020016101ea565b6102206102c5366004611db4565b610b44565b6101dd610d01565b6102206102e0366004611dcb565b610d0d565b61022b6102f3366004611db4565b600b6020525f908152604090205481565b610220610312366004611dfa565b610f71565b610220610325366004611e49565b61104d565b610220610338366004611e79565b611196565b61022b7f000000000000000000000000000000000000000000000000000000000000000081565b61038b7f000000000000000000000000000000000000000000000000000000000000000081565b6040516001600160a01b0390911681526020016101ea565b61038b7f000000000000000000000000000000000000000000000000000000000000000081565b6102206103d8366004611d94565b6112a0565b61022b6103eb366004611db4565b6114bc565b61022b7f000000000000000000000000000000000000000000000000000000000000000081565b61020061156e565b6102a761042d366004611d94565b60096020525f908152604090205460ff1681565b6102a761044f366004611d94565b60086020525f908152604090205460ff1681565b610220610471366004611e99565b6115d4565b61022b610484366004611d94565b600a6020525f908152604090205481565b61022b60035481565b6102206104ac366004611f18565b611885565b600180546104be90611f77565b80601f01602080910402602001604051908101604052809291908181526020018280546104ea90611f77565b80156105355780601f1061050c57610100808354040283529160200191610535565b820191905f5260205f20905b81548152906001019060200180831161051857829003601f168201915b505050505081565b336001600160a01b037f0000000000000000000000000000000000000000000000000000000000000000161461058657604051633217675b60e21b815260040160405180910390fd5b5f61058f61156e565b90505f8160038111156105a4576105a4611c63565b146105cf575f816040516305fb5e1b60e01b81526004016105c6929190611faf565b60405180910390fd5b5f6105db868883612027565b5060016105e9848683612027565b507f00000000000000000000000000000000000000000000000000000000000000007f4f86676f84ed8c8823cd1b5c0682bdfc9263d14d9879cd7609262de9f280002b8787878787604051610642959493929190612109565b60405180910390a2505050505050565b336001600160a01b037f0000000000000000000000000000000000000000000000000000000000000000161480159061070e575060405163df7f453b60e01b81523360048201527f00000000000000000000000000000000000000000000000000000000000000006001600160a01b03169063df7f453b90602401602060405180830381865afa1580156106e8573d5f803e3d5ffd5b505050506040513d601f19601f8201168201806040525081019061070c919061214a565b155b1561072c5760405163ea8e4eb560e01b815260040160405180910390fd5b600160028054610100900460ff169081111561074a5761074a611c63565b03610768576040516327c0e7b560e01b815260040160405180910390fd5b6002808054610100900460ff169081111561078557610785611c63565b036107a35760405163214dacf960e11b815260040160405180910390fd5b600360025460ff1660038111156107bc576107bc611c63565b036107df576003806040516335c1372560e01b81526004016105c6929190611faf565b60025460ff168060038111156107f7576107f7611c63565b610802906001612179565b60ff16600381111561081657610816611c63565b6002805460ff1916600183600381111561083257610832611c63565b021790555060025460ff16600381111561084e5761084e611c63565b81600381111561086057610860611c63565b6040513381527f0000000000000000000000000000000000000000000000000000000000000000907fb08bfe79d11e67f65c878f279728c4d53fc5dfc3373a20958345fcad3750953e9060200160405180910390a450565b336001600160a01b037f00000000000000000000000000000000000000000000000000000000000000001614801590610974575060405163df7f453b60e01b81523360048201527f00000000000000000000000000000000000000000000000000000000000000006001600160a01b03169063df7f453b90602401602060405180830381865afa15801561094e573d5f803e3d5ffd5b505050506040513d601f19601f82011682018060405250810190610972919061214a565b155b156109925760405163ea8e4eb560e01b815260040160405180910390fd5b600160028054610100900460ff16908111156109b0576109b0611c63565b036109ce576040516327c0e7b560e01b815260040160405180910390fd5b6002808054610100900460ff16908111156109eb576109eb611c63565b03610a095760405163214dacf960e11b815260040160405180910390fd5b5f80610a1361156e565b9050816003811115610a2757610a27611c63565b816003811115610a3957610a39611c63565b14610a5b5781816040516305fb5e1b60e01b81526004016105c6929190611faf565b6001600160a01b038316610a82576040516311745b2b60e31b815260040160405180910390fd5b6001600160a01b0383165f9081526007602052604090205460ff1615610abb57604051630ea075bf60e21b815260040160405180910390fd5b6001600160a01b0383165f81815260076020908152604091829020805460ff19166001908117909155825190815233918101919091527f0000000000000000000000000000000000000000000000000000000000000000917f5b551e9aea49b0b85a31d13fd569c911ded7781feaae60c3603e3a968b05fc1391015b60405180910390a3505050565b335f9081526007602052604090205460ff16610b735760405163aba4733960e01b815260040160405180910390fd5b600160028054610100900460ff1690811115610b9157610b91611c63565b03610baf576040516327c0e7b560e01b815260040160405180910390fd5b6002808054610100900460ff1690811115610bcc57610bcc611c63565b03610bea5760405163214dacf960e11b815260040160405180910390fd5b60015f610bf561156e565b9050816003811115610c0957610c09611c63565b816003811115610c1b57610c1b611c63565b14610c3d5781816040516305fb5e1b60e01b81526004016105c6929190611faf565b335f9081526008602052604090205460ff1615610c6d576040516317fd8aab60e31b815260040160405180910390fd5b82610c8b57604051636033c4fd60e11b815260040160405180910390fd5b335f818152600860209081526040808320805460ff19166001179055600a909152808220869055518592917f0000000000000000000000000000000000000000000000000000000000000000917f26a454697a4923cb3646779d831b5e4696bd3fab14b67dd6dfe23d72354f57dd9190a4505050565b5f80546104be90611f77565b336001600160a01b037f00000000000000000000000000000000000000000000000000000000000000001614801590610dc9575060405163df7f453b60e01b81523360048201527f00000000000000000000000000000000000000000000000000000000000000006001600160a01b03169063df7f453b90602401602060405180830381865afa158015610da3573d5f803e3d5ffd5b505050506040513d601f19601f82011682018060405250810190610dc7919061214a565b155b15610de75760405163ea8e4eb560e01b815260040160405180910390fd5b600160028054610100900460ff1690811115610e0557610e05611c63565b03610e23576040516327c0e7b560e01b815260040160405180910390fd5b6002808054610100900460ff1690811115610e4057610e40611c63565b03610e5e5760405163214dacf960e11b815260040160405180910390fd5b5f80610e6861156e565b9050816003811115610e7c57610e7c611c63565b816003811115610e8e57610e8e611c63565b14610eb05781816040516305fb5e1b60e01b81526004016105c6929190611faf565b851580610ebd5750858511155b80610ec757508484105b80610ed25750838311155b15610ef05760405163a74634cd60e01b815260040160405180910390fd5b60038690556004859055600584905560068390556040805187815260208101879052908101859052606081018490523360808201527f0000000000000000000000000000000000000000000000000000000000000000907f26f7315aaf2926e91db90b9e8be8c5c36e6a366c93950652ce964393555390c49060a001610642565b336001600160a01b037f00000000000000000000000000000000000000000000000000000000000000001614610fba57604051633217675b60e21b815260040160405180910390fd5b6002805461ff001916610200178082556001600160a01b0385169161010090910460ff1690811115610fee57610fee611c63565b7f00000000000000000000000000000000000000000000000000000000000000007f7bf94aa98e004220f19fb43e7d8d6dabd2c23e3fadc2908d16dd25f52cd1c43b8585604051611040929190612192565b60405180910390a4505050565b600160028054610100900460ff169081111561106b5761106b611c63565b03611089576040516327c0e7b560e01b815260040160405180910390fd5b6002808054610100900460ff16908111156110a6576110a6611c63565b036110c45760405163214dacf960e11b815260040160405180910390fd5b60025f6110cf61156e565b90508160038111156110e3576110e3611c63565b8160038111156110f5576110f5611c63565b146111175781816040516305fb5e1b60e01b81526004016105c6929190611faf565b6111228585856119c4565b336001600160a01b0316856001600160a01b03167f00000000000000000000000000000000000000000000000000000000000000007e61840683c17d5c16bbabef1c635624cffef2223aced524b735371a833484678760405161118791815260200190565b60405180910390a45050505050565b335f9081526007602052604090205460ff166111c55760405163aba4733960e01b815260040160405180910390fd5b600160028054610100900460ff16908111156111e3576111e3611c63565b03611201576040516327c0e7b560e01b815260040160405180910390fd5b6002808054610100900460ff169081111561121e5761121e611c63565b0361123c5760405163214dacf960e11b815260040160405180910390fd5b60025f61124761156e565b905081600381111561125b5761125b611c63565b81600381111561126d5761126d611c63565b1461128f5781816040516305fb5e1b60e01b81526004016105c6929190611faf565b61129a3385856119c4565b50505050565b336001600160a01b037f0000000000000000000000000000000000000000000000000000000000000000161480159061135c575060405163df7f453b60e01b81523360048201527f00000000000000000000000000000000000000000000000000000000000000006001600160a01b03169063df7f453b90602401602060405180830381865afa158015611336573d5f803e3d5ffd5b505050506040513d601f19601f8201168201806040525081019061135a919061214a565b155b1561137a5760405163ea8e4eb560e01b815260040160405180910390fd5b600160028054610100900460ff169081111561139857611398611c63565b036113b6576040516327c0e7b560e01b815260040160405180910390fd5b6002808054610100900460ff16908111156113d3576113d3611c63565b036113f15760405163214dacf960e11b815260040160405180910390fd5b5f806113fb61156e565b905081600381111561140f5761140f611c63565b81600381111561142157611421611c63565b146114435781816040516305fb5e1b60e01b81526004016105c6929190611faf565b6001600160a01b0383165f818152600760209081526040808320805460ff19169055805192835233918301919091527f0000000000000000000000000000000000000000000000000000000000000000917f5b551e9aea49b0b85a31d13fd569c911ded7781feaae60c3603e3a968b05fc139101610b37565b5f60035f6114c861156e565b90508160038111156114dc576114dc611c63565b8160038111156114ee576114ee611c63565b146115105781816040516305fb5e1b60e01b81526004016105c6929190611faf565b83158061153c57507f000000000000000000000000000000000000000000000000000000000000000084115b1561155a5760405163e66ea08f60e01b815260040160405180910390fd5b5050505f908152600b602052604090205490565b5f6003545f03611582575060025460ff1690565b60035442101561159157505f90565b6004544210156115a15750600190565b600654421080156115b457506005544210155b156115bf5750600290565b6005544210156115ce57505f90565b50600390565b336001600160a01b037f00000000000000000000000000000000000000000000000000000000000000001614801590611690575060405163df7f453b60e01b81523360048201527f00000000000000000000000000000000000000000000000000000000000000006001600160a01b03169063df7f453b90602401602060405180830381865afa15801561166a573d5f803e3d5ffd5b505050506040513d601f19601f8201168201806040525081019061168e919061214a565b155b156116ae5760405163ea8e4eb560e01b815260040160405180910390fd5b600160028054610100900460ff16908111156116cc576116cc611c63565b036116ea576040516327c0e7b560e01b815260040160405180910390fd5b6002808054610100900460ff169081111561170757611707611c63565b036117255760405163214dacf960e11b815260040160405180910390fd5b5f8061172f61156e565b905081600381111561174357611743611c63565b81600381111561175557611755611c63565b146117775781816040516305fb5e1b60e01b81526004016105c6929190611faf565b5f5b8381101561187e575f858583818110611794576117946121ad565b90506020020160208101906117a99190611d94565b90506001600160a01b0381166117d2576040516311745b2b60e31b815260040160405180910390fd5b6001600160a01b0381165f9081526007602052604090205460ff16611875576001600160a01b0381165f81815260076020908152604091829020805460ff19166001908117909155825190815233918101919091527f0000000000000000000000000000000000000000000000000000000000000000917f5b551e9aea49b0b85a31d13fd569c911ded7781feaae60c3603e3a968b05fc13910160405180910390a35b50600101611779565b5050505050565b336001600160a01b037f000000000000000000000000000000000000000000000000000000000000000016146118ce57604051633217675b60e21b815260040160405180910390fd5b6002808054610100900460ff16908111156118eb576118eb611c63565b036119095760405163214dacf960e11b815260040160405180910390fd5b83611914575f611917565b60015b6002805461ff001916610100838381111561193457611934611c63565b0217905550826001600160a01b0316600260019054906101000a900460ff16600281111561196457611964611c63565b7f00000000000000000000000000000000000000000000000000000000000000007f7bf94aa98e004220f19fb43e7d8d6dabd2c23e3fadc2908d16dd25f52cd1c43b85856040516119b6929190612192565b60405180910390a450505050565b6001600160a01b0383166119eb576040516311745b2b60e31b815260040160405180910390fd5b6001600160a01b0383165f9081526007602052604090205460ff16611a235760405163aba4733960e01b815260040160405180910390fd5b6001600160a01b0383165f9081526008602052604090205460ff16611a5b57604051631918952960e01b815260040160405180910390fd5b6001600160a01b0383165f9081526009602052604090205460ff1615611a945760405163a89ac15160e01b815260040160405180910390fd5b811580611ac057507f000000000000000000000000000000000000000000000000000000000000000082115b15611ade5760405163e66ea08f60e01b815260040160405180910390fd5b60408051602081018490529081018290526001600160a01b03841660608201523060808201524660a08201525f9060c00160408051601f1981840301815291815281516020928301206001600160a01b0387165f908152600a9093529120549091508114611b5f57604051635054097b60e01b815260040160405180910390fd5b6001600160a01b0384165f908152600960209081526040808320805460ff19166001908117909155868452600b9092528220805491929091611ba29084906121c1565b9250508190555082846001600160a01b03167f00000000000000000000000000000000000000000000000000000000000000007f63ab6e5dc98a7d72f7b887b4479c584f5d1cc5e644f8b756c1213bc8e32f4f42600b5f8881526020019081526020015f20546040516119b691815260200190565b5f602080835283518060208501525f5b81811015611c4357858101830151858201604001528201611c27565b505f604082860101526040601f19601f8301168501019250505092915050565b634e487b7160e01b5f52602160045260245ffd5b60048110611c8757611c87611c63565b9052565b60208101611c998284611c77565b92915050565b5f8083601f840112611caf575f80fd5b50813567ffffffffffffffff811115611cc6575f80fd5b602083019150836020828501011115611cdd575f80fd5b9250929050565b80356001600160a01b0381168114611cfa575f80fd5b919050565b5f805f805f60608688031215611d13575f80fd5b853567ffffffffffffffff80821115611d2a575f80fd5b611d3689838a01611c9f565b90975095506020880135915080821115611d4e575f80fd5b50611d5b88828901611c9f565b9094509250611d6e905060408701611ce4565b90509295509295909350565b6020810160038310611d8e57611d8e611c63565b91905290565b5f60208284031215611da4575f80fd5b611dad82611ce4565b9392505050565b5f60208284031215611dc4575f80fd5b5035919050565b5f805f8060808587031215611dde575f80fd5b5050823594602084013594506040840135936060013592509050565b5f805f60408486031215611e0c575f80fd5b611e1584611ce4565b9250602084013567ffffffffffffffff811115611e30575f80fd5b611e3c86828701611c9f565b9497909650939450505050565b5f805f60608486031215611e5b575f80fd5b611e6484611ce4565b95602085013595506040909401359392505050565b5f8060408385031215611e8a575f80fd5b50508035926020909101359150565b5f8060208385031215611eaa575f80fd5b823567ffffffffffffffff80821115611ec1575f80fd5b818501915085601f830112611ed4575f80fd5b813581811115611ee2575f80fd5b8660208260051b8501011115611ef6575f80fd5b60209290920196919550909350505050565b8015158114611f15575f80fd5b50565b5f805f8060608587031215611f2b575f80fd5b8435611f3681611f08565b9350611f4460208601611ce4565b9250604085013567ffffffffffffffff811115611f5f575f80fd5b611f6b87828801611c9f565b95989497509550505050565b600181811c90821680611f8b57607f821691505b602082108103611fa957634e487b7160e01b5f52602260045260245ffd5b50919050565b60408101611fbd8285611c77565b611dad6020830184611c77565b634e487b7160e01b5f52604160045260245ffd5b601f82111561202257805f5260205f20601f840160051c810160208510156120035750805b601f840160051c820191505b8181101561187e575f815560010161200f565b505050565b67ffffffffffffffff83111561203f5761203f611fca565b6120538361204d8354611f77565b83611fde565b5f601f841160018114612084575f851561206d5750838201355b5f19600387901b1c1916600186901b17835561187e565b5f83815260208120601f198716915b828110156120b35786850135825560209485019460019092019101612093565b50868210156120cf575f1960f88860031b161c19848701351681555b505060018560011b0183555050505050565b81835281816020850137505f828201602090810191909152601f909101601f19169091010190565b606081525f61211c6060830187896120e1565b828103602084015261212f8186886120e1565b91505060018060a01b03831660408301529695505050505050565b5f6020828403121561215a575f80fd5b8151611dad81611f08565b634e487b7160e01b5f52601160045260245ffd5b60ff8181168382160190811115611c9957611c99612165565b602081525f6121a56020830184866120e1565b949350505050565b634e487b7160e01b5f52603260045260245ffd5b80820180821115611c9957611c9961216556fea2646970667358221220d35664fee9a88457e7d0711589c7ccda20d74277cfb1cc3b3626cc7665b2e9a664736f6c63430008180033","linkReferences":{}},"methodIdentifiers":{"candidateCount()":"a9a981a3","commitEndsAt()":"1dcf2e39","commitStartsAt()":"f826fee8","commitVote(bytes32)":"3e858923","commitmentOf(address)":"f662b881","currentPhase()":"055ad42e","getResult(uint256)":"995e4339","hasCommitted(address)":"c6dbe15a","hasRevealed(address)":"b9a53013","isWhitelisted(address)":"3af32abf","metadataURI()":"03ee438c","phase()":"b1c9fe6e","registerVoter(address)":"38db6dd3","registerVoters(address[])":"d55ec9c1","registry()":"7b103999","revealEndsAt()":"1e8f0489","revealFor(address,uint256,bytes32)":"5688e299","revealStartsAt()":"0e866fa5","revealVote(uint256,bytes32)":"69edbcda","setPhaseSchedule(uint256,uint256,uint256,uint256)":"4d35574f","setSuspended(bool,address,string)":"fdbf64c2","spaceAdmin()":"7a967cd3","spaceId()":"6bf2ffa1","status()":"200d2ed2","terminate(address,string)":"534e0e9e","title()":"4a79d50c","transitionToNextPhase()":"0f8779c6","unregisterVoter(address)":"7ed17751","updateMetadata(string,string,address)":"07b63c29","voteCount(uint256)":"4fc8a20d"},"id":16}