{"abi":[{"type":"constructor","inputs":[{"name":"_registry","type":"address","internalType":"address"},{"name":"_spaceAdmin","type":"address","internalType":"address"},{"name":"_spaceId","type":"uint256","internalType":"uint256"},{"name":"_candidateCount","type":"uint256","internalType":"uint256"},{"name":"_title","type":"string","internalType":"string"},{"name":"_metadataURI","type":"string","internalType":"string"}],"stateMutability":"nonpayable"},{"type":"function","name":"candidateCount","inputs":[],"outputs":[{"name":"","type":"uint256","internalType":"uint256"}],"stateMutability":"view"},{"type":"function","name":"commitVote","inputs":[{"name":"commitment","type":"bytes32","internalType":"bytes32"}],"outputs":[],"stateMutability":"nonpayable"},{"type":"function","name":"commitmentOf","inputs":[{"name":"","type":"address","internalType":"address"}],"outputs":[{"name":"","type":"bytes32","internalType":"bytes32"}],"stateMutability":"view"},{"type":"function","name":"currentPhase","inputs":[],"outputs":[{"name":"","type":"uint8","internalType":"enum ElectionSpace.Phase"}],"stateMutability":"view"},{"type":"function","name":"getResult","inputs":[{"name":"candidateId","type":"uint256","internalType":"uint256"}],"outputs":[{"name":"","type":"uint256","internalType":"uint256"}],"stateMutability":"view"},{"type":"function","name":"hasCommitted","inputs":[{"name":"","type":"address","internalType":"address"}],"outputs":[{"name":"","type":"bool","internalType":"bool"}],"stateMutability":"view"},{"type":"function","name":"hasRevealed","inputs":[{"name":"","type":"address","internalType":"address"}],"outputs":[{"name":"","type":"bool","internalType":"bool"}],"stateMutability":"view"},{"type":"function","name":"isWhitelisted","inputs":[{"name":"","type":"address","internalType":"address"}],"outputs":[{"name":"","type":"bool","internalType":"bool"}],"stateMutability":"view"},{"type":"function","name":"metadataURI","inputs":[],"outputs":[{"name":"","type":"string","internalType":"string"}],"stateMutability":"view"},{"type":"function","name":"registerVoter","inputs":[{"name":"voter","type":"address","internalType":"address"}],"outputs":[],"stateMutability":"nonpayable"},{"type":"function","name":"registry","inputs":[],"outputs":[{"name":"","type":"address","internalType":"address"}],"stateMutability":"view"},{"type":"function","name":"revealVote","inputs":[{"name":"candidateId","type":"uint256","internalType":"uint256"},{"name":"salt","type":"bytes32","internalType":"bytes32"}],"outputs":[],"stateMutability":"nonpayable"},{"type":"function","name":"setSuspended","inputs":[{"name":"suspended","type":"bool","internalType":"bool"},{"name":"actor","type":"address","internalType":"address"},{"name":"reasonCode","type":"string","internalType":"string"}],"outputs":[],"stateMutability":"nonpayable"},{"type":"function","name":"spaceAdmin","inputs":[],"outputs":[{"name":"","type":"address","internalType":"address"}],"stateMutability":"view"},{"type":"function","name":"spaceId","inputs":[],"outputs":[{"name":"","type":"uint256","internalType":"uint256"}],"stateMutability":"view"},{"type":"function","name":"status","inputs":[],"outputs":[{"name":"","type":"uint8","internalType":"enum ElectionSpace.ElectionStatus"}],"stateMutability":"view"},{"type":"function","name":"terminate","inputs":[{"name":"actor","type":"address","internalType":"address"},{"name":"reasonCode","type":"string","internalType":"string"}],"outputs":[],"stateMutability":"nonpayable"},{"type":"function","name":"title","inputs":[],"outputs":[{"name":"","type":"string","internalType":"string"}],"stateMutability":"view"},{"type":"function","name":"transitionToNextPhase","inputs":[],"outputs":[],"stateMutability":"nonpayable"},{"type":"function","name":"unregisterVoter","inputs":[{"name":"voter","type":"address","internalType":"address"}],"outputs":[],"stateMutability":"nonpayable"},{"type":"function","name":"updateMetadata","inputs":[{"name":"_title","type":"string","internalType":"string"},{"name":"_metadataURI","type":"string","internalType":"string"},{"name":"actor","type":"address","internalType":"address"}],"outputs":[],"stateMutability":"nonpayable"},{"type":"function","name":"voteCount","inputs":[{"name":"","type":"uint256","internalType":"uint256"}],"outputs":[{"name":"","type":"uint256","internalType":"uint256"}],"stateMutability":"view"},{"type":"event","name":"Committed","inputs":[{"name":"spaceId","type":"uint256","indexed":true,"internalType":"uint256"},{"name":"voter","type":"address","indexed":true,"internalType":"address"},{"name":"commitment","type":"bytes32","indexed":true,"internalType":"bytes32"}],"anonymous":false},{"type":"event","name":"ElectionMetadataUpdated","inputs":[{"name":"spaceId","type":"uint256","indexed":true,"internalType":"uint256"},{"name":"title","type":"string","indexed":false,"internalType":"string"},{"name":"metadataURI","type":"string","indexed":false,"internalType":"string"},{"name":"actor","type":"address","indexed":false,"internalType":"address"}],"anonymous":false},{"type":"event","name":"ElectionStatusChanged","inputs":[{"name":"spaceId","type":"uint256","indexed":true,"internalType":"uint256"},{"name":"status","type":"uint8","indexed":true,"internalType":"enum ElectionSpace.ElectionStatus"},{"name":"actor","type":"address","indexed":true,"internalType":"address"},{"name":"reasonCode","type":"string","indexed":false,"internalType":"string"}],"anonymous":false},{"type":"event","name":"PhaseChanged","inputs":[{"name":"spaceId","type":"uint256","indexed":true,"internalType":"uint256"},{"name":"previousPhase","type":"uint8","indexed":true,"internalType":"enum ElectionSpace.Phase"},{"name":"newPhase","type":"uint8","indexed":true,"internalType":"enum ElectionSpace.Phase"},{"name":"actor","type":"address","indexed":false,"internalType":"address"}],"anonymous":false},{"type":"event","name":"Revealed","inputs":[{"name":"spaceId","type":"uint256","indexed":true,"internalType":"uint256"},{"name":"voter","type":"address","indexed":true,"internalType":"address"},{"name":"candidateId","type":"uint256","indexed":true,"internalType":"uint256"},{"name":"newVoteCount","type":"uint256","indexed":false,"internalType":"uint256"}],"anonymous":false},{"type":"event","name":"WhitelistUpdated","inputs":[{"name":"spaceId","type":"uint256","indexed":true,"internalType":"uint256"},{"name":"voter","type":"address","indexed":true,"internalType":"address"},{"name":"isRegistered","type":"bool","indexed":false,"internalType":"bool"},{"name":"actor","type":"address","indexed":false,"internalType":"address"}],"anonymous":false},{"type":"error","name":"AlreadyCommitted","inputs":[]},{"type":"error","name":"AlreadyRegistered","inputs":[]},{"type":"error","name":"AlreadyRevealed","inputs":[]},{"type":"error","name":"CommitmentMismatch","inputs":[]},{"type":"error","name":"ElectionSuspended","inputs":[]},{"type":"error","name":"ElectionTerminated","inputs":[]},{"type":"error","name":"InvalidCandidate","inputs":[]},{"type":"error","name":"InvalidPhaseTransition","inputs":[{"name":"current","type":"uint8","internalType":"enum ElectionSpace.Phase"},{"name":"requested","type":"uint8","internalType":"enum ElectionSpace.Phase"}]},{"type":"error","name":"NotAuthorized","inputs":[]},{"type":"error","name":"NotCommittedYet","inputs":[]},{"type":"error","name":"NotRegistered","inputs":[]},{"type":"error","name":"NotRegistry","inputs":[]},{"type":"error","name":"WrongPhase","inputs":[{"name":"expected","type":"uint8","internalType":"enum ElectionSpace.Phase"},{"name":"actual","type":"uint8","internalType":"enum ElectionSpace.Phase"}]}],"bytecode":{"object":"0x61010060405234801562000011575f80fd5b5060405162001c4238038062001c428339810160408190526200003491620001c1565b6001600160a01b03861615806200005257506001600160a01b038516155b15620000715760405163ea8e4eb560e01b815260040160405180910390fd5b825f03620000925760405163e66ea08f60e01b815260040160405180910390fd5b6001600160a01b03808716608052851660a05260c084905260e08390525f620000bc8382620002e8565b506001620000cb8282620002e8565b50506002805461ffff1916905550620003b49350505050565b80516001600160a01b0381168114620000fb575f80fd5b919050565b634e487b7160e01b5f52604160045260245ffd5b5f82601f83011262000124575f80fd5b81516001600160401b038082111562000141576200014162000100565b604051601f8301601f19908116603f011681019082821181831017156200016c576200016c62000100565b816040528381526020925086602085880101111562000189575f80fd5b5f91505b83821015620001ac57858201830151818301840152908201906200018d565b5f602085830101528094505050505092915050565b5f805f805f8060c08789031215620001d7575f80fd5b620001e287620000e4565b9550620001f260208801620000e4565b6040880151606089015160808a015192975090955093506001600160401b03808211156200021e575f80fd5b6200022c8a838b0162000114565b935060a089015191508082111562000242575f80fd5b506200025189828a0162000114565b9150509295509295509295565b600181811c908216806200027357607f821691505b6020821081036200029257634e487b7160e01b5f52602260045260245ffd5b50919050565b601f821115620002e357805f5260205f20601f840160051c81016020851015620002bf5750805b601f840160051c820191505b81811015620002e0575f8155600101620002cb565b50505b505050565b81516001600160401b0381111562000304576200030462000100565b6200031c816200031584546200025e565b8462000298565b602080601f83116001811462000352575f84156200033a5750858301515b5f19600386901b1c1916600185901b178555620003ac565b5f85815260208120601f198616915b82811015620003825788860151825594840194600190910190840162000361565b5085821015620003a057878501515f19600388901b60f8161c191681555b505060018460011b0185555b505050505050565b60805160a05160c05160e0516117d56200046d5f395f818161032001528181610d9a015261113f01525f818161026d015281816104aa0152818161072e0152818161098201528181610b1801528181610beb01528181610e89015281816110a9015261127701525f81816102940152818161051a015281816107890152610ef001525f81816102d30152818161044f01528181610558015281816107c701528181610b7701528181610f2e01526111a101526117d55ff3fe608060405234801561000f575f80fd5b506004361061013d575f3560e01c806369edbcda116100b4578063995e433911610079578063995e433914610308578063a9a981a31461031b578063b9a5301314610342578063c6dbe15a14610364578063f662b88114610386578063fdbf64c2146103a5575f80fd5b806369edbcda146102555780636bf2ffa1146102685780637a967cd31461028f5780637b103999146102ce5780637ed17751146102f5575f80fd5b806338db6dd31161010557806338db6dd3146101b55780633af32abf146101c85780633e858923146101fa5780634a79d50c1461020d5780634fc8a20d14610215578063534e0e9e14610242575f80fd5b806303ee438c14610141578063055ad42e1461015f57806307b63c29146101795780630f8779c61461018e578063200d2ed214610196575b5f80fd5b6101496103b8565b60405161015691906112c7565b60405180910390f35b60025461016c9060ff1681565b604051610156919061133b565b61018c6101873660046113af565b610444565b005b61018c61050f565b6002546101a890610100900460ff1681565b604051610156919061142a565b61018c6101c3366004611444565b61077e565b6101ea6101d6366004611444565b60036020525f908152604090205460ff1681565b6040519015158152602001610156565b61018c610208366004611464565b6109d2565b610149610b60565b610234610223366004611464565b60076020525f908152604090205481565b604051908152602001610156565b61018c61025036600461147b565b610b6c565b61018c6102633660046114ca565b610c48565b6102347f000000000000000000000000000000000000000000000000000000000000000081565b6102b67f000000000000000000000000000000000000000000000000000000000000000081565b6040516001600160a01b039091168152602001610156565b6102b67f000000000000000000000000000000000000000000000000000000000000000081565b61018c610303366004611444565b610ee5565b610234610316366004611464565b6110f1565b6102347f000000000000000000000000000000000000000000000000000000000000000081565b6101ea610350366004611444565b60056020525f908152604090205460ff1681565b6101ea610372366004611444565b60046020525f908152604090205460ff1681565b610234610394366004611444565b60066020525f908152604090205481565b61018c6103b33660046114fa565b611196565b600180546103c590611559565b80601f01602080910402602001604051908101604052809291908181526020018280546103f190611559565b801561043c5780601f106104135761010080835404028352916020019161043c565b820191905f5260205f20905b81548152906001019060200180831161041f57829003601f168201915b505050505081565b336001600160a01b037f0000000000000000000000000000000000000000000000000000000000000000161461048d57604051633217675b60e21b815260040160405180910390fd5b5f6104998587836115eb565b5060016104a78385836115eb565b507f00000000000000000000000000000000000000000000000000000000000000007f4f86676f84ed8c8823cd1b5c0682bdfc9263d14d9879cd7609262de9f280002b86868686866040516105009594939291906116cd565b60405180910390a25050505050565b336001600160a01b037f000000000000000000000000000000000000000000000000000000000000000016148015906105cb575060405163df7f453b60e01b81523360048201527f00000000000000000000000000000000000000000000000000000000000000006001600160a01b03169063df7f453b90602401602060405180830381865afa1580156105a5573d5f803e3d5ffd5b505050506040513d601f19601f820116820180604052508101906105c9919061170e565b155b156105e95760405163ea8e4eb560e01b815260040160405180910390fd5b600160028054610100900460ff169081111561060757610607611313565b03610625576040516327c0e7b560e01b815260040160405180910390fd5b6002808054610100900460ff169081111561064257610642611313565b036106605760405163214dacf960e11b815260040160405180910390fd5b600360025460ff16600381111561067957610679611313565b036106a5576003806040516335c1372560e01b815260040161069c929190611729565b60405180910390fd5b60025460ff168060038111156106bd576106bd611313565b6106c8906001611758565b60ff1660038111156106dc576106dc611313565b6002805460ff191660018360038111156106f8576106f8611313565b021790555060025460ff16600381111561071457610714611313565b81600381111561072657610726611313565b6040513381527f0000000000000000000000000000000000000000000000000000000000000000907fb08bfe79d11e67f65c878f279728c4d53fc5dfc3373a20958345fcad3750953e9060200160405180910390a450565b336001600160a01b037f0000000000000000000000000000000000000000000000000000000000000000161480159061083a575060405163df7f453b60e01b81523360048201527f00000000000000000000000000000000000000000000000000000000000000006001600160a01b03169063df7f453b90602401602060405180830381865afa158015610814573d5f803e3d5ffd5b505050506040513d601f19601f82011682018060405250810190610838919061170e565b155b156108585760405163ea8e4eb560e01b815260040160405180910390fd5b600160028054610100900460ff169081111561087657610876611313565b03610894576040516327c0e7b560e01b815260040160405180910390fd5b6002808054610100900460ff16908111156108b1576108b1611313565b036108cf5760405163214dacf960e11b815260040160405180910390fd5b5f8060025460ff1660038111156108e8576108e8611313565b14610911576002546040516305fb5e1b60e01b815261069c91839160ff90911690600401611729565b6001600160a01b0382165f9081526003602052604090205460ff161561094a57604051630ea075bf60e21b815260040160405180910390fd5b6001600160a01b0382165f81815260036020908152604091829020805460ff19166001908117909155825190815233918101919091527f0000000000000000000000000000000000000000000000000000000000000000917f5b551e9aea49b0b85a31d13fd569c911ded7781feaae60c3603e3a968b05fc1391015b60405180910390a35050565b335f9081526003602052604090205460ff16610a015760405163aba4733960e01b815260040160405180910390fd5b600160028054610100900460ff1690811115610a1f57610a1f611313565b03610a3d576040516327c0e7b560e01b815260040160405180910390fd5b6002808054610100900460ff1690811115610a5a57610a5a611313565b03610a785760405163214dacf960e11b815260040160405180910390fd5b60018060025460ff166003811115610a9257610a92611313565b14610abb576002546040516305fb5e1b60e01b815261069c91839160ff90911690600401611729565b335f9081526004602052604090205460ff1615610aeb576040516317fd8aab60e31b815260040160405180910390fd5b335f818152600460209081526040808320805460ff191660011790556006909152808220859055518492917f0000000000000000000000000000000000000000000000000000000000000000917f26a454697a4923cb3646779d831b5e4696bd3fab14b67dd6dfe23d72354f57dd9190a45050565b5f80546103c590611559565b336001600160a01b037f00000000000000000000000000000000000000000000000000000000000000001614610bb557604051633217675b60e21b815260040160405180910390fd5b6002805461ff001916610200178082556001600160a01b0385169161010090910460ff1690811115610be957610be9611313565b7f00000000000000000000000000000000000000000000000000000000000000007f7bf94aa98e004220f19fb43e7d8d6dabd2c23e3fadc2908d16dd25f52cd1c43b8585604051610c3b929190611771565b60405180910390a4505050565b335f9081526003602052604090205460ff16610c775760405163aba4733960e01b815260040160405180910390fd5b600160028054610100900460ff1690811115610c9557610c95611313565b03610cb3576040516327c0e7b560e01b815260040160405180910390fd5b6002808054610100900460ff1690811115610cd057610cd0611313565b03610cee5760405163214dacf960e11b815260040160405180910390fd5b60028060025460ff166003811115610d0857610d08611313565b14610d31576002546040516305fb5e1b60e01b815261069c91839160ff90911690600401611729565b335f9081526004602052604090205460ff16610d6057604051631918952960e01b815260040160405180910390fd5b335f9081526005602052604090205460ff1615610d905760405163a89ac15160e01b815260040160405180910390fd5b821580610dbc57507f000000000000000000000000000000000000000000000000000000000000000083115b15610dda5760405163e66ea08f60e01b815260040160405180910390fd5b60408051602080820186905281830185905282518083038401815260609092018352815191810191909120335f9081526006909252919020548114610e3257604051635054097b60e01b815260040160405180910390fd5b335f908152600560209081526040808320805460ff1916600190811790915587845260079092528220805491929091610e6c90849061178c565b90915550505f8481526007602052604090819020549051859133917f0000000000000000000000000000000000000000000000000000000000000000917f63ab6e5dc98a7d72f7b887b4479c584f5d1cc5e644f8b756c1213bc8e32f4f4291610ed791815260200190565b60405180910390a450505050565b336001600160a01b037f00000000000000000000000000000000000000000000000000000000000000001614801590610fa1575060405163df7f453b60e01b81523360048201527f00000000000000000000000000000000000000000000000000000000000000006001600160a01b03169063df7f453b90602401602060405180830381865afa158015610f7b573d5f803e3d5ffd5b505050506040513d601f19601f82011682018060405250810190610f9f919061170e565b155b15610fbf5760405163ea8e4eb560e01b815260040160405180910390fd5b600160028054610100900460ff1690811115610fdd57610fdd611313565b03610ffb576040516327c0e7b560e01b815260040160405180910390fd5b6002808054610100900460ff169081111561101857611018611313565b036110365760405163214dacf960e11b815260040160405180910390fd5b5f8060025460ff16600381111561104f5761104f611313565b14611078576002546040516305fb5e1b60e01b815261069c91839160ff90911690600401611729565b6001600160a01b0382165f818152600360209081526040808320805460ff19169055805192835233918301919091527f0000000000000000000000000000000000000000000000000000000000000000917f5b551e9aea49b0b85a31d13fd569c911ded7781feaae60c3603e3a968b05fc1391016109c6565b5f60038060025460ff16600381111561110c5761110c611313565b14611135576002546040516305fb5e1b60e01b815261069c91839160ff90911690600401611729565b82158061116157507f000000000000000000000000000000000000000000000000000000000000000083115b1561117f5760405163e66ea08f60e01b815260040160405180910390fd5b5f8381526007602052604090205491505b50919050565b336001600160a01b037f000000000000000000000000000000000000000000000000000000000000000016146111df57604051633217675b60e21b815260040160405180910390fd5b6002808054610100900460ff16908111156111fc576111fc611313565b0361121a5760405163214dacf960e11b815260040160405180910390fd5b83611225575f611228565b60015b6002805461ff001916610100838381111561124557611245611313565b0217905550826001600160a01b0316600260019054906101000a900460ff16600281111561127557611275611313565b7f00000000000000000000000000000000000000000000000000000000000000007f7bf94aa98e004220f19fb43e7d8d6dabd2c23e3fadc2908d16dd25f52cd1c43b8585604051610ed7929190611771565b5f602080835283518060208501525f5b818110156112f3578581018301518582016040015282016112d7565b505f604082860101526040601f19601f8301168501019250505092915050565b634e487b7160e01b5f52602160045260245ffd5b6004811061133757611337611313565b9052565b602081016113498284611327565b92915050565b5f8083601f84011261135f575f80fd5b50813567ffffffffffffffff811115611376575f80fd5b60208301915083602082850101111561138d575f80fd5b9250929050565b80356001600160a01b03811681146113aa575f80fd5b919050565b5f805f805f606086880312156113c3575f80fd5b853567ffffffffffffffff808211156113da575f80fd5b6113e689838a0161134f565b909750955060208801359150808211156113fe575f80fd5b5061140b8882890161134f565b909450925061141e905060408701611394565b90509295509295909350565b602081016003831061143e5761143e611313565b91905290565b5f60208284031215611454575f80fd5b61145d82611394565b9392505050565b5f60208284031215611474575f80fd5b5035919050565b5f805f6040848603121561148d575f80fd5b61149684611394565b9250602084013567ffffffffffffffff8111156114b1575f80fd5b6114bd8682870161134f565b9497909650939450505050565b5f80604083850312156114db575f80fd5b50508035926020909101359150565b80151581146114f7575f80fd5b50565b5f805f806060858703121561150d575f80fd5b8435611518816114ea565b935061152660208601611394565b9250604085013567ffffffffffffffff811115611541575f80fd5b61154d8782880161134f565b95989497509550505050565b600181811c9082168061156d57607f821691505b60208210810361119057634e487b7160e01b5f52602260045260245ffd5b634e487b7160e01b5f52604160045260245ffd5b601f8211156115e657805f5260205f20601f840160051c810160208510156115c45750805b601f840160051c820191505b818110156115e3575f81556001016115d0565b50505b505050565b67ffffffffffffffff8311156116035761160361158b565b611617836116118354611559565b8361159f565b5f601f841160018114611648575f85156116315750838201355b5f19600387901b1c1916600186901b1783556115e3565b5f83815260208120601f198716915b828110156116775786850135825560209485019460019092019101611657565b5086821015611693575f1960f88860031b161c19848701351681555b505060018560011b0183555050505050565b81835281816020850137505f828201602090810191909152601f909101601f19169091010190565b606081525f6116e06060830187896116a5565b82810360208401526116f38186886116a5565b91505060018060a01b03831660408301529695505050505050565b5f6020828403121561171e575f80fd5b815161145d816114ea565b604081016117378285611327565b61145d6020830184611327565b634e487b7160e01b5f52601160045260245ffd5b60ff818116838216019081111561134957611349611744565b602081525f6117846020830184866116a5565b949350505050565b808201808211156113495761134961174456fea2646970667358221220de1b7fb3cb2a1f117a9826adc0b0ccb9b51cc0d68dc1f1b06fee02980074fc4164736f6c63430008180033","linkReferences":{}},"methodIdentifiers":{"candidateCount()":"a9a981a3","commitVote(bytes32)":"3e858923","commitmentOf(address)":"f662b881","currentPhase()":"055ad42e","getResult(uint256)":"995e4339","hasCommitted(address)":"c6dbe15a","hasRevealed(address)":"b9a53013","isWhitelisted(address)":"3af32abf","metadataURI()":"03ee438c","registerVoter(address)":"38db6dd3","registry()":"7b103999","revealVote(uint256,bytes32)":"69edbcda","setSuspended(bool,address,string)":"fdbf64c2","spaceAdmin()":"7a967cd3","spaceId()":"6bf2ffa1","status()":"200d2ed2","terminate(address,string)":"534e0e9e","title()":"4a79d50c","transitionToNextPhase()":"0f8779c6","unregisterVoter(address)":"7ed17751","updateMetadata(string,string,address)":"07b63c29","voteCount(uint256)":"4fc8a20d"},"id":16}