{"abi":[{"type":"constructor","inputs":[{"name":"_registry","type":"address","internalType":"address"},{"name":"_spaceAdmin","type":"address","internalType":"address"},{"name":"_spaceId","type":"uint256","internalType":"uint256"},{"name":"_candidateCount","type":"uint256","internalType":"uint256"},{"name":"_title","type":"string","internalType":"string"},{"name":"_metadataURI","type":"string","internalType":"string"}],"stateMutability":"nonpayable"},{"type":"function","name":"candidateCount","inputs":[],"outputs":[{"name":"","type":"uint256","internalType":"uint256"}],"stateMutability":"view"},{"type":"function","name":"commitVote","inputs":[{"name":"commitment","type":"bytes32","internalType":"bytes32"}],"outputs":[],"stateMutability":"nonpayable"},{"type":"function","name":"commitmentOf","inputs":[{"name":"","type":"address","internalType":"address"}],"outputs":[{"name":"","type":"bytes32","internalType":"bytes32"}],"stateMutability":"view"},{"type":"function","name":"currentPhase","inputs":[],"outputs":[{"name":"","type":"uint8","internalType":"enum ElectionSpace.Phase"}],"stateMutability":"view"},{"type":"function","name":"getResult","inputs":[{"name":"candidateId","type":"uint256","internalType":"uint256"}],"outputs":[{"name":"","type":"uint256","internalType":"uint256"}],"stateMutability":"view"},{"type":"function","name":"hasCommitted","inputs":[{"name":"","type":"address","internalType":"address"}],"outputs":[{"name":"","type":"bool","internalType":"bool"}],"stateMutability":"view"},{"type":"function","name":"hasRevealed","inputs":[{"name":"","type":"address","internalType":"address"}],"outputs":[{"name":"","type":"bool","internalType":"bool"}],"stateMutability":"view"},{"type":"function","name":"isWhitelisted","inputs":[{"name":"","type":"address","internalType":"address"}],"outputs":[{"name":"","type":"bool","internalType":"bool"}],"stateMutability":"view"},{"type":"function","name":"metadataURI","inputs":[],"outputs":[{"name":"","type":"string","internalType":"string"}],"stateMutability":"view"},{"type":"function","name":"registerVoter","inputs":[{"name":"voter","type":"address","internalType":"address"}],"outputs":[],"stateMutability":"nonpayable"},{"type":"function","name":"registerVoters","inputs":[{"name":"voters","type":"address[]","internalType":"address[]"}],"outputs":[],"stateMutability":"nonpayable"},{"type":"function","name":"registry","inputs":[],"outputs":[{"name":"","type":"address","internalType":"address"}],"stateMutability":"view"},{"type":"function","name":"revealVote","inputs":[{"name":"candidateId","type":"uint256","internalType":"uint256"},{"name":"salt","type":"bytes32","internalType":"bytes32"}],"outputs":[],"stateMutability":"nonpayable"},{"type":"function","name":"setSuspended","inputs":[{"name":"suspended","type":"bool","internalType":"bool"},{"name":"actor","type":"address","internalType":"address"},{"name":"reasonCode","type":"string","internalType":"string"}],"outputs":[],"stateMutability":"nonpayable"},{"type":"function","name":"spaceAdmin","inputs":[],"outputs":[{"name":"","type":"address","internalType":"address"}],"stateMutability":"view"},{"type":"function","name":"spaceId","inputs":[],"outputs":[{"name":"","type":"uint256","internalType":"uint256"}],"stateMutability":"view"},{"type":"function","name":"status","inputs":[],"outputs":[{"name":"","type":"uint8","internalType":"enum ElectionSpace.ElectionStatus"}],"stateMutability":"view"},{"type":"function","name":"terminate","inputs":[{"name":"actor","type":"address","internalType":"address"},{"name":"reasonCode","type":"string","internalType":"string"}],"outputs":[],"stateMutability":"nonpayable"},{"type":"function","name":"title","inputs":[],"outputs":[{"name":"","type":"string","internalType":"string"}],"stateMutability":"view"},{"type":"function","name":"transitionToNextPhase","inputs":[],"outputs":[],"stateMutability":"nonpayable"},{"type":"function","name":"unregisterVoter","inputs":[{"name":"voter","type":"address","internalType":"address"}],"outputs":[],"stateMutability":"nonpayable"},{"type":"function","name":"updateMetadata","inputs":[{"name":"_title","type":"string","internalType":"string"},{"name":"_metadataURI","type":"string","internalType":"string"},{"name":"actor","type":"address","internalType":"address"}],"outputs":[],"stateMutability":"nonpayable"},{"type":"function","name":"voteCount","inputs":[{"name":"","type":"uint256","internalType":"uint256"}],"outputs":[{"name":"","type":"uint256","internalType":"uint256"}],"stateMutability":"view"},{"type":"event","name":"Committed","inputs":[{"name":"spaceId","type":"uint256","indexed":true,"internalType":"uint256"},{"name":"voter","type":"address","indexed":true,"internalType":"address"},{"name":"commitment","type":"bytes32","indexed":true,"internalType":"bytes32"}],"anonymous":false},{"type":"event","name":"ElectionMetadataUpdated","inputs":[{"name":"spaceId","type":"uint256","indexed":true,"internalType":"uint256"},{"name":"title","type":"string","indexed":false,"internalType":"string"},{"name":"metadataURI","type":"string","indexed":false,"internalType":"string"},{"name":"actor","type":"address","indexed":false,"internalType":"address"}],"anonymous":false},{"type":"event","name":"ElectionStatusChanged","inputs":[{"name":"spaceId","type":"uint256","indexed":true,"internalType":"uint256"},{"name":"status","type":"uint8","indexed":true,"internalType":"enum ElectionSpace.ElectionStatus"},{"name":"actor","type":"address","indexed":true,"internalType":"address"},{"name":"reasonCode","type":"string","indexed":false,"internalType":"string"}],"anonymous":false},{"type":"event","name":"PhaseChanged","inputs":[{"name":"spaceId","type":"uint256","indexed":true,"internalType":"uint256"},{"name":"previousPhase","type":"uint8","indexed":true,"internalType":"enum ElectionSpace.Phase"},{"name":"newPhase","type":"uint8","indexed":true,"internalType":"enum ElectionSpace.Phase"},{"name":"actor","type":"address","indexed":false,"internalType":"address"}],"anonymous":false},{"type":"event","name":"Revealed","inputs":[{"name":"spaceId","type":"uint256","indexed":true,"internalType":"uint256"},{"name":"voter","type":"address","indexed":true,"internalType":"address"},{"name":"candidateId","type":"uint256","indexed":true,"internalType":"uint256"},{"name":"newVoteCount","type":"uint256","indexed":false,"internalType":"uint256"}],"anonymous":false},{"type":"event","name":"WhitelistUpdated","inputs":[{"name":"spaceId","type":"uint256","indexed":true,"internalType":"uint256"},{"name":"voter","type":"address","indexed":true,"internalType":"address"},{"name":"isRegistered","type":"bool","indexed":false,"internalType":"bool"},{"name":"actor","type":"address","indexed":false,"internalType":"address"}],"anonymous":false},{"type":"error","name":"AlreadyCommitted","inputs":[]},{"type":"error","name":"AlreadyRegistered","inputs":[]},{"type":"error","name":"AlreadyRevealed","inputs":[]},{"type":"error","name":"CommitmentMismatch","inputs":[]},{"type":"error","name":"ElectionSuspended","inputs":[]},{"type":"error","name":"ElectionTerminated","inputs":[]},{"type":"error","name":"InvalidCandidate","inputs":[]},{"type":"error","name":"InvalidCommitment","inputs":[]},{"type":"error","name":"InvalidPhaseTransition","inputs":[{"name":"current","type":"uint8","internalType":"enum ElectionSpace.Phase"},{"name":"requested","type":"uint8","internalType":"enum ElectionSpace.Phase"}]},{"type":"error","name":"InvalidVoter","inputs":[]},{"type":"error","name":"NotAuthorized","inputs":[]},{"type":"error","name":"NotCommittedYet","inputs":[]},{"type":"error","name":"NotRegistered","inputs":[]},{"type":"error","name":"NotRegistry","inputs":[]},{"type":"error","name":"WrongPhase","inputs":[{"name":"expected","type":"uint8","internalType":"enum ElectionSpace.Phase"},{"name":"actual","type":"uint8","internalType":"enum ElectionSpace.Phase"}]}],"bytecode":{"object":"0x61010060405234801562000011575f80fd5b5060405162002035380380620020358339810160408190526200003491620001c1565b6001600160a01b03861615806200005257506001600160a01b038516155b15620000715760405163ea8e4eb560e01b815260040160405180910390fd5b825f03620000925760405163e66ea08f60e01b815260040160405180910390fd5b6001600160a01b03808716608052851660a05260c084905260e08390525f620000bc8382620002e8565b506001620000cb8282620002e8565b50506002805461ffff1916905550620003b49350505050565b80516001600160a01b0381168114620000fb575f80fd5b919050565b634e487b7160e01b5f52604160045260245ffd5b5f82601f83011262000124575f80fd5b81516001600160401b038082111562000141576200014162000100565b604051601f8301601f19908116603f011681019082821181831017156200016c576200016c62000100565b816040528381526020925086602085880101111562000189575f80fd5b5f91505b83821015620001ac57858201830151818301840152908201906200018d565b5f602085830101528094505050505092915050565b5f805f805f8060c08789031215620001d7575f80fd5b620001e287620000e4565b9550620001f260208801620000e4565b6040880151606089015160808a015192975090955093506001600160401b03808211156200021e575f80fd5b6200022c8a838b0162000114565b935060a089015191508082111562000242575f80fd5b506200025189828a0162000114565b9150509295509295509295565b600181811c908216806200027357607f821691505b6020821081036200029257634e487b7160e01b5f52602260045260245ffd5b50919050565b601f821115620002e357805f5260205f20601f840160051c81016020851015620002bf5750805b601f840160051c820191505b81811015620002e0575f8155600101620002cb565b50505b505050565b81516001600160401b0381111562000304576200030462000100565b6200031c816200031584546200025e565b8462000298565b602080601f83116001811462000352575f84156200033a5750858301515b5f19600386901b1c1916600185901b178555620003ac565b5f85815260208120601f198616915b82811015620003825788860151825594840194600190910190840162000361565b5085821015620003a057878501515f19600388901b60f8161c191681555b505060018460011b0185555b505050505050565b60805160a05160c05160e051611bb3620004825f395f818161032b01528181610e3e01526111fa01525f8181610278015281816105120152818161078d01528181610a0801528181610bbc01528181610c8f01528181610f44015281816111640152818161149601526115d201525f818161029f01528181610582015281816107e801528181610fab015261125c01525f81816102de0152818161046d015281816105c00152818161082601528181610c1b01528181610fe90152818161129a01526114fc0152611bb35ff3fe608060405234801561000f575f80fd5b5060043610610148575f3560e01c806369edbcda116100bf578063a9a981a311610079578063a9a981a314610326578063b9a530131461034d578063c6dbe15a1461036f578063d55ec9c114610391578063f662b881146103a4578063fdbf64c2146103c3575f80fd5b806369edbcda146102605780636bf2ffa1146102735780637a967cd31461029a5780637b103999146102d95780637ed1775114610300578063995e433914610313575f80fd5b806338db6dd31161011057806338db6dd3146101c05780633af32abf146101d35780633e858923146102055780634a79d50c146102185780634fc8a20d14610220578063534e0e9e1461024d575f80fd5b806303ee438c1461014c578063055ad42e1461016a57806307b63c29146101845780630f8779c614610199578063200d2ed2146101a1575b5f80fd5b6101546103d6565b6040516101619190611622565b60405180910390f35b6002546101779060ff1681565b6040516101619190611696565b61019761019236600461170a565b610462565b005b610197610577565b6002546101b390610100900460ff1681565b6040516101619190611785565b6101976101ce36600461179f565b6107dd565b6101f56101e136600461179f565b60036020525f908152604090205460ff1681565b6040519015158152602001610161565b6101976102133660046117bf565b610a58565b610154610c04565b61023f61022e3660046117bf565b60076020525f908152604090205481565b604051908152602001610161565b61019761025b3660046117d6565b610c10565b61019761026e366004611825565b610cec565b61023f7f000000000000000000000000000000000000000000000000000000000000000081565b6102c17f000000000000000000000000000000000000000000000000000000000000000081565b6040516001600160a01b039091168152602001610161565b6102c17f000000000000000000000000000000000000000000000000000000000000000081565b61019761030e36600461179f565b610fa0565b61023f6103213660046117bf565b6111ac565b61023f7f000000000000000000000000000000000000000000000000000000000000000081565b6101f561035b36600461179f565b60056020525f908152604090205460ff1681565b6101f561037d36600461179f565b60046020525f908152604090205460ff1681565b61019761039f366004611845565b611251565b61023f6103b236600461179f565b60066020525f908152604090205481565b6101976103d13660046118c4565b6114f1565b600180546103e390611923565b80601f016020809104026020016040519081016040528092919081815260200182805461040f90611923565b801561045a5780601f106104315761010080835404028352916020019161045a565b820191905f5260205f20905b81548152906001019060200180831161043d57829003601f168201915b505050505081565b336001600160a01b037f000000000000000000000000000000000000000000000000000000000000000016146104ab57604051633217675b60e21b815260040160405180910390fd5b5f60025460ff1660038111156104c3576104c361166e565b146104f5576002546040516305fb5e1b60e01b81526104ec915f9160ff90911690600401611955565b60405180910390fd5b5f6105018587836119d0565b50600161050f8385836119d0565b507f00000000000000000000000000000000000000000000000000000000000000007f4f86676f84ed8c8823cd1b5c0682bdfc9263d14d9879cd7609262de9f280002b8686868686604051610568959493929190611ab2565b60405180910390a25050505050565b336001600160a01b037f00000000000000000000000000000000000000000000000000000000000000001614801590610633575060405163df7f453b60e01b81523360048201527f00000000000000000000000000000000000000000000000000000000000000006001600160a01b03169063df7f453b90602401602060405180830381865afa15801561060d573d5f803e3d5ffd5b505050506040513d601f19601f820116820180604052508101906106319190611af3565b155b156106515760405163ea8e4eb560e01b815260040160405180910390fd5b600160028054610100900460ff169081111561066f5761066f61166e565b0361068d576040516327c0e7b560e01b815260040160405180910390fd5b6002808054610100900460ff16908111156106aa576106aa61166e565b036106c85760405163214dacf960e11b815260040160405180910390fd5b600360025460ff1660038111156106e1576106e161166e565b03610704576003806040516335c1372560e01b81526004016104ec929190611955565b60025460ff1680600381111561071c5761071c61166e565b610727906001611b22565b60ff16600381111561073b5761073b61166e565b6002805460ff191660018360038111156107575761075761166e565b021790555060025460ff1660038111156107735761077361166e565b8160038111156107855761078561166e565b6040513381527f0000000000000000000000000000000000000000000000000000000000000000907fb08bfe79d11e67f65c878f279728c4d53fc5dfc3373a20958345fcad3750953e9060200160405180910390a450565b336001600160a01b037f00000000000000000000000000000000000000000000000000000000000000001614801590610899575060405163df7f453b60e01b81523360048201527f00000000000000000000000000000000000000000000000000000000000000006001600160a01b03169063df7f453b90602401602060405180830381865afa158015610873573d5f803e3d5ffd5b505050506040513d601f19601f820116820180604052508101906108979190611af3565b155b156108b75760405163ea8e4eb560e01b815260040160405180910390fd5b600160028054610100900460ff16908111156108d5576108d561166e565b036108f3576040516327c0e7b560e01b815260040160405180910390fd5b6002808054610100900460ff16908111156109105761091061166e565b0361092e5760405163214dacf960e11b815260040160405180910390fd5b5f8060025460ff1660038111156109475761094761166e565b14610970576002546040516305fb5e1b60e01b81526104ec91839160ff90911690600401611955565b6001600160a01b038216610997576040516311745b2b60e31b815260040160405180910390fd5b6001600160a01b0382165f9081526003602052604090205460ff16156109d057604051630ea075bf60e21b815260040160405180910390fd5b6001600160a01b0382165f81815260036020908152604091829020805460ff19166001908117909155825190815233918101919091527f0000000000000000000000000000000000000000000000000000000000000000917f5b551e9aea49b0b85a31d13fd569c911ded7781feaae60c3603e3a968b05fc1391015b60405180910390a35050565b335f9081526003602052604090205460ff16610a875760405163aba4733960e01b815260040160405180910390fd5b600160028054610100900460ff1690811115610aa557610aa561166e565b03610ac3576040516327c0e7b560e01b815260040160405180910390fd5b6002808054610100900460ff1690811115610ae057610ae061166e565b03610afe5760405163214dacf960e11b815260040160405180910390fd5b60018060025460ff166003811115610b1857610b1861166e565b14610b41576002546040516305fb5e1b60e01b81526104ec91839160ff90911690600401611955565b335f9081526004602052604090205460ff1615610b71576040516317fd8aab60e31b815260040160405180910390fd5b81610b8f57604051636033c4fd60e11b815260040160405180910390fd5b335f818152600460209081526040808320805460ff191660011790556006909152808220859055518492917f0000000000000000000000000000000000000000000000000000000000000000917f26a454697a4923cb3646779d831b5e4696bd3fab14b67dd6dfe23d72354f57dd9190a45050565b5f80546103e390611923565b336001600160a01b037f00000000000000000000000000000000000000000000000000000000000000001614610c5957604051633217675b60e21b815260040160405180910390fd5b6002805461ff001916610200178082556001600160a01b0385169161010090910460ff1690811115610c8d57610c8d61166e565b7f00000000000000000000000000000000000000000000000000000000000000007f7bf94aa98e004220f19fb43e7d8d6dabd2c23e3fadc2908d16dd25f52cd1c43b8585604051610cdf929190611b3b565b60405180910390a4505050565b335f9081526003602052604090205460ff16610d1b5760405163aba4733960e01b815260040160405180910390fd5b600160028054610100900460ff1690811115610d3957610d3961166e565b03610d57576040516327c0e7b560e01b815260040160405180910390fd5b6002808054610100900460ff1690811115610d7457610d7461166e565b03610d925760405163214dacf960e11b815260040160405180910390fd5b60028060025460ff166003811115610dac57610dac61166e565b14610dd5576002546040516305fb5e1b60e01b81526104ec91839160ff90911690600401611955565b335f9081526004602052604090205460ff16610e0457604051631918952960e01b815260040160405180910390fd5b335f9081526005602052604090205460ff1615610e345760405163a89ac15160e01b815260040160405180910390fd5b821580610e6057507f000000000000000000000000000000000000000000000000000000000000000083115b15610e7e5760405163e66ea08f60e01b815260040160405180910390fd5b60408051602081018590529081018390523360608201523060808201524660a08201525f9060c00160408051601f198184030181529181528151602092830120335f90815260069093529120549091508114610eed57604051635054097b60e01b815260040160405180910390fd5b335f908152600560209081526040808320805460ff1916600190811790915587845260079092528220805491929091610f27908490611b56565b90915550505f8481526007602052604090819020549051859133917f0000000000000000000000000000000000000000000000000000000000000000917f63ab6e5dc98a7d72f7b887b4479c584f5d1cc5e644f8b756c1213bc8e32f4f4291610f9291815260200190565b60405180910390a450505050565b336001600160a01b037f0000000000000000000000000000000000000000000000000000000000000000161480159061105c575060405163df7f453b60e01b81523360048201527f00000000000000000000000000000000000000000000000000000000000000006001600160a01b03169063df7f453b90602401602060405180830381865afa158015611036573d5f803e3d5ffd5b505050506040513d601f19601f8201168201806040525081019061105a9190611af3565b155b1561107a5760405163ea8e4eb560e01b815260040160405180910390fd5b600160028054610100900460ff16908111156110985761109861166e565b036110b6576040516327c0e7b560e01b815260040160405180910390fd5b6002808054610100900460ff16908111156110d3576110d361166e565b036110f15760405163214dacf960e11b815260040160405180910390fd5b5f8060025460ff16600381111561110a5761110a61166e565b14611133576002546040516305fb5e1b60e01b81526104ec91839160ff90911690600401611955565b6001600160a01b0382165f818152600360209081526040808320805460ff19169055805192835233918301919091527f0000000000000000000000000000000000000000000000000000000000000000917f5b551e9aea49b0b85a31d13fd569c911ded7781feaae60c3603e3a968b05fc139101610a4c565b5f60038060025460ff1660038111156111c7576111c761166e565b146111f0576002546040516305fb5e1b60e01b81526104ec91839160ff90911690600401611955565b82158061121c57507f000000000000000000000000000000000000000000000000000000000000000083115b1561123a5760405163e66ea08f60e01b815260040160405180910390fd5b5f8381526007602052604090205491505b50919050565b336001600160a01b037f0000000000000000000000000000000000000000000000000000000000000000161480159061130d575060405163df7f453b60e01b81523360048201527f00000000000000000000000000000000000000000000000000000000000000006001600160a01b03169063df7f453b90602401602060405180830381865afa1580156112e7573d5f803e3d5ffd5b505050506040513d601f19601f8201168201806040525081019061130b9190611af3565b155b1561132b5760405163ea8e4eb560e01b815260040160405180910390fd5b600160028054610100900460ff16908111156113495761134961166e565b03611367576040516327c0e7b560e01b815260040160405180910390fd5b6002808054610100900460ff16908111156113845761138461166e565b036113a25760405163214dacf960e11b815260040160405180910390fd5b5f8060025460ff1660038111156113bb576113bb61166e565b146113e4576002546040516305fb5e1b60e01b81526104ec91839160ff90911690600401611955565b5f5b828110156114eb575f84848381811061140157611401611b69565b9050602002016020810190611416919061179f565b90506001600160a01b03811661143f576040516311745b2b60e31b815260040160405180910390fd5b6001600160a01b0381165f9081526003602052604090205460ff166114e2576001600160a01b0381165f81815260036020908152604091829020805460ff19166001908117909155825190815233918101919091527f0000000000000000000000000000000000000000000000000000000000000000917f5b551e9aea49b0b85a31d13fd569c911ded7781feaae60c3603e3a968b05fc13910160405180910390a35b506001016113e6565b50505050565b336001600160a01b037f0000000000000000000000000000000000000000000000000000000000000000161461153a57604051633217675b60e21b815260040160405180910390fd5b6002808054610100900460ff16908111156115575761155761166e565b036115755760405163214dacf960e11b815260040160405180910390fd5b83611580575f611583565b60015b6002805461ff00191661010083838111156115a0576115a061166e565b0217905550826001600160a01b0316600260019054906101000a900460ff1660028111156115d0576115d061166e565b7f00000000000000000000000000000000000000000000000000000000000000007f7bf94aa98e004220f19fb43e7d8d6dabd2c23e3fadc2908d16dd25f52cd1c43b8585604051610f92929190611b3b565b5f602080835283518060208501525f5b8181101561164e57858101830151858201604001528201611632565b505f604082860101526040601f19601f8301168501019250505092915050565b634e487b7160e01b5f52602160045260245ffd5b600481106116925761169261166e565b9052565b602081016116a48284611682565b92915050565b5f8083601f8401126116ba575f80fd5b50813567ffffffffffffffff8111156116d1575f80fd5b6020830191508360208285010111156116e8575f80fd5b9250929050565b80356001600160a01b0381168114611705575f80fd5b919050565b5f805f805f6060868803121561171e575f80fd5b853567ffffffffffffffff80821115611735575f80fd5b61174189838a016116aa565b90975095506020880135915080821115611759575f80fd5b50611766888289016116aa565b90945092506117799050604087016116ef565b90509295509295909350565b60208101600383106117995761179961166e565b91905290565b5f602082840312156117af575f80fd5b6117b8826116ef565b9392505050565b5f602082840312156117cf575f80fd5b5035919050565b5f805f604084860312156117e8575f80fd5b6117f1846116ef565b9250602084013567ffffffffffffffff81111561180c575f80fd5b611818868287016116aa565b9497909650939450505050565b5f8060408385031215611836575f80fd5b50508035926020909101359150565b5f8060208385031215611856575f80fd5b823567ffffffffffffffff8082111561186d575f80fd5b818501915085601f830112611880575f80fd5b81358181111561188e575f80fd5b8660208260051b85010111156118a2575f80fd5b60209290920196919550909350505050565b80151581146118c1575f80fd5b50565b5f805f80606085870312156118d7575f80fd5b84356118e2816118b4565b93506118f0602086016116ef565b9250604085013567ffffffffffffffff81111561190b575f80fd5b611917878288016116aa565b95989497509550505050565b600181811c9082168061193757607f821691505b60208210810361124b57634e487b7160e01b5f52602260045260245ffd5b604081016119638285611682565b6117b86020830184611682565b634e487b7160e01b5f52604160045260245ffd5b601f8211156119cb57805f5260205f20601f840160051c810160208510156119a95750805b601f840160051c820191505b818110156119c8575f81556001016119b5565b50505b505050565b67ffffffffffffffff8311156119e8576119e8611970565b6119fc836119f68354611923565b83611984565b5f601f841160018114611a2d575f8515611a165750838201355b5f19600387901b1c1916600186901b1783556119c8565b5f83815260208120601f198716915b82811015611a5c5786850135825560209485019460019092019101611a3c565b5086821015611a78575f1960f88860031b161c19848701351681555b505060018560011b0183555050505050565b81835281816020850137505f828201602090810191909152601f909101601f19169091010190565b606081525f611ac5606083018789611a8a565b8281036020840152611ad8818688611a8a565b91505060018060a01b03831660408301529695505050505050565b5f60208284031215611b03575f80fd5b81516117b8816118b4565b634e487b7160e01b5f52601160045260245ffd5b60ff81811683821601908111156116a4576116a4611b0e565b602081525f611b4e602083018486611a8a565b949350505050565b808201808211156116a4576116a4611b0e565b634e487b7160e01b5f52603260045260245ffdfea2646970667358221220406d6cc0a0943f96d3c6d57a8ac57d885e0340c62e24638ca4f2cfaf5e058b2864736f6c63430008180033","linkReferences":{}},"methodIdentifiers":{"candidateCount()":"a9a981a3","commitVote(bytes32)":"3e858923","commitmentOf(address)":"f662b881","currentPhase()":"055ad42e","getResult(uint256)":"995e4339","hasCommitted(address)":"c6dbe15a","hasRevealed(address)":"b9a53013","isWhitelisted(address)":"3af32abf","metadataURI()":"03ee438c","registerVoter(address)":"38db6dd3","registerVoters(address[])":"d55ec9c1","registry()":"7b103999","revealVote(uint256,bytes32)":"69edbcda","setSuspended(bool,address,string)":"fdbf64c2","spaceAdmin()":"7a967cd3","spaceId()":"6bf2ffa1","status()":"200d2ed2","terminate(address,string)":"534e0e9e","title()":"4a79d50c","transitionToNextPhase()":"0f8779c6","unregisterVoter(address)":"7ed17751","updateMetadata(string,string,address)":"07b63c29","voteCount(uint256)":"4fc8a20d"},"id":16}