{"abi":[{"type":"constructor","inputs":[{"name":"_registry","type":"address","internalType":"address"},{"name":"_spaceAdmin","type":"address","internalType":"address"},{"name":"_spaceId","type":"uint256","internalType":"uint256"},{"name":"_candidateCount","type":"uint256","internalType":"uint256"}],"stateMutability":"nonpayable"},{"type":"function","name":"candidateCount","inputs":[],"outputs":[{"name":"","type":"uint256","internalType":"uint256"}],"stateMutability":"view"},{"type":"function","name":"commitVote","inputs":[{"name":"commitment","type":"bytes32","internalType":"bytes32"}],"outputs":[],"stateMutability":"nonpayable"},{"type":"function","name":"commitVoteGasless","inputs":[{"name":"voter","type":"address","internalType":"address"},{"name":"commitment","type":"bytes32","internalType":"bytes32"},{"name":"signature","type":"bytes","internalType":"bytes"}],"outputs":[],"stateMutability":"nonpayable"},{"type":"function","name":"commitmentOf","inputs":[{"name":"","type":"address","internalType":"address"}],"outputs":[{"name":"","type":"bytes32","internalType":"bytes32"}],"stateMutability":"view"},{"type":"function","name":"currentPhase","inputs":[],"outputs":[{"name":"","type":"uint8","internalType":"enum ElectionSpace.Phase"}],"stateMutability":"view"},{"type":"function","name":"getResult","inputs":[{"name":"candidateId","type":"uint256","internalType":"uint256"}],"outputs":[{"name":"","type":"uint256","internalType":"uint256"}],"stateMutability":"view"},{"type":"function","name":"hasCommitted","inputs":[{"name":"","type":"address","internalType":"address"}],"outputs":[{"name":"","type":"bool","internalType":"bool"}],"stateMutability":"view"},{"type":"function","name":"hasRevealed","inputs":[{"name":"","type":"address","internalType":"address"}],"outputs":[{"name":"","type":"bool","internalType":"bool"}],"stateMutability":"view"},{"type":"function","name":"isWhitelisted","inputs":[{"name":"","type":"address","internalType":"address"}],"outputs":[{"name":"","type":"bool","internalType":"bool"}],"stateMutability":"view"},{"type":"function","name":"recoverSigner","inputs":[{"name":"_ethSignedMessageHash","type":"bytes32","internalType":"bytes32"},{"name":"_signature","type":"bytes","internalType":"bytes"}],"outputs":[{"name":"","type":"address","internalType":"address"}],"stateMutability":"pure"},{"type":"function","name":"registerVoter","inputs":[{"name":"voter","type":"address","internalType":"address"}],"outputs":[],"stateMutability":"nonpayable"},{"type":"function","name":"registry","inputs":[],"outputs":[{"name":"","type":"address","internalType":"address"}],"stateMutability":"view"},{"type":"function","name":"revealVote","inputs":[{"name":"candidateId","type":"uint256","internalType":"uint256"},{"name":"salt","type":"bytes32","internalType":"bytes32"}],"outputs":[],"stateMutability":"nonpayable"},{"type":"function","name":"revealVoteGasless","inputs":[{"name":"voter","type":"address","internalType":"address"},{"name":"candidateId","type":"uint256","internalType":"uint256"},{"name":"salt","type":"bytes32","internalType":"bytes32"},{"name":"signature","type":"bytes","internalType":"bytes"}],"outputs":[],"stateMutability":"nonpayable"},{"type":"function","name":"setSuspended","inputs":[{"name":"suspended","type":"bool","internalType":"bool"},{"name":"actor","type":"address","internalType":"address"},{"name":"reasonCode","type":"string","internalType":"string"}],"outputs":[],"stateMutability":"nonpayable"},{"type":"function","name":"spaceAdmin","inputs":[],"outputs":[{"name":"","type":"address","internalType":"address"}],"stateMutability":"view"},{"type":"function","name":"spaceId","inputs":[],"outputs":[{"name":"","type":"uint256","internalType":"uint256"}],"stateMutability":"view"},{"type":"function","name":"splitSignature","inputs":[{"name":"sig","type":"bytes","internalType":"bytes"}],"outputs":[{"name":"r","type":"bytes32","internalType":"bytes32"},{"name":"s","type":"bytes32","internalType":"bytes32"},{"name":"v","type":"uint8","internalType":"uint8"}],"stateMutability":"pure"},{"type":"function","name":"status","inputs":[],"outputs":[{"name":"","type":"uint8","internalType":"enum ElectionSpace.ElectionStatus"}],"stateMutability":"view"},{"type":"function","name":"terminate","inputs":[{"name":"actor","type":"address","internalType":"address"},{"name":"reasonCode","type":"string","internalType":"string"}],"outputs":[],"stateMutability":"nonpayable"},{"type":"function","name":"transitionToNextPhase","inputs":[],"outputs":[],"stateMutability":"nonpayable"},{"type":"function","name":"unregisterVoter","inputs":[{"name":"voter","type":"address","internalType":"address"}],"outputs":[],"stateMutability":"nonpayable"},{"type":"function","name":"voteCount","inputs":[{"name":"","type":"uint256","internalType":"uint256"}],"outputs":[{"name":"","type":"uint256","internalType":"uint256"}],"stateMutability":"view"},{"type":"event","name":"Committed","inputs":[{"name":"spaceId","type":"uint256","indexed":true,"internalType":"uint256"},{"name":"voter","type":"address","indexed":true,"internalType":"address"},{"name":"commitment","type":"bytes32","indexed":true,"internalType":"bytes32"}],"anonymous":false},{"type":"event","name":"ElectionStatusChanged","inputs":[{"name":"spaceId","type":"uint256","indexed":true,"internalType":"uint256"},{"name":"status","type":"uint8","indexed":true,"internalType":"enum ElectionSpace.ElectionStatus"},{"name":"actor","type":"address","indexed":true,"internalType":"address"},{"name":"reasonCode","type":"string","indexed":false,"internalType":"string"}],"anonymous":false},{"type":"event","name":"PhaseChanged","inputs":[{"name":"spaceId","type":"uint256","indexed":true,"internalType":"uint256"},{"name":"previousPhase","type":"uint8","indexed":true,"internalType":"enum ElectionSpace.Phase"},{"name":"newPhase","type":"uint8","indexed":true,"internalType":"enum ElectionSpace.Phase"},{"name":"actor","type":"address","indexed":false,"internalType":"address"}],"anonymous":false},{"type":"event","name":"Revealed","inputs":[{"name":"spaceId","type":"uint256","indexed":true,"internalType":"uint256"},{"name":"voter","type":"address","indexed":true,"internalType":"address"},{"name":"candidateId","type":"uint256","indexed":true,"internalType":"uint256"},{"name":"newVoteCount","type":"uint256","indexed":false,"internalType":"uint256"}],"anonymous":false},{"type":"event","name":"WhitelistUpdated","inputs":[{"name":"spaceId","type":"uint256","indexed":true,"internalType":"uint256"},{"name":"voter","type":"address","indexed":true,"internalType":"address"},{"name":"isRegistered","type":"bool","indexed":false,"internalType":"bool"},{"name":"actor","type":"address","indexed":false,"internalType":"address"}],"anonymous":false},{"type":"error","name":"AlreadyCommitted","inputs":[]},{"type":"error","name":"AlreadyRegistered","inputs":[]},{"type":"error","name":"AlreadyRevealed","inputs":[]},{"type":"error","name":"CommitmentMismatch","inputs":[]},{"type":"error","name":"ElectionSuspended","inputs":[]},{"type":"error","name":"ElectionTerminated","inputs":[]},{"type":"error","name":"InvalidCandidate","inputs":[]},{"type":"error","name":"InvalidPhaseTransition","inputs":[{"name":"current","type":"uint8","internalType":"enum ElectionSpace.Phase"},{"name":"requested","type":"uint8","internalType":"enum ElectionSpace.Phase"}]},{"type":"error","name":"NotAuthorized","inputs":[]},{"type":"error","name":"NotCommittedYet","inputs":[]},{"type":"error","name":"NotRegistered","inputs":[]},{"type":"error","name":"NotRegistry","inputs":[]},{"type":"error","name":"WrongPhase","inputs":[{"name":"expected","type":"uint8","internalType":"enum ElectionSpace.Phase"},{"name":"actual","type":"uint8","internalType":"enum ElectionSpace.Phase"}]}],"bytecode":{"object":"0x61010060405234801562000011575f80fd5b5060405162001f1b38038062001f1b8339810160408190526200003491620000dc565b6001600160a01b03841615806200005257506001600160a01b038316155b15620000715760405163ea8e4eb560e01b815260040160405180910390fd5b805f03620000925760405163e66ea08f60e01b815260040160405180910390fd5b6001600160a01b039384166080529190921660a05260c09190915260e0525f805461ffff1916905562000121565b80516001600160a01b0381168114620000d7575f80fd5b919050565b5f805f8060808587031215620000f0575f80fd5b620000fb85620000c0565b93506200010b60208601620000c0565b6040860151606090960151949790965092505050565b60805160a05160c05160e051611d3a620001e15f395f818161035001528181610c6501528181611080015261153501525f8181610246015281816106150152818161085f015281816109f201528181610ab901528181610d5401528181610f710152818161133b0152818161173e015261188f01525f818161026d01528181610406015281816106700152610dbb01525f81816102ac01528181610444015281816106ae01528181610a4501528181610df901526117be0152611d3a5ff3fe608060405234801561000f575f80fd5b5060043610610148575f3560e01c80637b103999116100bf578063a9a981a311610079578063a9a981a31461034b578063b620cbd914610372578063b9a5301314610385578063c6dbe15a146103a7578063f662b881146103c9578063fdbf64c2146103e8575f80fd5b80637b103999146102a75780637ed17751146102ce57806397aba7f9146102e1578063995e4339146102f45780639f42d12014610307578063a7bb58031461031a575f80fd5b80633e858923116101105780633e858923146101db5780634fc8a20d146101ee578063534e0e9e1461021b57806369edbcda1461022e5780636bf2ffa1146102415780637a967cd314610268575f80fd5b8063055ad42e1461014c5780630f8779c61461016e578063200d2ed21461017857806338db6dd3146101965780633af32abf146101a9575b5f80fd5b5f546101589060ff1681565b6040516101659190611907565b60405180910390f35b6101766103fb565b005b5f5461018990610100900460ff1681565b6040516101659190611915565b6101766101a436600461194a565b610665565b6101cb6101b736600461194a565b60016020525f908152604090205460ff1681565b6040519015158152602001610165565b6101766101e936600461196a565b6108af565b61020d6101fc36600461196a565b60056020525f908152604090205481565b604051908152602001610165565b6101766102293660046119c6565b610a3a565b61017661023c366004611a15565b610b16565b61020d7f000000000000000000000000000000000000000000000000000000000000000081565b61028f7f000000000000000000000000000000000000000000000000000000000000000081565b6040516001600160a01b039091168152602001610165565b61028f7f000000000000000000000000000000000000000000000000000000000000000081565b6101766102dc36600461194a565b610db0565b61028f6102ef366004611ad2565b610fb9565b61020d61030236600461196a565b611034565b610176610315366004611b16565b6110d3565b61032d610328366004611b6c565b611389565b60408051938452602084019290925260ff1690820152606001610165565b61020d7f000000000000000000000000000000000000000000000000000000000000000081565b610176610380366004611ba6565b6113cb565b6101cb61039336600461194a565b60036020525f908152604090205460ff1681565b6101cb6103b536600461194a565b60026020525f908152604090205460ff1681565b61020d6103d736600461194a565b60046020525f908152604090205481565b6101766103f6366004611c19565b6117b3565b336001600160a01b037f000000000000000000000000000000000000000000000000000000000000000016148015906104b7575060405163df7f453b60e01b81523360048201527f00000000000000000000000000000000000000000000000000000000000000006001600160a01b03169063df7f453b90602401602060405180830381865afa158015610491573d5f803e3d5ffd5b505050506040513d601f19601f820116820180604052508101906104b59190611c60565b155b156104d55760405163ea8e4eb560e01b815260040160405180910390fd5b60015f54610100900460ff1660028111156104f2576104f26118df565b03610510576040516327c0e7b560e01b815260040160405180910390fd5b60025f54610100900460ff16600281111561052d5761052d6118df565b0361054b5760405163214dacf960e11b815260040160405180910390fd5b60035f5460ff166003811115610563576105636118df565b0361058f576003806040516335c1372560e01b8152600401610586929190611c7b565b60405180910390fd5b5f5460ff168060038111156105a6576105a66118df565b6105b1906001611caa565b60ff1660038111156105c5576105c56118df565b5f805460ff191660018360038111156105e0576105e06118df565b02179055505f5460ff1660038111156105fb576105fb6118df565b81600381111561060d5761060d6118df565b6040513381527f0000000000000000000000000000000000000000000000000000000000000000907fb08bfe79d11e67f65c878f279728c4d53fc5dfc3373a20958345fcad3750953e9060200160405180910390a450565b336001600160a01b037f00000000000000000000000000000000000000000000000000000000000000001614801590610721575060405163df7f453b60e01b81523360048201527f00000000000000000000000000000000000000000000000000000000000000006001600160a01b03169063df7f453b90602401602060405180830381865afa1580156106fb573d5f803e3d5ffd5b505050506040513d601f19601f8201168201806040525081019061071f9190611c60565b155b1561073f5760405163ea8e4eb560e01b815260040160405180910390fd5b60015f54610100900460ff16600281111561075c5761075c6118df565b0361077a576040516327c0e7b560e01b815260040160405180910390fd5b60025f54610100900460ff166002811115610797576107976118df565b036107b55760405163214dacf960e11b815260040160405180910390fd5b5f805f5460ff1660038111156107cd576107cd6118df565b146107f5575f546040516305fb5e1b60e01b815261058691839160ff90911690600401611c7b565b6001600160a01b0382165f9081526001602052604090205460ff161561082e57604051630ea075bf60e21b815260040160405180910390fd5b6001600160a01b0382165f81815260016020818152604092839020805460ff191683179055825191825233908201527f0000000000000000000000000000000000000000000000000000000000000000917f5b551e9aea49b0b85a31d13fd569c911ded7781feaae60c3603e3a968b05fc1391015b60405180910390a35050565b335f9081526001602052604090205460ff166108de5760405163aba4733960e01b815260040160405180910390fd5b60015f54610100900460ff1660028111156108fb576108fb6118df565b03610919576040516327c0e7b560e01b815260040160405180910390fd5b60025f54610100900460ff166002811115610936576109366118df565b036109545760405163214dacf960e11b815260040160405180910390fd5b6001805f5460ff16600381111561096d5761096d6118df565b14610995575f546040516305fb5e1b60e01b815261058691839160ff90911690600401611c7b565b335f9081526002602052604090205460ff16156109c5576040516317fd8aab60e31b815260040160405180910390fd5b335f818152600260209081526040808320805460ff191660011790556004909152808220859055518492917f0000000000000000000000000000000000000000000000000000000000000000917f26a454697a4923cb3646779d831b5e4696bd3fab14b67dd6dfe23d72354f57dd9190a45050565b336001600160a01b037f00000000000000000000000000000000000000000000000000000000000000001614610a8357604051633217675b60e21b815260040160405180910390fd5b5f805461ff00191661020017908190556001600160a01b03841690610100900460ff166002811115610ab757610ab76118df565b7f00000000000000000000000000000000000000000000000000000000000000007f7bf94aa98e004220f19fb43e7d8d6dabd2c23e3fadc2908d16dd25f52cd1c43b8585604051610b09929190611cc3565b60405180910390a4505050565b335f9081526001602052604090205460ff16610b455760405163aba4733960e01b815260040160405180910390fd5b60015f54610100900460ff166002811115610b6257610b626118df565b03610b80576040516327c0e7b560e01b815260040160405180910390fd5b60025f54610100900460ff166002811115610b9d57610b9d6118df565b03610bbb5760405163214dacf960e11b815260040160405180910390fd5b6002805f5460ff166003811115610bd457610bd46118df565b14610bfc575f546040516305fb5e1b60e01b815261058691839160ff90911690600401611c7b565b335f9081526002602052604090205460ff16610c2b57604051631918952960e01b815260040160405180910390fd5b335f9081526003602052604090205460ff1615610c5b5760405163a89ac15160e01b815260040160405180910390fd5b821580610c8757507f000000000000000000000000000000000000000000000000000000000000000083115b15610ca55760405163e66ea08f60e01b815260040160405180910390fd5b60408051602080820186905281830185905282518083038401815260609092018352815191810191909120335f9081526004909252919020548114610cfd57604051635054097b60e01b815260040160405180910390fd5b335f908152600360209081526040808320805460ff1916600190811790915587845260059092528220805491929091610d37908490611cf1565b90915550505f8481526005602052604090819020549051859133917f0000000000000000000000000000000000000000000000000000000000000000917f63ab6e5dc98a7d72f7b887b4479c584f5d1cc5e644f8b756c1213bc8e32f4f4291610da291815260200190565b60405180910390a450505050565b336001600160a01b037f00000000000000000000000000000000000000000000000000000000000000001614801590610e6c575060405163df7f453b60e01b81523360048201527f00000000000000000000000000000000000000000000000000000000000000006001600160a01b03169063df7f453b90602401602060405180830381865afa158015610e46573d5f803e3d5ffd5b505050506040513d601f19601f82011682018060405250810190610e6a9190611c60565b155b15610e8a5760405163ea8e4eb560e01b815260040160405180910390fd5b60015f54610100900460ff166002811115610ea757610ea76118df565b03610ec5576040516327c0e7b560e01b815260040160405180910390fd5b60025f54610100900460ff166002811115610ee257610ee26118df565b03610f005760405163214dacf960e11b815260040160405180910390fd5b5f805f5460ff166003811115610f1857610f186118df565b14610f40575f546040516305fb5e1b60e01b815261058691839160ff90911690600401611c7b565b6001600160a01b0382165f818152600160209081526040808320805460ff19169055805192835233918301919091527f0000000000000000000000000000000000000000000000000000000000000000917f5b551e9aea49b0b85a31d13fd569c911ded7781feaae60c3603e3a968b05fc1391016108a3565b5f805f80610fc685611389565b604080515f8152602081018083528b905260ff8316918101919091526060810184905260808101839052929550909350915060019060a0016020604051602081039080840390855afa15801561101e573d5f803e3d5ffd5b5050506020604051035193505050505b92915050565b5f6003805f5460ff16600381111561104e5761104e6118df565b14611076575f546040516305fb5e1b60e01b815261058691839160ff90911690600401611c7b565b8215806110a257507f000000000000000000000000000000000000000000000000000000000000000083115b156110c05760405163e66ea08f60e01b815260040160405180910390fd5b50505f9081526005602052604090205490565b60015f54610100900460ff1660028111156110f0576110f06118df565b0361110e576040516327c0e7b560e01b815260040160405180910390fd5b60025f54610100900460ff16600281111561112b5761112b6118df565b036111495760405163214dacf960e11b815260040160405180910390fd5b6001805f5460ff166003811115611162576111626118df565b1461118a575f546040516305fb5e1b60e01b815261058691839160ff90911690600401611c7b565b6001600160a01b0385165f9081526001602052604090205460ff166111c25760405163aba4733960e01b815260040160405180910390fd5b6001600160a01b0385165f9081526002602052604090205460ff16156111fb576040516317fd8aab60e31b815260040160405180910390fd5b6040516bffffffffffffffffffffffff19606087901b166020820152603481018590525f906054016040516020818303038152906040528051906020012090505f8160405160200161127991907f19457468657265756d205369676e6564204d6573736167653a0a3332000000008152601c810191909152603c0190565b6040516020818303038152906040528051906020012090505f6112d18287878080601f0160208091040260200160405190810160405280939291908181526020018383808284375f92019190915250610fb992505050565b9050876001600160a01b0316816001600160a01b03161461130557604051635054097b60e01b815260040160405180910390fd5b6001600160a01b0388165f818152600260209081526040808320805460ff1916600117905560049091528082208a9055518992917f0000000000000000000000000000000000000000000000000000000000000000917f26a454697a4923cb3646779d831b5e4696bd3fab14b67dd6dfe23d72354f57dd9190a45050505050505050565b5f805f83516041146113ae5760405163ea8e4eb560e01b815260040160405180910390fd5b5050506020810151604082015160609092015190925f9190911a90565b60015f54610100900460ff1660028111156113e8576113e86118df565b03611406576040516327c0e7b560e01b815260040160405180910390fd5b60025f54610100900460ff166002811115611423576114236118df565b036114415760405163214dacf960e11b815260040160405180910390fd5b6002805f5460ff16600381111561145a5761145a6118df565b14611482575f546040516305fb5e1b60e01b815261058691839160ff90911690600401611c7b565b6001600160a01b0386165f9081526001602052604090205460ff166114ba5760405163aba4733960e01b815260040160405180910390fd5b6001600160a01b0386165f9081526002602052604090205460ff166114f257604051631918952960e01b815260040160405180910390fd5b6001600160a01b0386165f9081526003602052604090205460ff161561152b5760405163a89ac15160e01b815260040160405180910390fd5b84158061155757507f000000000000000000000000000000000000000000000000000000000000000085115b156115755760405163e66ea08f60e01b815260040160405180910390fd5b6040516bffffffffffffffffffffffff19606088901b16602082015260348101869052605481018590525f906074016040516020818303038152906040528051906020012090505f816040516020016115fa91907f19457468657265756d205369676e6564204d6573736167653a0a3332000000008152601c810191909152603c0190565b6040516020818303038152906040528051906020012090505f6116528287878080601f0160208091040260200160405190810160405280939291908181526020018383808284375f92019190915250610fb992505050565b9050886001600160a01b0316816001600160a01b03161461168657604051635054097b60e01b815260040160405180910390fd5b6040805160208082018b90528183018a9052825180830384018152606090920183528151918101919091206001600160a01b038c165f90815260049092529190205481146116e757604051635054097b60e01b815260040160405180910390fd5b6001600160a01b038a165f908152600360209081526040808320805460ff191660019081179091558c84526005909252822080549192909161172a908490611cf1565b92505081905550888a6001600160a01b03167f00000000000000000000000000000000000000000000000000000000000000007f63ab6e5dc98a7d72f7b887b4479c584f5d1cc5e644f8b756c1213bc8e32f4f4260055f8e81526020019081526020015f205460405161179f91815260200190565b60405180910390a450505050505050505050565b336001600160a01b037f000000000000000000000000000000000000000000000000000000000000000016146117fc57604051633217675b60e21b815260040160405180910390fd5b60025f54610100900460ff166002811115611819576118196118df565b036118375760405163214dacf960e11b815260040160405180910390fd5b83611842575f611845565b60015b5f805461ff001916610100836002811115611862576118626118df565b02179055505f546001600160a01b03841690610100900460ff16600281111561188d5761188d6118df565b7f00000000000000000000000000000000000000000000000000000000000000007f7bf94aa98e004220f19fb43e7d8d6dabd2c23e3fadc2908d16dd25f52cd1c43b8585604051610da2929190611cc3565b634e487b7160e01b5f52602160045260245ffd5b60048110611903576119036118df565b9052565b6020810161102e82846118f3565b6020810160038310611929576119296118df565b91905290565b80356001600160a01b0381168114611945575f80fd5b919050565b5f6020828403121561195a575f80fd5b6119638261192f565b9392505050565b5f6020828403121561197a575f80fd5b5035919050565b5f8083601f840112611991575f80fd5b50813567ffffffffffffffff8111156119a8575f80fd5b6020830191508360208285010111156119bf575f80fd5b9250929050565b5f805f604084860312156119d8575f80fd5b6119e18461192f565b9250602084013567ffffffffffffffff8111156119fc575f80fd5b611a0886828701611981565b9497909650939450505050565b5f8060408385031215611a26575f80fd5b50508035926020909101359150565b634e487b7160e01b5f52604160045260245ffd5b5f82601f830112611a58575f80fd5b813567ffffffffffffffff80821115611a7357611a73611a35565b604051601f8301601f19908116603f01168101908282118183101715611a9b57611a9b611a35565b81604052838152866020858801011115611ab3575f80fd5b836020870160208301375f602085830101528094505050505092915050565b5f8060408385031215611ae3575f80fd5b82359150602083013567ffffffffffffffff811115611b00575f80fd5b611b0c85828601611a49565b9150509250929050565b5f805f8060608587031215611b29575f80fd5b611b328561192f565b935060208501359250604085013567ffffffffffffffff811115611b54575f80fd5b611b6087828801611981565b95989497509550505050565b5f60208284031215611b7c575f80fd5b813567ffffffffffffffff811115611b92575f80fd5b611b9e84828501611a49565b949350505050565b5f805f805f60808688031215611bba575f80fd5b611bc38661192f565b94506020860135935060408601359250606086013567ffffffffffffffff811115611bec575f80fd5b611bf888828901611981565b969995985093965092949392505050565b8015158114611c16575f80fd5b50565b5f805f8060608587031215611c2c575f80fd5b8435611c3781611c09565b9350611c456020860161192f565b9250604085013567ffffffffffffffff811115611b54575f80fd5b5f60208284031215611c70575f80fd5b815161196381611c09565b60408101611c8982856118f3565b61196360208301846118f3565b634e487b7160e01b5f52601160045260245ffd5b60ff818116838216019081111561102e5761102e611c96565b60208152816020820152818360408301375f818301604090810191909152601f909201601f19160101919050565b8082018082111561102e5761102e611c9656fea26469706673582212209b4f8fbba44eb52326d309e703447597a9f012a25f22a120d9404016a9d92ac664736f6c63430008180033","linkReferences":{}},"methodIdentifiers":{"candidateCount()":"a9a981a3","commitVote(bytes32)":"3e858923","commitVoteGasless(address,bytes32,bytes)":"9f42d120","commitmentOf(address)":"f662b881","currentPhase()":"055ad42e","getResult(uint256)":"995e4339","hasCommitted(address)":"c6dbe15a","hasRevealed(address)":"b9a53013","isWhitelisted(address)":"3af32abf","recoverSigner(bytes32,bytes)":"97aba7f9","registerVoter(address)":"38db6dd3","registry()":"7b103999","revealVote(uint256,bytes32)":"69edbcda","revealVoteGasless(address,uint256,bytes32,bytes)":"b620cbd9","setSuspended(bool,address,string)":"fdbf64c2","spaceAdmin()":"7a967cd3","spaceId()":"6bf2ffa1","splitSignature(bytes)":"a7bb5803","status()":"200d2ed2","terminate(address,string)":"534e0e9e","transitionToNextPhase()":"0f8779c6","unregisterVoter(address)":"7ed17751","voteCount(uint256)":"4fc8a20d"},"id":16}