{"abi":[{"type":"constructor","inputs":[{"name":"_registry","type":"address","internalType":"address"},{"name":"_spaceAdmin","type":"address","internalType":"address"},{"name":"_spaceId","type":"uint256","internalType":"uint256"},{"name":"_candidateCount","type":"uint256","internalType":"uint256"}],"stateMutability":"nonpayable"},{"type":"function","name":"candidateCount","inputs":[],"outputs":[{"name":"","type":"uint256","internalType":"uint256"}],"stateMutability":"view"},{"type":"function","name":"commitVote","inputs":[{"name":"commitment","type":"bytes32","internalType":"bytes32"}],"outputs":[],"stateMutability":"nonpayable"},{"type":"function","name":"commitmentOf","inputs":[{"name":"","type":"address","internalType":"address"}],"outputs":[{"name":"","type":"bytes32","internalType":"bytes32"}],"stateMutability":"view"},{"type":"function","name":"currentPhase","inputs":[],"outputs":[{"name":"","type":"uint8","internalType":"enum ElectionSpace.Phase"}],"stateMutability":"view"},{"type":"function","name":"getResult","inputs":[{"name":"candidateId","type":"uint256","internalType":"uint256"}],"outputs":[{"name":"","type":"uint256","internalType":"uint256"}],"stateMutability":"view"},{"type":"function","name":"hasCommitted","inputs":[{"name":"","type":"address","internalType":"address"}],"outputs":[{"name":"","type":"bool","internalType":"bool"}],"stateMutability":"view"},{"type":"function","name":"hasRevealed","inputs":[{"name":"","type":"address","internalType":"address"}],"outputs":[{"name":"","type":"bool","internalType":"bool"}],"stateMutability":"view"},{"type":"function","name":"isWhitelisted","inputs":[{"name":"","type":"address","internalType":"address"}],"outputs":[{"name":"","type":"bool","internalType":"bool"}],"stateMutability":"view"},{"type":"function","name":"registerVoter","inputs":[{"name":"voter","type":"address","internalType":"address"}],"outputs":[],"stateMutability":"nonpayable"},{"type":"function","name":"registry","inputs":[],"outputs":[{"name":"","type":"address","internalType":"address"}],"stateMutability":"view"},{"type":"function","name":"revealVote","inputs":[{"name":"candidateId","type":"uint256","internalType":"uint256"},{"name":"salt","type":"bytes32","internalType":"bytes32"}],"outputs":[],"stateMutability":"nonpayable"},{"type":"function","name":"setSuspended","inputs":[{"name":"suspended","type":"bool","internalType":"bool"},{"name":"actor","type":"address","internalType":"address"},{"name":"reasonCode","type":"string","internalType":"string"}],"outputs":[],"stateMutability":"nonpayable"},{"type":"function","name":"spaceAdmin","inputs":[],"outputs":[{"name":"","type":"address","internalType":"address"}],"stateMutability":"view"},{"type":"function","name":"spaceId","inputs":[],"outputs":[{"name":"","type":"uint256","internalType":"uint256"}],"stateMutability":"view"},{"type":"function","name":"status","inputs":[],"outputs":[{"name":"","type":"uint8","internalType":"enum ElectionSpace.ElectionStatus"}],"stateMutability":"view"},{"type":"function","name":"terminate","inputs":[{"name":"actor","type":"address","internalType":"address"},{"name":"reasonCode","type":"string","internalType":"string"}],"outputs":[],"stateMutability":"nonpayable"},{"type":"function","name":"transitionToNextPhase","inputs":[],"outputs":[],"stateMutability":"nonpayable"},{"type":"function","name":"unregisterVoter","inputs":[{"name":"voter","type":"address","internalType":"address"}],"outputs":[],"stateMutability":"nonpayable"},{"type":"function","name":"voteCount","inputs":[{"name":"","type":"uint256","internalType":"uint256"}],"outputs":[{"name":"","type":"uint256","internalType":"uint256"}],"stateMutability":"view"},{"type":"event","name":"Committed","inputs":[{"name":"spaceId","type":"uint256","indexed":true,"internalType":"uint256"},{"name":"voter","type":"address","indexed":true,"internalType":"address"},{"name":"commitment","type":"bytes32","indexed":true,"internalType":"bytes32"}],"anonymous":false},{"type":"event","name":"ElectionStatusChanged","inputs":[{"name":"spaceId","type":"uint256","indexed":true,"internalType":"uint256"},{"name":"status","type":"uint8","indexed":true,"internalType":"enum ElectionSpace.ElectionStatus"},{"name":"actor","type":"address","indexed":true,"internalType":"address"},{"name":"reasonCode","type":"string","indexed":false,"internalType":"string"}],"anonymous":false},{"type":"event","name":"PhaseChanged","inputs":[{"name":"spaceId","type":"uint256","indexed":true,"internalType":"uint256"},{"name":"previousPhase","type":"uint8","indexed":true,"internalType":"enum ElectionSpace.Phase"},{"name":"newPhase","type":"uint8","indexed":true,"internalType":"enum ElectionSpace.Phase"},{"name":"actor","type":"address","indexed":false,"internalType":"address"}],"anonymous":false},{"type":"event","name":"Revealed","inputs":[{"name":"spaceId","type":"uint256","indexed":true,"internalType":"uint256"},{"name":"voter","type":"address","indexed":true,"internalType":"address"},{"name":"candidateId","type":"uint256","indexed":true,"internalType":"uint256"},{"name":"newVoteCount","type":"uint256","indexed":false,"internalType":"uint256"}],"anonymous":false},{"type":"event","name":"WhitelistUpdated","inputs":[{"name":"spaceId","type":"uint256","indexed":true,"internalType":"uint256"},{"name":"voter","type":"address","indexed":true,"internalType":"address"},{"name":"isRegistered","type":"bool","indexed":false,"internalType":"bool"},{"name":"actor","type":"address","indexed":false,"internalType":"address"}],"anonymous":false},{"type":"error","name":"AlreadyCommitted","inputs":[]},{"type":"error","name":"AlreadyRegistered","inputs":[]},{"type":"error","name":"AlreadyRevealed","inputs":[]},{"type":"error","name":"CommitmentMismatch","inputs":[]},{"type":"error","name":"ElectionSuspended","inputs":[]},{"type":"error","name":"ElectionTerminated","inputs":[]},{"type":"error","name":"InvalidCandidate","inputs":[]},{"type":"error","name":"InvalidPhaseTransition","inputs":[{"name":"current","type":"uint8","internalType":"enum ElectionSpace.Phase"},{"name":"requested","type":"uint8","internalType":"enum ElectionSpace.Phase"}]},{"type":"error","name":"NotAuthorized","inputs":[]},{"type":"error","name":"NotCommittedYet","inputs":[]},{"type":"error","name":"NotRegistered","inputs":[]},{"type":"error","name":"NotRegistry","inputs":[]},{"type":"error","name":"WrongPhase","inputs":[{"name":"expected","type":"uint8","internalType":"enum ElectionSpace.Phase"},{"name":"actual","type":"uint8","internalType":"enum ElectionSpace.Phase"}]}],"bytecode":{"object":"0x61010060405234801562000011575f80fd5b506040516200155f3803806200155f8339810160408190526200003491620000dc565b6001600160a01b03841615806200005257506001600160a01b038316155b15620000715760405163ea8e4eb560e01b815260040160405180910390fd5b805f03620000925760405163e66ea08f60e01b815260040160405180910390fd5b6001600160a01b039384166080529190921660a05260c09190915260e0525f805461ffff1916905562000121565b80516001600160a01b0381168114620000d7575f80fd5b919050565b5f805f8060808587031215620000f0575f80fd5b620000fb85620000c0565b93506200010b60208601620000c0565b6040860151606090960151949790965092505050565b60805160a05160c05160e051611393620001cc5f395f81816102cd01528181610bcf0152610f6f01525f818161021a0152818161057f015281816107c90152818161095c01528181610a2301528181610cbe01528181610edb015261109e01525f818161024101528181610370015281816105da0152610d2501525f8181610280015281816103ae01528181610618015281816109af01528181610d630152610fcd01526113935ff3fe608060405234801561000f575f80fd5b506004361061011c575f3560e01c80636bf2ffa1116100a9578063a9a981a31161006e578063a9a981a3146102c8578063b9a53013146102ef578063c6dbe15a14610311578063f662b88114610333578063fdbf64c214610352575f80fd5b80636bf2ffa1146102155780637a967cd31461023c5780637b1039991461027b5780637ed17751146102a2578063995e4339146102b5575f80fd5b80633af32abf116100ef5780633af32abf1461017d5780633e858923146101af5780634fc8a20d146101c2578063534e0e9e146101ef57806369edbcda14610202575f80fd5b8063055ad42e146101205780630f8779c614610142578063200d2ed21461014c57806338db6dd31461016a575b5f80fd5b5f5461012c9060ff1681565b6040516101399190611116565b60405180910390f35b61014a610365565b005b5f5461015d90610100900460ff1681565b604051610139919061112a565b61014a61017836600461115f565b6105cf565b61019f61018b36600461115f565b60016020525f908152604090205460ff1681565b6040519015158152602001610139565b61014a6101bd36600461117f565b610819565b6101e16101d036600461117f565b60056020525f908152604090205481565b604051908152602001610139565b61014a6101fd3660046111db565b6109a4565b61014a61021036600461122a565b610a80565b6101e17f000000000000000000000000000000000000000000000000000000000000000081565b6102637f000000000000000000000000000000000000000000000000000000000000000081565b6040516001600160a01b039091168152602001610139565b6102637f000000000000000000000000000000000000000000000000000000000000000081565b61014a6102b036600461115f565b610d1a565b6101e16102c336600461117f565b610f23565b6101e17f000000000000000000000000000000000000000000000000000000000000000081565b61019f6102fd36600461115f565b60036020525f908152604090205460ff1681565b61019f61031f36600461115f565b60026020525f908152604090205460ff1681565b6101e161034136600461115f565b60046020525f908152604090205481565b61014a61036036600461125a565b610fc2565b336001600160a01b037f00000000000000000000000000000000000000000000000000000000000000001614801590610421575060405163df7f453b60e01b81523360048201527f00000000000000000000000000000000000000000000000000000000000000006001600160a01b03169063df7f453b90602401602060405180830381865afa1580156103fb573d5f803e3d5ffd5b505050506040513d601f19601f8201168201806040525081019061041f91906112b9565b155b1561043f5760405163ea8e4eb560e01b815260040160405180910390fd5b60015f54610100900460ff16600281111561045c5761045c6110ee565b0361047a576040516327c0e7b560e01b815260040160405180910390fd5b60025f54610100900460ff166002811115610497576104976110ee565b036104b55760405163214dacf960e11b815260040160405180910390fd5b60035f5460ff1660038111156104cd576104cd6110ee565b036104f9576003806040516335c1372560e01b81526004016104f09291906112d4565b60405180910390fd5b5f5460ff16806003811115610510576105106110ee565b61051b906001611303565b60ff16600381111561052f5761052f6110ee565b5f805460ff1916600183600381111561054a5761054a6110ee565b02179055505f5460ff166003811115610565576105656110ee565b816003811115610577576105776110ee565b6040513381527f0000000000000000000000000000000000000000000000000000000000000000907fb08bfe79d11e67f65c878f279728c4d53fc5dfc3373a20958345fcad3750953e9060200160405180910390a450565b336001600160a01b037f0000000000000000000000000000000000000000000000000000000000000000161480159061068b575060405163df7f453b60e01b81523360048201527f00000000000000000000000000000000000000000000000000000000000000006001600160a01b03169063df7f453b90602401602060405180830381865afa158015610665573d5f803e3d5ffd5b505050506040513d601f19601f8201168201806040525081019061068991906112b9565b155b156106a95760405163ea8e4eb560e01b815260040160405180910390fd5b60015f54610100900460ff1660028111156106c6576106c66110ee565b036106e4576040516327c0e7b560e01b815260040160405180910390fd5b60025f54610100900460ff166002811115610701576107016110ee565b0361071f5760405163214dacf960e11b815260040160405180910390fd5b5f805f5460ff166003811115610737576107376110ee565b1461075f575f546040516305fb5e1b60e01b81526104f091839160ff909116906004016112d4565b6001600160a01b0382165f9081526001602052604090205460ff161561079857604051630ea075bf60e21b815260040160405180910390fd5b6001600160a01b0382165f81815260016020818152604092839020805460ff191683179055825191825233908201527f0000000000000000000000000000000000000000000000000000000000000000917f5b551e9aea49b0b85a31d13fd569c911ded7781feaae60c3603e3a968b05fc1391015b60405180910390a35050565b335f9081526001602052604090205460ff166108485760405163aba4733960e01b815260040160405180910390fd5b60015f54610100900460ff166002811115610865576108656110ee565b03610883576040516327c0e7b560e01b815260040160405180910390fd5b60025f54610100900460ff1660028111156108a0576108a06110ee565b036108be5760405163214dacf960e11b815260040160405180910390fd5b6001805f5460ff1660038111156108d7576108d76110ee565b146108ff575f546040516305fb5e1b60e01b81526104f091839160ff909116906004016112d4565b335f9081526002602052604090205460ff161561092f576040516317fd8aab60e31b815260040160405180910390fd5b335f818152600260209081526040808320805460ff191660011790556004909152808220859055518492917f0000000000000000000000000000000000000000000000000000000000000000917f26a454697a4923cb3646779d831b5e4696bd3fab14b67dd6dfe23d72354f57dd9190a45050565b336001600160a01b037f000000000000000000000000000000000000000000000000000000000000000016146109ed57604051633217675b60e21b815260040160405180910390fd5b5f805461ff00191661020017908190556001600160a01b03841690610100900460ff166002811115610a2157610a216110ee565b7f00000000000000000000000000000000000000000000000000000000000000007f7bf94aa98e004220f19fb43e7d8d6dabd2c23e3fadc2908d16dd25f52cd1c43b8585604051610a7392919061131c565b60405180910390a4505050565b335f9081526001602052604090205460ff16610aaf5760405163aba4733960e01b815260040160405180910390fd5b60015f54610100900460ff166002811115610acc57610acc6110ee565b03610aea576040516327c0e7b560e01b815260040160405180910390fd5b60025f54610100900460ff166002811115610b0757610b076110ee565b03610b255760405163214dacf960e11b815260040160405180910390fd5b6002805f5460ff166003811115610b3e57610b3e6110ee565b14610b66575f546040516305fb5e1b60e01b81526104f091839160ff909116906004016112d4565b335f9081526002602052604090205460ff16610b9557604051631918952960e01b815260040160405180910390fd5b335f9081526003602052604090205460ff1615610bc55760405163a89ac15160e01b815260040160405180910390fd5b821580610bf157507f000000000000000000000000000000000000000000000000000000000000000083115b15610c0f5760405163e66ea08f60e01b815260040160405180910390fd5b60408051602080820186905281830185905282518083038401815260609092018352815191810191909120335f9081526004909252919020548114610c6757604051635054097b60e01b815260040160405180910390fd5b335f908152600360209081526040808320805460ff1916600190811790915587845260059092528220805491929091610ca190849061134a565b90915550505f8481526005602052604090819020549051859133917f0000000000000000000000000000000000000000000000000000000000000000917f63ab6e5dc98a7d72f7b887b4479c584f5d1cc5e644f8b756c1213bc8e32f4f4291610d0c91815260200190565b60405180910390a450505050565b336001600160a01b037f00000000000000000000000000000000000000000000000000000000000000001614801590610dd6575060405163df7f453b60e01b81523360048201527f00000000000000000000000000000000000000000000000000000000000000006001600160a01b03169063df7f453b90602401602060405180830381865afa158015610db0573d5f803e3d5ffd5b505050506040513d601f19601f82011682018060405250810190610dd491906112b9565b155b15610df45760405163ea8e4eb560e01b815260040160405180910390fd5b60015f54610100900460ff166002811115610e1157610e116110ee565b03610e2f576040516327c0e7b560e01b815260040160405180910390fd5b60025f54610100900460ff166002811115610e4c57610e4c6110ee565b03610e6a5760405163214dacf960e11b815260040160405180910390fd5b5f805f5460ff166003811115610e8257610e826110ee565b14610eaa575f546040516305fb5e1b60e01b81526104f091839160ff909116906004016112d4565b6001600160a01b0382165f818152600160209081526040808320805460ff19169055805192835233918301919091527f0000000000000000000000000000000000000000000000000000000000000000917f5b551e9aea49b0b85a31d13fd569c911ded7781feaae60c3603e3a968b05fc13910161080d565b5f6003805f5460ff166003811115610f3d57610f3d6110ee565b14610f65575f546040516305fb5e1b60e01b81526104f091839160ff909116906004016112d4565b821580610f9157507f000000000000000000000000000000000000000000000000000000000000000083115b15610faf5760405163e66ea08f60e01b815260040160405180910390fd5b50505f9081526005602052604090205490565b336001600160a01b037f0000000000000000000000000000000000000000000000000000000000000000161461100b57604051633217675b60e21b815260040160405180910390fd5b60025f54610100900460ff166002811115611028576110286110ee565b036110465760405163214dacf960e11b815260040160405180910390fd5b83611051575f611054565b60015b5f805461ff001916610100836002811115611071576110716110ee565b02179055505f546001600160a01b03841690610100900460ff16600281111561109c5761109c6110ee565b7f00000000000000000000000000000000000000000000000000000000000000007f7bf94aa98e004220f19fb43e7d8d6dabd2c23e3fadc2908d16dd25f52cd1c43b8585604051610d0c92919061131c565b634e487b7160e01b5f52602160045260245ffd5b60048110611112576111126110ee565b9052565b602081016111248284611102565b92915050565b602081016003831061113e5761113e6110ee565b91905290565b80356001600160a01b038116811461115a575f80fd5b919050565b5f6020828403121561116f575f80fd5b61117882611144565b9392505050565b5f6020828403121561118f575f80fd5b5035919050565b5f8083601f8401126111a6575f80fd5b50813567ffffffffffffffff8111156111bd575f80fd5b6020830191508360208285010111156111d4575f80fd5b9250929050565b5f805f604084860312156111ed575f80fd5b6111f684611144565b9250602084013567ffffffffffffffff811115611211575f80fd5b61121d86828701611196565b9497909650939450505050565b5f806040838503121561123b575f80fd5b50508035926020909101359150565b8015158114611257575f80fd5b50565b5f805f806060858703121561126d575f80fd5b84356112788161124a565b935061128660208601611144565b9250604085013567ffffffffffffffff8111156112a1575f80fd5b6112ad87828801611196565b95989497509550505050565b5f602082840312156112c9575f80fd5b81516111788161124a565b604081016112e28285611102565b6111786020830184611102565b634e487b7160e01b5f52601160045260245ffd5b60ff8181168382160190811115611124576111246112ef565b60208152816020820152818360408301375f818301604090810191909152601f909201601f19160101919050565b80820180821115611124576111246112ef56fea2646970667358221220d5a57d5c306b7529bfc58f6613f45f3a44dc88e4df7aca614efc709c122c527464736f6c63430008180033","linkReferences":{}},"methodIdentifiers":{"candidateCount()":"a9a981a3","commitVote(bytes32)":"3e858923","commitmentOf(address)":"f662b881","currentPhase()":"055ad42e","getResult(uint256)":"995e4339","hasCommitted(address)":"c6dbe15a","hasRevealed(address)":"b9a53013","isWhitelisted(address)":"3af32abf","registerVoter(address)":"38db6dd3","registry()":"7b103999","revealVote(uint256,bytes32)":"69edbcda","setSuspended(bool,address,string)":"fdbf64c2","spaceAdmin()":"7a967cd3","spaceId()":"6bf2ffa1","status()":"200d2ed2","terminate(address,string)":"534e0e9e","transitionToNextPhase()":"0f8779c6","unregisterVoter(address)":"7ed17751","voteCount(uint256)":"4fc8a20d"},"id":0}