{"abi":[{"type":"constructor","inputs":[{"name":"_registry","type":"address","internalType":"address"},{"name":"_spaceAdmin","type":"address","internalType":"address"},{"name":"_spaceId","type":"uint256","internalType":"uint256"},{"name":"_candidateCount","type":"uint256","internalType":"uint256"},{"name":"_title","type":"string","internalType":"string"},{"name":"_metadataURI","type":"string","internalType":"string"},{"name":"_initialActor","type":"address","internalType":"address"},{"name":"_initialVoters","type":"address[]","internalType":"address[]"},{"name":"_commitStartsAt","type":"uint256","internalType":"uint256"},{"name":"_commitEndsAt","type":"uint256","internalType":"uint256"},{"name":"_revealStartsAt","type":"uint256","internalType":"uint256"},{"name":"_revealEndsAt","type":"uint256","internalType":"uint256"}],"stateMutability":"nonpayable"},{"type":"function","name":"candidateCount","inputs":[],"outputs":[{"name":"","type":"uint256","internalType":"uint256"}],"stateMutability":"view"},{"type":"function","name":"commitEndsAt","inputs":[],"outputs":[{"name":"","type":"uint256","internalType":"uint256"}],"stateMutability":"view"},{"type":"function","name":"commitFor","inputs":[{"name":"voter","type":"address","internalType":"address"},{"name":"commitment","type":"bytes32","internalType":"bytes32"}],"outputs":[],"stateMutability":"nonpayable"},{"type":"function","name":"commitStartsAt","inputs":[],"outputs":[{"name":"","type":"uint256","internalType":"uint256"}],"stateMutability":"view"},{"type":"function","name":"commitVote","inputs":[{"name":"commitment","type":"bytes32","internalType":"bytes32"}],"outputs":[],"stateMutability":"nonpayable"},{"type":"function","name":"commitmentOf","inputs":[{"name":"","type":"address","internalType":"address"}],"outputs":[{"name":"","type":"bytes32","internalType":"bytes32"}],"stateMutability":"view"},{"type":"function","name":"currentPhase","inputs":[],"outputs":[{"name":"","type":"uint8","internalType":"enum ElectionSpace.Phase"}],"stateMutability":"view"},{"type":"function","name":"getResult","inputs":[{"name":"candidateId","type":"uint256","internalType":"uint256"}],"outputs":[{"name":"","type":"uint256","internalType":"uint256"}],"stateMutability":"view"},{"type":"function","name":"getWhitelistedVoterAt","inputs":[{"name":"index","type":"uint256","internalType":"uint256"}],"outputs":[{"name":"","type":"address","internalType":"address"}],"stateMutability":"view"},{"type":"function","name":"getWhitelistedVoterCount","inputs":[],"outputs":[{"name":"","type":"uint256","internalType":"uint256"}],"stateMutability":"view"},{"type":"function","name":"getWhitelistedVoters","inputs":[],"outputs":[{"name":"","type":"address[]","internalType":"address[]"}],"stateMutability":"view"},{"type":"function","name":"hasCommitted","inputs":[{"name":"","type":"address","internalType":"address"}],"outputs":[{"name":"","type":"bool","internalType":"bool"}],"stateMutability":"view"},{"type":"function","name":"hasRevealed","inputs":[{"name":"","type":"address","internalType":"address"}],"outputs":[{"name":"","type":"bool","internalType":"bool"}],"stateMutability":"view"},{"type":"function","name":"isWhitelisted","inputs":[{"name":"","type":"address","internalType":"address"}],"outputs":[{"name":"","type":"bool","internalType":"bool"}],"stateMutability":"view"},{"type":"function","name":"metadataURI","inputs":[],"outputs":[{"name":"","type":"string","internalType":"string"}],"stateMutability":"view"},{"type":"function","name":"phase","inputs":[],"outputs":[{"name":"","type":"uint8","internalType":"enum ElectionSpace.Phase"}],"stateMutability":"view"},{"type":"function","name":"registerVoter","inputs":[{"name":"voter","type":"address","internalType":"address"}],"outputs":[],"stateMutability":"nonpayable"},{"type":"function","name":"registerVoters","inputs":[{"name":"voters","type":"address[]","internalType":"address[]"}],"outputs":[],"stateMutability":"nonpayable"},{"type":"function","name":"registry","inputs":[],"outputs":[{"name":"","type":"address","internalType":"address"}],"stateMutability":"view"},{"type":"function","name":"revealEndsAt","inputs":[],"outputs":[{"name":"","type":"uint256","internalType":"uint256"}],"stateMutability":"view"},{"type":"function","name":"revealFor","inputs":[{"name":"voter","type":"address","internalType":"address"},{"name":"candidateId","type":"uint256","internalType":"uint256"},{"name":"salt","type":"bytes32","internalType":"bytes32"}],"outputs":[],"stateMutability":"nonpayable"},{"type":"function","name":"revealStartsAt","inputs":[],"outputs":[{"name":"","type":"uint256","internalType":"uint256"}],"stateMutability":"view"},{"type":"function","name":"revealVote","inputs":[{"name":"candidateId","type":"uint256","internalType":"uint256"},{"name":"salt","type":"bytes32","internalType":"bytes32"}],"outputs":[],"stateMutability":"nonpayable"},{"type":"function","name":"setPhaseSchedule","inputs":[{"name":"_commitStartsAt","type":"uint256","internalType":"uint256"},{"name":"_commitEndsAt","type":"uint256","internalType":"uint256"},{"name":"_revealStartsAt","type":"uint256","internalType":"uint256"},{"name":"_revealEndsAt","type":"uint256","internalType":"uint256"}],"outputs":[],"stateMutability":"nonpayable"},{"type":"function","name":"setSuspended","inputs":[{"name":"suspended","type":"bool","internalType":"bool"},{"name":"actor","type":"address","internalType":"address"},{"name":"reasonCode","type":"string","internalType":"string"}],"outputs":[],"stateMutability":"nonpayable"},{"type":"function","name":"spaceAdmin","inputs":[],"outputs":[{"name":"","type":"address","internalType":"address"}],"stateMutability":"view"},{"type":"function","name":"spaceId","inputs":[],"outputs":[{"name":"","type":"uint256","internalType":"uint256"}],"stateMutability":"view"},{"type":"function","name":"status","inputs":[],"outputs":[{"name":"","type":"uint8","internalType":"enum ElectionSpace.ElectionStatus"}],"stateMutability":"view"},{"type":"function","name":"terminate","inputs":[{"name":"actor","type":"address","internalType":"address"},{"name":"reasonCode","type":"string","internalType":"string"}],"outputs":[],"stateMutability":"nonpayable"},{"type":"function","name":"title","inputs":[],"outputs":[{"name":"","type":"string","internalType":"string"}],"stateMutability":"view"},{"type":"function","name":"transferSpaceAdmin","inputs":[{"name":"newAdmin","type":"address","internalType":"address"},{"name":"actor","type":"address","internalType":"address"},{"name":"reasonCode","type":"string","internalType":"string"}],"outputs":[],"stateMutability":"nonpayable"},{"type":"function","name":"transitionToNextPhase","inputs":[],"outputs":[],"stateMutability":"nonpayable"},{"type":"function","name":"unregisterVoter","inputs":[{"name":"voter","type":"address","internalType":"address"}],"outputs":[],"stateMutability":"nonpayable"},{"type":"function","name":"voteCount","inputs":[{"name":"","type":"uint256","internalType":"uint256"}],"outputs":[{"name":"","type":"uint256","internalType":"uint256"}],"stateMutability":"view"},{"type":"event","name":"CommitRelayed","inputs":[{"name":"spaceId","type":"uint256","indexed":true,"internalType":"uint256"},{"name":"voter","type":"address","indexed":true,"internalType":"address"},{"name":"relayer","type":"address","indexed":true,"internalType":"address"},{"name":"commitment","type":"bytes32","indexed":false,"internalType":"bytes32"}],"anonymous":false},{"type":"event","name":"Committed","inputs":[{"name":"spaceId","type":"uint256","indexed":true,"internalType":"uint256"},{"name":"voter","type":"address","indexed":true,"internalType":"address"},{"name":"commitment","type":"bytes32","indexed":true,"internalType":"bytes32"}],"anonymous":false},{"type":"event","name":"ElectionStatusChanged","inputs":[{"name":"spaceId","type":"uint256","indexed":true,"internalType":"uint256"},{"name":"status","type":"uint8","indexed":true,"internalType":"enum ElectionSpace.ElectionStatus"},{"name":"actor","type":"address","indexed":true,"internalType":"address"},{"name":"reasonCode","type":"string","indexed":false,"internalType":"string"}],"anonymous":false},{"type":"event","name":"InitialConfigurationApplied","inputs":[{"name":"spaceId","type":"uint256","indexed":true,"internalType":"uint256"},{"name":"voterCount","type":"uint256","indexed":false,"internalType":"uint256"},{"name":"commitStartsAt","type":"uint256","indexed":false,"internalType":"uint256"},{"name":"commitEndsAt","type":"uint256","indexed":false,"internalType":"uint256"},{"name":"revealStartsAt","type":"uint256","indexed":false,"internalType":"uint256"},{"name":"revealEndsAt","type":"uint256","indexed":false,"internalType":"uint256"},{"name":"actor","type":"address","indexed":false,"internalType":"address"}],"anonymous":false},{"type":"event","name":"PhaseChanged","inputs":[{"name":"spaceId","type":"uint256","indexed":true,"internalType":"uint256"},{"name":"previousPhase","type":"uint8","indexed":true,"internalType":"enum ElectionSpace.Phase"},{"name":"newPhase","type":"uint8","indexed":true,"internalType":"enum ElectionSpace.Phase"},{"name":"actor","type":"address","indexed":false,"internalType":"address"}],"anonymous":false},{"type":"event","name":"PhaseScheduleUpdated","inputs":[{"name":"spaceId","type":"uint256","indexed":true,"internalType":"uint256"},{"name":"commitStartsAt","type":"uint256","indexed":false,"internalType":"uint256"},{"name":"commitEndsAt","type":"uint256","indexed":false,"internalType":"uint256"},{"name":"revealStartsAt","type":"uint256","indexed":false,"internalType":"uint256"},{"name":"revealEndsAt","type":"uint256","indexed":false,"internalType":"uint256"},{"name":"actor","type":"address","indexed":false,"internalType":"address"}],"anonymous":false},{"type":"event","name":"RevealRelayed","inputs":[{"name":"spaceId","type":"uint256","indexed":true,"internalType":"uint256"},{"name":"voter","type":"address","indexed":true,"internalType":"address"},{"name":"relayer","type":"address","indexed":true,"internalType":"address"},{"name":"candidateId","type":"uint256","indexed":false,"internalType":"uint256"}],"anonymous":false},{"type":"event","name":"Revealed","inputs":[{"name":"spaceId","type":"uint256","indexed":true,"internalType":"uint256"},{"name":"voter","type":"address","indexed":true,"internalType":"address"},{"name":"candidateId","type":"uint256","indexed":true,"internalType":"uint256"},{"name":"newVoteCount","type":"uint256","indexed":false,"internalType":"uint256"}],"anonymous":false},{"type":"event","name":"SpaceAdminTransferred","inputs":[{"name":"spaceId","type":"uint256","indexed":true,"internalType":"uint256"},{"name":"previousAdmin","type":"address","indexed":true,"internalType":"address"},{"name":"newAdmin","type":"address","indexed":true,"internalType":"address"},{"name":"actor","type":"address","indexed":false,"internalType":"address"},{"name":"reasonCode","type":"string","indexed":false,"internalType":"string"}],"anonymous":false},{"type":"event","name":"WhitelistUpdated","inputs":[{"name":"spaceId","type":"uint256","indexed":true,"internalType":"uint256"},{"name":"voter","type":"address","indexed":true,"internalType":"address"},{"name":"isRegistered","type":"bool","indexed":false,"internalType":"bool"},{"name":"actor","type":"address","indexed":false,"internalType":"address"}],"anonymous":false},{"type":"error","name":"AlreadyCommitted","inputs":[]},{"type":"error","name":"AlreadyRegistered","inputs":[]},{"type":"error","name":"AlreadyRevealed","inputs":[]},{"type":"error","name":"CommitmentMismatch","inputs":[]},{"type":"error","name":"ElectionSuspended","inputs":[]},{"type":"error","name":"ElectionTerminated","inputs":[]},{"type":"error","name":"InvalidAdmin","inputs":[]},{"type":"error","name":"InvalidCandidate","inputs":[]},{"type":"error","name":"InvalidCommitment","inputs":[]},{"type":"error","name":"InvalidPhaseSchedule","inputs":[]},{"type":"error","name":"InvalidPhaseTransition","inputs":[{"name":"current","type":"uint8","internalType":"enum ElectionSpace.Phase"},{"name":"requested","type":"uint8","internalType":"enum ElectionSpace.Phase"}]},{"type":"error","name":"InvalidVoter","inputs":[]},{"type":"error","name":"NotAuthorized","inputs":[]},{"type":"error","name":"NotCommittedYet","inputs":[]},{"type":"error","name":"NotRegistered","inputs":[]},{"type":"error","name":"NotRegistry","inputs":[]},{"type":"error","name":"WrongPhase","inputs":[{"name":"expected","type":"uint8","internalType":"enum ElectionSpace.Phase"},{"name":"actual","type":"uint8","internalType":"enum ElectionSpace.Phase"}]}],"bytecode":{"object":"0x604060e0815234620007935762002913803803806200001e8162000797565b9283398101906101808183031262000793576200003b81620007bd565b916200004a60208301620007bd565b82850151606084015160808501519095906001600160401b03811162000793578462000078918701620007d2565b60a08601516001600160401b0381116200079357856200009a918801620007d2565b90620000a960c08801620007bd565b60e08801519098906001600160401b038111620007935788019680601f8901121562000793578751976001600160401b0389116200063d578860051b90602080620000f681850162000797565b809c815201928201019283116200079357602001905b828210620007785750505061010088015194610120890151966101606101408b01519a01519560018060a01b03811615801562000766575b6200075557831562000744576080525f80546001600160a01b0319166001600160a01b039290921691909117905560a05260c0528051906001600160401b0382116200063d5760015490600182811c9216801562000739575b60208310146200061e5781601f849311620006d8575b50602090601f83116001146200065d575f9262000651575b50508160011b915f199060031b1c1916176001555b8051906001600160401b0382116200063d5760025490600182811c9216801562000632575b60208310146200061e5781601f849311620005bd575b50602090601f831160011462000546575f926200053a575b50508160011b915f199060031b1c1916176002555b61ffff1960035416600355835162000497575b811594851595808788926200048d575b801562000483575b801562000479575b620003c6575b5050505050505190811590811591620003bd575b5062000359575b8251611fdd9081620008f682396080518181816101e7015281816103c3015281816104e701528181610a7201528181610c5701528181610f7201528181611044015281816114f30152611773015260a05181818161029101528181610446015281816105d20152818161096401528181610b3001528181610d8601528181610ee20152818161112501528181611412015281816115c60152818161185f0152611df6015260c0518181816107db0152818161085f0152611e500152f35b60c07fa8dbf017bc75dd8e14ed96c66028f2fb1d209e4398405364261fe9bc77e572499160a05193600454600554600654906007549289519586526020860152888501526060840152608083015260018060a01b031660a0820152a25f806200029c565b90505f62000295565b906200046e575b801562000464575b801562000459575b62000448579160a0917f26f7315aaf2926e91db90b9e8be8c5c36e6a366c93950652ce964393555390c493826004558560055580600655816007558351958a519384526020840152898301526060820152600180831b0387166080820152a25f808080858162000281565b875163a74634cd60e01b8152600490fd5b5080821115620003dd565b50838110620003d5565b5082841115620003cd565b508315156200027b565b5082151562000273565b508515156200026b565b949391905f5b84518110156200052f57600581901b8501602001516001600160a01b031680156200051e579081620004d160019362000842565b620004df575b50016200049d565b60a0517f5b551e9aea49b0b85a31d13fd569c911ded7781feaae60c3603e3a968b05fc138b8051868152868060a01b038c166020820152a35f620004d7565b88516311745b2b60e31b8152600490fd5b50909193946200025b565b015190505f8062000233565b60025f9081525f80516020620028d38339815191529350601f198516905b818110620005a457509084600195949392106200058b575b505050811b0160025562000248565b01515f1960f88460031b161c191690555f80806200057c565b9293602060018192878601518155019501930162000564565b60025f529091505f80516020620028d3833981519152601f840160051c8101916020851062000613575b90601f859493920160051c01905b8181106200060457506200021b565b5f8155849350600101620005f5565b9091508190620005e7565b634e487b7160e01b5f52602260045260245ffd5b91607f169162000205565b634e487b7160e01b5f52604160045260245ffd5b015190505f80620001cb565b60015f90815293505f80516020620028f383398151915291905b601f1984168510620006bc576001945083601f19811610620006a3575b505050811b01600155620001e0565b01515f1960f88460031b161c191690555f808062000694565b8181015183556020948501946001909301929091019062000677565b60015f529091505f80516020620028f3833981519152601f840160051c810191602085106200072e575b90601f859493920160051c01905b8181106200071f5750620001b3565b5f815584935060010162000710565b909150819062000702565b91607f16916200019d565b8c5163e66ea08f60e01b8152600490fd5b8c5163ea8e4eb560e01b8152600490fd5b506001600160a01b0382161562000144565b602080916200078784620007bd565b8152019101906200010c565b5f80fd5b6040519190601f01601f191682016001600160401b038111838210176200063d57604052565b51906001600160a01b03821682036200079357565b919080601f84011215620007935782516001600160401b0381116200063d5760209062000808601f8201601f1916830162000797565b9281845282828701011162000793575f5b8181106200082e5750825f9394955001015290565b858101830151848201840152820162000819565b6001600160a01b03165f818152600860205260409020805460ff8116620008ee5760ff19166001179055600d54680100000000000000008110156200063d576001810180600d55811015620008da577fd7b6990105719101dabeb77144f2a3385c8033acd3af97e9423a695e81ad1eb50180546001600160a01b03191682179055600d545f918252600e602052604090912055600190565b634e487b7160e01b5f52603260045260245ffd5b5050505f9056fe6080604081815260049182361015610015575f80fd5b5f3560e01c90816303ee438c146119ca57508063055ad42e146119a55780630e866fa5146119875780630f8779c6146117555780631dcf2e39146117375780631e8f048914611719578063200d2ed2146116f157806338db6dd3146114cd57806339a3fb2e146114af5780633af32abf146114735780633e8589231461136a5780634a79d50c146112685780634d35574f146110155780634fc8a20d14610fee578063534e0e9e14610f295780635688e29914610e5d57806369edbcda14610da95780636bf2ffa114610d6f57806378905e2e14610cad5780637a967cd314610c865780637b10399914610c435780637ed1775114610a49578063874359ed146108a3578063995e4339146107fe578063a9a981a3146107c4578063b1c9fe6e14610798578063b9a530131461075c578063c6dbe15a14610720578063d55ec9c11461048c578063e2a89c4a14610371578063f662b8811461033a578063f826fee81461031e578063fae50523146102ea5763fdbf64c214610195575f80fd5b346102e65760603660031901126102e657813580151581036102e6576101b9611b3a565b9060443567ffffffffffffffff81116102e6576101d99036908601611b50565b92909460018060a01b0392837f00000000000000000000000000000000000000000000000000000000000000001633036102d75760035491600260ff8460081c1661022381611b06565b146102c9575060ff7f7bf94aa98e004220f19fb43e7d8d6dabd2c23e3fadc2908d16dd25f52cd1c43b9493926102bb925f146102c05761ff0060015b61026881611b06565b60081b169061ff001916178060035560081c169561028587611b06565b519283926020845216967f0000000000000000000000000000000000000000000000000000000000000000956020840191611b96565b0390a4005b61ff005f61025f565b865163214dacf960e11b8152fd5b508451633217675b60e21b8152fd5b5f80fd5b50346102e65760203660031901126102e65761030860209235611c0a565b905491519160018060a01b039160031b1c168152f35b50346102e6575f3660031901126102e657602091549051908152f35b50346102e65760203660031901126102e6576020906001600160a01b0361035f611b24565b165f52600b8252805f20549051908152f35b50346102e65760603660031901126102e65761038b611b24565b90610394611b3a565b9160443567ffffffffffffffff81116102e6576103b49036908601611b50565b936001600160a01b03929091907f00000000000000000000000000000000000000000000000000000000000000008416330361047c57831695861561046e5750906102bb83927fbe1cc4eb33fa3157c6e975e4dc49e5744ee7070832804598fafd71f5aced1d11945f54896bffffffffffffffffffffffff60a01b8216175f55875195869516855287602086015216967f000000000000000000000000000000000000000000000000000000000000000096840191611b96565b8451630b5eba9f60e41b8152fd5b8451633217675b60e21b81528790fd5b50346102e657602091826003193601126102e65780359267ffffffffffffffff928385116102e657366023860112156102e657848301359384116102e65760059460243686881b83018201116102e65760018060a01b0391827f00000000000000000000000000000000000000000000000000000000000000001685845f54163314806106c7575b15918261065d575b505061064d5760ff60035460081c169761053589611b06565b6001986001811461063d578061054c600292611b06565b1461062d57610559611bb6565b61056281611b06565b8061060957505f5b88811061057357005b8381831b84010135858116908181036102e65781156105f957906105988c9392611c53565b6105a4575b500161056a565b8751838152338a8201527f5b551e9aea49b0b85a31d13fd569c911ded7781feaae60c3603e3a968b05fc13897f000000000000000000000000000000000000000000000000000000000000000092a35f61059d565b87516311745b2b60e31b81528a90fd5b85516305fb5e1b60e01b81525f818a015260449161062681611b06565b6024820152fd5b845163214dacf960e11b81528790fd5b85516327c0e7b560e01b81528890fd5b835163ea8e4eb560e01b81528690fd5b865163df7f453b60e01b8152338a8201529250829060249082905afa9081156106bd575f91610690575b5015855f61051c565b6106b09150863d88116106b6575b6106a88183611a89565b810190611b7e565b5f610687565b503d61069e565b85513d5f823e3d90fd5b50508451633e460e1560e21b815233888201528681602481855afa908115610716579087915f916106f9575b50610514565b6107109150823d84116106b6576106a88183611a89565b5f6106f3565b86513d5f823e3d90fd5b50346102e65760203660031901126102e6576020906001600160a01b03610745611b24565b165f526009825260ff815f20541690519015158152f35b50346102e65760203660031901126102e6576020906001600160a01b03610781611b24565b165f52600a825260ff815f20541690519015158152f35b50346102e6575f3660031901126102e6576020906107b4611bb6565b9051906107c081611b06565b8152f35b50346102e6575f3660031901126102e657602090517f00000000000000000000000000000000000000000000000000000000000000008152f35b50346102e65760203660031901126102e657813561081a611bb6565b61082381611b06565b6002810361088557508015801561085c575b61084e57602092505f52600c8252805f20549051908152f35b505163e66ea08f60e01b8152fd5b507f00000000000000000000000000000000000000000000000000000000000000008111610835565b82516305fb5e1b60e01b815260028186015260449161062681611b06565b5090346102e657816003193601126102e6576108bd611b24565b916024359260ff60035460081c166108d481611b06565b60018114610a3a57806108e8600292611b06565b14610a2c576108f5611bb6565b6108fe81611b06565b80610a0f57506001600160a01b0316918215610a0157825f52600860205260ff825f205416156109f357825f52600960205260ff825f2054166109e55783156109d75750815f526009602052805f20600160ff19825416179055600b60205282815f20557f00000000000000000000000000000000000000000000000000000000000000009051928083837f26a454697a4923cb3646779d831b5e4696bd3fab14b67dd6dfe23d72354f57dd5f80a483527ffe0c7364ffb74b1ea082bb70c7112cc6ed8c85202628a077d369805f1ffd14ac60203394a4005b9051636033c4fd60e11b8152fd5b90516317fd8aab60e31b8152fd5b905163aba4733960e01b8152fd5b90516311745b2b60e31b8152fd5b82516305fb5e1b60e01b81525f8186015260449161062681611b06565b505163214dacf960e11b8152fd5b5050516327c0e7b560e01b8152fd5b5090346102e657602090816003193601126102e657610a66611b24565b9060018060a01b0390817f00000000000000000000000000000000000000000000000000000000000000001684835f5416331480610bec575b159182610b9c575b5050610b8e5760ff60035460081c16610abf81611b06565b60018114610b7f5780610ad3600292611b06565b14610b7157610ae0611bb6565b610ae981611b06565b80610b53575050610af982611ebb565b610aff57005b7f5b551e9aea49b0b85a31d13fd569c911ded7781feaae60c3603e3a968b05fc13918451935f8552339085015216927f000000000000000000000000000000000000000000000000000000000000000092a3005b604492505f8651926305fb5e1b60e01b845283015261062681611b06565b845163214dacf960e11b8152fd5b5084516327c0e7b560e01b8152fd5b845163ea8e4eb560e01b8152fd5b875163df7f453b60e01b815233858201529250829060249082905afa908115610716575f91610bcf575b5015845f610aa7565b610be69150853d87116106b6576106a88183611a89565b5f610bc6565b50508551633e460e1560e21b815233838201528581602481855afa8015610c395786915f91610c1c575b50610a9f565b610c339150823d84116106b6576106a88183611a89565b5f610c16565b87513d5f823e3d90fd5b50346102e6575f3660031901126102e657517f00000000000000000000000000000000000000000000000000000000000000006001600160a01b03168152602090f35b50346102e6575f3660031901126102e6575f5490516001600160a01b039091168152602090f35b50346102e6575f3660031901126102e65780519081600d549081815260208091018092600d5f527fd7b6990105719101dabeb77144f2a3385c8033acd3af97e9423a695e81ad1eb5905f5b818110610d525750505084610d0e910385611a89565b825181815293518185018190528493840192915f5b828110610d3257505050500390f35b83516001600160a01b031685528695509381019392810192600101610d23565b82546001600160a01b031684529284019260019283019201610cf8565b50346102e6575f3660031901126102e657602090517f00000000000000000000000000000000000000000000000000000000000000008152f35b5090346102e657816003193601126102e657335f52600860205260ff825f205416156109f35760ff60035460081c16610de181611b06565b60018114610e4e5780610df5600292611b06565b14610e4057610e02611bb6565b610e0b81611b06565b60018103610e2357610e21602435833533611ce3565b005b600160449351926305fb5e1b60e01b845283015261062681611b06565b905163214dacf960e11b8152fd5b5090516327c0e7b560e01b8152fd5b5090346102e65760603660031901126102e657610e78611b24565b916024359160ff60035460081c16610e8f81611b06565b60018114610e4e5780610ea3600292611b06565b14610e4057610eb0611bb6565b610eb981611b06565b60018103610e23575050610ed06044358385611ce3565b5190815233916001600160a01b0316907f0000000000000000000000000000000000000000000000000000000000000000907e61840683c17d5c16bbabef1c635624cffef2223aced524b735371a8334846790602090a4005b50346102e657806003193601126102e657610f42611b24565b9160243567ffffffffffffffff81116102e657610f629036908301611b50565b909390916001600160a01b0391907f000000000000000000000000000000000000000000000000000000000000000083163303610fe05750907f7bf94aa98e004220f19fb43e7d8d6dabd2c23e3fadc2908d16dd25f52cd1c43b916102bb60ff61020061ff001960035416178060035560081c169561028587611b06565b8451633217675b60e21b8152fd5b50346102e65760203660031901126102e657602091355f52600c8252805f20549051908152f35b5090346102e65760803660031901126102e6575f54813592606435926044359260243591906001600160a01b037f00000000000000000000000000000000000000000000000000000000000000008116911633148061121a575b1590816111bc575b506111ae5760ff60035460081c1661108e81611b06565b6001811461119f57806110a2600292611b06565b14611191576110af611bb6565b6110b881611b06565b80611173575085158015611169575b8015611160575b8015611156575b611148578590558060055582600655836007558151948552602085015283015260608201523360808201527f26f7315aaf2926e91db90b9e8be8c5c36e6a366c93950652ce964393555390c460a07f000000000000000000000000000000000000000000000000000000000000000092a2005b825163a74634cd60e01b8152fd5b50838511156110d5565b508184106110ce565b50858211156110c7565b604492505f8451926305fb5e1b60e01b845283015261062681611b06565b825163214dacf960e11b8152fd5b5082516327c0e7b560e01b8152fd5b825163ea8e4eb560e01b8152fd5b845163df7f453b60e01b815233848201529150602090829060249082905afa908115611210575f916111f1575b50155f611077565b61120a915060203d6020116106b6576106a88183611a89565b5f6111e9565b84513d5f823e3d90fd5b508351633e460e1560e21b81523383820152602081602481855afa9081156106bd575f91611249575b5061106f565b611262915060203d6020116106b6576106a88183611a89565b5f611243565b50346102e6575f3660031901126102e6578051905f9260018054908160011c91600181168015611360575b602094858510821461134d575083875290811561132d57506001146112d3575b5050506112c5826112cf940383611a89565b5191829182611abf565b0390f35b60015f9081529295507fb10e2d527612073b26eecdfd717e6a320cf44b4afac2b0732d9fcbe2b7fa0cf65b82841061131a57505050826112cf946112c592820101946112b3565b80548685018801529286019281016112fe565b60ff1916868501525050151560051b83010192506112c5826112cf6112b3565b602290634e487b7160e01b5f525260245ffd5b92607f1692611293565b50346102e65760203660031901126102e657813591335f52600860205260ff825f205416156109f35760ff60035460081c166113a581611b06565b60018114610e4e57806113b9600292611b06565b14610e40576113c6611bb6565b6113cf81611b06565b806114575750335f52600960205260ff825f2054166109e55782156109d757508190335f526009602052805f20600160ff19825416179055600b6020525f2055337f00000000000000000000000000000000000000000000000000000000000000007f26a454697a4923cb3646779d831b5e4696bd3fab14b67dd6dfe23d72354f57dd5f80a4005b5f60449351926305fb5e1b60e01b845283015261062681611b06565b50346102e65760203660031901126102e6576020906001600160a01b03611498611b24565b165f526008825260ff815f20541690519015158152f35b50346102e6575f3660031901126102e657602090600d549051908152f35b50346102e657602090816003193601126102e6576114e9611b24565b60018060a01b03807f00000000000000000000000000000000000000000000000000000000000000001684825f54163314806116a2575b159182611652575b50506116425760ff60035460081c1661154081611b06565b600181146116325780611554600292611b06565b1461162257611561611bb6565b61156a81611b06565b80611605575081169384156115f757845f526008845260ff835f2054166115e95750906115b77f5b551e9aea49b0b85a31d13fd569c911ded7781feaae60c3603e3a968b05fc1392611c53565b508051926001845233908401527f000000000000000000000000000000000000000000000000000000000000000092a3005b8251630ea075bf60e21b8152fd5b82516311745b2b60e31b8152fd5b83516305fb5e1b60e01b81525f8188015260449161062681611b06565b825163214dacf960e11b81528590fd5b83516327c0e7b560e01b81528690fd5b825163ea8e4eb560e01b81528590fd5b855163df7f453b60e01b815233898201529250829060249082905afa908115611210575f91611685575b5015845f611528565b61169c9150853d87116106b6576106a88183611a89565b5f61167c565b50508351633e460e1560e21b815233878201528581602481855afa9081156106bd579086915f916116d4575b50611520565b6116eb9150823d84116106b6576106a88183611a89565b5f6116ce565b50346102e6575f3660031901126102e657600354905160209160081c60ff166107c081611b06565b50346102e6575f3660031901126102e6576020906007549051908152f35b50346102e6575f3660031901126102e6576020906005549051908152f35b5090346102e6575f3660031901126102e6575f546001600160a01b037f000000000000000000000000000000000000000000000000000000000000000081169116331480611939575b1590816118db575b506118cd576003549160ff8360081c166117bf81611b06565b600181146118bf57806117d3600292611b06565b146118b25760ff8316916117e683611b06565b60028314611895576117f783611b06565b600183019060ff8211611882575060ff16809361181382611b06565b61181c82611b06565b60ff19161760035561182d82611b06565b61183683611b06565b513381527fb08bfe79d11e67f65c878f279728c4d53fc5dfc3373a20958345fcad3750953e60207f000000000000000000000000000000000000000000000000000000000000000092a4005b601190634e487b7160e01b5f525260245ffd5b600260449251916335c1372560e01b835282015260026024820152fd5b5163214dacf960e11b8152fd5b50516327c0e7b560e01b8152fd5b905163ea8e4eb560e01b8152fd5b835163df7f453b60e01b815233848201529150602090829060249082905afa90811561192f575f91611910575b50155f6117a6565b611929915060203d6020116106b6576106a88183611a89565b5f611908565b83513d5f823e3d90fd5b508251633e460e1560e21b81523383820152602081602481855afa908115611210575f91611968575b5061179e565b611981915060203d6020116106b6576106a88183611a89565b5f611962565b50346102e6575f3660031901126102e6576020906006549051908152f35b50346102e6575f3660031901126102e657600354905160209160ff166107c081611b06565b919050346102e6575f3660031901126102e6575f9260025460018160011c91600181168015611a7f575b602094858510821461134d575083875290811561132d5750600114611a25575050506112c5826112cf940383611a89565b60025f9081529295507f405787fa12a823e0f2b7631cc41b3ba8828b3321ca811111fa75cd3aa3bb5ace5b828410611a6c57505050826112cf946112c592820101946112b3565b8054868501880152928601928101611a50565b92607f16926119f4565b90601f8019910116810190811067ffffffffffffffff821117611aab57604052565b634e487b7160e01b5f52604160045260245ffd5b602080825282518183018190529093925f5b828110611af257505060409293505f838284010152601f8019910116010190565b818101860151848201604001528501611ad1565b60031115611b1057565b634e487b7160e01b5f52602160045260245ffd5b600435906001600160a01b03821682036102e657565b602435906001600160a01b03821682036102e657565b9181601f840112156102e65782359167ffffffffffffffff83116102e657602083818601950101116102e657565b908160209103126102e6575180151581036102e65790565b908060209392818452848401375f828201840152601f01601f1916010190565b6004548015611c00574210611beb576005544210611beb57600754421080611bf4575b611bef576006544210611beb57600290565b5f90565b600190565b50600654421015611bd9565b5060ff6003541690565b600d54811015611c3f57600d5f527fd7b6990105719101dabeb77144f2a3385c8033acd3af97e9423a695e81ad1eb501905f90565b634e487b7160e01b5f52603260045260245ffd5b6001600160a01b0381165f818152600860205260409020805491929160ff8116611cdb5760ff19166001179055600d549068010000000000000000821015611aab57611ca8826001611cc69401600d55611c0a565b90919060018060a01b038084549260031b9316831b921b1916179055565b600d54905f52600e60205260405f2055600190565b505050505f90565b90916001600160a01b03909116908115611ea957815f5260206008815260409160ff835f20541615611e9857835f526009825260ff835f20541615611e8757835f52600a825260ff835f205416611e765784158015611e4d575b611e3c5782519082820190868252848301528460608301523060808301524660a083015260a0825260c082019180831067ffffffffffffffff841117611aab57828552519020845f52600b8352835f205403611e2d5750825f52600a8152815f20600160ff19825416179055835f52600c8152815f2090815460018101809111611e19577f63ab6e5dc98a7d72f7b887b4479c584f5d1cc5e644f8b756c1213bc8e32f4f429255845f52600c8152825f205492519283527f000000000000000000000000000000000000000000000000000000000000000092a4565b634e487b7160e01b5f52601160045260245ffd5b635054097b60e01b8152600490fd5b825163e66ea08f60e01b8152600490fd5b507f00000000000000000000000000000000000000000000000000000000000000008511611d3d565b825163a89ac15160e01b8152600490fd5b8251631918952960e01b8152600490fd5b825163aba4733960e01b8152600490fd5b6040516311745b2b60e31b8152600490fd5b6001600160a01b039081165f8181526008602052604090205490919060ff1615611fa157600e60205260405f20545f1990818101818111611e1957600d54838101908111611e19578181869303611f6c575b50505050600d548015611f58570190611f2582611c0a565b909182549160031b1b19169055600d555f52600e6020525f6040812055600860205260405f2060ff198154169055600190565b634e487b7160e01b5f52603160045260245ffd5b611ca892611f7c611f8c93611c0a565b90549060031b1c16928391611c0a565b5f52600e60205260405f20555f828180611f0d565b50505f9056fea26469706673582212202ecf030f130cc209ff2486151865715ac7878bbf56a958ec1eff0cb66d1c647964736f6c63430008180033405787fa12a823e0f2b7631cc41b3ba8828b3321ca811111fa75cd3aa3bb5aceb10e2d527612073b26eecdfd717e6a320cf44b4afac2b0732d9fcbe2b7fa0cf6","linkReferences":{}},"methodIdentifiers":{"candidateCount()":"a9a981a3","commitEndsAt()":"1dcf2e39","commitFor(address,bytes32)":"874359ed","commitStartsAt()":"f826fee8","commitVote(bytes32)":"3e858923","commitmentOf(address)":"f662b881","currentPhase()":"055ad42e","getResult(uint256)":"995e4339","getWhitelistedVoterAt(uint256)":"fae50523","getWhitelistedVoterCount()":"39a3fb2e","getWhitelistedVoters()":"78905e2e","hasCommitted(address)":"c6dbe15a","hasRevealed(address)":"b9a53013","isWhitelisted(address)":"3af32abf","metadataURI()":"03ee438c","phase()":"b1c9fe6e","registerVoter(address)":"38db6dd3","registerVoters(address[])":"d55ec9c1","registry()":"7b103999","revealEndsAt()":"1e8f0489","revealFor(address,uint256,bytes32)":"5688e299","revealStartsAt()":"0e866fa5","revealVote(uint256,bytes32)":"69edbcda","setPhaseSchedule(uint256,uint256,uint256,uint256)":"4d35574f","setSuspended(bool,address,string)":"fdbf64c2","spaceAdmin()":"7a967cd3","spaceId()":"6bf2ffa1","status()":"200d2ed2","terminate(address,string)":"534e0e9e","title()":"4a79d50c","transferSpaceAdmin(address,address,string)":"e2a89c4a","transitionToNextPhase()":"0f8779c6","unregisterVoter(address)":"7ed17751","voteCount(uint256)":"4fc8a20d"},"id":22}