{"abi":[{"type":"constructor","inputs":[{"name":"_registry","type":"address","internalType":"address"},{"name":"_spaceAdmin","type":"address","internalType":"address"},{"name":"_spaceId","type":"uint256","internalType":"uint256"},{"name":"_candidateCount","type":"uint256","internalType":"uint256"},{"name":"_title","type":"string","internalType":"string"},{"name":"_metadataURI","type":"string","internalType":"string"},{"name":"_initialActor","type":"address","internalType":"address"},{"name":"_initialVoters","type":"address[]","internalType":"address[]"},{"name":"_commitStartsAt","type":"uint256","internalType":"uint256"},{"name":"_commitEndsAt","type":"uint256","internalType":"uint256"},{"name":"_revealStartsAt","type":"uint256","internalType":"uint256"},{"name":"_revealEndsAt","type":"uint256","internalType":"uint256"}],"stateMutability":"nonpayable"},{"type":"function","name":"candidateCount","inputs":[],"outputs":[{"name":"","type":"uint256","internalType":"uint256"}],"stateMutability":"view"},{"type":"function","name":"commitEndsAt","inputs":[],"outputs":[{"name":"","type":"uint256","internalType":"uint256"}],"stateMutability":"view"},{"type":"function","name":"commitFor","inputs":[{"name":"voter","type":"address","internalType":"address"},{"name":"commitment","type":"bytes32","internalType":"bytes32"}],"outputs":[],"stateMutability":"nonpayable"},{"type":"function","name":"commitStartsAt","inputs":[],"outputs":[{"name":"","type":"uint256","internalType":"uint256"}],"stateMutability":"view"},{"type":"function","name":"commitVote","inputs":[{"name":"commitment","type":"bytes32","internalType":"bytes32"}],"outputs":[],"stateMutability":"nonpayable"},{"type":"function","name":"commitmentOf","inputs":[{"name":"","type":"address","internalType":"address"}],"outputs":[{"name":"","type":"bytes32","internalType":"bytes32"}],"stateMutability":"view"},{"type":"function","name":"currentPhase","inputs":[],"outputs":[{"name":"","type":"uint8","internalType":"enum ElectionSpace.Phase"}],"stateMutability":"view"},{"type":"function","name":"getResult","inputs":[{"name":"candidateId","type":"uint256","internalType":"uint256"}],"outputs":[{"name":"","type":"uint256","internalType":"uint256"}],"stateMutability":"view"},{"type":"function","name":"hasCommitted","inputs":[{"name":"","type":"address","internalType":"address"}],"outputs":[{"name":"","type":"bool","internalType":"bool"}],"stateMutability":"view"},{"type":"function","name":"hasRevealed","inputs":[{"name":"","type":"address","internalType":"address"}],"outputs":[{"name":"","type":"bool","internalType":"bool"}],"stateMutability":"view"},{"type":"function","name":"isWhitelisted","inputs":[{"name":"","type":"address","internalType":"address"}],"outputs":[{"name":"","type":"bool","internalType":"bool"}],"stateMutability":"view"},{"type":"function","name":"metadataURI","inputs":[],"outputs":[{"name":"","type":"string","internalType":"string"}],"stateMutability":"view"},{"type":"function","name":"phase","inputs":[],"outputs":[{"name":"","type":"uint8","internalType":"enum ElectionSpace.Phase"}],"stateMutability":"view"},{"type":"function","name":"registerVoter","inputs":[{"name":"voter","type":"address","internalType":"address"}],"outputs":[],"stateMutability":"nonpayable"},{"type":"function","name":"registerVoters","inputs":[{"name":"voters","type":"address[]","internalType":"address[]"}],"outputs":[],"stateMutability":"nonpayable"},{"type":"function","name":"registry","inputs":[],"outputs":[{"name":"","type":"address","internalType":"address"}],"stateMutability":"view"},{"type":"function","name":"revealEndsAt","inputs":[],"outputs":[{"name":"","type":"uint256","internalType":"uint256"}],"stateMutability":"view"},{"type":"function","name":"revealFor","inputs":[{"name":"voter","type":"address","internalType":"address"},{"name":"candidateId","type":"uint256","internalType":"uint256"},{"name":"salt","type":"bytes32","internalType":"bytes32"}],"outputs":[],"stateMutability":"nonpayable"},{"type":"function","name":"revealStartsAt","inputs":[],"outputs":[{"name":"","type":"uint256","internalType":"uint256"}],"stateMutability":"view"},{"type":"function","name":"revealVote","inputs":[{"name":"candidateId","type":"uint256","internalType":"uint256"},{"name":"salt","type":"bytes32","internalType":"bytes32"}],"outputs":[],"stateMutability":"nonpayable"},{"type":"function","name":"setPhaseSchedule","inputs":[{"name":"_commitStartsAt","type":"uint256","internalType":"uint256"},{"name":"_commitEndsAt","type":"uint256","internalType":"uint256"},{"name":"_revealStartsAt","type":"uint256","internalType":"uint256"},{"name":"_revealEndsAt","type":"uint256","internalType":"uint256"}],"outputs":[],"stateMutability":"nonpayable"},{"type":"function","name":"setSuspended","inputs":[{"name":"suspended","type":"bool","internalType":"bool"},{"name":"actor","type":"address","internalType":"address"},{"name":"reasonCode","type":"string","internalType":"string"}],"outputs":[],"stateMutability":"nonpayable"},{"type":"function","name":"spaceAdmin","inputs":[],"outputs":[{"name":"","type":"address","internalType":"address"}],"stateMutability":"view"},{"type":"function","name":"spaceId","inputs":[],"outputs":[{"name":"","type":"uint256","internalType":"uint256"}],"stateMutability":"view"},{"type":"function","name":"status","inputs":[],"outputs":[{"name":"","type":"uint8","internalType":"enum ElectionSpace.ElectionStatus"}],"stateMutability":"view"},{"type":"function","name":"terminate","inputs":[{"name":"actor","type":"address","internalType":"address"},{"name":"reasonCode","type":"string","internalType":"string"}],"outputs":[],"stateMutability":"nonpayable"},{"type":"function","name":"title","inputs":[],"outputs":[{"name":"","type":"string","internalType":"string"}],"stateMutability":"view"},{"type":"function","name":"transferSpaceAdmin","inputs":[{"name":"newAdmin","type":"address","internalType":"address"},{"name":"actor","type":"address","internalType":"address"},{"name":"reasonCode","type":"string","internalType":"string"}],"outputs":[],"stateMutability":"nonpayable"},{"type":"function","name":"transitionToNextPhase","inputs":[],"outputs":[],"stateMutability":"nonpayable"},{"type":"function","name":"unregisterVoter","inputs":[{"name":"voter","type":"address","internalType":"address"}],"outputs":[],"stateMutability":"nonpayable"},{"type":"function","name":"updateMetadata","inputs":[{"name":"_title","type":"string","internalType":"string"},{"name":"_metadataURI","type":"string","internalType":"string"},{"name":"actor","type":"address","internalType":"address"}],"outputs":[],"stateMutability":"nonpayable"},{"type":"function","name":"voteCount","inputs":[{"name":"","type":"uint256","internalType":"uint256"}],"outputs":[{"name":"","type":"uint256","internalType":"uint256"}],"stateMutability":"view"},{"type":"event","name":"CommitRelayed","inputs":[{"name":"spaceId","type":"uint256","indexed":true,"internalType":"uint256"},{"name":"voter","type":"address","indexed":true,"internalType":"address"},{"name":"relayer","type":"address","indexed":true,"internalType":"address"},{"name":"commitment","type":"bytes32","indexed":false,"internalType":"bytes32"}],"anonymous":false},{"type":"event","name":"Committed","inputs":[{"name":"spaceId","type":"uint256","indexed":true,"internalType":"uint256"},{"name":"voter","type":"address","indexed":true,"internalType":"address"},{"name":"commitment","type":"bytes32","indexed":true,"internalType":"bytes32"}],"anonymous":false},{"type":"event","name":"ElectionMetadataUpdated","inputs":[{"name":"spaceId","type":"uint256","indexed":true,"internalType":"uint256"},{"name":"title","type":"string","indexed":false,"internalType":"string"},{"name":"metadataURI","type":"string","indexed":false,"internalType":"string"},{"name":"actor","type":"address","indexed":false,"internalType":"address"}],"anonymous":false},{"type":"event","name":"ElectionStatusChanged","inputs":[{"name":"spaceId","type":"uint256","indexed":true,"internalType":"uint256"},{"name":"status","type":"uint8","indexed":true,"internalType":"enum ElectionSpace.ElectionStatus"},{"name":"actor","type":"address","indexed":true,"internalType":"address"},{"name":"reasonCode","type":"string","indexed":false,"internalType":"string"}],"anonymous":false},{"type":"event","name":"InitialConfigurationApplied","inputs":[{"name":"spaceId","type":"uint256","indexed":true,"internalType":"uint256"},{"name":"voterCount","type":"uint256","indexed":false,"internalType":"uint256"},{"name":"commitStartsAt","type":"uint256","indexed":false,"internalType":"uint256"},{"name":"commitEndsAt","type":"uint256","indexed":false,"internalType":"uint256"},{"name":"revealStartsAt","type":"uint256","indexed":false,"internalType":"uint256"},{"name":"revealEndsAt","type":"uint256","indexed":false,"internalType":"uint256"},{"name":"actor","type":"address","indexed":false,"internalType":"address"}],"anonymous":false},{"type":"event","name":"PhaseChanged","inputs":[{"name":"spaceId","type":"uint256","indexed":true,"internalType":"uint256"},{"name":"previousPhase","type":"uint8","indexed":true,"internalType":"enum ElectionSpace.Phase"},{"name":"newPhase","type":"uint8","indexed":true,"internalType":"enum ElectionSpace.Phase"},{"name":"actor","type":"address","indexed":false,"internalType":"address"}],"anonymous":false},{"type":"event","name":"PhaseScheduleUpdated","inputs":[{"name":"spaceId","type":"uint256","indexed":true,"internalType":"uint256"},{"name":"commitStartsAt","type":"uint256","indexed":false,"internalType":"uint256"},{"name":"commitEndsAt","type":"uint256","indexed":false,"internalType":"uint256"},{"name":"revealStartsAt","type":"uint256","indexed":false,"internalType":"uint256"},{"name":"revealEndsAt","type":"uint256","indexed":false,"internalType":"uint256"},{"name":"actor","type":"address","indexed":false,"internalType":"address"}],"anonymous":false},{"type":"event","name":"RevealRelayed","inputs":[{"name":"spaceId","type":"uint256","indexed":true,"internalType":"uint256"},{"name":"voter","type":"address","indexed":true,"internalType":"address"},{"name":"relayer","type":"address","indexed":true,"internalType":"address"},{"name":"candidateId","type":"uint256","indexed":false,"internalType":"uint256"}],"anonymous":false},{"type":"event","name":"Revealed","inputs":[{"name":"spaceId","type":"uint256","indexed":true,"internalType":"uint256"},{"name":"voter","type":"address","indexed":true,"internalType":"address"},{"name":"candidateId","type":"uint256","indexed":true,"internalType":"uint256"},{"name":"newVoteCount","type":"uint256","indexed":false,"internalType":"uint256"}],"anonymous":false},{"type":"event","name":"SpaceAdminTransferred","inputs":[{"name":"spaceId","type":"uint256","indexed":true,"internalType":"uint256"},{"name":"previousAdmin","type":"address","indexed":true,"internalType":"address"},{"name":"newAdmin","type":"address","indexed":true,"internalType":"address"},{"name":"actor","type":"address","indexed":false,"internalType":"address"},{"name":"reasonCode","type":"string","indexed":false,"internalType":"string"}],"anonymous":false},{"type":"event","name":"WhitelistUpdated","inputs":[{"name":"spaceId","type":"uint256","indexed":true,"internalType":"uint256"},{"name":"voter","type":"address","indexed":true,"internalType":"address"},{"name":"isRegistered","type":"bool","indexed":false,"internalType":"bool"},{"name":"actor","type":"address","indexed":false,"internalType":"address"}],"anonymous":false},{"type":"error","name":"AlreadyCommitted","inputs":[]},{"type":"error","name":"AlreadyRegistered","inputs":[]},{"type":"error","name":"AlreadyRevealed","inputs":[]},{"type":"error","name":"CommitmentMismatch","inputs":[]},{"type":"error","name":"ElectionSuspended","inputs":[]},{"type":"error","name":"ElectionTerminated","inputs":[]},{"type":"error","name":"InvalidAdmin","inputs":[]},{"type":"error","name":"InvalidCandidate","inputs":[]},{"type":"error","name":"InvalidCommitment","inputs":[]},{"type":"error","name":"InvalidPhaseSchedule","inputs":[]},{"type":"error","name":"InvalidPhaseTransition","inputs":[{"name":"current","type":"uint8","internalType":"enum ElectionSpace.Phase"},{"name":"requested","type":"uint8","internalType":"enum ElectionSpace.Phase"}]},{"type":"error","name":"InvalidVoter","inputs":[]},{"type":"error","name":"NotAuthorized","inputs":[]},{"type":"error","name":"NotCommittedYet","inputs":[]},{"type":"error","name":"NotRegistered","inputs":[]},{"type":"error","name":"NotRegistry","inputs":[]},{"type":"error","name":"WrongPhase","inputs":[{"name":"expected","type":"uint8","internalType":"enum ElectionSpace.Phase"},{"name":"actual","type":"uint8","internalType":"enum ElectionSpace.Phase"}]}],"bytecode":{"object":"0x604060e0815234620007bc5762002aab803803806200001e81620007c0565b92833981019061018081830312620007bc576200003b81620007e6565b916200004a60208301620007e6565b82850151606084015160808501519095906001600160401b038111620007bc578462000078918701620007fb565b60a08601516001600160401b038111620007bc57856200009a918801620007fb565b90620000a960c08801620007e6565b60e08801519098906001600160401b038111620007bc5788019680601f89011215620007bc578751976001600160401b03891162000666578860051b90602080620000f6818501620007c0565b809c81520192820101928311620007bc57602001905b828210620007a15750505061010088015194610120890151966101606101408b01519a01519560018060a01b0381161580156200078f575b6200077e5783156200076d576080525f80546001600160a01b0319166001600160a01b039290921691909117905560a05260c0528051906001600160401b038211620006665760015490600182811c9216801562000762575b6020831014620006475781601f84931162000701575b50602090601f831160011462000686575f926200067a575b50508160011b915f199060031b1c1916176001555b8051906001600160401b038211620006665760025490600182811c921680156200065b575b6020831014620006475781601f849311620005e6575b50602090601f83116001146200056f575f9262000563575b50508160011b915f199060031b1c1916176002555b61ffff19600354166003558351620004ac575b81159485159580878892620004a2575b801562000498575b80156200048e575b620003db575b5050505050505190811590811591620003d2575b506200036e575b82516121ff90816200086c82396080518181816101d2015281816103b5015281816104dc01528181610aac01528181610cab01528181610f140152818161101e015281816114a70152818161174a01526119d0015260a05181818161027c01528181610438015281816105d50152818161099a01528181610b6301528181610d1801528181610e6201528181610f8f015281816110f8015281816113dc015281816115790152818161180501528181611ae50152612104015260c05181818161080201528181610886015261215e0152f35b60c07fa8dbf017bc75dd8e14ed96c66028f2fb1d209e4398405364261fe9bc77e572499160a05193600454600554600654906007549289519586526020860152888501526060840152608083015260018060a01b031660a0820152a25f806200029c565b90505f62000295565b9062000483575b801562000479575b80156200046e575b6200045d579160a0917f26f7315aaf2926e91db90b9e8be8c5c36e6a366c93950652ce964393555390c493826004558560055580600655816007558351958a519384526020840152898301526060820152600180831b0387166080820152a25f808080858162000281565b875163a74634cd60e01b8152600490fd5b5080821115620003f2565b50838110620003ea565b5082841115620003e2565b508315156200027b565b5082151562000273565b508515156200026b565b949391905f5b84518110156200055857600581901b8501602001516001600160a01b03168015620005475790816001925f526008602052895f20805460ff811615620004fd575b50505001620004b2565b849060ff191617905560a0517f5b551e9aea49b0b85a31d13fd569c911ded7781feaae60c3603e3a968b05fc138b8051868152868060a01b038c166020820152a35f8080620004f3565b88516311745b2b60e31b8152600490fd5b50909193946200025b565b015190505f8062000233565b60025f9081525f8051602062002a6b8339815191529350601f198516905b818110620005cd5750908460019594939210620005b4575b505050811b0160025562000248565b01515f1960f88460031b161c191690555f8080620005a5565b929360206001819287860151815501950193016200058d565b60025f529091505f8051602062002a6b833981519152601f840160051c810191602085106200063c575b90601f859493920160051c01905b8181106200062d57506200021b565b5f81558493506001016200061e565b909150819062000610565b634e487b7160e01b5f52602260045260245ffd5b91607f169162000205565b634e487b7160e01b5f52604160045260245ffd5b015190505f80620001cb565b60015f90815293505f8051602062002a8b83398151915291905b601f1984168510620006e5576001945083601f19811610620006cc575b505050811b01600155620001e0565b01515f1960f88460031b161c191690555f8080620006bd565b81810151835560209485019460019093019290910190620006a0565b60015f529091505f8051602062002a8b833981519152601f840160051c8101916020851062000757575b90601f859493920160051c01905b818110620007485750620001b3565b5f815584935060010162000739565b90915081906200072b565b91607f16916200019d565b8c5163e66ea08f60e01b8152600490fd5b8c5163ea8e4eb560e01b8152600490fd5b506001600160a01b0382161562000144565b60208091620007b084620007e6565b8152019101906200010c565b5f80fd5b6040519190601f01601f191682016001600160401b038111838210176200066657604052565b51906001600160a01b0382168203620007bc57565b919080601f84011215620007bc5782516001600160401b038111620006665760209062000831601f8201601f19168301620007c0565b92818452828287010111620007bc575f5b818110620008575750825f9394955001015290565b85810183015184820184015282016200084256fe608060409080825260049081361015610016575f80fd5b5f3560e01c90816303ee438c14611d8b57508063055ad42e14611d6557806307b63c291461196b5780630e866fa51461194d5780630f8779c61461172c5780631dcf2e391461170e5780631e8f0489146116f0578063200d2ed2146116ae57806338db6dd31461147f5780633af32abf146114435780633e8589231461133b5780634a79d50c1461125d5780634d35574f14610ff05780634fc8a20d14610fc8578063534e0e9e14610ecb5780635688e29914610de957806369edbcda14610d3b5780636bf2ffa114610d015780637a967cd314610cda5780637b10399914610c975780637ed1775114610a85578063874359ed146108e2578063995e433914610825578063a9a981a3146107eb578063b1c9fe6e146107c1578063b9a5301314610785578063c6dbe15a14610749578063d55ec9c11461047e578063e2a89c4a14610362578063f662b8811461032b578063f826fee81461030e5763fdbf64c214610180575f80fd5b3461030a57606036600319011261030a578035801515810361030a576101a4611f4a565b9060443567ffffffffffffffff811161030a576101c49036908501611f06565b92909460018060a01b0392837f00000000000000000000000000000000000000000000000000000000000000001633036102fa576003549060ff8260081c1660038110156102e7576002146102d757156102d15760015b60038110156102be579061ff0060ff9260081b169061ff001916178060035560081c169460038610156102ab5750906102a67f7bf94aa98e004220f19fb43e7d8d6dabd2c23e3fadc2908d16dd25f52cd1c43b9392519283926020845216967f0000000000000000000000000000000000000000000000000000000000000000956020840191611f60565b0390a4005b602190634e487b7160e01b5f525260245ffd5b602187634e487b7160e01b5f525260245ffd5b5f61021b565b825163214dacf960e11b81528790fd5b602188634e487b7160e01b5f525260245ffd5b8151633217675b60e21b81528690fd5b5f80fd5b50903461030a575f36600319011261030a57602091549051908152f35b823461030a57602036600319011261030a576020906001600160a01b03610350611f34565b165f52600b8252805f20549051908152f35b50903461030a57606036600319011261030a5761037d611f34565b90610386611f4a565b9160443567ffffffffffffffff811161030a576103a69036908601611f06565b936001600160a01b03929091907f00000000000000000000000000000000000000000000000000000000000000008416330361046e5783169586156104605750906102a683927fbe1cc4eb33fa3157c6e975e4dc49e5744ee7070832804598fafd71f5aced1d11945f54896bffffffffffffffffffffffff60a01b8216175f55875195869516855287602086015216967f000000000000000000000000000000000000000000000000000000000000000096840191611f60565b8451630b5eba9f60e41b8152fd5b8451633217675b60e21b81528790fd5b50903461030a576020918260031936011261030a5780359267ffffffffffffffff9283851161030a573660238601121561030a578483013593841161030a5760249060059536838760051b8301011161030a5760018060a01b0394857f0000000000000000000000000000000000000000000000000000000000000000168486885f54163314806106ee575b159283610684575b5050506106765760ff936003549260ff60089460081c169960038b10156106645760019a60018114610654576002146106445761054d611f98565b84811015610632578061060f57505f5b8a811061056657005b8381831b840101358a811680910361030a5780156105ff5790818d925f52878b52885f208381548c8116156105a0575b505050500161055d565b60ff19161790558851838152338c8201527f5b551e9aea49b0b85a31d13fd569c911ded7781feaae60c3603e3a968b05fc138a7f000000000000000000000000000000000000000000000000000000000000000092a35f808381610596565b87516311745b2b60e31b81528690fd5b86516305fb5e1b60e01b81525f818701526044916106309082870190611ee5565bfd5b83602186634e487b7160e01b5f52525ffd5b855163214dacf960e11b81528490fd5b86516327c0e7b560e01b81528590fd5b82602185634e487b7160e01b5f52525ffd5b825163ea8e4eb560e01b8152fd5b865163df7f453b60e01b8152338682015293509091839182905afa9081156106e4575f916106b7575b501584865f610512565b6106d79150863d88116106dd575b6106cf8183611e68565b810190611f80565b5f6106ad565b503d6106c5565b84513d5f823e3d90fd5b50508451633e460e1560e21b81523384820152905086818781855afa90811561073f57869188915f91610722575b5061050a565b6107399150823d84116106dd576106cf8183611e68565b5f61071c565b85513d5f823e3d90fd5b823461030a57602036600319011261030a576020906001600160a01b0361076e611f34565b165f526009825260ff815f20541690519015158152f35b823461030a57602036600319011261030a576020906001600160a01b036107aa611f34565b165f52600a825260ff815f20541690519015158152f35b823461030a575f36600319011261030a576020906107e96107e0611f98565b91518092611ee5565bf35b823461030a575f36600319011261030a57602090517f00000000000000000000000000000000000000000000000000000000000000008152f35b50903461030a57602036600319011261030a578135610842611f98565b838110156108cf57600381036108ac575080158015610883575b61087557602092505f52600c8252805f20549051908152f35b505163e66ea08f60e01b8152fd5b507f0000000000000000000000000000000000000000000000000000000000000000811161085c565b82516305fb5e1b60e01b8152600381860152604491610630906024830190611ee5565b602184634e487b7160e01b5f525260245ffd5b503461030a578160031936011261030a576108fb611f34565b916024359260ff60035460081c1660038110156108cf5760018114610a7657600214610a6857610929611f98565b838110156108cf5760018103610a4557506001600160a01b0316918215610a3757825f52600860205260ff825f20541615610a2957825f52600960205260ff825f205416610a1b578315610a0d5750815f526009602052805f20600160ff19825416179055600b60205282815f20557f00000000000000000000000000000000000000000000000000000000000000009051928083837f26a454697a4923cb3646779d831b5e4696bd3fab14b67dd6dfe23d72354f57dd5f80a483527ffe0c7364ffb74b1ea082bb70c7112cc6ed8c85202628a077d369805f1ffd14ac60203394a4005b9051636033c4fd60e11b8152fd5b90516317fd8aab60e31b8152fd5b905163aba4733960e01b8152fd5b90516311745b2b60e31b8152fd5b82516305fb5e1b60e01b8152600181860152604491610630906024830190611ee5565b505163214dacf960e11b8152fd5b5050516327c0e7b560e01b8152fd5b503461030a576020908160031936011261030a57610aa1611f34565b60018060a01b0391827f00000000000000000000000000000000000000000000000000000000000000001684845f5416331480610c40575b159182610be6575b5050610bd85760ff60035460081c166003811015610ba85760018114610bc957600214610bbb57610b10611f98565b81811015610ba85780610b86575050907f5b551e9aea49b0b85a31d13fd569c911ded7781feaae60c3603e3a968b05fc13911692835f5260088352805f2060ff1981541690558051925f845233908401527f000000000000000000000000000000000000000000000000000000000000000092a3005b906106306044925f8851936305fb5e1b60e01b85528401526024830190611ee5565b602182634e487b7160e01b5f525260245ffd5b845163214dacf960e11b8152fd5b5084516327c0e7b560e01b8152fd5b845163ea8e4eb560e01b8152fd5b875163df7f453b60e01b815233858201529250829060249082905afa908115610c36575f91610c19575b5015845f610ae1565b610c309150853d87116106dd576106cf8183611e68565b5f610c10565b86513d5f823e3d90fd5b50508551633e460e1560e21b815233838201528581602481855afa8015610c8d5786915f91610c70575b50610ad9565b610c879150823d84116106dd576106cf8183611e68565b5f610c6a565b87513d5f823e3d90fd5b823461030a575f36600319011261030a57517f00000000000000000000000000000000000000000000000000000000000000006001600160a01b03168152602090f35b823461030a575f36600319011261030a575f5490516001600160a01b039091168152602090f35b823461030a575f36600319011261030a57602090517f00000000000000000000000000000000000000000000000000000000000000008152f35b503461030a578160031936011261030a57335f52600860205260ff825f20541615610a295760ff60035460081c166003811015610ba85760018114610dda57600214610dcc57610d89611f98565b9181831015610ba85760028303610daa57610da8602435833533611ff1565b005b60449260026106309251936305fb5e1b60e01b85528401526024830190611ee5565b905163214dacf960e11b8152fd5b5090516327c0e7b560e01b8152fd5b503461030a57606036600319011261030a57610e03611f34565b916024359160ff60035460081c166003811015610ba85760018114610dda57600214610dcc57610e31611f98565b81811015610ba85760028103610ea9575050610e506044358385611ff1565b5190815233916001600160a01b0316907f0000000000000000000000000000000000000000000000000000000000000000907e61840683c17d5c16bbabef1c635624cffef2223aced524b735371a8334846790602090a4005b61063090600260449451936305fb5e1b60e01b85528401526024830190611ee5565b503461030a578160031936011261030a57610ee4611f34565b9160243567ffffffffffffffff811161030a57610f049036908401611f06565b909390916001600160a01b0391907f000000000000000000000000000000000000000000000000000000000000000083163303610fb95760ff61020061ff001960035416178060035560081c169460038610156102ab5750906102a67f7bf94aa98e004220f19fb43e7d8d6dabd2c23e3fadc2908d16dd25f52cd1c43b9392519283926020845216967f0000000000000000000000000000000000000000000000000000000000000000956020840191611f60565b51633217675b60e21b81528490fd5b50903461030a57602036600319011261030a57602091355f52600c8252805f20549051908152f35b50903461030a57608036600319011261030a578135916024918235604435926064359460018060a01b0381817f000000000000000000000000000000000000000000000000000000000000000016915f541633148061120c575b1591826111ba575b50506111ab5760ff60035460081c16600381101561119857600181146111885760021461117957611081611f98565b908282101561116757816111465750508515801561113c575b8015611133575b8015611129575b61111b578590558060055582600655836007558151948552602085015283015260608201523360808201527f26f7315aaf2926e91db90b9e8be8c5c36e6a366c93950652ce964393555390c460a07f000000000000000000000000000000000000000000000000000000000000000092a2005b825163a74634cd60e01b8152fd5b50838511156110a8565b508184106110a1565b508582111561109a565b6106309293505f60449551946305fb5e1b60e01b8652850152830190611ee5565b634e487b7160e01b5f90815260218452fd5b50825163214dacf960e11b8152fd5b84516327c0e7b560e01b81528390fd5b50634e487b7160e01b5f90815260218352fd5b50825163ea8e4eb560e01b8152fd5b865163df7f453b60e01b815233868201529250602091839182905afa90811561073f575f916111ed575b5015815f611052565b611206915060203d6020116106dd576106cf8183611e68565b5f6111e4565b50508451633e460e1560e21b815233848201526020818481855afa908115610c36579083915f9161123e575b5061104a565b611257915060203d6020116106dd576106cf8183611e68565b5f611238565b823461030a575f36600319011261030a5780515f6001805461127e81611e30565b808552916020916001811690811561131157506001146112b8575b6112b485876112aa82880383611e68565b5191829182611e9e565b0390f35b60015f90815293507fb10e2d527612073b26eecdfd717e6a320cf44b4afac2b0732d9fcbe2b7fa0cf65b8385106112fe575050505081016020016112aa826112b4611299565b80548686018401529382019381016112e2565b6112b4979550869350602092506112aa94915060ff191682840152151560051b8201019294611299565b50903461030a57602036600319011261030a57813591335f52600860205260ff825f20541615610a295760ff60035460081c166003811015610ba85760018114610dda57600214610dcc5761138e611f98565b81811015610ba857600181036114215750335f52600960205260ff825f205416610a1b578215610a0d57508190335f526009602052805f20600160ff19825416179055600b6020525f2055337f00000000000000000000000000000000000000000000000000000000000000007f26a454697a4923cb3646779d831b5e4696bd3fab14b67dd6dfe23d72354f57dd5f80a4005b61063090600160449451936305fb5e1b60e01b85528401526024830190611ee5565b823461030a57602036600319011261030a576020906001600160a01b03611468611f34565b165f526008825260ff815f20541690519015158152f35b50903461030a576020908160031936011261030a5761149c611f34565b60018060a01b0390817f00000000000000000000000000000000000000000000000000000000000000001684835f541633148061165f575b15918261160f575b50506115ff5760ff60035460081c1660038110156115cc57600181146115ef576002146115df5761150b611f98565b858110156115cc57806115aa575016928315610a3757835f526008835260ff825f20541661159c57507f5b551e9aea49b0b85a31d13fd569c911ded7781feaae60c3603e3a968b05fc1390835f5260088352805f20600160ff198254161790558051926001845233908401527f000000000000000000000000000000000000000000000000000000000000000092a3005b9051630ea075bf60e21b8152fd5b83516305fb5e1b60e01b81525f81880152604491610630906024830190611ee5565b602186634e487b7160e01b5f525260245ffd5b825163214dacf960e11b81528590fd5b83516327c0e7b560e01b81528690fd5b825163ea8e4eb560e01b81528590fd5b855163df7f453b60e01b815233898201529250829060249082905afa9081156106e4575f91611642575b5015845f6114dc565b6116599150853d87116106dd576106cf8183611e68565b5f611639565b50508351633e460e1560e21b815233878201528581602481855afa90811561073f579086915f91611691575b506114d4565b6116a89150823d84116106dd576106cf8183611e68565b5f61168b565b50903461030a575f36600319011261030a5760ff60035460081c1690519060038110156116dd57602092508152f35b602183634e487b7160e01b5f525260245ffd5b823461030a575f36600319011261030a576020906007549051908152f35b823461030a575f36600319011261030a576020906005549051908152f35b50903461030a575f36600319011261030a575f546001600160a01b037f0000000000000000000000000000000000000000000000000000000000000000811691163314806118f5575b159081611897575b5061188a5760039081549160ff8360081c1681811015611857576001811461187a5760021461186a5760ff831692848410156118575781841461183b576001840160ff81116118285760ff1694808610156102ab5750849060ff1916179055513381527fb08bfe79d11e67f65c878f279728c4d53fc5dfc3373a20958345fcad3750953e60207f000000000000000000000000000000000000000000000000000000000000000092a4005b601186634e487b7160e01b5f525260245ffd5b60448583808651926335c1372560e01b84528301526024820152fd5b602185634e487b7160e01b5f525260245ffd5b815163214dacf960e11b81528490fd5b82516327c0e7b560e01b81528590fd5b5163ea8e4eb560e01b8152fd5b825163df7f453b60e01b815233858201529150602090829060249082905afa9081156118eb575f916118cc575b50155f61177d565b6118e5915060203d6020116106dd576106cf8183611e68565b5f6118c4565b82513d5f823e3d90fd5b508151633e460e1560e21b81523384820152602081602481855afa908115611943575f91611924575b50611775565b61193d915060203d6020116106dd576106cf8183611e68565b5f61191e565b83513d5f823e3d90fd5b823461030a575f36600319011261030a576020906006549051908152f35b50903461030a57606036600319011261030a5767ffffffffffffffff823581811161030a5761199d9036908501611f06565b919060243582811161030a576119b69036908701611f06565b9190956044359360018060a01b0380861680960361030a577f0000000000000000000000000000000000000000000000000000000000000000163303611d56576119fe611f98565b828110156116dd5780611d345750808611611d2157600191611a208354611e30565b91601f92838111611cbf575b50875f848211600114611c3f575f91611c34575b505f1960038a901b1c191688851b1784555b8511611c215750611a64600254611e30565b818111611bbe575b505f908411600114611b15577f4f86676f84ed8c8823cd1b5c0682bdfc9263d14d9879cd7609262de9f280002b9697928480611ade9694611ad0945f93611b0a575b501b905f198560031b1c1916176002555b885196606088526060880191611f60565b918583036020870152611f60565b93820152807f0000000000000000000000000000000000000000000000000000000000000000930390a2005b87013592505f611aae565b601f1984169060025f527f405787fa12a823e0f2b7631cc41b3ba8828b3321ca811111fa75cd3aa3bb5ace915f5b818110611ba8575092611ad0927f4f86676f84ed8c8823cd1b5c0682bdfc9263d14d9879cd7609262de9f280002b999a959287611ade989610611b8f575b505083811b01600255611abf565b8601355f19600387901b60f8161c191690555f80611b81565b8a83013584559284019260209283019201611b43565b60025f527f405787fa12a823e0f2b7631cc41b3ba8828b3321ca811111fa75cd3aa3bb5ace8280870160051c82019260208810611c18575b0160051c019083905b828110611c0d575050611a6c565b5f8155018390611bff565b92508192611bf6565b604190634e487b7160e01b5f525260245ffd5b90508501355f611a40565b5f8681527fb10e2d527612073b26eecdfd717e6a320cf44b4afac2b0732d9fcbe2b7fa0cf692508a90601f198216905b88828210611ca657505010611c8d575b50508388811b018455611a52565b8601355f1960038b901b60f8161c191690555f80611c7f565b8a8501358655909401936020938401938d935001611c6f565b845f527fb10e2d527612073b26eecdfd717e6a320cf44b4afac2b0732d9fcbe2b7fa0cf684808b0160051c82019260208c10611d18575b0160051c019085905b828110611d0d575050611a2c565b5f8155018590611cff565b92508192611cf6565b604182634e487b7160e01b5f525260245ffd5b87516305fb5e1b60e01b81525f81850152604491610630906024830190611ee5565b508551633217675b60e21b8152fd5b823461030a575f36600319011261030a576020906107e960ff6003541691518092611ee5565b83903461030a575f36600319011261030a575f600254611daa81611e30565b808452906020906001908181169081156113115750600114611dd7576112b485876112aa82880383611e68565b60025f90815293507f405787fa12a823e0f2b7631cc41b3ba8828b3321ca811111fa75cd3aa3bb5ace5b838510611e1d575050505081016020016112aa826112b4611299565b8054868601840152938201938101611e01565b90600182811c92168015611e5e575b6020831014611e4a57565b634e487b7160e01b5f52602260045260245ffd5b91607f1691611e3f565b90601f8019910116810190811067ffffffffffffffff821117611e8a57604052565b634e487b7160e01b5f52604160045260245ffd5b602080825282518183018190529093925f5b828110611ed157505060409293505f838284010152601f8019910116010190565b818101860151848201604001528501611eb0565b906004821015611ef25752565b634e487b7160e01b5f52602160045260245ffd5b9181601f8401121561030a5782359167ffffffffffffffff831161030a576020838186019501011161030a57565b600435906001600160a01b038216820361030a57565b602435906001600160a01b038216820361030a57565b908060209392818452848401375f828201840152601f01601f1916010190565b9081602091031261030a5751801515810361030a5790565b6004548015611fe7574210611fcd576005544210611fe257600754421080611fd6575b611fd1576006544210611fcd57600390565b5f90565b600290565b50600654421015611fbb565b600190565b5060ff6003541690565b90916001600160a01b039091169081156121b757815f5260206008815260409160ff835f205416156121a657835f526009825260ff835f2054161561219557835f52600a825260ff835f205416612184578415801561215b575b61214a5782519082820190868252848301528460608301523060808301524660a083015260a0825260c082019180831067ffffffffffffffff841117611e8a57828552519020845f52600b8352835f20540361213b5750825f52600a8152815f20600160ff19825416179055835f52600c8152815f2090815460018101809111612127577f63ab6e5dc98a7d72f7b887b4479c584f5d1cc5e644f8b756c1213bc8e32f4f429255845f52600c8152825f205492519283527f000000000000000000000000000000000000000000000000000000000000000092a4565b634e487b7160e01b5f52601160045260245ffd5b635054097b60e01b8152600490fd5b825163e66ea08f60e01b8152600490fd5b507f0000000000000000000000000000000000000000000000000000000000000000851161204b565b825163a89ac15160e01b8152600490fd5b8251631918952960e01b8152600490fd5b825163aba4733960e01b8152600490fd5b6040516311745b2b60e31b8152600490fdfea264697066735822122026febd12362488efcd9d4c65d13aa4c56da70bc1d14f42d2b82d8a953f734a5864736f6c63430008180033405787fa12a823e0f2b7631cc41b3ba8828b3321ca811111fa75cd3aa3bb5aceb10e2d527612073b26eecdfd717e6a320cf44b4afac2b0732d9fcbe2b7fa0cf6","linkReferences":{}},"methodIdentifiers":{"candidateCount()":"a9a981a3","commitEndsAt()":"1dcf2e39","commitFor(address,bytes32)":"874359ed","commitStartsAt()":"f826fee8","commitVote(bytes32)":"3e858923","commitmentOf(address)":"f662b881","currentPhase()":"055ad42e","getResult(uint256)":"995e4339","hasCommitted(address)":"c6dbe15a","hasRevealed(address)":"b9a53013","isWhitelisted(address)":"3af32abf","metadataURI()":"03ee438c","phase()":"b1c9fe6e","registerVoter(address)":"38db6dd3","registerVoters(address[])":"d55ec9c1","registry()":"7b103999","revealEndsAt()":"1e8f0489","revealFor(address,uint256,bytes32)":"5688e299","revealStartsAt()":"0e866fa5","revealVote(uint256,bytes32)":"69edbcda","setPhaseSchedule(uint256,uint256,uint256,uint256)":"4d35574f","setSuspended(bool,address,string)":"fdbf64c2","spaceAdmin()":"7a967cd3","spaceId()":"6bf2ffa1","status()":"200d2ed2","terminate(address,string)":"534e0e9e","title()":"4a79d50c","transferSpaceAdmin(address,address,string)":"e2a89c4a","transitionToNextPhase()":"0f8779c6","unregisterVoter(address)":"7ed17751","updateMetadata(string,string,address)":"07b63c29","voteCount(uint256)":"4fc8a20d"},"id":0}