{"abi":[{"type":"constructor","inputs":[{"name":"_candidateCount","type":"uint256","internalType":"uint256"}],"stateMutability":"nonpayable"},{"type":"function","name":"admin","inputs":[],"outputs":[{"name":"","type":"address","internalType":"address"}],"stateMutability":"view"},{"type":"function","name":"candidateCount","inputs":[],"outputs":[{"name":"","type":"uint256","internalType":"uint256"}],"stateMutability":"view"},{"type":"function","name":"commitVote","inputs":[{"name":"commitment","type":"bytes32","internalType":"bytes32"}],"outputs":[],"stateMutability":"nonpayable"},{"type":"function","name":"commitmentOf","inputs":[{"name":"","type":"address","internalType":"address"}],"outputs":[{"name":"","type":"bytes32","internalType":"bytes32"}],"stateMutability":"view"},{"type":"function","name":"currentPhase","inputs":[],"outputs":[{"name":"","type":"uint8","internalType":"enum VoteChainMVP.Phase"}],"stateMutability":"view"},{"type":"function","name":"getResult","inputs":[{"name":"candidateId","type":"uint256","internalType":"uint256"}],"outputs":[{"name":"","type":"uint256","internalType":"uint256"}],"stateMutability":"view"},{"type":"function","name":"hasCommitted","inputs":[{"name":"","type":"address","internalType":"address"}],"outputs":[{"name":"","type":"bool","internalType":"bool"}],"stateMutability":"view"},{"type":"function","name":"hasRevealed","inputs":[{"name":"","type":"address","internalType":"address"}],"outputs":[{"name":"","type":"bool","internalType":"bool"}],"stateMutability":"view"},{"type":"function","name":"isWhitelisted","inputs":[{"name":"","type":"address","internalType":"address"}],"outputs":[{"name":"","type":"bool","internalType":"bool"}],"stateMutability":"view"},{"type":"function","name":"registerVoter","inputs":[{"name":"voter","type":"address","internalType":"address"}],"outputs":[],"stateMutability":"nonpayable"},{"type":"function","name":"revealVote","inputs":[{"name":"candidateId","type":"uint256","internalType":"uint256"},{"name":"salt","type":"bytes32","internalType":"bytes32"}],"outputs":[],"stateMutability":"nonpayable"},{"type":"function","name":"transitionToNextPhase","inputs":[],"outputs":[],"stateMutability":"nonpayable"},{"type":"function","name":"unregisterVoter","inputs":[{"name":"voter","type":"address","internalType":"address"}],"outputs":[],"stateMutability":"nonpayable"},{"type":"function","name":"voteCount","inputs":[{"name":"","type":"uint256","internalType":"uint256"}],"outputs":[{"name":"","type":"uint256","internalType":"uint256"}],"stateMutability":"view"},{"type":"event","name":"Committed","inputs":[{"name":"voter","type":"address","indexed":true,"internalType":"address"},{"name":"commitment","type":"bytes32","indexed":true,"internalType":"bytes32"}],"anonymous":false},{"type":"event","name":"PhaseChanged","inputs":[{"name":"previousPhase","type":"uint8","indexed":true,"internalType":"enum VoteChainMVP.Phase"},{"name":"newPhase","type":"uint8","indexed":true,"internalType":"enum VoteChainMVP.Phase"},{"name":"timestamp","type":"uint256","indexed":false,"internalType":"uint256"}],"anonymous":false},{"type":"event","name":"Revealed","inputs":[{"name":"voter","type":"address","indexed":true,"internalType":"address"},{"name":"candidateId","type":"uint256","indexed":true,"internalType":"uint256"},{"name":"newVoteCount","type":"uint256","indexed":false,"internalType":"uint256"}],"anonymous":false},{"type":"event","name":"WhitelistUpdated","inputs":[{"name":"voter","type":"address","indexed":true,"internalType":"address"},{"name":"isRegistered","type":"bool","indexed":false,"internalType":"bool"}],"anonymous":false},{"type":"error","name":"AlreadyCommitted","inputs":[]},{"type":"error","name":"AlreadyRegistered","inputs":[]},{"type":"error","name":"AlreadyRevealed","inputs":[]},{"type":"error","name":"CommitmentMismatch","inputs":[]},{"type":"error","name":"InvalidCandidate","inputs":[]},{"type":"error","name":"InvalidPhaseTransition","inputs":[{"name":"current","type":"uint8","internalType":"enum VoteChainMVP.Phase"},{"name":"requested","type":"uint8","internalType":"enum VoteChainMVP.Phase"}]},{"type":"error","name":"NotAdmin","inputs":[]},{"type":"error","name":"NotCommittedYet","inputs":[]},{"type":"error","name":"NotRegistered","inputs":[]},{"type":"error","name":"WrongPhase","inputs":[{"name":"expected","type":"uint8","internalType":"enum VoteChainMVP.Phase"},{"name":"actual","type":"uint8","internalType":"enum VoteChainMVP.Phase"}]}],"bytecode":{"object":"0x60c060405234801561000f575f80fd5b50604051610b58380380610b5883398101604081905261002e91610063565b805f0361004e5760405163e66ea08f60e01b815260040160405180910390fd5b336080525f805460ff1916905560a05261007a565b5f60208284031215610073575f80fd5b5051919050565b60805160a051610a9a6100be5f395f81816101d8015281816106c4015261090a01525f8181610262015281816102a7015281816103e801526107f20152610a9a5ff3fe608060405234801561000f575f80fd5b50600436106100e5575f3560e01c80637ed1775111610088578063b9a5301311610063578063b9a53013146101fa578063c6dbe15a1461021c578063f662b8811461023e578063f851a4401461025d575f80fd5b80637ed17751146101ad578063995e4339146101c0578063a9a981a3146101d3575f80fd5b80633af32abf116100c35780633af32abf146101285780633e8589231461015a5780634fc8a20d1461016d57806369edbcda1461019a575f80fd5b8063055ad42e146100e95780630f8779c61461010b57806338db6dd314610115575b5f80fd5b5f546100f59060ff1681565b6040516101029190610991565b60405180910390f35b61011361029c565b005b6101136101233660046109a5565b6103dd565b61014a6101363660046109a5565b60016020525f908152604090205460ff1681565b6040519015158152602001610102565b6101136101683660046109d2565b6104f9565b61018c61017b3660046109d2565b60056020525f908152604090205481565b604051908152602001610102565b6101136101a83660046109e9565b6105eb565b6101136101bb3660046109a5565b6107e7565b61018c6101ce3660046109d2565b6108be565b61018c7f000000000000000000000000000000000000000000000000000000000000000081565b61014a6102083660046109a5565b60036020525f908152604090205460ff1681565b61014a61022a3660046109a5565b60026020525f908152604090205460ff1681565b61018c61024c3660046109a5565b60046020525f908152604090205481565b6102847f000000000000000000000000000000000000000000000000000000000000000081565b6040516001600160a01b039091168152602001610102565b336001600160a01b037f000000000000000000000000000000000000000000000000000000000000000016146102e557604051637bfa4b9f60e01b815260040160405180910390fd5b60035f5460ff1660038111156102fd576102fd61095d565b03610329576003806040516335c1372560e01b8152600401610320929190610a09565b60405180910390fd5b5f5460ff168060038111156103405761034061095d565b61034b906001610a38565b60ff16600381111561035f5761035f61095d565b5f805460ff1916600183600381111561037a5761037a61095d565b02179055505f5460ff1660038111156103955761039561095d565b8160038111156103a7576103a761095d565b6040514281527fb070f30564c7f6b4417cbad108e44deef775fbe1f133668303bd71b13497ac4a9060200160405180910390a350565b336001600160a01b037f0000000000000000000000000000000000000000000000000000000000000000161461042657604051637bfa4b9f60e01b815260040160405180910390fd5b5f805f5460ff16600381111561043e5761043e61095d565b14610466575f546040516305fb5e1b60e01b815261032091839160ff90911690600401610a09565b6001600160a01b0382165f9081526001602052604090205460ff161561049f57604051630ea075bf60e21b815260040160405180910390fd5b6001600160a01b0382165f81815260016020818152604092839020805460ff19168317905591519081527ff93f9a76c1bf3444d22400a00cb9fe990e6abe9dbb333fda48859cfee864543d91015b60405180910390a25050565b335f9081526001602052604090205460ff166105285760405163aba4733960e01b815260040160405180910390fd5b6001805f5460ff1660038111156105415761054161095d565b14610569575f546040516305fb5e1b60e01b815261032091839160ff90911690600401610a09565b335f9081526002602052604090205460ff1615610599576040516317fd8aab60e31b815260040160405180910390fd5b335f818152600260209081526040808320805460ff191660011790556004909152808220859055518492917f4d7787535441abadf1feb20a4be6ef748ae9c25c03364e195afc8bcc8816d98091a35050565b335f9081526001602052604090205460ff1661061a5760405163aba4733960e01b815260040160405180910390fd5b6002805f5460ff1660038111156106335761063361095d565b1461065b575f546040516305fb5e1b60e01b815261032091839160ff90911690600401610a09565b335f9081526002602052604090205460ff1661068a57604051631918952960e01b815260040160405180910390fd5b335f9081526003602052604090205460ff16156106ba5760405163a89ac15160e01b815260040160405180910390fd5b8215806106e657507f000000000000000000000000000000000000000000000000000000000000000083115b156107045760405163e66ea08f60e01b815260040160405180910390fd5b60408051602080820186905281830185905282518083038401815260609092018352815191810191909120335f908152600490925291902054811461075c57604051635054097b60e01b815260040160405180910390fd5b335f908152600360209081526040808320805460ff1916600190811790915587845260059092528220805491929091610796908490610a51565b90915550505f84815260056020908152604091829020549151918252859133917fc100f01fdaa206bf36f50fd3c33f747cd602df3abaed791458e1d50d6084e125910160405180910390a350505050565b336001600160a01b037f0000000000000000000000000000000000000000000000000000000000000000161461083057604051637bfa4b9f60e01b815260040160405180910390fd5b5f805f5460ff1660038111156108485761084861095d565b14610870575f546040516305fb5e1b60e01b815261032091839160ff90911690600401610a09565b6001600160a01b0382165f818152600160209081526040808320805460ff19169055519182527ff93f9a76c1bf3444d22400a00cb9fe990e6abe9dbb333fda48859cfee864543d91016104ed565b5f6003805f5460ff1660038111156108d8576108d861095d565b14610900575f546040516305fb5e1b60e01b815261032091839160ff90911690600401610a09565b82158061092c57507f000000000000000000000000000000000000000000000000000000000000000083115b1561094a5760405163e66ea08f60e01b815260040160405180910390fd5b50505f9081526005602052604090205490565b634e487b7160e01b5f52602160045260245ffd5b6004811061098d57634e487b7160e01b5f52602160045260245ffd5b9052565b6020810161099f8284610971565b92915050565b5f602082840312156109b5575f80fd5b81356001600160a01b03811681146109cb575f80fd5b9392505050565b5f602082840312156109e2575f80fd5b5035919050565b5f80604083850312156109fa575f80fd5b50508035926020909101359150565b60408101610a178285610971565b6109cb6020830184610971565b634e487b7160e01b5f52601160045260245ffd5b60ff818116838216019081111561099f5761099f610a24565b8082018082111561099f5761099f610a2456fea2646970667358221220ba4c5742b6e82a756e1ac6d0e817084b7db4789ae26ce0d65d16881991ab44d464736f6c63430008180033","linkReferences":{}},"methodIdentifiers":{"admin()":"f851a440","candidateCount()":"a9a981a3","commitVote(bytes32)":"3e858923","commitmentOf(address)":"f662b881","currentPhase()":"055ad42e","getResult(uint256)":"995e4339","hasCommitted(address)":"c6dbe15a","hasRevealed(address)":"b9a53013","isWhitelisted(address)":"3af32abf","registerVoter(address)":"38db6dd3","revealVote(uint256,bytes32)":"69edbcda","transitionToNextPhase()":"0f8779c6","unregisterVoter(address)":"7ed17751","voteCount(uint256)":"4fc8a20d"},"id":0}