{"abi":[{"type":"constructor","inputs":[{"name":"_candidateCount","type":"uint256","internalType":"uint256"}],"stateMutability":"nonpayable"},{"type":"function","name":"admin","inputs":[],"outputs":[{"name":"","type":"address","internalType":"address"}],"stateMutability":"view"},{"type":"function","name":"candidateCount","inputs":[],"outputs":[{"name":"","type":"uint256","internalType":"uint256"}],"stateMutability":"view"},{"type":"function","name":"commitVote","inputs":[{"name":"commitment","type":"bytes32","internalType":"bytes32"}],"outputs":[],"stateMutability":"nonpayable"},{"type":"function","name":"commitmentOf","inputs":[{"name":"","type":"address","internalType":"address"}],"outputs":[{"name":"","type":"bytes32","internalType":"bytes32"}],"stateMutability":"view"},{"type":"function","name":"currentPhase","inputs":[],"outputs":[{"name":"","type":"uint8","internalType":"enum VoteChainMVP.Phase"}],"stateMutability":"view"},{"type":"function","name":"getResult","inputs":[{"name":"candidateId","type":"uint256","internalType":"uint256"}],"outputs":[{"name":"","type":"uint256","internalType":"uint256"}],"stateMutability":"view"},{"type":"function","name":"hasCommitted","inputs":[{"name":"","type":"address","internalType":"address"}],"outputs":[{"name":"","type":"bool","internalType":"bool"}],"stateMutability":"view"},{"type":"function","name":"hasRevealed","inputs":[{"name":"","type":"address","internalType":"address"}],"outputs":[{"name":"","type":"bool","internalType":"bool"}],"stateMutability":"view"},{"type":"function","name":"isWhitelisted","inputs":[{"name":"","type":"address","internalType":"address"}],"outputs":[{"name":"","type":"bool","internalType":"bool"}],"stateMutability":"view"},{"type":"function","name":"registerVoter","inputs":[{"name":"voter","type":"address","internalType":"address"}],"outputs":[],"stateMutability":"nonpayable"},{"type":"function","name":"revealVote","inputs":[{"name":"candidateId","type":"uint256","internalType":"uint256"},{"name":"salt","type":"bytes32","internalType":"bytes32"}],"outputs":[],"stateMutability":"nonpayable"},{"type":"function","name":"transitionToNextPhase","inputs":[],"outputs":[],"stateMutability":"nonpayable"},{"type":"function","name":"unregisterVoter","inputs":[{"name":"voter","type":"address","internalType":"address"}],"outputs":[],"stateMutability":"nonpayable"},{"type":"function","name":"voteCount","inputs":[{"name":"","type":"uint256","internalType":"uint256"}],"outputs":[{"name":"","type":"uint256","internalType":"uint256"}],"stateMutability":"view"},{"type":"event","name":"Committed","inputs":[{"name":"voter","type":"address","indexed":true,"internalType":"address"},{"name":"commitment","type":"bytes32","indexed":true,"internalType":"bytes32"}],"anonymous":false},{"type":"event","name":"PhaseChanged","inputs":[{"name":"previousPhase","type":"uint8","indexed":true,"internalType":"enum VoteChainMVP.Phase"},{"name":"newPhase","type":"uint8","indexed":true,"internalType":"enum VoteChainMVP.Phase"},{"name":"timestamp","type":"uint256","indexed":false,"internalType":"uint256"}],"anonymous":false},{"type":"event","name":"Revealed","inputs":[{"name":"voter","type":"address","indexed":true,"internalType":"address"},{"name":"candidateId","type":"uint256","indexed":true,"internalType":"uint256"},{"name":"newVoteCount","type":"uint256","indexed":false,"internalType":"uint256"}],"anonymous":false},{"type":"event","name":"WhitelistUpdated","inputs":[{"name":"voter","type":"address","indexed":true,"internalType":"address"},{"name":"isRegistered","type":"bool","indexed":false,"internalType":"bool"}],"anonymous":false},{"type":"error","name":"AlreadyCommitted","inputs":[]},{"type":"error","name":"AlreadyRegistered","inputs":[]},{"type":"error","name":"AlreadyRevealed","inputs":[]},{"type":"error","name":"CommitmentMismatch","inputs":[]},{"type":"error","name":"InvalidCandidate","inputs":[]},{"type":"error","name":"InvalidPhaseTransition","inputs":[{"name":"current","type":"uint8","internalType":"enum VoteChainMVP.Phase"},{"name":"requested","type":"uint8","internalType":"enum VoteChainMVP.Phase"}]},{"type":"error","name":"NotAdmin","inputs":[]},{"type":"error","name":"NotCommittedYet","inputs":[]},{"type":"error","name":"NotRegistered","inputs":[]},{"type":"error","name":"WrongPhase","inputs":[{"name":"expected","type":"uint8","internalType":"enum VoteChainMVP.Phase"},{"name":"actual","type":"uint8","internalType":"enum VoteChainMVP.Phase"}]}],"bytecode":{"object":"0x60c0346100a957601f6109b338819003918201601f19168301916001600160401b038311848410176100ad578084926020946040528339810103126100a957518015610097573360805260ff195f54165f5560a0526040516108f190816100c2823960805181818160cd015281816102d8015281816106e40152610793015260a0518181816101d00152818161025001526104ef0152f35b60405163e66ea08f60e01b8152600490fd5b5f80fd5b634e487b7160e01b5f52604160045260245ffdfe6080604090808252600480361015610015575f80fd5b5f3560e01c918263055ad42e14610877575081630f8779c61461078057816338db6dd3146106ba5781633af32abf1461067a5781633e858923146105a25781634fc8a20d1461057b57816369edbcda146103905781637ed17751146102ae578163995e4339146101f3578163a9a981a3146101b9578163b9a5301314610179578163c6dbe15a14610139578163f662b88114610100575063f851a440146100ba575f80fd5b346100fc575f3660031901126100fc57517f00000000000000000000000000000000000000000000000000000000000000006001600160a01b03168152602090f35b5f80fd5b82346100fc5760203660031901126100fc5781356001600160a01b03811692908390036100fc576020925f528252805f20549051908152f35b9050346100fc5760203660031901126100fc57356001600160a01b03811691908290036100fc576020915f526002825260ff815f20541690519015158152f35b9050346100fc5760203660031901126100fc57356001600160a01b03811691908290036100fc576020915f526003825260ff815f20541690519015158152f35b82346100fc575f3660031901126100fc57602090517f00000000000000000000000000000000000000000000000000000000000000008152f35b82346100fc5760203660031901126100fc57813560ff5f54168381101561029b576003810361027657508015801561024d575b61023f57602092505f5260058252805f20549051908152f35b505163e66ea08f60e01b8152fd5b507f00000000000000000000000000000000000000000000000000000000000000008111610226565b82516305fb5e1b60e01b815260038186015260449161029990602483019061089a565bfd5b602184634e487b7160e01b5f525260245ffd5b82346100fc5760203660031901126100fc5781356001600160a01b0381811693918490036100fc577f00000000000000000000000000000000000000000000000000000000000000001633036103825760ff5f54168181101561036f578061034e57837ff93f9a76c1bf3444d22400a00cb9fe990e6abe9dbb333fda48859cfee864543d602085835f5260018252805f2060ff198154169055515f8152a2005b610299905f60449451936305fb5e1b60e01b8552840152602483019061089a565b602182634e487b7160e01b5f525260245ffd5b9051637bfa4b9f60e01b8152fd5b82346100fc57806003193601126100fc57813590335f5260206001815260ff825f2054161561056b5760ff5f54168481101561055857600281036105355750335f526002815260ff825f2054161561052557335f526003815260ff825f20541661051557821580156104ec575b6104dc57815181810184815260243584830152838252606082019180831067ffffffffffffffff8411176104c957828552519020335f52858352835f2054036104bb5750335f5260038152815f20600160ff19825416179055825f5260058152815f20805490600182018092116104a857907fc100f01fdaa206bf36f50fd3c33f747cd602df3abaed791458e1d50d6084e125929155835f5260058152825f205492519283523392a3005b601186634e487b7160e01b5f525260245ffd5b635054097b60e01b81528490fd5b604187634e487b7160e01b5f525260245ffd5b815163e66ea08f60e01b81528490fd5b507f000000000000000000000000000000000000000000000000000000000000000083116103fd565b815163a89ac15160e01b81528490fd5b8151631918952960e01b81528490fd5b82516305fb5e1b60e01b815260028187015260449161029990602483019061089a565b602185634e487b7160e01b5f525260245ffd5b815163aba4733960e01b81528490fd5b82346100fc5760203660031901126100fc57602091355f5260058252805f20549051908152f35b82346100fc5760203660031901126100fc57813590335f52600160205260ff815f2054161561066b5760ff5f54168381101561029b57600181036106485750335f52600260205260ff815f205416610639578192335f526002602052815f20600160ff198254161790556020525f2055337f4d7787535441abadf1feb20a4be6ef748ae9c25c03364e195afc8bcc8816d9805f80a3005b516317fd8aab60e31b81529050fd5b90516305fb5e1b60e01b815260018185015260449161029990602483019061089a565b5163aba4733960e01b81529050fd5b9050346100fc5760203660031901126100fc57356001600160a01b03811691908290036100fc576020915f526001825260ff815f20541690519015158152f35b82346100fc5760203660031901126100fc5781356001600160a01b0381811693918490036100fc577f00000000000000000000000000000000000000000000000000000000000000001633036103825760ff5f54168181101561036f578061034e5750825f52600160205260ff825f205416610772575060207ff93f9a76c1bf3444d22400a00cb9fe990e6abe9dbb333fda48859cfee864543d91835f5260018252805f20600160ff198254161790555160018152a2005b9051630ea075bf60e21b8152fd5b82346100fc575f3660031901126100fc577f00000000000000000000000000000000000000000000000000000000000000006001600160a01b0316330361086a575f549060ff8216918383101561029b576003831461084c576001830160ff81116108395760ff169380851015610826575060ff191683175f55514281527fb070f30564c7f6b4417cbad108e44deef775fbe1f133668303bd71b13497ac4a90602090a3005b602190634e487b7160e01b5f525260245ffd5b601185634e487b7160e01b5f525260245ffd5b81516335c1372560e01b815260038186018190526024820152604490fd5b51637bfa4b9f60e01b8152fd5b346100fc575f3660031901126100fc578061089860209260ff5f541661089a565bf35b9060048210156108a75752565b634e487b7160e01b5f52602160045260245ffdfea26469706673582212206e8037820bddc4ac3f7eca136b47634e848155d3a888a331a519ca25572449ea64736f6c63430008180033","linkReferences":{}},"methodIdentifiers":{"admin()":"f851a440","candidateCount()":"a9a981a3","commitVote(bytes32)":"3e858923","commitmentOf(address)":"f662b881","currentPhase()":"055ad42e","getResult(uint256)":"995e4339","hasCommitted(address)":"c6dbe15a","hasRevealed(address)":"b9a53013","isWhitelisted(address)":"3af32abf","registerVoter(address)":"38db6dd3","revealVote(uint256,bytes32)":"69edbcda","transitionToNextPhase()":"0f8779c6","unregisterVoter(address)":"7ed17751","voteCount(uint256)":"4fc8a20d"},"id":22}